:020000040800F2
:1000000000000120E93800087D2400088124000850
:1000100085240008892400088D24000800000000C1
:100020000000000000000000000000009124000813
:100030009524000800000000992400089D24000871
:10004000393900083939000839390008A124000875
:1000500039390008393900083939000839390008B8
:1000600039390008393900083939000839390008A8
:100070003939000839390008393900083939000898
:100080003939000839390008393900083939000888
:10009000393900083939000839390008AD24000819
:1000A000C9240008393900083939000839390008ED
:1000B000D5240008000000000000000039390008C5
:1000C0003939000839390008393900083939000848
:1000D00039390008E12400083939000839390008A5
:1000E000393900083939000800000000000000001C
:1000F0000000000000000000000000000000000000
:1001000000000000393900080000000039390008FB
:10011000000000000000000039390008ED2400084C
:1001200039390008393900083939000839390008E7
:100130003939000800000000000000000000000045
:100140003939000839390008393900080000000041
:1001500039390008393900083939000839390008B7
:100160003939000839390008393900080000000021
:10017000393900083939000800000000000000008B
:0C01800039390008393900083939000805
:10018C000000000000000000000000000000000063
:10019C000000000000000000000000000000000053
:1001AC000000000000000000000000000000000043
:1003900010B5054C237833B9044B13B10448AFF3BF
:1003A00000800123237010BD4800002000000000E1
:1003B00060DE010808B5034B1BB103490348AFF3E6
:1003C000008008BD000000004C00002060DE010835
:1003D00010F8012B11F8013B012A28BF9A42F7D0EF
:1003E000D01A7047034613F8012B002AFBD1181AC4
:1003F0000138704753B94AB9002908BF00281CBF0B
:100400004FF0FF314FF0FF3000F070B9ADF1080C44
:100410006DE904CE00F006F8DDF804E0DDE9022322
:1004200004B070472DE9F047089E0D4604460F467C
:10043000002B4AD18A42944665D9B2FA82F343B17D
:1004400002FA03FCC3F120029F4020FA02F2174394
:100450009C404FEA1C4E1FFA8CF5B7FBFEF1220CB4
:100460000EFB117742EA074201FB05F090420AD9E0
:100470001CEB020201F1FF3780F01C81904240F238
:10048000198102396244121AA4B2B2FBFEF00EFBCB
:10049000102244EA024400FB05F5A5420AD91CEBF0
:1004A000040400F1FF3280F00781A54240F204818C
:1004B0006444023840EA0140641B00211EB1DC4064
:1004C0000023C6E90043BDE8F0878B4208D9002E1F
:1004D00000F0ED800021C6E900050846BDE8F08780
:1004E000B3FA83F1002949D1AB4202D3824200F230
:1004F000F880841A65EB030201201746002EE2D033
:10050000C6E90047DFE702B9FFDEB2FA82F3002B4B
:1005100040F090808A1A4FEA1C471FFA8CFE012196
:10052000B2FBF7F507FB1520220C42EA00420EFB56
:1005300005F0904208D91CEB020205F1FF3802D207
:10054000904200F2CB804546121AA4B2B2FBF7F0FB
:1005500007FB102244EA02440EFB00FEA64508D920
:100560001CEB040400F1FF3202D2A64500F2BB806E
:100570001046A4EB0E0440EA05409FE7C1F12007B6
:100580008B4022FA07FC4CEA030C05FA01F420FA2E
:1005900007F3FD404FEA1C492343B5FBF9F81FFA66
:1005A0008CFE09FB18551C0C44EA054408FB0EF5AB
:1005B000A54202FA01F200FA01F00BD91CEB040487
:1005C00008F1FF3A80F08880A54240F28580A8F1CA
:1005D00002086444641B9DB2B4FBF9F309FB1344A5
:1005E00045EA044403FB0EFEA64508D91CEB0404AF
:1005F00003F1FF356CD2A6456AD9023B644443EA55
:100600000843A3FB0295A4EB0E04AC42C846AE46D9
:1006100056D353D056B1B0EB080264EB0E0404FA83
:1006200007F7CA40CC401743C6E9007418460021BA
:10063000BDE8F087C3F1200102FA03FC20FA01F2C1
:1006400025FA01F19D402A434FEA1C471FFA8CFE10
:10065000B1FBF7F007FB1015110C41EA054100FB57
:100660000EF58D4204FA03F408D91CEB010100F1E8
:10067000FF382FD28D422DD902386144491B92B2E6
:10068000B1FBF7F507FB151142EA014205FB0EF13C
:10069000914208D91CEB020205F1FF3816D29142B3
:1006A00014D9023D6244521A45EA004138E7314606
:1006B000304608E73946E6E61046FBE64845A9D24B
:1006C000B9EB020865EB0C0E013BA3E74546EAE7F0
:1006D0002B4694E74046D1E7D0467BE7023D624493
:1006E00032E708460AE76444023842E7704700BF31
:1006F00002480122042103F0D7BB00BF000C0048D0
:1007000002480022042103F0CFBB00BF000C0048C8
:100710002DE9F047824691465D1A82B0804C8148AF
:100720000A9E1F460135A9EB0A03884600224FF4B2
:10073000006103FB05552A238DF8073003F0B4FB55
:10074000642301220DF10701206805F0D3FA4FEA76
:100750001A2374488DF8073001224FF4006103F02A
:10076000A3FB642301220DF10701206805F0C2FA02
:100770006C488DF807A001224FF4006103F094FB50
:10078000642301220DF10701206805F0B3FA4FEA56
:10079000192364488DF8073001224FF4006103F0FB
:1007A00083FB642301220DF10701206805F0A2FA02
:1007B0005C488DF8079001224FF4006103F074FB50
:1007C000642301220DF10701206805F093FA2B2321
:1007D00054488DF8073000224FF4006103F064FBA9
:1007E000642301220DF10701206805F083FA4FEA26
:1007F00018234C488DF8073001224FF4006103F0B4
:1008000053FB642301220DF10701206805F072FA01
:1008100044488DF8078001224FF4006103F044FB47
:10082000642301220DF10701206805F063FA3B0AF9
:100830003C488DF8073001224FF4006103F034FB8F
:10084000642301220DF10701206805F053FA3548B1
:100850008DF8077001224FF4006103F025FB64233B
:1008600001220DF10701206805F044FA2C232D48E0
:100870008DF8073000224FF4006103F015FB64236C
:100880000DF107010122206805F034FA2548012204
:100890004FF4006103F008FB20684FF47063426B73
:1008A000C360436A02F0080203F010031343428B53
:1008B00002F004021343026843F47063B5F5803F0D
:1008C00053604FF47A7326D3314647F2305205F025
:1008D00011FAA5F5EA42303A06F56A4120684FF46C
:1008E0007A7392B2603105F005FA2268536A506B50
:1008F000518B00F0080003F01003034301F00401E2
:1009000010680B434FF4E06443F4B853D460436081
:1009100002B0BDE8F087AAB2314605F0EBF9E4E792
:1009200000000020000800482DE9F04FED4EEE4D8C
:1009300083B03623304600224FF400618DF8073033
:1009400003F0B2FA64230DF10701286801220027A1
:1009500005F0D0F9304601224FF400618DF80770A0
:1009600003F0A2FA0DF1070128686423012205F0C3
:10097000C1F93A233A4630464FF400618DF807300A
:1009800003F092FA0DF1070128686423012205F0B3
:10099000B1F90523304601224FF400618DF807308C
:1009A00003F082FA0DF1070128686423012205F0A3
:1009B000A1F9B2233A4630464FF400618DF8073072
:1009C00003F072FA64230DF107012868012205F093
:1009D00091F94FF00C04304601224FF400618DF87C
:1009E000074003F061FA64230DF107012868012232
:1009F00005F080F9304601224FF400618DF8074080
:100A000003F052FA64230DF107012868012205F072
:100A100071F9304601224FF400618DF8077003F040
:100A200043FA64230DF107012868012205F062F9F9
:100A30003324304601224FF400618DF8074003F063
:100A400033FA64230DF107012868012205F052F9F9
:100A5000304601224FF400618DF8074003F024FA7C
:100A60000DF1070128686423012205F043F93A4695
:100A70003046B7234FF400618DF8073003F014FAC5
:100A80000DF1070128686423012205F033F930468F
:100A9000352301224FF400618DF8073003F004FA8A
:100AA0000DF1070128686423012205F023F93A4675
:100AB0003046BB234FF400618DF8073003F0F4F9A2
:100AC0000DF1070128686423012205F013F930466F
:100AD000192301224FF400618DF8073003F0E4F987
:100AE0000DF1070128686423012205F003F93A4655
:100AF0003046C0234FF400618DF8073003F0D4F97D
:100B000064230DF107012868012205F0F3F84FF086
:100B10002C028DF80720304601224FF4006103F0CB
:100B2000C3F90DF10701286864230122012405F0AF
:100B3000E1F83A463046C2234FF400618DF80730A1
:100B400003F0B2F9642322460DF10701286805F08D
:100B5000D1F8224630464FF400618DF8074003F08B
:100B6000A3F922460DF107012868642305F0C2F8B5
:100B70003A463046C3234FF400618DF8073003F046
:100B800093F922460DF107012868642305F0B2F8B5
:100B90002246304612234FF400618DF8073003F0EF
:100BA00083F922460DF107012868642305F0A2F8B5
:100BB0003A463046C4234FF400618DF8073003F005
:100BC00073F9642322460DF10701286805F092F8B5
:100BD0004FF020018DF80710224630464FF4006197
:100BE00003F062F90DF107002246014664232868EC
:100BF00005F080F83A463046C6234FF400618DF880
:100C0000073003F051F90DF1070022460146642335
:100C1000286805F06FF8224630460F234FF4006134
:100C20008DF8073003F040F90DF1070064232246E8
:100C30000146286805F05EF84FF0D00A3A46304683
:100C40004FF400618DF807A003F02EF90DF10700B5
:100C5000224601466423286805F04CF822463046B7
:100C6000A4234FF400618DF8073003F01DF90DF156
:100C70000700224601466423286805F03BF8224617
:100C80003046A1234FF400618DF8073003F00CF9D2
:100C90000DF10700224601466423286805F02AF872
:100CA0003A463046E0234FF400618DF8073003F0F8
:100CB000FBF80DF10700642322460146286805F081
:100CC00019F8224630464FF400618DF807A003F072
:100CD000EBF80DF10700642322460146286805F071
:100CE00009F803E000080048000000204FF0040865
:100CF000224630464FF400618DF8078003F0D4F8A7
:100D00000DF10700642322460146286804F0F2FF33
:100D10004FF00D09224630464FF400618DF80790E0
:100D200003F0C2F80DF1070064232246014628684B
:100D300004F0E0FF4FF0110B224630464FF4006103
:100D40008DF807B003F0B0F80DF1070064232246D8
:100D50000146286804F0CEFF4FF013008DF807001D
:100D6000224630464FF4006103F09EF80DF1070C67
:100D7000614622462868642304F0BCFF22463046C0
:100D80002B234FF400618DF8073003F08DF80DF13F
:100D9000070C642322466146286804F0ABFF4FF03D
:100DA0003F0C224630464FF400618DF807C003F037
:100DB0007BF80DF1070E714622462868642304F083
:100DC00099FF2246304654234FF400618DF80730D6
:100DD00003F06AF80DF1070E714622462868642375
:100DE00004F088FF224630464C234FF400618DF812
:100DF000073003F059F80DF1070E714622462868B6
:100E0000642304F077FF2246304618234FF4006134
:100E10008DF8073003F048F80DF1070E7146642392
:100E20002246286804F066FF224630464FF40061EF
:100E30008DF8079003F038F80DF1070E7146224641
:100E40002868642304F056FF224630460B234FF4F3
:100E500000618DF8073003F027F80DF1070E714699
:100E600064232246286804F045FF4FF01F092246FC
:100E700030464FF400618DF8079003F015F80DF13E
:100E8000070E642322467146286804F033FF4FF0B2
:100E9000230E224630464FF400618DF807E003F040
:100EA00003F822460DF107012868642304F022FFAD
:100EB0003A463046E1234FF400618DF8073002F0E6
:100EC000F3FF642322460DF10701286804F012FFA6
:100ED0008DF807A022460DF1070A30464FF4006155
:100EE00002F0E2FF642322465146286804F002FF24
:100EF000224630464FF400618DF8078002F0D4FF9F
:100F0000224651462868642304F0F4FE4FF00C0397
:100F1000224630464FF400618DF8073002F0C4FFDE
:100F2000642322465146286804F0E4FE22463046F7
:100F30004FF400618DF807B002F0B6FF642322463B
:100F40005146286804F0D6FE4FF013008DF80700D4
:100F5000224630464FF4006102F0A6FF6423224689
:100F60005146286804F0C6FE4FF02C028DF8072089
:100F7000304622464FF4006102F096FF6423224679
:100F80005146286804F0B6FE4FF03F0C224630462A
:100F90004FF400618DF807C002F086FF22465146EB
:100FA0002868642304F0A6FE2246304644234FF40A
:100FB00000618DF8073002F077FF2246514628681D
:100FC000642304F097FE2246304651234FF400611B
:100FD0008DF8073002F068FF2246514628686423E6
:100FE00004F088FE224630462F234FF400618DF82E
:100FF000073002F059FF642322465146286804F066
:1010000079FE224630464FF400618DF8079002F0D9
:101010004BFF642322465146286804F06BFE2246AB
:1010200030464FF400618DF8079002F03DFF6423D5
:1010300022465146286804F05DFE4FF020018DF8ED
:101040000710224630464FF4006102F02DFF642362
:1010500022465146286804F04DFE4FF0230E2246EA
:1010600030464FF400618DF807E002F01DFF224684
:1010700051462868642304F03DFE3A463046212359
:101080004FF400618DF8073002F00EFF6423224612
:101090005146286804F02EFE3A4630464FF400616F
:1010A0008DF807B002F000FF2246514664232868FD
:1010B00004F020FE782002F089FC3A4630462923CD
:1010C0004FF400618DF8073002F0EEFE51462246E3
:1010D0002868642304F00EFE03482246414603B00C
:1010E000BDE8F04F02F0E0BE000C004810B5044629
:1010F00082B0018AC068B92300228DF8073002F05F
:10110000D3FE0DF1070120683223012204F0F2FD25
:10111000218A03460122E0681C4602F0C5FE2046F3
:1011200002B010BD30B51C4C1C4B1D48236083B071
:101130004FF4805190230022E0602182019302F05D
:10114000B3FE0422206832230DEB020104F0D2FD2D
:10115000C0B9022269462068322305F083F80546AB
:10116000218AE068012245B902F09EFEBDF80030F8
:1011700028465BBAA38003B030BD02F095FE284636
:1011800003B030BD0546218AE068012202F08CFEE2
:10119000284603B030BD00BF64000020AC01002031
:1011A000000400482DE9F04100248CB0CDE906444C
:1011B000CDE90844644B0A94DA6C644F644DDFF85F
:1011C000988142F00402DA64DA6C02F004020192BF
:1011D000019ADA6C42F08002DA64DA6C02F0800282
:1011E0000292029ADA6C42F00102DA64DA6C02F0DE
:1011F00001020392039ADA6C42F00202DA64DA6CBA
:1012000002F002020492049ADA6C42F00802DA64F4
:10121000DB6C03F0080305932246384640F677015D
:10122000059B02F041FE08214FF09040012202F0A0
:101230003BFE224610214FF0904002F035FE28463A
:1012400001224FF4805102F02FFE22464046042135
:1012500002F02AFE42F2883206A938460323CDE97D
:1012600006230126089402F0A9FC384606A940F698
:1012700077030693CDE90764099402F09FFC40F6DA
:10128000051206A903234FF09040CDE906230894E8
:1012900002F094FC06A918234FF090400693CDE984
:1012A0000764099402F08AFC06A920224FF48813EF
:1012B0004FF09040CDE90623089402F07FFC40F601
:1012C000CF4206A928460323CDE90623089402F05D
:1012D00075FC06A928464FF480530693CDE90764B0
:1012E000099402F06BFC06A9404604230693CDE95D
:1012F0000844079602F062FC3022002306A9284623
:10130000CDE90623089402F059FC0822032306A91C
:1013100010480894CDE9062302F050FC4FF4041362
:1013200028464FF4407206A9CDE90623089402F03E
:1013300045FC22462146172002F07CFB172002F0D4
:10134000B7FB0CB0BDE8F081001002400008004877
:1013500000040048001C0048000C00482DE9F84338
:10136000002007F025FC2E4B2E4DDFF8D0902E4CA0
:10137000DFF8CC802D4F2E4E024600201A6007F079
:1013800017FC2C4B024600201A6007F011FC0346A4
:1013900000202B6007F00CFC03460020C9F8003049
:1013A00007F006FCC8F8000020461AF027FA20468D
:1013B000FF211AF0FBFB4FF6FF71204639801AF02F
:1013C000EBFB0022214628681B4C0BF08FFD3046BA
:1013D0001AF014FA00253046FF211AF0E7FB3046D8
:1013E00029463D801AF0D8FB2A463146D9F800003C
:1013F0000BF07CFD20461AF001FA2046FF211AF07E
:10140000D5FB47F6FF31204639801AF0C5FBD8F8E6
:1014100000002A462146BDE8F8430BF067BD00BF37
:1014200010010020D0000020D4000020B4000020D3
:10143000FC0000201401002008010020DC00002036
:101440000401002038B5374D374C28681CF0AAFA43
:10145000012120601CF098FB206804211CF060FB37
:101460002068F02108F02CF82068142108F042F8D8
:1014700020682E491CF02AFB00231A4620682C4CB9
:10148000012108F0A1F828681CF08CFA01212060E5
:101490001CF07AFB206804211CF042FB2068F0213C
:1014A00008F00EF82068142108F024F8214B206879
:1014B0001A6821491CF00AFB1423002220681F4CE3
:1014C000012108F081F828681CF06CFA01212060E5
:1014D0001CF05AFB206804211CF022FB2068F0213C
:1014E00007F0EEFF2068142108F004F8144B206880
:1014F0001A6814491CF0EAFA00231A462068124CB4
:10150000042108F061F828681CF036FC0F492060BF
:1015100002221CF03DFC20680022BDE83840052175
:101520000CF0FCB9D0000020BC000020A0DE0108B7
:10153000C0000020B8000020B8DE0108C400002070
:10154000B0000020CCDE0108C80000201000002000
:1015500070B53F4D3F4C28681CF024FA01212060F3
:101560001CF012FB206804211CF0DAFA3A492068CA
:101570001CF0ACFA00231A460221206808F024F877
:1015800028681CF00FFA012160601CF0FDFA606809
:1015900004211CF0C5FA314B1B68002B52D1304995
:1015A00060681CF093FA3C2300226068022108F076
:1015B0000BF828681CF0F6F90121A0601CF0E4FA91
:1015C000A06804211CF0ACFAA06826491CF07EFA41
:1015D00050230022A068022107F0F6FF28681CF0C3
:1015E000E1F90121E0601CF0CFFAE06800211CF075
:1015F00097FAE068F02107F063FFE068142107F034
:1016000079FF00231A46E068092107F0DDFF28680A
:101610001CF0C8F9012120611CF0B6FA20690021F4
:101620001CF07EFA2069F02107F04AFF206964214E
:1016300007F060FF2069C823BDE870400022012147
:1016400007F0C2BF084960681CF040FAABE700BF72
:10165000DC000020E0000020E0DE010804000020A3
:10166000F4DE01081CDF010808DF0108704700BF35
:10167000202800D07047054B1A78022A04D01A7827
:10168000032AF7D19B6A18475B6A1847E0030020DA
:10169000F8B51B4C1B4D206A01F012F92B68012B89
:1016A0001CD0022B05D0206A01F0E0F80023237043
:1016B000F8BD154F206A01F0D9F800261349B86823
:1016C00026701CF003FA1249F8681CF0FFF9114863
:1016D0003246072102F0E8FB2E60F8BD0E4D0F499F
:1016E0002B68206A013320222B6001F0D1FC064BCD
:1016F0002A6818690A49BDE8F8401CF0E7B900BF3C
:10170000E0030020A4000020E00000201CDF01080E
:1017100048DF010800080048A00000200001001078
:101720002CDF010870B52E4C86B0206A01F0C8F895
:101730002C49206A0DF10E0201F0C4FB2A4B1B68F4
:10174000012B45D1BDF80E30202B3AD1274D284B27
:101750002968013103F58072296003F1200E4FF0F2
:10176000000C13F8011F12F8010F884218BF0CF18A
:10177000010C7345F5D107EE90CADFED1E6A9FEDAF
:101780001E7A1E4E206AF8EEE77A04A967EEA67A62
:1017900067EE877AFDEEE77AC6ED007A01F0BAF8D7
:1017A00005A9206A01F0F6F8DDE90431346814482F
:1017B0002A680069CDE9001412491CF087F906B0C7
:1017C00070BD0F4B1049D8681CF080F906B070BD91
:1017D000206A01F04BF80023237006B070BD00BFF3
:1017E000E003002000000010A4000020980000206A
:1017F000FFFFFF0F0000C8420000003D9C000020DA
:10180000E00000204CDF0108A8DF01083B4B9842B4
:101810004DD03B4B984210B503D03A4B984216D06E
:1018200010BD394C236903F44073B3F5407F1DD1DB
:10183000364A1378002BF3D0052B04D0042B0CBFB1
:10184000002303231370324B00221A6010BD314A6B
:101850003149136809680133136059BB2F4A126874
:101860009342DDD9BDE81040FEF74ABF4FF4007146
:10187000204602F013FB00282AD1244B1A7822B309
:10188000022A03D122490A6801320A6000225A6002
:10189000FEF72EFF1F49224A09681268214B1F4894
:1018A0001B680A440260204A0B44136010BD0520E7
:1018B00017F088BC1A4A1B491268096817481A4C65
:1018C0001A44194421600260CAE701221A70DDE758
:1018D0004FF48071204602F0E1FA0028A0D10B4BB2
:1018E0001A781AB901221A700122D0E7022AFBD114
:1018F00007490A6801320A60F6E700BF0C030020BE
:1019000074020020C002002000040048780000207B
:10191000CC000020B0000020A4000020AC0000207B
:101920000C00002008000020A8000020000000009B
:1019300010B598B04422002106A81CF04FFA0023ED
:101940004FF40070CDE90133CDE90333059302F084
:10195000D5FA08B172B6FEE702F0B8FA1A4AD2F820
:10196000903023F01803C2F890309FED157B0123CF
:1019700003240222CDE911430893142310921692F6
:1019800013930722022306A8CDE914238DED067BCD
:1019900002F0D0FB034608B172B6FEE704210F2225
:1019A0000DEB0100CDE90124CDE90333059302F0ED
:1019B000D1FE08B172B6FEE718B010BDAFF30080DB
:1019C0000500000000000100001002402DE9F84F62
:1019D000644E654D654F664CDFF8C0A1DFF8C091DD
:1019E000DFF8C081DFF8C0B1304604F093FE28462E
:1019F00004F090FE384604F08DFE0721204602F0E8
:101A0000C5F95C4B186A04F05FF920214FF0904053
:101A100002F0BCF910214FF0904002F0B7F9082114
:101A20004FF0904002F0B2F92021204602F0AEF9CA
:101A3000504604F049F9484604F046F94E4804215E
:101A400002F0A4F920464FF4006102F09FF9402112
:101A5000204602F09BF9404605F014F8204600228B
:101A6000102102F021FA04220F21584603F0E2FE71
:101A700001F0BEFF384604F0EBFD304604F0E8FD0F
:101A8000284604F0E5FD3D4BDA6C22F00102DA64F1
:101A9000DA6C22F00202DA64DA6C22F00402DA6410
:101AA000DA6C22F00802DA64DA6C22F08002DA647E
:101AB00001214FF4804002F011FA01F0A1FF5846D5
:101AC00003F018FFFFF734FFFFF76CFB00F01EFD7B
:101AD00000F056FD00F07EFD294804F079F801225F
:101AE0002021204602F0E0F9504604F071F8484603
:101AF00004F06EF801224021204602F0D5F964205E
:101B000001F064FFFEF710FF17F010FB05F008FE70
:101B100005F01AFE404605F023FC10212046012264
:101B200002F0C2F9174B042238461A7004F0C4FDC3
:101B3000304604F0C1FD284604F0BEFD1249134AA8
:101B4000134B096812681B681248134D0A440B4472
:101B500002602B6020460022BDE8F84F072102F00A
:101B6000A3B900BF0C03002074020020C0020020B3
:101B700000080048E0030020000C0048001002406C
:101B80004801002078000020B00000200C00002058
:101B900008000020AC000020A8000020AC010020BC
:101BA0001002002058030020240100202DE9F04FEE
:101BB00083B001F0E9FEFFF7BBFEFFF7F3FA00F098
:101BC000C7FD00F0EDFA00F013FB00F037FB00F06A
:101BD0009DFC00F0D5FC00F0FDFC00F06DFAB5486E
:101BE0000122402102F060F9B2480122202102F0D6
:101BF0005BF9B0480122102102F056F90022AD48ED
:101C0000072102F051F9642001F0E0FEAA4A002306
:101C100002F8013F0133202BFAD1FFF783FAA748DE
:101C2000A74EA84DDFF81C83DFF81CB3A64FDFF8E2
:101C30001CA3FFF75BFAA54804F03EFDA44804F09E
:101C40003BFD06F089FF05F047FDFFF787FBFFF737
:101C5000F9FBFFF77DFC9F4B1C46186805F074FDEF
:101C600020681BF09FFE012104461BF08DFF2046DB
:101C700000211BF055FF2046F02107F021FC2046F3
:101C800095491BF023FF002309211A46204607F03F
:101C90009BFC19F0A1FF642001F098FE01F082FD89
:101CA0008E4B1B78052B0CBF8D498E4920461BF0AF
:101CB0000DFF19F091FF642001F088FE8A4C8B4BD8
:101CC00022681B688A498B4813440B608A4B1B6847
:101CD0001344336004F0F0FC042001F077FE2B780D
:101CE000012B16D0032B47D0022B2FD0226883491B
:101CF00038681BF0EBFE326823689A4201D2FFF786
:101D000065FE19F069FF042001F060FE2B78012BBD
:101D1000E8D102232B7017F009FA05F001FD6D4B95
:101D20001B68834200F01481754B1B688342DDD031
:101D3000DBF800308342D9D1724B73491A68013203
:101D40001A60724B18681BF0C1FECFE717F0EEF96E
:101D500005F0E6FCDBF80030834266D0D8F80020BE
:101D60008242C3D16A4A12683C2ABFDD1846042366
:101D70002B7005F0E9FCB9E74FF0000985F80090F9
:101D800017F0D4F905F0CCFCD8F800308342ADD17F
:101D9000604B1B68002B7ED16B68002B00F00C8120
:101DA000012B00F009815B4B4248012207211A6098
:101DB00002F07AF8012211463E48002202F074F83F
:101DC000554B564998681BF081FE19F005FF01F04C
:101DD000E9FC424B1B78052B00F019814E4B504912
:101DE00098681BF073FE4F4A1368002B40F01D816A
:101DF0004D4A4E491360484B58681BF067FE464BEE
:101E00004B49D8681BF062FE434B474A1869126879
:101E100048491BF05BFE314B4749186A202201F00C
:101E200037F92E4A0223137060E7394B1B683C2BAD
:101E30007FF75CAF0423D8F800002B7005F084FC1A
:101E40003E4B50461B68019319F0D8FC05215046C3
:101E500019F0B0FEFF21504619F0A8FE384B46F2AB
:101E600039311980504619F097FE2B4B4FF000097D
:101E70000198484553F8040B00934FF00002514677
:101E800009F1010900F0ED800BF050F9B9F1030FF1
:101E9000009BEDD12AE7234B1B68002B40F08F807D
:101EA0001D4B1E4998681BF011FE1A4A022313604D
:101EB0001CE700BF00080048FF000010640000207D
:101EC000A800002078000020C40000200C0300209F
:101ED0007402002010010020C8DF0108E003002088
:101EE000E8DF010854E00108B00000200C000020E9
:101EF000AC000020C002002008000020CCDE010859
:101F000014010020B8000020B8DE0108C000002045
:101F1000CC000020A4000020E0000020A0E0010888
:101F200024E1010804000020A0000020F4DE0108E4
:101F300034E101082CDF0108000100101801002025
:101F4000B4000020DC000020D00000201C01002094
:101F50000423D8F800002B7005F0F6FB464B5046E2
:101F60001B68019319F04AFC0521504619F022FE26
:101F7000FF21504619F01AFE404B46F239311980C4
:101F8000504619F009FE3E4B4FF0000901984845B4
:101F900053F8040B00934FF00002514609F1010978
:101FA00027D00BF0C3F8B9F1030F009BEED1354BEE
:101FB00018680BF08DFD99E6334A1360F3E6334B56
:101FC000186A00F053FC314B314983F800902C4BD8
:101FD00098681BF07BFD2A4B2E49D8681BF076FDD4
:101FE0002D484A46072101F05FFF2C4BC3F80090B3
:101FF0007CE600220AF07AFF019B022B03F1010923
:10200000009BC3D11F4B18680BF062FD6EE61C4BA2
:102010001F4998681BF05AFD194B2149D8681BF0DD
:1020200055FD1E4A0023136060E6154B1D4A586893
:102030001D49002313601BF049FD114B1B49D86853
:102040001BF044FD0E4B174A1869126818491BF023
:102050003DFD0E4B186A00F0D5FC0C4A03231370AB
:1020600044E600220AF042FF019B022B03F1010922
:10207000009B7FF4FDAE39E618010020B40000207B
:10208000E00000201001002004000020E0030020F8
:102090001CDF010848DF010800080048A4000020F8
:1020A000B8E001089800002008DF010858E10108A5
:1020B00078E1010872B6FEE700B51E481E4987B0F8
:1020C0007F2200238260FF22CDE90133CDE9033373
:1020D000C0E90013C0E90323C0E905330593009369
:1020E000C36102F04DFEC8B9002343F6090C114844
:1020F000ADF804C0012201A9CDE904338DF8063002
:1021000002F0A8FE90B90D4B0A48009301226946DF
:1021100003F02EF928B907B05DF804FBFFF7CAFFFA
:10212000E2E7FFF7C7FF07B05DF804FBFFF7C2FF68
:10213000E9E700BF2401002000280040070317241E
:1021400010B5044698B05C22002101A81BF046FEA1
:10215000114B22689A4201D018B010BD4FF40032E2
:102160004FF4807301A80192179302F05DFC80B9CF
:102170000A49D1F89030002243F40043C1F890306E
:102180000320114601F056FC032001F091FC18B029
:1021900010BDFFF78FFFEBE7002800400010024062
:1021A00010B51148114C4FF482720023C0E900426F
:1021B0004FF4E0614FF40072C0E9023128248261DB
:1021C00007210822C0E90433C0E90743C0E9093305
:1021D000C0E90B13426303F0FBFC00B910BDBDE87E
:1021E0001040FFF767BF00BF4801002000300140EA
:1021F000104811494FF4827210B5C0E900124FF433
:10220000007200234FF4E064072182610822C0E9D4
:102210000234C0E90433C0E90733C0E90933C0E937
:102220000B13426303F0D4FC00B910BDBDE81040AD
:10223000FFF740BFAC0100200038004010B5114846
:10224000114C4FF48272C0E900424FF400414FF448
:10225000E0620023C0E902124FF480240721082223
:10226000C0E90433C0E90643C0E90833C0E90A31D4
:10227000C0E90C3203F0ACFC00B910BDBDE8104061
:10228000FFF718BF10020020003C004070B5036843
:10229000464A8EB000249342CDE90844CDE90A4471
:1022A0000C9407D0424A934226D0424A934245D0EA
:1022B0000EB070BD404B1A6E42F480521A661A6E10
:1022C00002F480520192019ADA6C42F00102DA645F
:1022D000DB6C03F00103029303220523C2240225D1
:1022E00008A94FF09040CDE90845CDE90B23029CA9
:1022F00001F064FC0EB070BD2F4B30489A6D42F473
:1023000080429A659A6D02F480420392039ADA6CD5
:1023100042F00202DA64DB6C03F00203049303224E
:1023200005234FF46044022508A9CDE90845CDE90D
:102330000B23049C01F042FC0EB070BD1E4B9A6D45
:1023400042F400429A659A6D02F400420592059AA1
:10235000DA6C42F00102DA64DA6C02F001020692F1
:10236000069ADA6C42F00402DA64DB6C03F00403D0
:1023700007934FF400420326062508A902234FF0D5
:102380009040CDE90823CDE90B65079B01F016FCD1
:102390004FF4A05308930A480C95022308A9CDE9ED
:1023A0000A46099301F00AFC0EB070BD00300140EE
:1023B00000380040003C004000100240000400488B
:1023C0000008004808B51C4A0368934206D01B4A1F
:1023D000934210D01A4A93421AD008BD02F56042C7
:1023E000C221136E23F4805313664FF09040BDE872
:1023F000084001F0CBBC02F5EC321248936D23F497
:10240000804393654FF46041BDE8084001F0BEBCD5
:1024100002F5EA324FF40041936D23F400434FF08C
:102420009040936501F0B2FCBDE8084006484FF4C7
:10243000A05101F0ABBC00BF0030014000380040AB
:10244000003C004000040048000800480A4B1A6E97
:1024500042F001021A661A6E82B002F00102009286
:10246000009A9A6D42F080529A659B6D03F08053FA
:102470000193019B02B0704700100240FEE700BFCD
:10248000FEE700BFFEE700BFFEE700BFFEE700BFBC
:10249000704700BF704700BF704700BF01F084BAAB
:1024A000014803F065BA00BF2401002008B52020D0
:1024B00001F000FD4FF4807001F0FCFCBDE8084025
:1024C0004FF4007001F0F6BC014804F0F3B900BF0E
:1024D00074020020014804F0EDB900BFC0020020E2
:1024E000014804F0FDBA00BF58030020014804F081
:1024F000E1B900BF0C030020034AD2F8883043F44E
:102500007003C2F88830704700ED00E000B51A484B
:102510004FF0804202604F2289B04260174A002388
:10252000CDE90433CDE90633CDE90133C0E9023208
:1025300003930361836104F013F890B94FF480535F
:102540000D48049304A904F0FDF890B900230A484B
:10255000019301A9039304F057FA28B909B05DF873
:1025600004FBFFF7A7FDE9E7FFF7A4FD09B05DF85D
:1025700004FBFFF79FFDE9E7C00200203F420F0088
:1025800000B51248124985B04F220023C0E900125D
:1025900041F28732CDE90133C0E90232039383610E
:1025A00003F0DEFF50B900230848019301A903930B
:1025B00004F02AFA28B905B05DF804FBFFF77AFDAC
:1025C000F1E7FFF777FD05B05DF804FB0C03002091
:1025D0000014004000B51B481B4A026089B04F221E
:1025E000002342604CF24F32CDE90433CDE906338B
:1025F000CDE90133C0E90232C0E9043303938361BA
:1026000003F0AEFF90B94FF480530E48049304A931
:1026100004F098F890B900230A48019301A90393A4
:1026200004F0F2F928B909B05DF804FBFFF742FDA8
:10263000E9E7FFF73FFD09B05DF804FBFFF73AFD5E
:10264000E9E700BF740200200040014000B50368C4
:10265000B3F1804F85B008D0244A93421BD0244A5E
:1026600093422DD005B05DF804FB03F5043300223E
:10267000996D41F0010199659B6D03F00103019390
:102680001C201146019B01F0D5F91C2005B05DF816
:1026900004EB01F00DBA174B996D41F020019965DB
:1026A0009B6D03F020030293372000220121029B3F
:1026B00001F0C0F9372005B05DF804EB01F0F8B97E
:1026C0000C4B196E41F4803119661B6E03F4803394
:1026D0000393182000220121039B01F0ABF918207D
:1026E00005B05DF804EB01F0E3B900BF0014004051
:1026F00000400140001002400368B3F1804F06D053
:10270000104A93420BD0104A934211D070470F4A9F
:10271000936D23F001031C20936501F0D7B902F5F6
:10272000FE323720936D23F02003936501F0CEB97C
:1027300002F550421820136E23F48033136601F023
:10274000C5B900BF00140040004001400010024025
:1027500010B50D480D4C00234FF416520C21C0E962
:102760000042C0E904311A461946C0E90233C0E903
:102770000633C0E9083304F055FF00B910BDBDE8C9
:102780001040FFF797BC00BF5803002000380140FD
:1027900010B504469EB000215C2207A8CDE90211C5
:1027A000CDE9041106911BF019FB214B22689A42D6
:1027B00001D01EB010BD012307A8079302F034F921
:1027C00058BB1C4B1A6E42F480421A661A6E02F411
:1027D00080420092009ADA6C9FED117B42F0010278
:1027E000DA64DB6C8DED027B9FED0F7B03F0010360
:1027F000019302A907234FF090408DED047B0693CF
:10280000019A01F0DBF900221146252001F012F9AE
:10281000252001F04DF91EB010BDFFF74BFCD0E7AD
:10282000001600000200000000000000030000008D
:10283000003801400010024008B50268094B9A4276
:1028400000D008BD084A136E23F480434FF0904037
:1028500013664FF4B05101F099FABDE80840252005
:1028600001F034B9003801400010024010B582B0C8
:10287000044648F68103002210214FF09040ADF845
:10288000003001F011FB322302226946204603F09A
:1028900031FA0122044610214FF0904001F004FB70
:1028A00000230193019BB3F57A7F06D2019B01338C
:1028B0000193019BB3F57A7FF8D3204602B010BD97
:1028C00010B582B004464FF69273002210214FF0EB
:1028D0009040ADF8003001F0E7FA32230222694659
:1028E000204603F007FA0122044610214FF09040E1
:1028F00001F0DAFA00230193019BB3F57A7F06D247
:10290000019B01330193019BB3F57A7FF8D32046F5
:1029100002B010BD70B582B00646192300224FF0F8
:1029200090400D4610218DF8033001F0BDFA32239E
:1029300001220DF10301304603F0DCF93223044695
:1029400001220DF10201304603F08CFC0122044308
:1029500010214FF0904001F0A7FA00230193019B52
:10296000B3F57A7FE4B206D2019B01330193019B58
:10297000B3F57A7FF8D39DF902209DF80230002A42
:10298000BDBF5B42C3F385035B429B0820462B60BF
:1029900002B070BD70B582B006461A2300224FF017
:1029A00090400D4610218DF8033001F07DFA32235E
:1029B00001220DF10301304603F09CF93223044655
:1029C00001220DF10201304603F04CFC01220443C8
:1029D00010214FF0904001F067FA00230193019B12
:1029E000B3F57A7FE4B206D2019B01330193019BD8
:1029F000B3F57A7FF8D39DF802302046893B2B60EF
:102A000002B070BD70B58AB048F2CD4304460022D2
:102A100010214FF09040ADF8203001F045FA3223FC
:102A2000022208A9204603F065F90122054610217B
:102A30004FF0904001F038FA00230993099BB3F559
:102A40007A7F06D2099B01330993099BB3F57A7FFC
:102A5000F8D3A423002210214FF09040ADF81C3091
:102A600001F022FA3223022207A9204603F042F99C
:102A70000122102106464FF0904001F015FA002384
:102A80000893089BB3F57A7F06D2089B013308931D
:102A9000089BB3F57A7FF8D34BF69173002210218F
:102AA0004FF09040ADF8183001F0FEF932230222C9
:102AB00006A9204603F01EF92E43012210210546E7
:102AC0004FF0904001F0F0F900230793079BB3F516
:102AD0007A7FF6B206D2079B01330793079BB3F5C3
:102AE0007A7FF8D34FF69273002210214FF0904076
:102AF000ADF8143001F0D8F93223022205A920469E
:102B000003F0F8F835430122102106464FF09040BB
:102B100001F0CAF900230693069BB3F57A7FEDB264
:102B200006D2069B01330693069BB3F57A7FF8D352
:102B30008E23002210214FF09040ADF8103001F0AC
:102B4000B3F93223022204A9204603F0D3F82E431E
:102B50000122102105464FF0904001F0A5F9002315
:102B60000593059BB3F57A7FF6B206D2059B013338
:102B70000593059BB3F57A7FF8D38F2300221021AC
:102B80004FF09040ADF80C3001F08EF93223022264
:102B900003A9204603F0AEF8354301221021064672
:102BA0004FF0904001F080F900230493049BB3F5AB
:102BB0007A7FEDB206D2049B01330493049BB3F5F4
:102BC0007A7FF8D38D23002210214FF09040ADF88A
:102BD000083001F069F93223022202A9204603F0ED
:102BE00089F82E430122102105464FF0904001F054
:102BF0005BF900230393039BB3F57A7FF6B206D209
:102C0000039B01330393039BB3F57A7FF8D348F614
:102C10008153002210214FF09040ADF8043001F0B4
:102C200043F93223022201A9204603F063F801226E
:102C3000044610214FF0904001F036F90023029332
:102C4000029B3543B3F57A7FEDB206D2029B013386
:102C50000293029BB3F57A7FF8D344EA0500C0B231
:102C60000AB070BD70B58AB048F2CD730446002238
:102C700010214FF09040ADF8203001F015F93223CB
:102C8000022208A9204603F035F80122054610214A
:102C90004FF0904001F008F900230993099BB3F528
:102CA0007A7F06D2099B01330993099BB3F57A7F9A
:102CB000F8D3A423002210214FF09040ADF81C302F
:102CC00001F0F2F83223022207A9204603F012F89D
:102CD0000122102106464FF0904001F0E5F8002354
:102CE0000893089BB3F57A7F06D2089B01330893BB
:102CF000089BB3F57A7FF8D34FF29173002210212D
:102D00004FF09040ADF8183001F0CEF83223022297
:102D100006A9204602F0EEFF2E43012210210546AF
:102D20004FF0904001F0C0F800230793079BB3F5E4
:102D30007A7FF6B206D2079B01330793079BB3F560
:102D40007A7FF8D344F2C003002210214FF0904064
:102D5000ADF8143001F0A8F83223022205A920466C
:102D600002F0C8FF35430122102106464FF0904083
:102D700001F09AF800230693069BB3F57A7FEDB233
:102D800006D2069B01330693069BB3F57A7FF8D3F0
:102D90004FF69273002210214FF09040ADF81030A2
:102DA00001F082F83223022204A9204602F0A2FF99
:102DB0002E430122102105464FF0904001F074F897
:102DC00000230593059BB3F57A7FF6B206D2059BE7
:102DD00001330593059BB3F57A7FF8D38E23002248
:102DE00010214FF09040ADF80C3001F05DF8322327
:102DF000022203A9204602F07DFF35430122102163
:102E000006464FF0904001F04FF800230493049BD6
:102E1000B3F57A7FEDB206D2049B01330493049B91
:102E2000B3F57A7FF8D38F23002210214FF0904022
:102E3000ADF8083001F038F83223022202A920460A
:102E400002F058FF2E430122102105464FF090401A
:102E500001F02AF800230393039BB3F57A7FF6B2BF
:102E600006D2039B01330393039BB3F57A7FF8D318
:102E70008D23002210214FF09040ADF8043001F076
:102E800013F83223022201A9204602F033FF012267
:102E9000044610214FF0904001F006F80023029301
:102EA000029B3543B3F57A7FEDB206D2029B013324
:102EB0000293029BB3F57A7FF8D344EA0500C0B2CF
:102EC0000AB070BD2DE9F047102688B004461746B9
:102ED0004FF090400022884631468DF81C6000F08B
:102EE000E3FF3223012207A9204602F003FF322329
:102EF00001220DF106010546204603F0B3F93146E3
:102F0000824601224FF0904000F0CEFF002306934E
:102F1000069BB3F57A7F06D2069B01330693069B88
:102F2000B3F57A7FF8D39DF806308DF81D30002276
:102F30008D2310214FF090408DF81C3000F0B4FF2D
:102F40003223022207A9204602F0D4FE01220646BF
:102F500010214FF0904000F0A7FF00230593059B40
:102F6000B3F57A7F06D2059B01330593059BB3F534
:102F70007A7FF8D31323002210214FF090408DF870
:102F80001C3000F091FF07A932230122204602F0F5
:102F9000B1FE322301220DF107018146204603F0E4
:102FA00061F945EA0A050122824610214FF090405E
:102FB00000F07AFF00230493049BB3F57A7FEDB20F
:102FC00006D2049B01330493049BB3F57A7FF8D3B4
:102FD0002E4349EA06099DF807603E800022102131
:102FE0004FF090408DF80C2000F05EFF322301225C
:102FF00003A9204602F07EFE4AEA090A5FFA8AFA2D
:103000000546074650B34FF69273002210214FF049
:103010009040ADF8083000F047FF3223022202A9A9
:10302000204602F067FE0122044610214FF0904036
:1030300000F03AFF00230393039BB3F57A7F4AEA3B
:10304000050506D2039B01330393039BB3F57A7FF7
:10305000F8D345EA040008B0BDE8F08732233246D1
:103060004146204603F0FEF80122054610214FF0AC
:10307000904000F019FF0797079BB3F57A7FC2D203
:10308000079B01330793079BB3F57A7FF8D3BAE721
:103090002DE9F04186B004460E461546FFF7E2FDE5
:1030A00048F681130022102107464FF09040ADF8FA
:1030B000103000F0F9FE3223022204A9204602F06B
:1030C00019FE0122804610214FF0904000F0ECFEE6
:1030D00000230593059BB3F57A7F06D2059B013348
:1030E0000593059BB3F57A7FF8D3A2230022102124
:1030F0004FF090408DF80C308DF80D5000F0D4FE5C
:103100003223022203A9204602F0F4FD47EA080711
:103110000122804610214FF0904000F0C5FE0023B0
:103120000493049BB3F57A7F06D2049B0133049386
:10313000049BB3F57A7FF8D38023002210214FF04F
:1031400090408DF8083000F0AFFE3223012202A932
:10315000204602F0CFFD2A4632233146054620465E
:1031600002F0C8FD0122054310214FF0904000F00D
:103170009BFE00230393039BB3F57A7F47EA08077E
:10318000EDB206D2039B01330393039BB3F57A7F21
:10319000F8D348F68133002210214FF09040ADF86B
:1031A000043000F081FE3223022201A9204602F001
:1031B000A1FD0122044610214FF0904000F074FE62
:1031C00000230293029BB3F57A7F45EA070506D2F6
:1031D000029B01330293029BB3F57A7FF8D345EA51
:1031E000040006B0BDE8F0812DE9F04395B048F643
:1031F0008103044600224FF090400D461021ADF8A7
:103200004C3000F051FE3223022213A9204602F076
:1032100071FD012210214FF0904000F045FE002387
:103220000393039BB3F57A7F06D2039B0133039389
:10323000039BB3F57A7FF8D300230193019BC44A23
:10324000934205D8019B01330193019B9342F9D925
:1032500081222B788DF84C20102100224FF09040D5
:103260008DF84D3000F020FE3223022213A92046B3
:1032700002F040FD0122064610214FF0904000F080
:1032800013FE00230993099BB3F57A7F06D2099BAD
:1032900001330993099BB3F57A7FF8D3D5ED017A11
:1032A000DFEDAC6AB8EE677A0022C7EE267A10210D
:1032B0004FF09040FCEEE77A17EE908A4FEA184301
:1032C0008DF84D3086238DF84C3000F0EDFD322323
:1032D000022213A9204602F00DFD01228146102191
:1032E0004FF0904000F0E0FD00230C930C9BB3F5F1
:1032F0007A7FC8F307275FFA88F806D20C9B013360
:103300000C930C9BB3F57A7FF8D38723002210210E
:103310004FF090408DF84D708DF84C3000F0C4FDAA
:103320003223022213A9204602F0E4FC01220746C0
:1033300010214FF0904000F0B7FD00230B930B9B42
:10334000B3F57A7F06D20B9B01330B930B9BB3F53E
:103350007A7FF8D38823002210214FF090408DF817
:103360004D808DF84C3000F09FFD3223022213A9CE
:10337000204602F0BFFC0122804610214FF0904011
:1033800000F092FD00230A930A9B46EA0906B3F572
:103390007A7FF6B206D20A9B01330A930A9BB3F5F1
:1033A0007A7FF8D33E436B7C8DF84D3048EA0600B7
:1033B000892300221021C7B24FF090408DF84C3085
:1033C00000F072FD3223022213A9204602F092FC83
:1033D0000122064610214FF0904000F065FD0023C9
:1033E0000893089BB3F57A7F06D2089B01330893B4
:1033F000089BB3F57A7FF8D3AB7C8DF84D30002273
:103400008B2310214FF090408DF84C3000F04CFD94
:103410003223022213A9204602F06CFC3E43F7B28D
:103420000122064610214FF0904000F03DFD0023A0
:103430000793079BB3F57A7F06D2079B0133079367
:10344000079BB3F57A7FF8D3EB7C8DF84D300022E3
:103450008C2310214FF090408DF84C3000F024FD6B
:103460003223022213A9204602F044FC3E43F7B265
:103470000122064610214FF0904000F015FD002378
:103480000693069BB3F57A7F06D2069B013306931B
:10349000069BB3F57A7FF8D32B7D8DF84D30002253
:1034A0009D2310214FF090408DF84C3000F0FCFC33
:1034B0003223022213A9204602F01CFC3E43F7B23D
:1034C0000122064610214FF0904000F0EDFC002351
:1034D0000593059BB3F57A7F06D2059B01330593CF
:1034E000059BB3F57A7FF8D36B7D8DF84D300022C4
:1034F0009E2310214FF090408DF84C3000F0D4FC0A
:103500003223022213A9204602F0F4FB3E43F7B215
:103510000122064610214FF0904000F0C5FC002328
:103520000493049BB3F57A7F06D2049B0133049382
:10353000049BB3F57A7FF8D32B7A3E43F6B2AF2BD8
:10354000374609D96B7A702B40F2FF8004E000BF48
:103550007F841E00D72374429F22EB7D8DF8482084
:10356000102100224FF090408DF8493000F09CFC73
:103570003223022212A9204602F0BCFB0122064699
:1035800010214FF0904000F08FFC00231393139B09
:10359000B3F57A7F06D2139B01331393139BB3F5D4
:1035A0007A7FF8D3EB891B0A8DF845300022A023DF
:1035B00010214FF090408DF8443000F075FC32231C
:1035C000022211A9204602F095FB3743012206464C
:1035D00010214FF0904000F067FC00231293129BE3
:1035E000B3F57A7F06D2129B01331293129BB3F587
:1035F0007A7FF8D3AB7B8DF841300022A1231021D4
:103600004FF090408DF8403000F04EFC3223022203
:1036100010A9204602F06EFB3E430122074610210E
:103620004FF0904000F040FC00231193119BB3F544
:103630007A7F06D2119B01331193119BB3F57A7FE8
:10364000F8D32B7E8DF83D300022C02310214FF09F
:1036500090408DF83C3000F027FC322302220FA965
:10366000204602F047FB3E430122074610214FF05F
:10367000904000F019FC00231093109BB3F57A7F63
:1036800006D2109B01331093109BB3F57A7FF8D3C9
:10369000C1216B7E8DF83810002210214FF0904030
:1036A0008DF8393000F000FC322302220EA92046AA
:1036B00002F020FB46EA07050122102106464FF0E2
:1036C000904000F0F1FB00230F930F9BB3F57A7F3E
:1036D00006D20F9B01330F930F9BB3F57A7FF8D37C
:1036E00048F68113002210214FF09040ADF80830C9
:1036F00000F0DAFB3223022202A9204602F0FAFA95
:10370000012210214FF0904000F0CEFB00230E93D9
:103710000E9BB3F57A7F45EA060506D20E9B013370
:103720000E930E9BB3F57A7FF8D300230293029B8E
:103730001B4A934205D8029B01330293029B93429A
:10374000F9D9284615B0BDE8F083AB7D8DF84D3032
:103750000022A62310214FF090408DF84C3000F04D
:10376000A3FB322313A90222204602F0C3FA01224E
:10377000074610214FF0904000F096FB00230D9378
:103780000D9BB3F57A7F06D20D9B01330D930D9BF4
:10379000B3F57A7FF8D346EA0700C7B2DCE600BF8C
:1037A0007F841E00F0B54749474C484A484BA36206
:1037B0008DB00025C4E908124FF090402A46082138
:1037C000CDE90655CDE90855CDE90A55059500F036
:1037D0006BFB0295029B3F4A934205D8029B013343
:1037E0000293029B9342F9D9012208214FF09040A5
:1037F00000F05AFB00230393039B364A934205D8FB
:10380000039B01330393039B9342F9D9324B334A11
:103810000A9288218DF8141006933148099047F2D6
:10382000C00102220C23ADF81C108DF81E20ADF84B
:1038300022300DF1140CBCE80F002A4D276A0FC589
:103840009CE80700012685E80700002210214FF0C0
:1038500090408DF8076000F027FB322332460DF1CF
:103860000701384602F046FA322332460DF10601CE
:10387000384602F0F7FC324610214FF0904000F03D
:1038800013FB00230493049BB3F57A7F06D2049BB9
:1038900001330493049BB3F57A7FF8D39DF8063087
:1038A00003F07803082B0CBF002305232370237833
:1038B0000BB10DB0F0BD0B49206A0DB0BDE8F04072
:1038C000FFF792BC48010020E00300209116000899
:1038D000251700087F841E008050DE1972C708FF7C
:1038E00004FF0B23E4030020DFF834D0FEF704FECE
:1038F0000C480D490D4A002302E0D458C45004334B
:10390000C4188C42F9D30A4A0A4C002301E0136020
:103910000432A242FBD31AF069FAFEF747F9FEE738
:10392000000001200000002048000020C8390208E3
:10393000480000208C6D0020FEE7000038B50F4BDA
:103940001B780BB9012038BD0D494FF47A7205463A
:10395000B2FBF3F30868B0FBF3F000F0C9F80446DB
:103960000028EFD10F2DEDD8024629464FF0FF3049
:1039700000F060F8034B20461D6038BD1C0000209D
:10398000180000202000002010B5032000F040F8AF
:103990000F20FFF7D3FF10B10124204610BD0446CD
:1039A000FEF754FD204610BD034A044B11681B78F6
:1039B0000B441360704700BF0C0400201C00002063
:1039C000014B1868704700BF0C04002038B504464E
:1039D000FFF7F6FF631C054602D0044B1B781C441E
:1039E000FFF7EEFF431BA342FAD338BD1C000020B3
:1039F0004FF0E022136923F002031361704700BF08
:103A00004FF0E022136943F002031361704700BFD7
:103A10000749CA6803024FF6FF0003F4E06302405F
:103A2000134343F0BF6343F40033CB60704700BFE0
:103A300000ED00E01C4BDB68C3F3022300B5C3F1CB
:103A4000070EBEF1040F03F1040C28BF4FF0040E63
:103A5000BCF1060F1BD9033B4FF0FF3C0CFA03FCF3
:103A600022EA0C024FF0FF3C0CFA0EFC21EA0C019A
:103A70009940002841EA02010CDB00F16040090195
:103A800000F56140C9B280F800135DF804FB002224
:103A90001346E7E7054B00F00F0009010344C9B2E4
:103AA00019765DF804FB00BF00ED00E0FCEC00E0DF
:103AB000002807DB044A4109012300F01F0083406E
:103AC00042F82130704700BF00E100E000280CDB25
:103AD0004309064900F01F0020330122824041F8CB
:103AE0002320BFF34F8FBFF36F8F704700E100E0DB
:103AF0000138B0F1807F10D210B44FF0E023084CB1
:103B000058614FF0F00C84F823C0002207211046C2
:103B10009A615DF8044B196170470120704700BF3E
:103B200000ED00E090F82520022A034606D004228A
:103B3000C2630022012083F8242070470168426C90
:103B4000086820F00E000860086820F00100086096
:103B50004FF0010C196C02F01C020CFA02F24A60E0
:103B60000022002083F825C083F82420704700BF7E
:103B700090F82520022A03D00422C2630120704756
:103B80000168426C10B50C6824F00E040C600C68DF
:103B900024F001040C6002F01C02046C012101FA03
:103BA00002F26260826B80F82510002480F82440C5
:103BB00012B19047204610BD104610BD2DE9F04FC0
:103BC0000C6885B0002C77D04FF0000C694E63462E
:103BD0004FF0010B8E460BFA03F717EA040A65D083
:103BE000DEF8041001F00302551E012D67D9032AE7
:103BF00040F0AB8002FA0CF2D54307683D402A43FF
:103C000011F4403F026051D05B4D2A6E42F0010238
:103C10002A662A6E02F001020392039A23F003023D
:103C200002F1804202F5803203F003054FEA850974
:103C300097680F2505FA09F8B0F1904F27EA0807B1
:103C400015D04E4DA84200F08B804D4DA84200F09B
:103C50008B804C4DA8427DD04B4DA84213BF072509
:103C60004FF0040808FA09F505FA09F52F439760A3
:103C7000B2686FEA0A05CF0254BF2A404AEA02023C
:103C8000B260F2688F0254BF2A404AEA0202F26030
:103C900072688F0354BF2A404AEA02027260326897
:103CA000C90354BF2A404AEA02023260013334FA9F
:103CB00003F20CF1020C8ED105B0BDE8F08FD0F804
:103CC0000890DEF80C504FF0030808FA0CF829EAC7
:103CD000080905FA0CF545EA090585606FEA08054B
:103CE000D0F8048028EA0708C1F300179F4047EA8C
:103CF00008074760C76807EA0508DEF8087007FA92
:103D00000CF747EA0807022AC76002FA0CF27FF4B0
:103D100074AF4FEAD30900EB890903F00708D9F81B
:103D200020700097DEF810704FEA880807FA08F74D
:103D300001970F2707FA08F8009F27EA0808019F54
:103D400047EA0807C9F8207057E7032505FA0CF57C
:103D5000ED43CFE74FF0030808FA09F52F4386E754
:103D60000BFA09F52F4382E74FF0020808FA09F52C
:103D70002F437CE70004014000100240000400488B
:103D800000080048000C00480010004800297AD0C4
:103D90002DE9F04F00233C4EDFF8FCB04FF00F0947
:103DA0004FF0030A49E0584562D0384FB84263D01B
:103DB000374FB84264D0374FB84214BF07270427A3
:103DC00007FA04F4A44513D1346824EA0E043460DD
:103DD000746824EA0E047460F46824EA0E04F46043
:103DE000B46824EA0E04B460AC6824EA0804AC6049
:103DF00005685C000AFA04F44FEAD30C254300EB93
:103E00008C0C056003F00705DCF820E0AD0009FA32
:103E100005F52EEA0505CCF82050856825EA04054D
:103E20008560456825EA02024260C26822EA04020F
:103E3000C260013331FA03F218D001229A4012EA2B
:103E4000010EF6D023F0030505F1804505F5803518
:103E500003F00304D5F808C0A40009FA04F8B0F18F
:103E6000904F08EA0C0C9ED10024ABE7BDE8F08F20
:103E7000012707FA04F4A5E7022707FA04F4A1E7EB
:103E80000AFA04F49EE77047000401400008004865
:103E9000000C004800100048000400480369194263
:103EA00014BF0120002070470AB181617047816210
:103EB000704700BF044A5169014200D1704708B5FC
:103EC0005061FDF7D5FB08BD00040140024A1368AC
:103ED00043F480731360704700700040B0F5804F6A
:103EE000084601D000F04CB800F066B8024B1868E4
:103EF00000F4C060704700BF00700040B0F5007F64
:103F00000ED01C4A136803F4C063B3F5806F2DD044
:103F1000136823F4C06343F4806300201360704788
:103F200014490B6803F4C063B3F5007F1ED00B681F
:103F3000114A23F4C06343F400730B6013680F4A03
:103F4000322000FB03F34869A2FB03239B0C4005CE
:103F500003F1010306D500E023B14A69520503F1DC
:103F6000FF33F9D4034B5B695B0501D40020704734
:103F700003207047007000401800002083DE1B43C0
:103F80000B490C4A0B6823F007030B6013690128E7
:103F900043F00403136108D040BF20BF20BF054A8F
:103FA000136923F004031361704730BFF7E700BFC4
:103FB0000070004000ED00E00C490D4A0B6823F052
:103FC000070343F001030B601369012843F0040366
:103FD000136108D040BF20BF20BF054A136923F0FA
:103FE00004031361704730BFF7E700BF0070004063
:103FF00000ED00E030B5204DAB6DDB0083B0044632
:104000001CD5FFF773FFB0F5007F29D0802C13D8A3
:104010002FD0A4F17004B4FA84F4640917490B6832
:1040200023F0070323430B60086800F00700001B20
:1040300018BF012003B030BD0324EFE7AB6D43F0A0
:104040008053AB65AB6D03F080530193019BFFF789
:104050004DFFAB6DB0F5007F23F08053AB65D5D13C
:10406000802C04D9A02C8CBF02240124D6E7002484
:10407000D4E70224D2E700BF001002400020024033
:10408000284A9368D26813F00C0308D00C2B38D060
:10409000042B34D0082B244818BF00207047214A35
:1040A0001168090754BFD2F8942012681F4954BF01
:1040B000C2F30322C2F3031251F8220003B30C2B04
:1040C0002DD1184BDB6803F00303022B25D0164AD1
:1040D000032B08BF1046134BD968DA68DB68C3F3BB
:1040E0004163C2F30622C1F30211013300FB02F265
:1040F00001315B00B2FBF1F2B2FBF3F070470C4808
:10410000704702F00302012AC9D0064BDB6803F0B6
:104110000303022B4FF00000D9D10548DBE7002054
:10412000704700BF0010024000127A00ACE10108A5
:104130000024F400002800F082822DE9F043944A24
:1041400003689568D6680446D80683B005F00C0568
:1041500006F003062ED5002D00F023810C2D00F073
:104160001D81A3698A4F002B00F093813B6843F0C7
:1041700001033B60FFF724FC804606E0FFF720FCCC
:10418000A0EB0800022800F294813B689B07F5D55C
:104190003B6843F008033B603B68226A23F0F0036E
:1041A00013433B607B68E26923F47F4343EA0223C5
:1041B0007B602368D90700F1C280990723D5042DBD
:1041C00000F057810C2D00F05181E368704E002BF8
:1041D00000F0D981336843F480733360FFF7F0FB5C
:1041E000074605E0FFF7ECFBC01B022800F26181E7
:1041F00033685B05F6D57368226923F0F85343EA08
:10420000026373602368190719D56369604E002B38
:1042100000F01881D6F8943043F00103C6F89430CA
:10422000FFF7CEFB074605E0FFF7CAFBC01B0228DD
:1042300000F23F81D6F894309A07F5D523685E07DF
:104240003FD5534B9A6DD00000F19B819A6D42F09F
:1042500080529A659B6D03F080530193019B012668
:104260004C4F3B68D90540F1F781A368012B00F062
:104270009C81052B00F01B82454FD7F8902022F03F
:104280000102C7F89020D7F8902022F00402C7F866
:104290009020002B40F09081FFF792FB41F288398B
:1042A000804606E0FFF78CFBA0EB0800484500F2D3
:1042B0000081D7F890309807F4D4002E40F0DE81CA
:1042C0002368990618D5636A314E002B00F0A2814D
:1042D000D6F8983043F00103C6F89830FFF770FB2A
:1042E000074605E0FFF76CFBC01B022800F2E180E7
:1042F000D6F898309A07F5D5A36A002B00F03F81D5
:10430000022B00F0EF800C2D00F08C80204C2368F5
:1043100023F080732360FFF753FB054605E0FFF7AA
:104320004FFB401B022800F2C480236813F0007387
:10433000F5D1E168184A0A401846E26073E0082D9A
:1043400076D00C2D72D06368B3F5803F00F0B58055
:10435000B3F5A02F00F09E810D4F3A6822F4803211
:104360003A603A6822F480223A60002B40F0AA803A
:10437000FFF726FB804606E0FFF722FBA0EB0800D4
:10438000642800F296803B689803F5D4236814E70C
:104390000010024000700040FCFFEEFE012E7FF492
:1043A000E0AEA84B1B68990739D4A64B206A1A685F
:1043B000120756BFD3F894301B681B0903F0F003B3
:1043C000984200F20F819F4B1A6842F008021A606F
:1043D0001A6822F0F00202431A605A68E16922F476
:1043E0007F4242EA01225A60002D00F04D81FFF722
:1043F00047FE944B944A9B68C3F30313D35C934AE0
:1044000003F01F0320FA03F31068914A1360FFF7CB
:1044100095FA40B92368D9077FF5CFAE8FE7A36936
:10442000002BC2D1012003B0BDE8F083032E8AD156
:10443000844A126892037FF5C0AE6268002A7FF456
:10444000BCAEEFE7D6F8943023F00103C6F8943001
:10445000FFF7B6FA074604E0FFF7B2FAC01B0228DE
:1044600027D8D6F894309B07F6D4E7E6022E7FF4DF
:10447000ACAE744A1268520502D5E268002AD1D067
:10448000704920694A6822F0F85242EA00624A60A4
:10449000B9E63B6823F001033B60FFF791FA8046E1
:1044A0003B689807B6D5FFF78BFAA0EB0800022807
:1044B000F6D9032003B0BDE8F083624A136843F4E1
:1044C00080331360FFF77CFADFF87881074604E059
:1044D000FFF776FAC01B6428EBD8D8F800309B03AE
:1044E000F6D553E7574EE26AF36803F003019142B1
:1044F00000F0EB800C2D95D0524D2B685E0191D4CD
:104500002B6823F080732B60FFF75AFA064604E00D
:10451000FFF756FA801B0228CBD82B689801F7D4F6
:10452000E9684C4BE26A206B464E0B401343D4E9DA
:104530000D1243EA012343EAC263D4E90F120138A2
:10454000490843EA00130139520843EA4153013A4A
:1045500043EA4263EB602B6843F080732B60EB68A7
:1045600043F08073EB60FFF72BFA044604E0FFF79B
:1045700027FA001B02289CD833689901F7D5002040
:1045800051E700266CE6336823F480733360FFF74D
:1045900017FA074604E0FFF713FAC01B022888D871
:1045A00033685805F7D423682DE6264AD2F89030B0
:1045B00043F00103C2F89030FFF702FADFF884807D
:1045C000074641F2883905E0FFF7FAF9C01B484574
:1045D0003FF66FAFD8F890309B07F5D5002E3FF42B
:1045E0006FAE4BE0FFF706FD00287FF41BAF154BC5
:1045F0001A6842F008021A601A68216A22F0F00272
:104600000A431A605A68E16922F47F4242EA0122B1
:104610005A60ECE6D6F8983023F00103C6F89830DB
:10462000FFF7CEF9074605E0FFF7CAF9C01B0228DD
:104630003FF63FAFD6F898309B07F5D45CE60120F3
:10464000704700BF0010024094E1010820000020E4
:10465000180000208C809D013B6843F480733B6010
:10466000FFF7AEF980463B68DA053FF5FEADFFF790
:10467000A7F9A0EB08000228F5D91AE7344A936D90
:1046800023F0805393651BE6FFF7B4FC00283FF44A
:10469000AEAEC7E603F18043A3F53C331A6842F49B
:1046A00080221A601A6842F480321A600AE7284BA6
:1046B000D3F8902042F00402C3F89020D3F8902061
:1046C00042F00102C3F8902076E7216B03F07002FC
:1046D0000139B2EB011F7FF40DAF616B03F4FE42B1
:1046E000B2EB012F7FF406AFA16B03F07842B2EB7F
:1046F000C16F7FF4FFAEE26B520803F4C001013AD0
:10470000B1EB425F7FF4F6AE226C520803F0C06357
:10471000013AB3EB426F7FF4EDAE33689A013FF597
:104720002EAF336843F080733360F36843F08073D7
:10473000F360FFF745F9044605E0FFF741F9001B78
:1047400002283FF6B6AE33689B01F6D517E700BFE7
:1047500000100240002800F09F80534A136803F0C5
:1047600007038B422DE9F0410D4604460CD2136835
:1047700023F007030B431360136803F007038B4216
:1047800002D00120BDE8F08123689E0771D547481B
:10479000A168826802F0F002914204D9826822F096
:1047A000F0020A438260DA0726D562683F4B032A8B
:1047B0001B6865D0022A6CD0002A71D19B07E0D516
:1047C0003A4EB36823F003031343B360FFF7F8F8DE
:1047D00041F28838074604E0FFF7F2F8C01B404575
:1047E0005CD8B368626803F00C03B3EB820FF3D1BB
:1047F00023689E0706D5A1682C48826802F0F00263
:104800008A4240D828490A6802F00702AA4209D918
:104810000A6822F007022A430A600A6802F00702C7
:10482000AA42AED15D0706D52049E0688A6822F425
:10483000E06202438A60180707D51C4A2169936821
:1048400023F4605343EAC1039360FFF719FC174A4E
:10485000174C92681749C2F303120346A25C16482C
:1048600002F01F02D340BDE8F04100680B60FFF783
:1048700065B8D907C6D562680C4B032A1B6899D165
:1048800098019DD47DE7826822F0F0020A4382609D
:10489000B8E7990394D474E701207047032071E7C7
:1048A0005F057FF56EAF8BE70020024000100240ED
:1048B00094E101081800002020000020054B064A62
:1048C0009B680649C3F302230868D35C03F01F0307
:1048D000D840704700100240A4E1010818000020F1
:1048E000054B064A9B680649C3F3C2230868D35C9C
:1048F00003F01F03D840704700100240A4E10108F4
:1049000018000020F8B5474BDA68920704460F46B6
:1049100007D0DA68016802F003028A424BD0012016
:10492000F8BD0068022857D003284ED00128F6D1E0
:104930001B689B07F4D53B496268CB6823F073037F
:104940000343013A43EA0213CB60364D2B6823F050
:1049500080632B60FFF734F8064604E0FFF730F879
:10496000831B022B3CD82B681A01F7D4002F39D1B6
:10497000D4E902132A69DB0622F0784243EA0123D4
:1049800022F4FE4213432B61264D2B6843F08063D3
:104990002B60FFF715F8064604E0FFF711F8831BBC
:1049A000022B1DD82B681B01F7D52B69A269134375
:1049B00000202B61F8BD002AB1D0DB684268C3F348
:1049C000021301339342AAD1BFE71A689503B2D408
:1049D0001B685903A3D5AEE71B685E059FD5AAE700
:1049E0000320F8BD012F2B690DD06269A16823F067
:1049F000C063520823F4FE43013A43EA012343EA29
:104A000042632B61C0E72269A16823F4C003520806
:104A100023F4FE43013A43EA012343EA42532B6164
:104A2000B2E700BF001002402DE9F043036813F421
:104A3000006783B004460CD0416CB1F5000F00F064
:104A40001281B1F5400F00F01381002900F026819A
:104A50000127990359D5A54B9A6DD20040F1F780F3
:104A60004FF00008A24D2B6843F480732B60FEF7D3
:104A7000A7FF064605E0FEF7A3FF831B022B00F20B
:104A800001812B68DB05F6D5B7BB984DD5F8903082
:104A900013F4407327D0A26D9A4225D0D5F8901018
:104AA000D5F8903043F48033C5F89030D5F8903085
:104AB00023F48033C5F89030CE0721F44073C5F855
:104AC000903040F11081FEF77BFF41F288390646B5
:104AD00005E0FEF775FF801B484500F2D380D5F84E
:104AE00090309807F5D5A36D8049D1F8902022F435
:104AF00040721343C1F89030B8F1000F04D07B4AE4
:104B0000936D23F0805393652368D90708D57749BF
:104B1000206AD1F8882022F003020243C1F88820DD
:104B20009A0708D57149606AD1F8882022F00C02F2
:104B30000243C1F888205E0708D56C49A06AD1F805
:104B4000882022F030020243C1F888209D0608D553
:104B50006649E06AD1F8882022F440620243C1F835
:104B60008820980508D56149E06BD1F8882022F4A7
:104B700040220243C1F88820590508D55B49206CC2
:104B8000D1F8882022F440120243C1F888205A0646
:104B900008D55649206BD1F8882022F440520243B0
:104BA000C1F888201E0608D55049606BD1F88820CE
:104BB00022F440420243C1F88820DD0508D54B4964
:104BC000A06BD1F8882022F440320243C1F888203B
:104BD00018030ED54549A06CD1F8882022F0406218
:104BE0000243B0F1006FC1F888204DD0B0F1806F62
:104BF00064D059030ED53D49E06CD1F8882022F0ED
:104C000040620243B0F1006FC1F8882041D0B0F19A
:104C1000806F5CD05A040BD53448216DD0F88820C1
:104C200022F040520A43B1F1805FC0F888203CD0A6
:104C30001B0408D52D4A616DD2F8883023F08043DB
:104C40000B43C2F88830384603B0BDE8F0839A6D54
:104C500042F080529A659B6D03F080530193019B53
:104C60004FF00108FEE62148C26842F48032C2607B
:104C70001E48D0F8882022F440020A43C0F8882059
:104C80000027E6E6032737E7CA6842F48012CA60C5
:104C9000AFE7CA6842F48012CA60BBE70430FFF78E
:104CA00031FE0746E0B12368D3E60221201DFFF75D
:104CB00029FE23680028BBD00746B9E70121201D43
:104CC000FFF720FE2368002893D0074691E70121D3
:104CD000201DFFF717FE236800289BD0074699E7A1
:104CE000616C2368C4E71346FEE600BF0010024073
:104CF0000070004038B5204BDA6822F08002DA609C
:104D00009A689106044612D403681C4ADA60FEF7DA
:104D100057FE054605E0FEF753FE431BB3F57A7FC9
:104D200025D82368DB689A06F5D5002038BD9A6837
:104D30000168124822F020029A60C860FEF740FE27
:104D4000054605E0FEF73CFE431BB3F57A7F0AD823
:104D50002368DB689B06F5D50020074A936843F07B
:104D60002003936038BD032084F82100F5E7032079
:104D700084F8210038BD00BF002800405FFF030019
:104D800000284AD038B590F82130044603F0FF02DD
:104D9000002B3DD00222236884F82120DA68D00657
:104DA00004D5012384F82130002038BDCA215322C4
:104DB00059625A62DA68510631D599686268256984
:104DC00021F4E00121F040019960A16998682A432B
:104DD0000A430243E1689A6019611A69A16842EACC
:104DE00001421A612046FFF785FF236848BBD96C52
:104DF0006069E26921F00301D964D96C02430A4376
:104E0000FF21DA645962012384F821300020CCE7C5
:104E100080F82020FDF794F9BCE7012070474FF09F
:104E2000FF32DA60FEF7CCFD054605E0FEF7C8FD6F
:104E3000401BB0F57A7F07D82368DA685206BCD4E5
:104E4000F4E7FF225A6238BD2368032284F8212048
:104E5000DB68C7E790F82030012B00F044822DE991
:104E6000F0471646012280F820200368022280F8CD
:104E70002120CA225A6253225A62DA680D4651062C
:104E8000044640F113829968002E40F02E8211F002
:104E9000400118BFE97828780CBFEE708905092811
:104EA00040F2AE80DA4AA0F10A0C5FFA8CF7A2FB5E
:104EB000072E4FEADE0E4F2F0EF1010E4FF00002CB
:104EC00057D9A0F1280767F30702A0F1320767F36B
:104ED0000F22A0F13C0767F31742A0F1460767F3E2
:104EE0001F6202F07F3782F0B03882F0F63C08F0A3
:104EF000803207F1303882EA08024FEADE080CF00F
:104F0000803C07F17637B8F1010F8CEA070C00F00E
:104F10001B8202F07F3C82F0B03782F0F6320CF157
:104F2000303907F0803702F080320CF1763CB8F16E
:104F3000030F87EA090782EA0C0C40F0138287F01E
:104F4000F63C07F07F3707F176370CF0803C8CEAAF
:104F5000070C18270EF03802C2EB4218C2EB880883
:104F600000EB480096454FEA1C6CC0B244D0A0F15B
:104F70000A0C5FFA8CFCBCF1090F02F101073BD966
:104F8000A0F1140C5FFA8CFCBCF1090F02F10207CE
:104F900032D9A0F11E0C5FFA8CFCBCF1090F02F1B2
:104FA000030729D9A0F1280C5FFA8CFCBCF1090F8A
:104FB00002F1040720D9A0F1320C5FFA8CFCBCF19D
:104FC000090F02F1050717D9A0F13C0C5FFA8CFC20
:104FD000BCF1090F02F106070ED9A0F1460C5FFAE9
:104FE0008CFCBCF1090F02F1070705D9A0F1500CA8
:104FF00002F108075FFA8CFC4CEA071C5FFA8CF0A0
:1050000095F801C0BCF1090F4FEA004040F2A180C1
:105010007F4FACF10A025FFA82FEA7FB0E87FF0802
:10502000BEF14F0F07F1010740F29E81ACF1280E4F
:1050300000226EF30702ACF1320E6EF30F22ACF1D8
:105040003C0E6EF31742ACF1460E6EF31F6202F097
:105050007F3882F0B03E82F0F63208F1303902F04B
:10506000803208F1763882EA08024FEAD7080EF05B
:10507000803EB8F1010F8EEA090E00F06A810EF051
:105080007F398EF0B03A8EF0F63202F080320AF0BC
:10509000803EB8F1030F09F1303A09F176398EEA12
:1050A0000A0E82EA090240F05A810EF07F328EF039
:1050B000F63E02F176320EF0803E82EA0E024FF0AA
:1050C000180807F0380ECEEB4E19CEEB89090CEB21
:1050D000490CBE454FEA12625FFA8CFC35D0ACF148
:1050E0000A02D2B2092A0EF101082ED9ACF114023B
:1050F000D2B2092A0EF1020827D9ACF11E02D2B2AF
:10510000092A0EF1030820D9ACF12802D2B2092AEB
:105110000EF1040819D9ACF13202D2B2092A0EF10B
:10512000050812D9ACF13C02D2B2092A0EF10608E8
:105130000BD9ACF14602D2B2092A0EF1070804D904
:10514000ACF150020EF10808D2B242EA08125FFA3E
:1051500082FCAF78092F4FEA0C2C40F2A1802C4A38
:10516000A7F10A085FFA88F9A2FB092E4FEADE0EC2
:10517000B9F14F0F0EF1010E5AD9A7F128020026FE
:1051800062F30706A7F1320262F30F26A7F13C0291
:1051900062F31746A7F1460262F31F6606F07F38F6
:1051A00086F0B03208F1303902F0803286F0F636FF
:1051B00082EA09024FEADE0906F0803608F1763805
:1051C000B9F1010F86EA080600F0C08002F07F3ACC
:1051D00082F0B03882F0F63202F0803608F0803883
:1051E0000AF13032B9F1030F0AF1763A88EA02087F
:1051F00086EA0A0640F0B08088F0F63208F07F3682
:1052000002F0803206F1763656404FF0180801E081
:10521000CDCCCCCC320E0EF03806C6EB4619C6EB20
:10522000890907EB49077645FFB236D0A7F10A088E
:105230005FFA88F2092A06F101082ED9A7F11402B3
:10524000D2B2092A06F1020827D9A7F11E02D2B26A
:10525000092A06F1030820D9A7F12802D2B2092AA7
:1052600006F1040819D9A7F13202D2B2092A06F1CF
:10527000050812D9A7F13C02D2B2092A06F10608A4
:105280000BD9A7F14602D2B2092A06F1070804D9C0
:10529000A7F1500206F10808D2B242EA0812D7B2CA
:1052A00040EA010242EA0C023A432EE04FF0FF329C
:1052B000DA60FEF785FB07462368DA6852063FF599
:1052C000E2ADFEF77DFBC01BB0F57A7FF4D9236811
:1052D000032084F82100FF22D9685A62002384F851
:1052E0002030BDE8F087022070476A78287811F0F6
:1052F00040014FEA022214BFE978E97042EA004215
:10530000A87818BF890502430A4302F07F3222F0D1
:10531000FE421A6099682869EA6821F48021996040
:10532000996802430A439A602046FFF7E3FC23682A
:10533000FF225A620028D1D1012384F821300023B2
:1053400084F82030BDE8F087082703E64FF008080E
:1053500060E74FF00808B4E64FF010085AE74FF046
:105360001008AEE61027F5E54FF0000EB9E600BFD5
:1053700090F82030012B00F04C822DE9F0410446DA
:105380000223012084F8200084F8213032B34B78C6
:10539000CD7888780A781B0243EA0543034343EA41
:1053A00042362368CA21532259625A62DA6851068A
:1053B00040F1058226F07F4626F0C0065E6020465A
:1053C000FFF798FC2368FF225A6210B9012384F882
:1053D0002130002384F82030BDE8F0814878C506EC
:1053E00040F10A8291F803C020F010000A30C0B2E8
:1053F000BCF1090F487040F21482D04DACF10A03A1
:10540000DEB2A5FB0675ED084F2E05F1010540F251
:105410000B82ACF12806002366F30703ACF13206D9
:1054200066F30F23ACF13C0666F31743ACF1460676
:1054300066F31F6303F07F3683F0B03E06F130372A
:105440000EF0803E83F0F6338EEA070EEF0803F08D
:10545000803306F17636012F83EA060300F0DF8100
:105460000EF07F338EF0B0368EF0F63E03F130381A
:1054700006F080360EF0803E03F17633032F86EA85
:1054800008068EEA030340F0BE8186F0F63306F08C
:105490007F3606F1763603F080337340182605F028
:1054A000380ECEEB4E17CEEB87070CEB4707754552
:1054B0004FEA13635FFA87FC35D0ACF10A03DBB225
:1054C000092B0EF101062ED9ACF11403DBB2092B26
:1054D0000EF1020627D9ACF11E03DBB2092B0EF147
:1054E000030620D9ACF12803DBB2092B0EF1040628
:1054F00019D9ACF13203DBB2092B0EF1050612D932
:10550000ACF13C03DBB2092B0EF106060BD9ACF172
:105510004603DBB2092B0EF1070604D9ACF15003A8
:105520000EF10806DBB243EA06135FFA83FC092892
:105530004FEA0C4C40F29880804DA0F10A03DEB295
:10554000A5FB0675ED084F2E05F1010540F26F81B0
:10555000A0F12806002366F30703A0F1320666F3E4
:105560000F23A0F13C0666F31743A0F1460666F34D
:105570001F6303F07F3683F0B03E06F130370EF044
:10558000803E83F0F6338EEA070EEF0803F0803397
:1055900006F17636012F83EA060300F03E810EF015
:1055A0007F338EF0B0368EF0F63E03F1303806F0E1
:1055B00080360EF0803E03F17633032F86EA08062C
:1055C0008EEA030340F0238106F07F3386F0F6363F
:1055D00006F0803603F176337340182605F0380E56
:1055E000CEEB4E17CEEB870700EB470075454FEA31
:1055F0001363C0B235D0A0F10A03DBB2092B0EF160
:1056000001062ED9A0F11403DBB2092B0EF102061C
:1056100027D9A0F11E03DBB2092B0EF1030620D916
:10562000A0F12803DBB2092B0EF1040619D9A0F171
:105630003203DBB2092B0EF1050612D9A0F13C03AF
:10564000DBB2092B0EF106060BD9A0F14603DBB243
:10565000092B0EF1070604D9A0F150030EF108063C
:10566000DBB243EA0613D8B291F802E0BEF1090FAB
:105670004FEA002040F29C80304DAEF10A03DEB2CA
:10568000A5FB0675ED084F2E05F1010558D9AEF1C1
:105690002802002362F30703AEF1320262F30F2304
:1056A000AEF13C0262F31743AEF1460262F31F63B0
:1056B00003F07F3683F0B03206F1303702F08032EB
:1056C00083F0F6337A40EF0803F0803306F1763644
:1056D000012F83EA060300F09E8002F07F3382F000
:1056E000B03682F0F63203F1303806F0803602F040
:1056F000803203F17633032F86EA080683EA020339
:1057000040F0838086F0F63306F07F3606F1763679
:1057100003F080337340182605F03802C2EB4217BD
:10572000C2EB87070EEB4707AA424FEA13635FFA03
:1057300087FE39D0AEF10A0302E000BFCDCCCCCC5D
:10574000DBB2092B02F101062ED9AEF11403DBB254
:10575000092B02F1020627D9AEF11E03DBB2092B99
:1057600002F1030620D9AEF12803DBB2092B02F1C6
:10577000040619D9AEF13203DBB2092B02F105069A
:1057800012D9AEF13C03DBB2092B02F106060BD9AC
:10579000AEF14603DBB2092B02F1070604D9AEF1E4
:1057A000500302F10806DBB243EA06135FFA83FEF8
:1057B0000B784CEA4333034343EA0E06F1E54FF01E
:1057C000FF32DA60FEF7FCF805462368DA68520615
:1057D0003FF5F0ADFEF7F4F8401BB0F57A7FF4D951
:1057E0002368032084F82100FF22D9685A6200232D
:1057F00084F82030BDE8F08191F803C0BCF1090FB6
:105800003FF6FBAD93E6102649E6102684E7102606
:10581000E4E60220704708267EE70826DEE6082632
:105820003DE64FEA0C4C87E64FF0000E47E64FF09E
:10583000000EE2E690F82030012B57D02DE9F04120
:105840001646012280F820200368022280F82120D9
:10585000CA225A6253225A629A6822F480629A607B
:10586000DA68D2B262F49062DA60DA68520604460C
:105870000F4621D55F619A681D4922F00702324325
:105880009A600A6842F480120A608A6842F48012C0
:105890008A609A6842F480429A609A6842F4806210
:1058A0009A600025FF210122596284F8212084F8A2
:1058B00020502846BDE8F081FEF782F88046236834
:1058C000DD6815F00405D5D1FEF77AF8A0EB0800E5
:1058D000B0F57A7FF3D922680323FF21516284F85F
:1058E000213084F820501846BDE8F081022070472E
:1058F0000004014090F82030012B37D070B50546E8
:105900000368022285F821200120CA21532285F84C
:10591000200059625A629A6822F480629A609A68FA
:1059200022F480429A60FEF74BF8064605E0FEF747
:1059300047F8831BB3F57A7F0ED82A68D46814F031
:105940000404F4D00023FF200121506285F82110C7
:1059500085F82030184670BD2A680323FF21516264
:1059600085F8213085F82040184670BD0220704728
:105970000C4A03684FF4801110B55161DA68520582
:10598000044603D4012384F8213010BDDA68D2B272
:1059900062F49062DA60FBF769FE012384F821303B
:1059A00010BD00BF000401402DE9F04182B000238A
:1059B00017460D468DF803300646FEF701F82F44D2
:1059C0003F1AFDF7FDFF314B34681B6803EB83037F
:1059D000C3EBC3031B0D07FB03F380460193224671
:1059E000691C936810D113F4C06F09D0237BDBB21C
:1059F0008DF803309DF80330936813F4C06FF5D130
:105A0000002002B0BDE8F08113F4C06FF8D0237B12
:105A1000DBB28DF803309DF80330FDF7D1FFA0EB2A
:105A20000800B84209D2019B3268002B019B03F1A8
:105A3000FF3308BF00270193D2E7D6E900315A6847
:105A4000B1F5827F22F0E0025A6013D0B26AB2F55B
:105A5000005F07D11A6822F400521A601A6842F4F3
:105A600000521A600122002386F85D2086F85C301F
:105A70000320C6E7B268B2F5004F02D0B2F5806FDE
:105A8000E4D11A6822F040021A60DFE71800002013
:105A90002DE9F04F85B000238DF8073001EB0209A6
:105AA0000E4617460546FDF78BFFDFF82081A9EB70
:105AB000000AFDF785FFD8F8003003EB8303C3EB42
:105AC000C3031B0D0AFB03F383460293701C2C686F
:105AD00020D1A36813F4C05FFBD1FDF771FFA9EBE0
:105AE0000009FDF76DFFD8F80030C3F3CB3309FB95
:105AF00003F380460393711C2C681FD1A3681A0618
:105B0000FCD43A4631462846FFF74EFF48BB05B065
:105B1000BDE8F08FA36813F4C05FDED0FDF750FF3F
:105B2000A0EB0B00504522D2029A029B002A03F1FF
:105B3000FF3308BF4FF0000A0293C7E7A3681B06B4
:105B4000DFD5FDF73DFFA0EB080048450FD2039AD3
:105B5000039B002A03F1FF3308BF4FF000090393B2
:105B6000C9E72B6E43F0200303202B66CFE7D5E96E
:105B700000315A68B1F5827F22F0E0025A6019D0F4
:105B8000AA6AB2F5005F07D11A6822F400521A60BF
:105B90001A6842F400521A60012385F85D302B6EBA
:105BA000002243F02003032085F85C202B6605B01B
:105BB000BDE8F08FAA68B2F5004F02D0B2F5806F51
:105BC000DED11A6822F040021A60D9E718000020DE
:105BD000002874D02DE9F0410446406A002855D0D1
:105BE0000023C4E9043394F85D300022A26203F07C
:105BF000FF02002B56D02168E768022384F85D304D
:105C00000A68B7F5E06F22F040020A6044D9B7F5A0
:105C1000706F56D1A56A4FF0000C05F4005562680C
:105C2000A368A66903F4044302F482721A43236949
:105C300003F002031343626902F001021A43636B2B
:105C400007F4706703F0080343EA070EE36903F003
:105C50003808236A03F0800706F40073134343EA0D
:105C600008033B43360C2B4306F004060B6000F0A0
:105C700010004EEA0603034343EA0C034B60002086
:105C80000123206684F85D30BDE8F0816368B3F5D8
:105C9000827FA8D0E061A6E70BD04FF4805C00259E
:105CA000A562BCE7204684F85C20FCF7EFFA606A46
