:020000040800F2
:10000000000001205D3900089125000895250008B1
:10001000992500089D250008A12500080000000082
:10002000000000000000000000000000A5250008FE
:10003000A925000800000000AD250008B125000832
:10004000AD390008AD390008AD390008B525000804
:10005000AD390008AD390008AD390008AD390008E8
:10006000AD390008AD390008AD390008AD390008D8
:10007000AD390008AD390008AD390008AD390008C8
:10008000AD390008AD390008AD390008AD390008B8
:10009000AD390008AD390008AD390008C1250008A8
:1000A000DD250008AD390008AD390008AD3900087C
:1000B000E92500080000000000000000AD3900083C
:1000C000AD390008AD390008AD390008AD39000878
:1000D000AD390008F5250008AD390008AD39000834
:1000E000AD390008AD390008000000000000000034
:1000F0000000000000000000000000000000000000
:1001000000000000AD39000800000000AD39000813
:100110000000000000000000AD39000801260008C2
:10012000AD390008AD390008AD390008AD39000817
:10013000AD390008000000000000000000000000D1
:10014000AD390008AD390008AD39000800000000E5
:10015000AD390008AD390008AD390008AD390008E7
:10016000AD390008AD390008AD39000800000000C5
:10017000AD390008AD3900080000000000000000A3
:0C018000AD390008AD390008AD390008A9
:10018C000000000000000000000000000000000063
:10019C000000000000000000000000000000000053
:1001AC000000000000000000000000000000000043
:1003900010B5054C237833B9044B13B10448AFF3BF
:1003A00000800123237010BD4400002000000000E5
:1003B00068DE010808B5034B1BB103490348AFF3DE
:1003C000008008BD000000004800002068DE010831
:1003D00010F8012B11F8013B012A28BF9A42F7D0EF
:1003E000D01A7047034613F8012B002AFBD1181AC4
:1003F0000138704753B94AB9002908BF00281CBF0B
:100400004FF0FF314FF0FF3000F070B9ADF1080C44
:100410006DE904CE00F006F8DDF804E0DDE9022322
:1004200004B070472DE9F047089E0D4604460F467C
:10043000002B4AD18A42944665D9B2FA82F343B17D
:1004400002FA03FCC3F120029F4020FA02F2174394
:100450009C404FEA1C4E1FFA8CF5B7FBFEF1220CB4
:100460000EFB117742EA074201FB05F090420AD9E0
:100470001CEB020201F1FF3780F01C81904240F238
:10048000198102396244121AA4B2B2FBFEF00EFBCB
:10049000102244EA024400FB05F5A5420AD91CEBF0
:1004A000040400F1FF3280F00781A54240F204818C
:1004B0006444023840EA0140641B00211EB1DC4064
:1004C0000023C6E90043BDE8F0878B4208D9002E1F
:1004D00000F0ED800021C6E900050846BDE8F08780
:1004E000B3FA83F1002949D1AB4202D3824200F230
:1004F000F880841A65EB030201201746002EE2D033
:10050000C6E90047DFE702B9FFDEB2FA82F3002B4B
:1005100040F090808A1A4FEA1C471FFA8CFE012196
:10052000B2FBF7F507FB1520220C42EA00420EFB56
:1005300005F0904208D91CEB020205F1FF3802D207
:10054000904200F2CB804546121AA4B2B2FBF7F0FB
:1005500007FB102244EA02440EFB00FEA64508D920
:100560001CEB040400F1FF3202D2A64500F2BB806E
:100570001046A4EB0E0440EA05409FE7C1F12007B6
:100580008B4022FA07FC4CEA030C05FA01F420FA2E
:1005900007F3FD404FEA1C492343B5FBF9F81FFA66
:1005A0008CFE09FB18551C0C44EA054408FB0EF5AB
:1005B000A54202FA01F200FA01F00BD91CEB040487
:1005C00008F1FF3A80F08880A54240F28580A8F1CA
:1005D00002086444641B9DB2B4FBF9F309FB1344A5
:1005E00045EA044403FB0EFEA64508D91CEB0404AF
:1005F00003F1FF356CD2A6456AD9023B644443EA55
:100600000843A3FB0295A4EB0E04AC42C846AE46D9
:1006100056D353D056B1B0EB080264EB0E0404FA83
:1006200007F7CA40CC401743C6E9007418460021BA
:10063000BDE8F087C3F1200102FA03FC20FA01F2C1
:1006400025FA01F19D402A434FEA1C471FFA8CFE10
:10065000B1FBF7F007FB1015110C41EA054100FB57
:100660000EF58D4204FA03F408D91CEB010100F1E8
:10067000FF382FD28D422DD902386144491B92B2E6
:10068000B1FBF7F507FB151142EA014205FB0EF13C
:10069000914208D91CEB020205F1FF3816D29142B3
:1006A00014D9023D6244521A45EA004138E7314606
:1006B000304608E73946E6E61046FBE64845A9D24B
:1006C000B9EB020865EB0C0E013BA3E74546EAE7F0
:1006D0002B4694E74046D1E7D0467BE7023D624493
:1006E00032E708460AE76444023842E7704700BF31
:1006F00002480122042103F011BC00BF000C004895
:1007000002480022042103F009BC00BF000C00488D
:100710002DE9F047824691465D1A82B0804C8148AF
:100720000A9E1F460135A9EB0A03884600224FF4B2
:10073000006103FB05552A238DF8073003F0EEFB1B
:10074000642301220DF10701206805F00DFB4FEA3B
:100750001A2374488DF8073001224FF4006103F02A
:10076000DDFB642301220DF10701206805F0FCFA8E
:100770006C488DF807A001224FF4006103F0CEFB16
:10078000642301220DF10701206805F0EDFA4FEA1C
:10079000192364488DF8073001224FF4006103F0FB
:1007A000BDFB642301220DF10701206805F0DCFA8E
:1007B0005C488DF8079001224FF4006103F0AEFB16
:1007C000642301220DF10701206805F0CDFA2B23E7
:1007D00054488DF8073000224FF4006103F09EFB6F
:1007E000642301220DF10701206805F0BDFA4FEAEC
:1007F00018234C488DF8073001224FF4006103F0B4
:100800008DFB642301220DF10701206805F0ACFA8D
:1008100044488DF8078001224FF4006103F07EFB0D
:10082000642301220DF10701206805F09DFA3B0ABF
:100830003C488DF8073001224FF4006103F06EFB55
:10084000642301220DF10701206805F08DFA354877
:100850008DF8077001224FF4006103F05FFB642301
:1008600001220DF10701206805F07EFA2C232D48A6
:100870008DF8073000224FF4006103F04FFB642332
:100880000DF107010122206805F06EFA25480122CA
:100890004FF4006103F042FB20684FF47063426B39
:1008A000C360436A02F0080203F010031343428B53
:1008B00002F004021343026843F47063B5F5803F0D
:1008C00053604FF47A7326D3314647F2305205F025
:1008D0004BFAA5F5EA42303A06F56A4120684FF432
:1008E0007A7392B2603105F03FFA2268536A506B16
:1008F000518B00F0080003F01003034301F00401E2
:1009000010680B434FF4E06443F4B853D460436081
:1009100002B0BDE8F087AAB2314605F025FAE4E757
:1009200000000020000800482DE9F04FED4EEE4D8C
:1009300083B03623304600224FF400618DF8073033
:1009400003F0ECFA64230DF1070128680122002767
:1009500005F00AFA304601224FF400618DF8077065
:1009600003F0DCFA0DF1070128686423012205F089
:10097000FBF93A233A4630464FF400618DF80730D0
:1009800003F0CCFA0DF1070128686423012205F079
:10099000EBF90523304601224FF400618DF8073052
:1009A00003F0BCFA0DF1070128686423012205F069
:1009B000DBF9B2233A4630464FF400618DF8073038
:1009C00003F0ACFA64230DF107012868012205F059
:1009D000CBF94FF00C04304601224FF400618DF842
:1009E000074003F09BFA64230DF1070128680122F8
:1009F00005F0BAF9304601224FF400618DF8074046
:100A000003F08CFA64230DF107012868012205F038
:100A1000ABF9304601224FF400618DF8077003F006
:100A20007DFA64230DF107012868012205F09CF985
:100A30003324304601224FF400618DF8074003F063
:100A40006DFA64230DF107012868012205F08CF985
:100A5000304601224FF400618DF8074003F05EFA42
:100A60000DF1070128686423012205F07DF93A465B
:100A70003046B7234FF400618DF8073003F04EFA8B
:100A80000DF1070128686423012205F06DF9304655
:100A9000352301224FF400618DF8073003F03EFA50
:100AA0000DF1070128686423012205F05DF93A463B
:100AB0003046BB234FF400618DF8073003F02EFA67
:100AC0000DF1070128686423012205F04DF9304635
:100AD000192301224FF400618DF8073003F01EFA4C
:100AE0000DF1070128686423012205F03DF93A461B
:100AF0003046C0234FF400618DF8073003F00EFA42
:100B000064230DF107012868012205F02DF94FF04B
:100B10002C028DF80720304601224FF4006103F0CB
:100B2000FDF90DF10701286864230122012405F075
:100B30001BF93A463046C2234FF400618DF8073066
:100B400003F0ECF9642322460DF10701286805F053
:100B50000BF9224630464FF400618DF8074003F050
:100B6000DDF922460DF107012868642305F0FCF841
:100B70003A463046C3234FF400618DF8073003F046
:100B8000CDF922460DF107012868642305F0ECF841
:100B90002246304612234FF400618DF8073003F0EF
:100BA000BDF922460DF107012868642305F0DCF841
:100BB0003A463046C4234FF400618DF8073003F005
:100BC000ADF9642322460DF10701286805F0CCF841
:100BD0004FF020018DF80710224630464FF4006197
:100BE00003F09CF90DF107002246014664232868B2
:100BF00005F0BAF83A463046C6234FF400618DF846
:100C0000073003F08BF90DF10700224601466423FB
:100C1000286805F0A9F8224630460F234FF40061FA
:100C20008DF8073003F07AF90DF1070064232246AE
:100C30000146286805F098F84FF0D00A3A46304649
:100C40004FF400618DF807A003F068F90DF107007B
:100C5000224601466423286805F086F8224630467D
:100C6000A4234FF400618DF8073003F057F90DF11C
:100C70000700224601466423286805F075F82246DD
:100C80003046A1234FF400618DF8073003F046F998
:100C90000DF10700224601466423286805F064F838
:100CA0003A463046E0234FF400618DF8073003F0F8
:100CB00035F90DF10700642322460146286805F046
:100CC00053F8224630464FF400618DF807A003F038
:100CD00025F90DF10700642322460146286805F036
:100CE00043F803E000080048000000204FF004082B
:100CF000224630464FF400618DF8078003F00EF96C
:100D00000DF10700642322460146286805F02CF8FF
:100D10004FF00D09224630464FF400618DF80790E0
:100D200003F0FCF80DF10700642322460146286811
:100D300005F01AF84FF0110B224630464FF40061CF
:100D40008DF807B003F0EAF80DF10700642322469E
:100D50000146286805F008F84FF013008DF80700E9
:100D6000224630464FF4006103F0D8F80DF1070C2D
:100D7000614622462868642304F0F6FF2246304686
:100D80002B234FF400618DF8073003F0C7F80DF105
:100D9000070C642322466146286804F0E5FF4FF003
:100DA0003F0C224630464FF400618DF807C003F037
:100DB000B5F80DF1070E714622462868642304F049
:100DC000D3FF2246304654234FF400618DF807309C
:100DD00003F0A4F80DF1070E71462246286864233B
:100DE00004F0C2FF224630464C234FF400618DF8D8
:100DF000073003F093F80DF1070E7146224628687C
:100E0000642304F0B1FF2246304618234FF40061FA
:100E10008DF8073003F082F80DF1070E7146642358
:100E20002246286804F0A0FF224630464FF40061B5
:100E30008DF8079003F072F80DF1070E7146224607
:100E40002868642304F090FF224630460B234FF4B9
:100E500000618DF8073003F061F80DF1070E71465F
:100E600064232246286804F07FFF4FF01F092246C2
:100E700030464FF400618DF8079003F04FF80DF104
:100E8000070E642322467146286804F06DFF4FF078
:100E9000230E224630464FF400618DF807E003F040
:100EA0003DF822460DF107012868642304F05CFF39
:100EB0003A463046E1234FF400618DF8073003F0E5
:100EC0002DF8642322460DF10701286804F04CFF39
:100ED0008DF807A022460DF1070A30464FF4006155
:100EE00003F01CF8642322465146286804F03CFFB6
:100EF000224630464FF400618DF8078003F00EF86B
:100F0000224651462868642304F02EFF4FF00C035C
:100F1000224630464FF400618DF8073002F0FEFFA4
:100F2000642322465146286804F01EFF22463046BC
:100F30004FF400618DF807B002F0F0FF6423224601
:100F40005146286804F010FF4FF013008DF8070099
:100F5000224630464FF4006102F0E0FF642322464F
:100F60005146286804F000FF4FF02C028DF807204E
:100F7000304622464FF4006102F0D0FF642322463F
:100F80005146286804F0F0FE4FF03F0C22463046F0
:100F90004FF400618DF807C002F0C0FF22465146B1
:100FA0002868642304F0E0FE2246304644234FF4D0
:100FB00000618DF8073002F0B1FF224651462868E3
:100FC000642304F0D1FE2246304651234FF40061E1
:100FD0008DF8073002F0A2FF2246514628686423AC
:100FE00004F0C2FE224630462F234FF400618DF8F4
:100FF000073002F093FF642322465146286804F02C
:10100000B3FE224630464FF400618DF8079002F09F
:1010100085FF642322465146286804F0A5FE224637
:1010200030464FF400618DF8079002F077FF64239B
:1010300022465146286804F097FE4FF020018DF8B3
:101040000710224630464FF4006102F067FF642328
:1010500022465146286804F087FE4FF0230E2246B0
:1010600030464FF400618DF807E002F057FF22464A
:1010700051462868642304F077FE3A46304621231F
:101080004FF400618DF8073002F048FF64232246D8
:101090005146286804F068FE3A4630464FF4006135
:1010A0008DF807B002F03AFF2246514664232868C3
:1010B00004F05AFE782002F0C3FC3A463046292359
:1010C0004FF400618DF8073002F028FF51462246A8
:1010D0002868642304F048FE03482246414603B0D2
:1010E000BDE8F04F02F01ABF000C00482DE9F041B6
:1010F00082B005460F4602F09DFC4FF005080646FB
:1011000012E0286805F0E8F8298A012250BBE86857
:1011100002F004FF9DF8033013F001031DD002F02C
:1011200089FC801BB84224D8298AE868CDF804805D
:10113000002202F0F3FE04220DEB020132232868A4
:1011400004F012FE322301220DF1030104460028AF
:10115000D7D0298AE86802F0E1FE0024204602B0D8
:10116000BDE8F081E86802F0D9FE204602B0BDE893
:10117000F0810324F2E700BFF0B5044683B01546C2
:101180000E461F46642103230193FFF7AFFF2B0C8C
:10119000218AE0688DF8053000226DBAADF806505E
:1011A00002F0BCFE0422206832230DEB020104F0A1
:1011B000DBFD28B9206864233A46314605F08CF8F7
:1011C0000546218AE068012202F0A8FE284603B005
:1011D000F0BD00BF70B5044682B00623C0688DF82C
:1011E0000330002220250E46218A019502F096FE4A
:1011F000322301220DF10301206804F0B5FD218A9C
:10120000E068012202F08AFE64212046FFF76EFFAB
:101210000546D0B9C6F30F130246218A8DF80700A0
:101220008DF80530E06833018DF8063002F076FE67
:1012300004220DEB02012068322304F095FD218A7F
:1012400005460122E06802F069FE284602B070BD42
:101250002DE9F04182B00F469846642102230546ED
:1012600016460193FFF742FF044618B1204602B02C
:10127000BDE8F08102460623298AE8688DF803302C
:1012800002F04CFE322301220DF10301286804F024
:101290006BFD298AE868012202F040FE330C2246E9
:1012A000298AE8688DF8053073BAADF8063002F087
:1012B00035FE0422286832230DEB020104F054FDB0
:1012C000044668B9F2B2C2F5807292B2424528680B
:1012D0004FF0640328BF4246394604F045FD0446FA
:1012E000E868298A012202F019FE204602B0BDE812
:1012F000F08100BF30B51C4C1C4B1D48236083B0EF
:101300004FF4805190230022E0602182019302F08B
:1013100005FE0422206832230DEB020104F024FDB7
:10132000C0B9022269462068322304F0D5FF054681
:10133000218AE068012245B902F0F0FDBDF80030D5
:1013400028465BBAA38003B030BD02F0E7FD284613
:1013500003B030BD0546218AE068012202F0DEFDBF
:10136000284603B030BD00BF60000020A801002067
:10137000000400482DE9F04100248CB0CDE906447A
:10138000CDE90844644B0A94DA6C644F644DDFF88D
:10139000988142F00402DA64DA6C02F004020192ED
:1013A000019ADA6C42F08002DA64DA6C02F08002B0
:1013B0000292029ADA6C42F00102DA64DA6C02F00C
:1013C00001020392039ADA6C42F00202DA64DA6CE8
:1013D00002F002020492049ADA6C42F00802DA6423
:1013E000DB6C03F0080305932246384640F677018C
:1013F000059B02F093FD08214FF09040012202F07E
:101400008DFD224610214FF0904002F087FD2846C6
:1014100001224FF4805102F081FD22464046042112
:1014200002F07CFD42F2883206A938460323CDE95A
:1014300006230126089402F0FBFB384606A940F675
:1014400077030693CDE90764099402F0F1FB40F6B7
:10145000051206A903234FF09040CDE90623089416
:1014600002F0E6FB06A918234FF090400693CDE961
:101470000764099402F0DCFB06A920224FF48813CC
:101480004FF09040CDE90623089402F0D1FB40F6DE
:10149000CF4206A928460323CDE90623089402F08B
:1014A000C7FB06A928464FF480530693CDE907648D
:1014B000099402F0BDFB06A9404604230693CDE93A
:1014C0000844079602F0B4FB3022002306A9284600
:1014D000CDE90623089402F0ABFB0822032306A9FA
:1014E00010480894CDE9062302F0A2FB4FF4041340
:1014F00028464FF4407206A9CDE90623089402F06D
:1015000097FB22462146172002F0CEFA172002F060
:1015100009FB0CB0BDE8F081001002400008004853
:1015200000040048001C0048000C00482DE9F84366
:10153000002007F043FB2E4B2E4DDFF8D0902E4CB1
:10154000DFF8CC802D4F2E4E024600201A6007F0A7
:1015500035FB2C4B024600201A6007F02FFB034698
:1015600000202B6007F02AFB03460020C9F800305A
:1015700007F024FBC8F8000020461AF043F9204683
:10158000FF211AF017FB4FF6FF71204639801AF041
:1015900007FB0022214628681B4C0BF0ADFC3046AF
:1015A0001AF030F900253046FF211AF003FB3046CF
:1015B00029463D801AF0F4FA2A463146D9F800004F
:1015C0000BF09AFC20461AF01DF92046FF211AF074
:1015D000F1FA47F6FF31204639801AF0E1FAD8F8DF
:1015E00000002A462146BDE8F8430BF085BC00BF49
:1015F0000C010020CC000020D0000020B000002012
:10160000F80000201001002004010020D800002074
:101610000001002038B5374D374C28681CF0C6F95A
:10162000012120601CF0B4FA206804211CF07CFA2F
:101630002068F02107F04AFF2068142107F060FFBE
:1016400020682E491CF046FA00231A4620682C4CCC
:10165000012107F0BFFF28681CF0A8F901212060D4
:101660001CF096FA206804211CF05EFA2068F02134
:1016700007F02CFF2068142107F042FF214B20685F
:101680001A6821491CF026FA1423002220681F4CF6
:10169000012107F09FFF28681CF088F901212060D4
:1016A0001CF076FA206804211CF03EFA2068F02134
:1016B00007F00CFF2068142107F022FF144B20686C
:1016C0001A6814491CF006FA00231A462068124CC6
:1016D000042107F07FFF28681CF052FB0F492060AF
:1016E00002221CF059FB20680022BDE83840052189
:1016F0000CF01AB9CC000020B8000020A8DE0108C8
:10170000BC000020B4000020C0DE0108C0000020A2
:10171000AC000020D4DE0108C40000200C00002032
:1017200070B53F4D3F4C28681CF040F90121206006
:101730001CF02EFA206804211CF0F6F93A492068C2
:101740001CF0C8F900231A460221206807F042FF66
:1017500028681CF02BF9012160601CF019FA606800
:1017600004211CF0E1F9314B1B68002B52D13049A8
:1017700060681CF0AFF93C2300226068022107F08A
:1017800029FF28681CF012F90121A0601CF000FA62
:10179000A06804211CF0C8F9A06826491CF09AF939
:1017A00050230022A068022107F014FF28681CF0D3
:1017B000FDF80121E0601CF0EBF9E06800211CF06D
:1017C000B3F9E068F02107F081FEE068142107F02A
:1017D00097FE00231A46E068092107F0FBFE2868FF
:1017E0001CF0E4F8012120611CF0D2F920690021ED
:1017F0001CF09AF92069F02107F068FE2069642145
:1018000007F07EFE2069C823BDE870400022012158
:1018100007F0E0BE084960681CF05CF9ABE700BF68
:10182000D8000020DC000020E8DE01089000002045
:10183000FCDE010824DF010810DF0108704700BF4B
:10184000202800D07047054B1A78022A04D01A7855
:10185000032AF7D19B6A18475B6A1847DC0300200C
:10186000F8B51B4C1B4D206A01F08AF82B68012B40
:101870001CD0022B05D0206A01F058F800232370F9
:10188000F8BD154F206A01F051F800261349B868D9
:1018900026701CF01FF91249F8681CF01BF911485A
:1018A0003246072102F03AFB2E60F8BD0E4D0F497B
:1018B0002B68206A0133FF222B6001F049FC064BA4
:1018C0002A6818690A49BDE8F8401CF003B900BF4E
:1018D000DC030020A0000020DC00002024DF010841
:1018E00050DF0108000800489C00002000010010A3
:1018F00034DF010870B52E4C86B0206A01F040F844
:101900002C49206A0DF10E0201F03CFB2A4B1B68AA
:10191000012B45D1BDF80E30FF2B3AD1274D284B76
:101920002968013103F58072296003F1FF0E4FF041
:10193000000C13F8011F12F8010F884218BF0CF1B8
:10194000010C7345F5D107EE90CA9FED1E7ADFEDCD
:101950001E6A1E4E206AF8EEE77A04A967EE877ABF
:1019600087EEA67ABDEEC77A86ED007A01F032F8EE
:1019700005A9206A01F06EF8DDE9043134681448E5
:101980002A680069CDE9001412491CF0A3F806B0DA
:1019900070BD0F4B1049D8681CF09CF806B070BDA4
:1019A000206A00F0C3FF0023237006B070BD00BFA3
:1019B000DC03002000000010A000002094000020A4
:1019C000FFFFFF0F0000C84200007F439800002087
:1019D000DC00002054DF0108B0DF01082A4B9842E8
:1019E00021D02A4B984210B520D0294B984200D0E4
:1019F00010BD284A2849136809680133136039B9B2
:101A0000264A12689342F3D9BDE81040FEF778BE2B
:101A1000234A2449126809682048234C1A4419446F
:101A200021600260EEE7052017F0D2BB1F484FF49B
:101A3000007102F06DFA1E4A1378A8B90BB3022B9D
:101A400003D11C4A136801331360FEF751FE11499C
:101A5000134A09681268134B10481B680A44026055
:101A6000114A0B44136010BD002BC1D0052B04D0CC
:101A7000042B0CBF0023032313700E4B00221A60AB
:101A800010BD01231370E0E708030020700200205E
:101A9000BC020020AC000020A0000020A800002014
:101AA0000800002004000020A400002000040048DA
:101AB00074000020C800002010B598B04422002116
:101AC00006A81CF08FF900234FF40070CDE9013314
:101AD000CDE90333059302F04BFA08B172B6FEE785
:101AE00002F02EFA1A4AD2F8903023F01803C2F806
:101AF00090309FED157B012303240222CDE9114391
:101B0000089314231092169213930722022306A817
:101B1000CDE914238DED067B02F046FB034608B1A8
:101B200072B6FEE704210F220DEB0100CDE901247E
:101B3000CDE90333059302F047FE08B172B6FEE724
:101B400018B010BDAFF300800500000000000100D8
:101B5000001002402DE9F04F4F4E504D504FDFF82E
:101B600070B1DFF870A1DFF870914E4CDFF86C8136
:101B700083B0304604F0D4FD284604F0D1FD384649
:101B800004F0CEFD584604F0D9F8504604F0D6F8DB
:101B9000484604F0D3F84448042102F031F92046C5
:101BA0004FF4006102F02CF900224021204602F09F
:101BB000B5F9404604F06CFF20460022102102F0E7
:101BC000ADF93A4B042218460A2103F06DFE01F0EC
:101BD00049FF20460122072102F0A0F9344A354886
:101BE000916D41F080519165926D02F080520192A9
:101BF000019A1F22826101214FF4804002F0A8F96E
:101C000001F038FF294B184603F0AEFEFFF754FFF2
:101C1000FFF7B0FB584604F015F8504604F012F8F0
:101C2000484604F00FF801224021204602F076F9E0
:101C3000642001F005FFFEF777FE17F07DFA05F04E
:101C400075FD05F087FD404605F090FB102120460C
:101C5000012202F063F9184B042238461A7004F08E
:101C600031FD304604F02EFD284604F02BFD1349CB
:101C7000134A144B096812681B681348134D0A4431
:101C80000B4402600721002220462B6003B0BDE810
:101C9000F04F02F043B900BF08030020700200209B
:101CA000BC02002000080048000C00482001002071
:101CB000001002400070004074000020AC000020C2
:101CC0000800002004000020A8000020A40000203C
:101CD00044010020A80100200C0200205403002031
:101CE0002DE9F04F83B001F089FEFFF7E5FEFFF725
:101CF00041FB00F08BFD00F0DDFA00F003FB00F08B
:101D000027FB00F08DFC00F0C5FC00F0EDFC00F0BE
:101D10005DFABB480122402102F000F9B8480122D7
:101D2000202102F0FBF8B6480122102102F0F6F85B
:101D30000022B348072102F0F1F8642001F080FE90
:101D4000B04A002302F8013F0133FF2BFAD1FFF71D
:101D5000D1FA0022AC49AD48AD4DAE4FAE4EDFF8E2
:101D600020A3DFF82083DFF820B30423FFF704FA71
:101D7000AA4804F0A7FCAA4804F0A4FC06F0F2FE6E
:101D800005F0B0FCFFF7D2FBFFF744FCFFF7C8FCFF
:101D9000A44B1C46186805F0DDFC20681BF006FE0D
:101DA000012104461BF0F4FE204600211BF0BCFE7E
:101DB0002046F02107F08AFB20469B491BF08AFE53
:101DC000002309211A46204607F004FC19F008FFF9
:101DD000642001F035FE01F015FD944B1B78052BB6
:101DE0000CBF9349934920461BF074FE19F0F8FE8E
:101DF000642001F025FE904B2A681B688F499048AB
:101E000013440B608F4B1B6813443B6004F05AFC77
:101E1000042001F015FE3478012C17D0032C52D089
:101E2000022C3AD02A688849D8F800001BF052FEEC
:101E30003A682B689A4201D2FFF78CFE19F0D0FE67
:101E4000042001F0FDFD3478012CE7D1022333702A
:101E500017F072F905F06AFC724B1B68834200F0C0
:101E600082807A4B1B688342DCD0794B1B688342AB
:101E7000D8D1654B77491A6801321A60764B1868D9
:101E80001BF028FE00216148FFF7A4F95E495F4876
:101E900004230022FFF7DCF9C4E717F04DF905F041
:101EA00045FC6B4B1B6883422BD0DAF80020824242
:101EB000B8D16A4A12683C2AB4DD1846042333704C
:101EC00005F048FCAEE74FF0000986F8009017F0E7
:101ED00033F905F02BFCDAF800308342A2D1604BD5
:101EE0001B68002B00F0D2805E4B1B68002B6CD16E
:101EF0005D4B5E4998681BF0EDFD594A0223136063
:101F000090E7564B1B683C2B8CDD0423DAF800006D
:101F1000337005F01FFC564BDFF84C911B680193A2
:101F2000584619F06FFC0521584619F047FEFF216D
:101F3000584619F03FFE4F4B46F23931198058464A
:101F400019F02EFE0024019B59F8040BA3424FF018
:101F50000002594604F1010400F0E6800BF0ECF8B1
:101F6000032CF0D15EE70423DAF80000337005F0AB
:101F7000F1FB3F4BDFF8F0901B680193584619F0D6
:101F800041FC0521584619F019FEFF21584619F069
:101F900011FE384B46F239311980584619F000FECF
:101FA0000024019B59F8040BA3424FF0000259464C
:101FB00004F1010400F0AA800BF0BEF8032CF0D16C
:101FC000184B18680BF08AFD2CE7184B186A1C4652
:101FD00000F0ACFC244B84F800901C46986826491D
:101FE0001BF078FD2549E0681BF074FD04484A4663
:101FF000072101F093FF1A4BC3F8009012E700BFCE
:1020000000080048FF000010B4000020600000201D
:10201000AC000020A4000020740000200803002071
:10202000700200200C010020D0DF0108DC0300203A
:10203000F0DF01085CE0010808000020A800002093
:10204000BC02002004000020D4DE010810010020A2
:10205000CC000020C0DE0108BC000020C800002029
:10206000A000002090000020DC000020A8E0010873
:1020700014010020B000002024DF010850DF010817
:10208000D8000020C0000020180100204FF00109F6
:1020900001933C4B3C48C3F800904A46072101F0AD
:1020A0003DFF019B38481A46494601F037FF374B40
:1020B000374998681BF00EFD19F092FD01F0A2FB64
:1020C000344B1A78019B052A38D001932F4B3249A3
:1020D00098681BF0FFFC314A019B1268002A3BD133
:1020E0002A4C2F49E0680A602E491BF0F3FC2C496A
:1020F0002069284C0A682C491BF0ECFC2B49206A0B
:10210000FF2201F025F8022323708BE600220AF05B
:10211000F3FE019B022B03F101047FF442AF244B39
:1021200018680BF0DBFC7DE600220AF0E5FE019B5F
:10213000022B03F101047FF406AF73E6134B1D4934
:1021400098681C461BF0C6FC1B49E0681BF0C2FCEB
:102150000C4A019B136065E6184A194913600B4B42
:10216000D8681BF0B7FC094B144A18691268154966
:102170001BF0B0FC074B186A00F0A4FC054B1C7068
:1021800050E600BFA000002000080048DC0000204E
:10219000A8E00108DC0300202CE1010890000020E9
:1021A0009C0000203CE1010834DF01080001001020
:1021B0000C01002024DF0108C0E001089400002089
:1021C00060E1010880E1010872B6FEE700B51E4833
:1021D0001E4987B07F2200238260FF22CDE90133B0
:1021E000CDE90333C0E90013C0E90323C0E9053397
:1021F00005930093C36102F0FDFDC8B9002343F6C7
:10220000090C1148ADF804C0012201A9CDE904333D
:102210008DF8063002F058FE90B90D4B0A48009335
:102220000122694603F0DEF828B907B05DF804FB27
:10223000FFF7CAFFE2E7FFF7C7FF07B05DF804FB4F
:10224000FFF7C2FFE9E700BF20010020002800409F
:102250000703172410B5044698B05C22002101A89A
:102260001BF0C0FD114B22689A4201D018B010BD7E
:102270004FF400324FF4807301A80192179302F0DB
:102280000DFC80B90A49D1F89030002243F4004394
:10229000C1F890300320114601F006FC032001F044
:1022A00041FC18B010BDFFF78FFFEBE7002800409E
:1022B0000010024010B51148114C4FF482720023F7
:1022C000C0E900424FF4E0614FF40072C0E902310E
:1022D0002824826107210822C0E90433C0E90743AA
:1022E000C0E90933C0E90B13426303F0ABFC00B94A
:1022F00010BDBDE81040FFF767BF00BF44010020DC
:1023000000300140104811494FF4827210B5C0E905
:1023100000124FF4007200234FF4E0640721826141
:102320000822C0E90234C0E90433C0E90733C0E938
:102330000933C0E90B13426303F084FC00B910BDFC
:10234000BDE81040FFF740BFA80100200038004062
:1023500010B51148114C4FF48272C0E900424FF49D
:1023600000414FF4E0620023C0E902124FF48024E0
:1023700007210822C0E90433C0E90643C0E9083355
:10238000C0E90A31C0E90C3203F05CFC00B910BDB1
:10239000BDE81040FFF718BF0C020020003C0040D1
:1023A00070B50368464A8EB000249342CDE90844D4
:1023B000CDE90A440C9407D0424A934226D0424ABF
:1023C000934245D00EB070BD404B1A6E42F480521D
:1023D0001A661A6E02F480520192019ADA6C42F087
:1023E0000102DA64DB6C03F001030293032205238C
:1023F000C224022508A94FF09040CDE90845CDE957
:102400000B23029C01F014FC0EB070BD2F4B304822
:102410009A6D42F480429A659A6D02F4804203926A
:10242000039ADA6C42F00202DA64DB6C03F0020316
:102430000493032205234FF46044022508A9CDE943
:102440000845CDE90B23049C01F0F2FB0EB070BDF2
:102450001E4B9A6D42F400429A659A6D02F4004256
:102460000592059ADA6C42F00102DA64DA6C02F045
:1024700001020692069ADA6C42F00402DA64DB6C1E
:1024800003F0040307934FF400420326062508A92E
:1024900002234FF09040CDE90823CDE90B65079B5F
:1024A00001F0C6FB4FF4A05308930A480C95022391
:1024B00008A9CDE90A46099301F0BAFB0EB070BD38
:1024C0000030014000380040003C00400010024055
:1024D000000400480008004808B51C4A03689342FD
:1024E00006D01B4A934210D01A4A93421AD008BD14
:1024F00002F56042C221136E23F4805313664FF03D
:102500009040BDE8084001F07BBC02F5EC32124877
:10251000936D23F4804393654FF46041BDE8084018
:1025200001F06EBC02F5EA324FF40041936D23F4E2
:1025300000434FF09040936501F062FCBDE8084015
:1025400006484FF4A05101F05BBC00BF00300140D1
:1025500000380040003C00400004004800080048EB
:102560000A4B1A6E42F001021A661A6E82B002F02D
:1025700001020092009A9A6D42F080529A659B6D1A
:1025800003F080530193019B02B07047001002409A
:10259000FEE700BFFEE700BFFEE700BFFEE700BFAB
:1025A000FEE700BF704700BF704700BF704700BF25
:1025B00001F034BA014803F015BA00BF2001002031
:1025C00008B5202001F0B0FC4FF4807001F0ACFCA5
:1025D000BDE808404FF4007001F0A6BC014804F0CB
:1025E0006FB900BF70020020014804F069B900BF54
:1025F000BC020020014804F079BA00BF5403002057
:10260000014804F05DB900BF08030020034AD2F876
:10261000883043F47003C2F88830704700ED00E062
:1026200000B51A484FF0804202604F2289B04260E4
:10263000174A0023CDE90433CDE90633CDE9013350
:10264000C0E9023203930361836103F0C3FF90B9D1
:102650004FF480530D48049304A904F079F890B91D
:1026600000230A48019301A9039304F0D3F928B980
:1026700009B05DF804FBFFF7A7FDE9E7FFF7A4FD4C
:1026800009B05DF804FBFFF79FFDE9E7BC020020FD
:102690003F420F0000B51248124985B04F22002377
:1026A000C0E9001241F28732CDE90133C0E90232BC
:1026B0000393836103F08EFF50B900230848019310
:1026C00001A9039304F0A6F928B905B05DF804FB4D
:1026D000FFF77AFDF1E7FFF777FD05B05DF804FB42
:1026E000080300200014004000B51B481B4A02608C
:1026F00089B04F22002342604CF24F32CDE90433BF
:10270000CDE90633CDE90133C0E90232C0E9043333
:102710000393836103F05EFF90B94FF480530E483A
:10272000049304A904F014F890B900230A48019313
:1027300001A9039304F06EF928B909B05DF804FB10
:10274000FFF742FDE9E7FFF73FFD09B05DF804FB45
:10275000FFF73AFDE9E700BF7002002000400140AA
:1027600000B50368B3F1804F85B008D0244A934286
:102770001BD0244A93422DD005B05DF804FB03F52D
:1027800004330022996D41F0010199659B6D03F0BE
:10279000010301931C201146019B01F085F91C20C7
:1027A00005B05DF804EB01F0BDB9174B996D41F030
:1027B000200199659B6D03F02003029337200022CE
:1027C0000121029B01F070F9372005B05DF804EBA0
:1027D00001F0A8B90C4B196E41F4803119661B6EDB
:1027E00003F480330393182000220121039B01F09E
:1027F0005BF9182005B05DF804EB01F093B900BF58
:1028000000140040004001400010024010B50D4887
:102810000D4C00234FF416520C21C0E90042C0E9D0
:1028200004311A461946C0E90233C0E90633C0E94B
:10283000083304F0FDFE00B910BDBDE81040FFF7FD
:10284000C3BC00BF5403002000380140000000005A
:1028500010B504469EB000215C2207A8CDE9021104
:10286000CDE9041106911BF0BDFA214B22689A4272
:1028700001D01EB010BD012307A8079302F00EF986
:1028800058BB1C4B1A6E42F480421A661A6E02F450
:1028900080420092009ADA6C9FED117B42F00102B7
:1028A000DA64DB6C8DED027B9FED0F7B03F001039F
:1028B000019302A907234FF090408DED047B06930E
:1028C000019A01F0B5F900221146252001F0ECF83B
:1028D000252001F027F91EB010BDFFF775FCD0E7E9
:1028E00000160000020000000000000003000000CD
:1028F000003801400010024008B50268094B9A42B6
:1029000000D008BD084A136E23F480434FF0904076
:1029100013664FF4B05101F073FABDE8084025206A
:1029200001F00EB9003801400010024010B582B02D
:10293000044648F68103002210214FF09040ADF884
:10294000003001F0EBFA322302226946204603F000
:102950000BFA0122044610214FF0904001F0DEFAFC
:1029600000230193019BB3F57A7F06D2019B0133CB
:102970000193019BB3F57A7FF8D3204602B010BDD6
:1029800010B582B004464FF69273002210214FF02A
:102990009040ADF8003001F0C1FA322302226946BE
:1029A000204603F0E1F90122044610214FF0904047
:1029B00001F0B4FA00230193019BB3F57A7F06D2AC
:1029C000019B01330193019BB3F57A7FF8D3204635
:1029D00002B010BD70B582B00646192300224FF038
:1029E00090400D4610218DF8033001F097FA322304
:1029F00001220DF10301304603F0B6F932230446FB
:102A000001220DF10201304603F066FC012204436D
:102A100010214FF0904001F081FA00230193019BB7
:102A2000B3F57A7FE4B206D2019B01330193019B97
:102A3000B3F57A7FF8D39DF902209DF80230002A81
:102A4000BDBF5B42C3F385035B429B0820462B60FE
:102A500002B070BD70B582B006461A2300224FF056
:102A600090400D4610218DF8033001F057FA3223C3
:102A700001220DF10301304603F076F932230446BA
:102A800001220DF10201304603F026FC012204432D
:102A900010214FF0904001F041FA00230193019B77
:102AA000B3F57A7FE4B206D2019B01330193019B17
:102AB000B3F57A7FF8D39DF802302046893B2B602E
:102AC00002B070BD70B58AB048F2CD430446002212
:102AD00010214FF09040ADF8203001F01FFA322362
:102AE000022208A9204603F03FF9012205461021E1
:102AF0004FF0904001F012FA00230993099BB3F5BF
:102B00007A7F06D2099B01330993099BB3F57A7F3B
:102B1000F8D3A423002210214FF09040ADF81C30D0
:102B200001F0FCF93223022207A9204603F01CF928
:102B30000122102106464FF0904001F0EFF90023EA
:102B40000893089BB3F57A7F06D2089B013308935C
:102B5000089BB3F57A7FF8D34BF6917300221021CE
:102B60004FF09040ADF8183001F0D8F9322302222E
:102B700006A9204603F0F8F82E430122102105464D
:102B80004FF0904001F0CAF900230793079BB3F57B
:102B90007A7FF6B206D2079B01330793079BB3F502
:102BA0007A7FF8D34FF69273002210214FF09040B5
:102BB000ADF8143001F0B2F93223022205A9204603
:102BC00003F0D2F835430122102106464FF0904021
:102BD00001F0A4F900230693069BB3F57A7FEDB2CA
:102BE00006D2069B01330693069BB3F57A7FF8D392
:102BF0008E23002210214FF09040ADF8103001F0EC
:102C00008DF93223022204A9204603F0ADF82E43A9
:102C10000122102105464FF0904001F07FF900237A
:102C20000593059BB3F57A7FF6B206D2059B013377
:102C30000593059BB3F57A7FF8D38F2300221021EB
:102C40004FF09040ADF80C3001F068F932230222C9
:102C500003A9204603F088F83543012210210646D7
:102C60004FF0904001F05AF900230493049BB3F510
:102C70007A7FEDB206D2049B01330493049BB3F533
:102C80007A7FF8D38D23002210214FF09040ADF8C9
:102C9000083001F043F93223022202A9204603F052
:102CA00063F82E430122102105464FF0904001F0B9
:102CB00035F900230393039BB3F57A7FF6B206D26E
:102CC000039B01330393039BB3F57A7FF8D348F654
:102CD0008153002210214FF09040ADF8043001F0F4
:102CE0001DF93223022201A9204603F03DF80122FA
:102CF000044610214FF0904001F010F90023029398
:102D0000029B3543B3F57A7FEDB206D2029B0133C5
:102D10000293029BB3F57A7FF8D344EA0500C0B270
:102D20000AB070BD70B58AB048F2CD730446002277
:102D300010214FF09040ADF8203001F0EFF8322331
:102D4000022208A9204603F00FF8012205461021AF
:102D50004FF0904001F0E2F800230993099BB3F58E
:102D60007A7F06D2099B01330993099BB3F57A7FD9
:102D7000F8D3A423002210214FF09040ADF81C306E
:102D800001F0CCF83223022207A9204602F0ECFF22
:102D90000122102106464FF0904001F0BFF80023B9
:102DA0000893089BB3F57A7F06D2089B01330893FA
:102DB000089BB3F57A7FF8D34FF29173002210216C
:102DC0004FF09040ADF8183001F0A8F832230222FD
:102DD00006A9204602F0C8FF2E4301221021054615
:102DE0004FF0904001F09AF800230793079BB3F54A
:102DF0007A7FF6B206D2079B01330793079BB3F5A0
:102E00007A7FF8D344F2C003002210214FF09040A3
:102E1000ADF8143001F082F83223022205A92046D1
:102E200002F0A2FF35430122102106464FF09040E8
:102E300001F074F800230693069BB3F57A7FEDB298
:102E400006D2069B01330693069BB3F57A7FF8D32F
:102E50004FF69273002210214FF09040ADF81030E1
:102E600001F05CF83223022204A9204602F07CFF24
:102E70002E430122102105464FF0904001F04EF8FC
:102E800000230593059BB3F57A7FF6B206D2059B26
:102E900001330593059BB3F57A7FF8D38E23002287
:102EA00010214FF09040ADF80C3001F037F832238C
:102EB000022203A9204602F057FF354301221021C8
:102EC00006464FF0904001F029F800230493049B3C
:102ED000B3F57A7FEDB206D2049B01330493049BD1
:102EE000B3F57A7FF8D38F23002210214FF0904062
:102EF000ADF8083001F012F83223022202A9204670
:102F000002F032FF2E430122102105464FF090407F
:102F100001F004F800230393039BB3F57A7FF6B224
:102F200006D2039B01330393039BB3F57A7FF8D357
:102F30008D23002210214FF09040ADF8043000F0B6
:102F4000EDFF3223022201A9204602F00DFF0122EB
:102F5000044610214FF0904000F0E0FF0023029360
:102F6000029B3543B3F57A7FEDB206D2029B013363
:102F70000293029BB3F57A7FF8D344EA0500C0B20E
:102F80000AB070BD2DE9F047102688B004461746F8
:102F90004FF090400022884631468DF81C6000F0CA
:102FA000BDFF3223012207A9204602F0DDFE3223B5
:102FB00001220DF106010546204603F08DF9314648
:102FC000824601224FF0904000F0A8FF00230693B4
:102FD000069BB3F57A7F06D2069B01330693069BC8
:102FE000B3F57A7FF8D39DF806308DF81D300022B6
:102FF0008D2310214FF090408DF81C3000F08EFF93
:103000003223022207A9204602F0AEFE0122064624
:1030100010214FF0904000F081FF00230593059BA5
:10302000B3F57A7F06D2059B01330593059BB3F573
:103030007A7FF8D31323002210214FF090408DF8AF
:103040001C3000F06BFF07A932230122204602F05A
:103050008BFE322301220DF107018146204603F049
:103060003BF945EA0A050122824610214FF09040C3
:1030700000F054FF00230493049BB3F57A7FEDB274
:1030800006D2049B01330493049BB3F57A7FF8D3F3
:103090002E4349EA06099DF807603E800022102170
:1030A0004FF090408DF80C2000F038FF32230122C1
:1030B00003A9204602F058FE4AEA090A5FFA8AFA92
:1030C0000546074650B34FF69273002210214FF089
:1030D0009040ADF8083000F021FF3223022202A90F
:1030E000204602F041FE0122044610214FF090409C
:1030F00000F014FF00230393039BB3F57A7F4AEAA1
:10310000050506D2039B01330393039BB3F57A7F36
:10311000F8D345EA040008B0BDE8F0873223324610
:103120004146204603F0D8F80122054610214FF011
:10313000904000F0F3FE0797079BB3F57A7FC2D269
:10314000079B01330793079BB3F57A7FF8D3BAE760
:103150002DE9F04186B004460E461546FFF7E2FD24
:1031600048F681130022102107464FF09040ADF839
:10317000103000F0D3FE3223022204A9204602F0D0
:10318000F3FD0122804610214FF0904000F0C6FE72
:1031900000230593059BB3F57A7F06D2059B013387
:1031A0000593059BB3F57A7FF8D3A2230022102163
:1031B0004FF090408DF80C308DF80D5000F0AEFEC1
:1031C0003223022203A9204602F0CEFD47EA080777
:1031D0000122804610214FF0904000F09FFE002316
:1031E0000493049BB3F57A7F06D2049B01330493C6
:1031F000049BB3F57A7FF8D38023002210214FF08F
:1032000090408DF8083000F089FE3223012202A997
:10321000204602F0A9FD2A463223314605462046C3
:1032200002F0A2FD0122054310214FF0904000F072
:1032300075FE00230393039BB3F57A7F47EA0807E3
:10324000EDB206D2039B01330393039BB3F57A7F60
:10325000F8D348F68133002210214FF09040ADF8AA
:10326000043000F05BFE3223022201A9204602F066
:103270007BFD0122044610214FF0904000F04EFEED
:1032800000230293029BB3F57A7F45EA070506D235
:10329000029B01330293029BB3F57A7FF8D345EA90
:1032A000040006B0BDE8F0812DE9F04393B048F684
:1032B0008103044600224FF090400D461021ADF8E6
:1032C000443000F02BFE3223022211A9204602F0E6
:1032D0004BFD012210214FF0904000F01FFE002313
:1032E0000293029BB3F57A7F06D2029B01330293CD
:1032F000029BB3F57A7FF8D300230193019BBF4A69
:10330000934205D8019B01330193019B9342F9D964
:1033100081222B788DF84420102100224FF090401C
:103320008DF8453000F0FAFD3223022211A9204623
:1033300002F01AFD0122102106464FF0904000F0E5
:10334000EDFD00230E930E9BB3F57A7F06D20E9B04
:1033500001330E930E9BB3F57A7FF8D3D5ED017A46
:10336000DFEDA76AB8EE677A0022C7EE267A102151
:103370004FF09040FCEEE77A17EE908A4FEA184340
:103380008DF8413086238DF8403000F0C7FD3223A0
:10339000022210A9204602F0E7FC012281461021FA
:1033A0004FF0904000F0BAFD00231193119BB3F54C
:1033B0007A7FC8F307275FFA88F806D2119B01339A
:1033C0001193119BB3F57A7FF8D387230022102144
:1033D0004FF090408DF83D708DF83C3000F09EFD30
:1033E000322302220FA9204602F0BEFC012207462A
:1033F00010214FF0904000F091FD00231093109B9E
:10340000B3F57A7F06D2109B01331093109BB3F56E
:103410007A7FF8D38823002210214FF090408DF856
:1034200035808DF8343000F079FD322302220DA969
:10343000204602F099FC0122804610214FF0904076
:1034400000F06CFD00230F930F9B46EA0906B3F5CD
:103450007A7FF6B206D20F9B01330F930F9BB3F521
:103460007A7FF8D36B7C8DF83130002289231021CC
:103470004FF090408DF8303000F050FD32230222A2
:103480000CA9204602F070FC3E4348EA06070122E0
:10349000064610214FF0904000F040FD00230D93B0
:1034A0000D9BB3F57A7FFFB206D20D9B01330D93CE
:1034B0000D9BB3F57A7FF8D3AB7C8DF82D300022CD
:1034C0008B2310214FF090408DF82C3000F026FD1A
:1034D000322302220BA9204602F046FC3E43012281
:1034E000074610214FF0904000F018FD00230C9388
:1034F0000C9BB3F57A7FF6B206D20C9B01330C938A
:103500000C9BB3F57A7FF8D3EB7C8DF82930002241
:103510008C2310214FF090408DF8283000F0FEFCF5
:10352000322302220AA9204602F01EFC3743012260
:10353000064610214FF0904000F0F0FC00230B9362
:103540000B9BB3F57A7FFFB206D20B9B01330B9333
:103550000B9BB3F57A7FF8D32B7D8DF825300022B5
:103560009D2310214FF090408DF8243000F0D6FCC0
:103570003223022209A9204602F0F6FB3E43012233
:10358000074610214FF0904000F0C8FC00230A933A
:103590000A9BB3F57A7FF6B206D20A9B01330A93EF
:1035A0000A9BB3F57A7FF8D36B7D8DF8213000222A
:1035B0009E2310214FF090408DF8203000F0AEFC9B
:1035C0003223022208A9204602F0CEFB3743012213
:1035D000064610214FF0904000F0A0FC0023099314
:1035E000099BB3F57A7FFFB20CD2099B0133099393
:1035F000099BB3F57A7FF8D304E000BF7F841E00F7
:10360000D7237442AB7D8DF81D3000229F231021FB
:103610004FF090408DF81C3000F080FC32230222E5
:1036200007A9204602F0A0FB3E43012207461021D5
:103630004FF0904000F072FC00230893089BB3F514
:103640007A7FF6B206D2089B01330893089BB3F544
:103650007A7FF8D3EB891B0A8DF819300022A0235A
:1036600010214FF090408DF8183000F057FC3223B5
:10367000022206A9204602F077FB374301220646C4
:1036800010214FF0904000F049FC00230793079B66
:10369000B3F57A7FFFB206D2079B01330793079BEE
:1036A000B3F57A7FF8D3AB7B8DF815300022A123D8
:1036B00010214FF090408DF8143000F02FFC322391
:1036C000022205A9204602F04FFB3E430122074695
:1036D00010214FF0904000F021FC00230693069B40
:1036E000B3F57A7FF6B206D2069B01330693069BAA
:1036F000B3F57A7FF8D3EB7D8DF811300022C0232B
:1037000010214FF090408DF8103000F007FC32236C
:10371000022204A9204602F027FB37430122064675
:1037200010214FF0904000F0F9FB00230593059B1A
:10373000B3F57A7FFFB206D2059B01330593059B53
:10374000B3F57A7FF8D3C1212B7E8DF80C100022BF
:1037500010214FF090408DF80D3000F0DFFB322348
:10376000022203A9204602F0FFFA01221021054699
:103770004FF0904000F0D2FB00230493049B3E43A3
:10378000B3F57A7FF6B206D2049B01330493049B0F
:10379000B3F57A7FF8D348F68113002210214FF059
:1037A0009040ADF8003000F0B9FB322302226946A8
:1037B000204602F0D9FA012210214FF0904000F08B
:1037C000ADFB00230393039B3543B3F57A7FEDB242
:1037D00006D2039B01330393039BB3F57A7FF8D39F
:1037E00000230093009B064A934205D8009B0133B7
:1037F0000093009B9342F9D9284613B0BDE8F083AB
:103800007F841E00F0B54C494C4C4D4A4D4BA36291
:103810008DB00025C4E908124FF090402A460821D7
:10382000CDE90655CDE90855CDE90A55059500F0D5
:1038300075FB0295029B444A934205D8029B0133D3
:103840000293029B9342F9D9012208214FF0904044
:1038500000F064FB00230393039B3B4A934205D88B
:10386000039B01330393039B9342F9D9374A09928F
:1038700088238DF814304CF2927249F2C003ADF8EF
:103880002820ADF81C303249069102220C23ADF8F5
:1038900022308DF81E20FF230DF1140C8DF82A30F4
:1038A000BCE80F002B4D276ADFF8ACE00FC59CE8A1
:1038B0000700012685E80700002210214FF0904004
:1038C000C4F808E08DF8076000F028FB3223324688
:1038D0000DF10701384602F047FA322332460DF166
:1038E0000601384602F0F8FC324610214FF09040B5
:1038F00000F014FB00230493049BB3F57A7F06D2F7
:10390000049B01330493049BB3F57A7FF8D39DF8AD
:10391000063003F07803082B0CBF00230523237027
:1039200023780BB10DB0F0BD0A49206A0DB0BDE897
:10393000F040FFF7B9BC00BF44010020DC030020C9
:1039400061180008F5180008FF083D0004FF0B236C
:103950008050DE19E0030020007F221DDFF834D004
:10396000FEF754FE0C480D490D4A002302E0D458DE
:10397000C4500433C4188C42F9D30A4A0A4C0023B9
:1039800001E013600432A242FBD31AF033FAFEF7CF
:10399000A7F9FEE7000001200000002044000020FD
:1039A000D039020844000020886D0020FEE70000A6
:1039B00038B50F4B1B780BB9012038BD0D494FF4BA
:1039C0007A720546B2FBF3F30868B0FBF3F000F03F
:1039D000C9F804460028EFD10F2DEDD8024629463C
:1039E0004FF0FF3000F060F8034B20461D6038BDFB
:1039F00018000020140000201C00002010B5032037
:103A000000F040F80F20FFF7D3FF10B1012420464B
:103A100010BD0446FEF7A4FD204610BD034A044B2A
:103A200011681B780B441360704700BF0804002026
:103A300018000020014B1868704700BF08040020E0
:103A400038B50446FFF7F6FF631C054602D0044B69
:103A50001B781C44FFF7EEFF431BA342FAD338BD8B
:103A6000180000204FF0E022136923F002031361D5
:103A7000704700BF4FF0E022136943F00203136167
:103A8000704700BF0749CA6803024FF6FF0003F4FE
:103A9000E0630240134343F0BF6343F40033CB6061
:103AA000704700BF00ED00E01C4BDB68C3F302234E
:103AB00000B5C3F1070EBEF1040F03F1040C28BFDB
:103AC0004FF0040EBCF1060F1BD9033B4FF0FF3C37
:103AD0000CFA03FC22EA0C024FF0FF3C0CFA0EFC3D
:103AE00021EA0C019940002841EA02010CDB00F1B7
:103AF0006040090100F56140C9B280F800135DF82B
:103B000004FB00221346E7E7054B00F00F00090114
:103B10000344C9B219765DF804FB00BF00ED00E074
:103B2000FCEC00E0002807DB044A4109012300F017
:103B30001F00834042F82130704700BF00E100E0E1
:103B400000280CDB4309064900F01F002033012246
:103B5000824041F82320BFF34F8FBFF36F8F704730
:103B600000E100E00138B0F1807F10D210B44FF0D6
:103B7000E023084C58614FF0F00C84F823C0002279
:103B8000072110469A615DF8044B196170470120C6
:103B9000704700BF00ED00E090F82520022A0346A0
:103BA00006D00422C2630022012083F8242070473B
:103BB0000168426C086820F00E000860086820F078
:103BC000010008604FF0010C196C02F01C020CFAA5
:103BD00002F24A600022002083F825C083F82420E6
:103BE000704700BF90F82520022A03D00422C26348
:103BF000012070470168426C10B50C6824F00E0477
:103C00000C600C6824F001040C6002F01C02046CCF
:103C1000012101FA02F26260826B80F82510002413
:103C200080F8244012B19047204610BD104610BDC8
:103C30002DE9F04F0C6885B0002C77D04FF0000CC8
:103C4000694E63464FF0010B8E460BFA03F717EAF5
:103C5000040A65D0DEF8041001F00302551E012DA0
:103C600067D9032A40F0AB8002FA0CF2D54307680B
:103C70003D402A4311F4403F026051D05B4D2A6E13
:103C800042F001022A662A6E02F001020392039AB0
:103C900023F0030202F1804202F5803203F00305B3
:103CA0004FEA850997680F2505FA09F8B0F1904F9A
:103CB00027EA080715D04E4DA84200F08B804D4DE5
:103CC000A84200F08B804C4DA8427DD04B4DA842BD
:103CD00013BF07254FF0040808FA09F505FA09F59E
:103CE0002F439760B2686FEA0A05CF0254BF2A409B
:103CF0004AEA0202B260F2688F0254BF2A404AEADE
:103D00000202F26072688F0354BF2A404AEA02023C
:103D100072603268C90354BF2A404AEA0202326024
:103D2000013334FA03F20CF1020C8ED105B0BDE878
:103D3000F08FD0F80890DEF80C504FF0030808FA26
:103D40000CF829EA080905FA0CF545EA0905856029
:103D50006FEA0805D0F8048028EA0708C1F30017C5
:103D60009F4047EA08074760C76807EA0508DEF88A
:103D7000087007FA0CF747EA0807022AC76002FA38
:103D80000CF27FF474AF4FEAD30900EB890903F01A
:103D90000708D9F820700097DEF810704FEA8808FD
:103DA00007FA08F701970F2707FA08F8009F27EA94
:103DB0000808019F47EA0807C9F8207057E703255C
:103DC00005FA0CF5ED43CFE74FF0030808FA09F5C3
:103DD0002F4386E70BFA09F52F4382E74FF00208DD
:103DE00008FA09F52F437CE7000401400010024067
:103DF0000004004800080048000C0048001000487B
:103E000000297AD02DE9F04F00233C4EDFF8FCB0BA
:103E10004FF00F094FF0030A49E0584562D0384F80
:103E2000B84263D0374FB84264D0374FB84214BF5E
:103E30000727042707FA04F4A44513D1346824EAB9
:103E40000E043460746824EA0E047460F46824EA92
:103E50000E04F460B46824EA0E04B460AC6824EA8A
:103E60000804AC6005685C000AFA04F44FEAD30C5D
:103E7000254300EB8C0C056003F00705DCF820E01F
:103E8000AD0009FA05F52EEA0505CCF82050856845
:103E900025EA04058560456825EA02024260C26899
:103EA00022EA0402C260013331FA03F218D001227F
:103EB0009A4012EA010EF6D023F0030505F1804581
:103EC00005F5803503F00304D5F808C0A40009FA0D
:103ED00004F8B0F1904F08EA0C0C9ED10024ABE737
:103EE000BDE8F08F012707FA04F4A5E7022707FAD7
:103EF00004F4A1E70AFA04F49EE7704700040140C5
:103F000000080048000C0048001000480004004869
:103F10000369194214BF0120002070470AB1816172
:103F200070478162704700BF044A5169014200D165
:103F3000704708B55061FDF783FC08BD00040140DF
:103F4000024A136843F480731360704700700040A6
:103F5000B0F5804F084601D000F04CB800F066B8CC
:103F6000024B186800F4C060704700BF007000404A
:103F7000B0F5007F0ED01C4A136803F4C063B3F59C
:103F8000806F2DD0136823F4C06343F48063002056
:103F90001360704714490B6803F4C063B3F5007FE6
:103FA0001ED00B68114A23F4C06343F400730B6006
:103FB00013680F4A322000FB03F34869A2FB032376
:103FC0009B0C400503F1010306D500E023B14A69CB
:103FD000520503F1FF33F9D4034B5B695B0501D450
:103FE000002070470320704700700040140000203C
:103FF00083DE1B430B490C4A0B6823F007030B605D
:104000001369012843F00403136108D040BF20BFA7
:1040100020BF054A136923F004031361704730BFC2
:10402000F7E700BF0070004000ED00E00C490D4ACA
:104030000B6823F0070343F001030B6013690128A9
:1040400043F00403136108D040BF20BF20BF054ADE
:10405000136923F004031361704730BFF7E700BF13
:104060000070004000ED00E030B5204DAB6DDB008E
:1040700083B004461CD5FFF773FFB0F5007F29D04D
:10408000802C13D82FD0A4F17004B4FA84F46409FE
:1040900017490B6823F0070323430B60086800F0FF
:1040A0000700001B18BF012003B030BD0324EFE759
:1040B000AB6D43F08053AB65AB6D03F08053019360
:1040C000019BFFF74DFFAB6DB0F5007F23F08053F0
:1040D000AB65D5D1802C04D9A02C8CBF022401243F
:1040E000D6E70024D4E70224D2E700BF0010024044
:1040F00000200240284A9368D26813F00C0308D0CD
:104100000C2B38D0042B34D0082B244818BF0020A7
:104110007047214A1168090754BFD2F894201268E9
:104120001F4954BFC2F30322C2F3031251F8220005
:1041300003B30C2B2DD1184BDB6803F00303022BC8
:1041400025D0164A032B08BF1046134BD968DA68EE
:10415000DB68C3F34163C2F30622C1F302110133EA
:1041600000FB02F201315B00B2FBF1F2B2FBF3F0B3
:1041700070470C48704702F00302012AC9D0064B71
:10418000DB6803F00303022B4FF00000D9D1054890
:10419000DBE70020704700BF0010024000127A00E9
:1041A000B4E101080024F400002800F082822DE927
:1041B000F043944A03689568D6680446D80683B0ED
:1041C00005F00C0506F003062ED5002D00F0238126
:1041D0000C2D00F01D81A3698A4F002B00F0938104
:1041E0003B6843F001033B60FFF724FC804606E098
:1041F000FFF720FCA0EB0800022800F294813B6846
:104200009B07F5D53B6843F008033B603B68226A97
:1042100023F0F00313433B607B68E26923F47F43A0
:1042200043EA02237B602368D90700F1C280990723
:1042300023D5042D00F057810C2D00F05181E36847
:10424000704E002B00F0D981336843F480733360E3
:10425000FFF7F0FB074605E0FFF7ECFBC01B022869
:1042600000F2618133685B05F6D57368226923F03B
:10427000F85343EA026373602368190719D5636929
:10428000604E002B00F01881D6F8943043F0010303
:10429000C6F89430FFF7CEFB074605E0FFF7CAFBF0
:1042A000C01B022800F23F81D6F894309A07F5D55A
:1042B00023685E073FD5534B9A6DD00000F19B8178
:1042C0009A6D42F080529A659B6D03F08053019382
:1042D000019B01264C4F3B68D90540F1F781A3684B
:1042E000012B00F09C81052B00F01B82454FD7F875
:1042F000902022F00102C7F89020D7F8902022F0F9
:104300000402C7F89020002B40F09081FFF792FB49
:1043100041F28839804606E0FFF78CFBA0EB0800ED
:10432000484500F20081D7F890309807F4D4002E69
:1043300040F0DE812368990618D5636A314E002B60
:1043400000F0A281D6F8983043F00103C6F8983007
:10435000FFF770FB074605E0FFF76CFBC01B022868
:1043600000F2E180D6F898309A07F5D5A36A002BC1
:1043700000F03F81022B00F0EF800C2D00F08C80CC
:10438000204C236823F080732360FFF753FB05461E
:1043900005E0FFF74FFB401B022800F2C4802368B2
:1043A00013F00073F5D1E168184A0A401846E2603C
:1043B00073E0082D76D00C2D72D06368B3F5803F82
:1043C00000F0B580B3F5A02F00F09E810D4F3A6844
:1043D00022F480323A603A6822F480223A60002B5C
:1043E00040F0AA80FFF726FB804606E0FFF722FB9D
:1043F000A0EB0800642800F296803B689803F5D48F
:10440000236814E70010024000700040FCFFEEFE3D
:10441000012E7FF4E0AEA84B1B68990739D4A64B58
:10442000206A1A68120756BFD3F894301B681B091C
:1044300003F0F003984200F20F819F4B1A6842F09C
:1044400008021A601A6822F0F00202431A605A68E1
:10445000E16922F47F4242EA01225A60002D00F015
:104460004D81FFF747FE944B944A9B68C3F30313B7
:10447000D35C934A03F01F0320FA03F31068914AB8
:104480001360FFF795FA40B92368D9077FF5CFAEDF
:104490008FE7A369002BC2D1012003B0BDE8F083F0
:1044A000032E8AD1844A126892037FF5C0AE6268F7
:1044B000002A7FF4BCAEEFE7D6F8943023F0010376
:1044C000C6F89430FFF7B6FA074604E0FFF7B2FAF1
:1044D000C01B022827D8D6F894309B07F6D4E7E60D
:1044E000022E7FF4ACAE744A1268520502D5E2681F
:1044F000002AD1D0704920694A6822F0F85242EA75
:1045000000624A60B9E63B6823F001033B60FFF7B5
:1045100091FA80463B689807B6D5FFF78BFAA0EB77
:1045200008000228F6D9032003B0BDE8F083624AF0
:10453000136843F480331360FFF77CFADFF8788167
:10454000074604E0FFF776FAC01B6428EBD8D8F8DA
:1045500000309B03F6D553E7574EE26AF36803F049
:104560000301914200F0EB800C2D95D0524D2B6849
:104570005E0191D42B6823F080732B60FFF75AFA09
:10458000064604E0FFF756FA801B0228CBD82B68BA
:104590009801F7D4E9684C4BE26A206B464E0B4019
:1045A0001343D4E90D1243EA012343EAC263D4E979
:1045B0000F120138490843EA00130139520843EA4F
:1045C0004153013A43EA4263EB602B6843F0807346
:1045D0002B60EB6843F08073EB60FFF72BFA044627
:1045E00004E0FFF727FA001B02289CD833689901E2
:1045F000F7D5002051E700266CE6336823F480737A
:104600003360FFF717FA074604E0FFF713FAC01B01
:10461000022888D833685805F7D423682DE6264A3F
:10462000D2F8903043F00103C2F89030FFF702FA5D
:10463000DFF88480074641F2883905E0FFF7FAF990
:10464000C01B48453FF66FAFD8F890309B07F5D5B3
:10465000002E3FF46FAE4BE0FFF706FD00287FF41D
:104660001BAF154B1A6842F008021A601A68216ADB
:1046700022F0F0020A431A605A68E16922F47F428C
:1046800042EA01225A60ECE6D6F8983023F00103A2
:10469000C6F89830FFF7CEF9074605E0FFF7CAF9EC
:1046A000C01B02283FF63FAFD6F898309B07F5D4E1
:1046B0005CE60120704700BF001002409CE1010849
:1046C0001C000020140000208C809D013B6843F4F6
:1046D00080733B60FFF7AEF980463B68DA053FF533
:1046E000FEADFFF7A7F9A0EB08000228F5D91AE7FD
:1046F000344A936D23F0805393651BE6FFF7B4FCB7
:1047000000283FF4AEAEC7E603F18043A3F53C3387
:104710001A6842F480221A601A6842F480321A60E1
:104720000AE7284BD3F8902042F00402C3F8902007
:10473000D3F8902042F00102C3F8902076E7216B75
:1047400003F070020139B2EB011F7FF40DAF616B12
:1047500003F4FE42B2EB012F7FF406AFA16B03F02E
:104760007842B2EBC16F7FF4FFAEE26B520803F404
:10477000C001013AB1EB425F7FF4F6AE226C520801
:1047800003F0C063013AB3EB426F7FF4EDAE3368E0
:104790009A013FF52EAF336843F080733360F368BE
:1047A00043F08073F360FFF745F9044605E0FFF737
:1047B00041F9001B02283FF6B6AE33689B01F6D5DF
:1047C00017E700BF00100240002800F09F80534A06
:1047D000136803F007038B422DE9F0410D460446B0
:1047E0000CD2136823F007030B431360136803F024
:1047F00007038B4202D00120BDE8F08123689E07A9
:1048000071D54748A168826802F0F002914204D94C
:10481000826822F0F0020A438260DA0726D56268D5
:104820003F4B032A1B6865D0022A6CD0002A71D145
:104830009B07E0D53A4EB36823F003031343B360FC
:10484000FFF7F8F841F28838074604E0FFF7F2F87E
:10485000C01B40455CD8B368626803F00C03B3EB3F
:10486000820FF3D123689E0706D5A1682C48826881
:1048700002F0F0028A4240D828490A6802F0070292
:10488000AA4209D90A6822F007022A430A600A6884
:1048900002F00702AA42AED15D0706D52049E068C2
:1048A0008A6822F4E06202438A60180707D51C4A2E
:1048B0002169936823F4605343EAC1039360FFF7CF
:1048C00019FC174A174C92681749C2F303120346A2
:1048D000A25C164802F01F02D340BDE8F041006818
:1048E0000B60FFF765B8D907C6D562680C4B032A81
:1048F0001B6899D198019DD47DE7826822F0F0026F
:104900000A438260B8E7990394D474E701207047A2
:10491000032071E75F057FF56EAF8BE70020024053
:10492000001002409CE10108140000201C0000203F
:10493000054B064A9B680649C3F302230868D35C0B
:1049400003F01F03D840704700100240ACE101089B
:1049500014000020054B064A9B680649C3F3C22396
:104960000868D35C03F01F03D84070470010024072
:10497000ACE1010814000020F8B5474BDA68920753
:1049800004460F4607D0DA68016802F003028A4243
:104990004BD00120F8BD0068022857D003284ED024
:1049A0000128F6D11B689B07F4D53B496268CB68A8
:1049B00023F073030343013A43EA0213CB60364DFD
:1049C0002B6823F080632B60FFF734F8064604E081
:1049D000FFF730F8831B022B3CD82B681A01F7D461
:1049E000002F39D1D4E902132A69DB0622F078427C
:1049F00043EA012322F4FE4213432B61264D2B6828
:104A000043F080632B60FFF715F8064604E0FFF7DC
:104A100011F8831B022B1DD82B681B01F7D52B69BE
:104A2000A269134300202B61F8BD002AB1D0DB68D6
:104A30004268C3F3021301339342AAD1BFE71A6855
:104A40009503B2D41B685903A3D5AEE71B685E0576
:104A50009FD5AAE70320F8BD012F2B690DD062690D
:104A6000A16823F0C063520823F4FE43013A43EAED
:104A7000012343EA42632B61C0E72269A16823F462
:104A8000C003520823F4FE43013A43EA012343EAF8
:104A900042532B61B2E700BF001002402DE9F04302
:104AA000036813F4006783B004460CD0416CB1F581
:104AB000000F00F01281B1F5400F00F013810029C2
:104AC00000F026810127990359D5A54B9A6DD20094
:104AD00040F1F7804FF00008A24D2B6843F480733B
:104AE0002B60FEF7A7FF064605E0FEF7A3FF831B3A
:104AF000022B00F201812B68DB05F6D5B7BB984D80
:104B0000D5F8903013F4407327D0A26D9A4225D087
:104B1000D5F89010D5F8903043F48033C5F8903034
:104B2000D5F8903023F48033C5F89030CE0721F4C7
:104B30004073C5F8903040F11081FEF77BFF41F2E1
:104B40008839064605E0FEF775FF801B484500F2F0
:104B5000D380D5F890309807F5D5A36D8049D1F86A
:104B6000902022F440721343C1F89030B8F1000F46
:104B700004D07B4A936D23F0805393652368D90753
:104B800008D57749206AD1F8882022F00302024331
:104B9000C1F888209A0708D57149606AD1F8882041
:104BA00022F00C020243C1F888205E0708D56C4948
:104BB000A06AD1F8882022F030020243C1F8882090
:104BC0009D0608D56649E06AD1F8882022F4406243
:104BD0000243C1F88820980508D56149E06BD1F8F7
:104BE000882022F440220243C1F88820590508D5C4
:104BF0005B49206CD1F8882022F440120243C1F8AE
:104C000088205A0608D55649206BD1F8882022F40E
:104C100040520243C1F888201E0608D55049606BF7
:104C2000D1F8882022F440420243C1F88820DD05F3
:104C300008D54B49A06BD1F8882022F440320243BA
:104C4000C1F8882018030ED54549A06CD1F88820FA
:104C500022F040620243B0F1006FC1F888204DD0CD
:104C6000B0F1806F64D059030ED53D49E06CD1F8A6
:104C7000882022F040620243B0F1006FC1F8882022
:104C800041D0B0F1806F5CD05A040BD53448216D0F
:104C9000D0F8882022F040520A43B1F1805FC0F87A
:104CA00088203CD01B0408D52D4A616DD2F888308D
:104CB00023F080430B43C2F88830384603B0BDE888
:104CC000F0839A6D42F080529A659B6D03F0805399
:104CD0000193019B4FF00108FEE62148C26842F4AF
:104CE0008032C2601E48D0F8882022F440020A4375
:104CF000C0F888200027E6E6032737E7CA6842F4B1
:104D00008012CA60AFE7CA6842F48012CA60BBE78B
:104D10000430FFF731FE0746E0B12368D3E60221F5
:104D2000201DFFF729FE23680028BBD00746B9E7FE
:104D30000121201DFFF720FE2368002893D007469D
:104D400091E70121201DFFF717FE236800289BD063
:104D5000074699E7616C2368C4E71346FEE600BF87
:104D6000001002400070004038B5204BDA6822F095
:104D70008002DA609A689106044612D403681C4ADD
:104D8000DA60FEF757FE054605E0FEF753FE431BCB
:104D9000B3F57A7F25D82368DB689A06F5D500201D
:104DA00038BD9A680168124822F020029A60C860F3
:104DB000FEF740FE054605E0FEF73CFE431BB3F55B
:104DC0007A7F0AD82368DB689B06F5D50020074A5E
:104DD000936843F02003936038BD032084F82100DA
:104DE000F5E7032084F8210038BD00BF002800400B
:104DF0005FFF030000284AD038B590F82130044600
:104E000003F0FF02002B3DD00222236884F821200A
:104E1000DA68D00604D5012384F82130002038BD9B
:104E2000CA21532259625A62DA68510631D599680B
:104E30006268256921F4E00121F040019960A169CF
:104E400098682A430A430243E1689A6019611A6923
:104E5000A16842EA01421A612046FFF785FF2368F4
:104E600048BBD96C6069E26921F00301D964D96C4F
:104E700002430A43FF21DA645962012384F8213096
:104E80000020CCE780F82020FDF7E4F9BCE7012002
:104E900070474FF0FF32DA60FEF7CCFD054605E0C3
:104EA000FEF7C8FD401BB0F57A7F07D82368DA68A3
:104EB0005206BCD4F4E7FF225A6238BD23680322AD
:104EC00084F82120DB68C7E790F82030012B00F040
:104ED00044822DE9F0471646012280F8202003681D
:104EE000022280F82120CA225A6253225A62DA68CA
:104EF0000D465106044640F113829968002E40F099
:104F00002E8211F0400118BFE97828780CBFEE70AE
:104F10008905092840F2AE80DA4AA0F10A0C5FFA4E
:104F20008CF7A2FB072E4FEADE0E4F2F0EF1010E7B
:104F30004FF0000257D9A0F1280767F30702A0F14C
:104F4000320767F30F22A0F13C0767F31742A0F185
:104F5000460767F31F6202F07F3782F0B03882F0B5
:104F6000F63C08F0803207F1303882EA08024FEA56
:104F7000DE080CF0803C07F17637B8F1010F8CEABF
:104F8000070C00F01B8202F07F3C82F0B03782F009
:104F9000F6320CF1303907F0803702F080320CF134
:104FA000763CB8F1030F87EA090782EA0C0C40F05F
:104FB000138287F0F63C07F07F3707F176370CF065
:104FC000803C8CEA070C18270EF03802C2EB42181E
:104FD000C2EB880800EB480096454FEA1C6CC0B253
:104FE00044D0A0F10A0C5FFA8CFCBCF1090F02F16D
:104FF00001073BD9A0F1140C5FFA8CFCBCF1090F3E
:1050000002F1020732D9A0F11E0C5FFA8CFCBCF150
:10501000090F02F1030729D9A0F1280C5FFA8CFCD3
:10502000BCF1090F02F1040720D9A0F1320C5FFA9C
:105030008CFCBCF1090F02F1050717D9A0F13C0C5B
:105040005FFA8CFCBCF1090F02F106070ED9A0F142
:10505000460C5FFA8CFCBCF1090F02F1070705D979
:10506000A0F1500C02F108075FFA8CFC4CEA071C17
:105070005FFA8CF095F801C0BCF1090F4FEA0040CF
:1050800040F2A1807F4FACF10A025FFA82FEA7FBDB
:105090000E87FF08BEF14F0F07F1010740F29E8116
:1050A000ACF1280E00226EF30702ACF1320E6EF363
:1050B0000F22ACF13C0E6EF31742ACF1460E6EF3CC
:1050C0001F6202F07F3882F0B03E82F0F63208F1C3
:1050D000303902F0803208F1763882EA08024FEA6D
:1050E000D7080EF0803EB8F1010F8EEA090E00F0ED
:1050F0006A810EF07F398EF0B03A8EF0F63202F00F
:1051000080320AF0803EB8F1030F09F1303A09F11C
:1051100076398EEA0A0E82EA090240F05A810EF0D0
:105120007F328EF0F63E02F176320EF0803E82EA59
:105130000E024FF0180807F0380ECEEB4E19CEEBEA
:1051400089090CEB490CBE454FEA12625FFA8CFCF0
:1051500035D0ACF10A02D2B2092A0EF101082ED9DB
:10516000ACF11402D2B2092A0EF1020827D9ACF12F
:105170001E02D2B2092A0EF1030820D9ACF128028E
:10518000D2B2092A0EF1040819D9ACF13202D2B216
:10519000092A0EF1050812D9ACF13C02D2B2092A53
:1051A0000EF106080BD9ACF14602D2B2092A0EF173
:1051B000070804D9ACF150020EF10808D2B242EA55
:1051C00008125FFA82FCAF78092F4FEA0C2C40F2EC
:1051D000A1802C4AA7F10A085FFA88F9A2FB092EE0
:1051E0004FEADE0EB9F14F0F0EF1010E5AD9A7F1B9
:1051F0002802002662F30706A7F1320262F30F26A7
:10520000A7F13C0262F31746A7F1460262F31F665C
:1052100006F07F3886F0B03208F1303902F0803283
:1052200086F0F63682EA09024FEADE0906F0803699
:1052300008F17638B9F1010F86EA080600F0C0805F
:1052400002F07F3A82F0B03882F0F63202F0803617
:1052500008F080380AF13032B9F1030F0AF1763ADA
:1052600088EA020886EA0A0640F0B08088F0F63242
:1052700008F07F3602F0803206F1763656404FF065
:10528000180801E0CDCCCCCC320E0EF03806C6EBBF
:105290004619C6EB890907EB49077645FFB236D0B8
:1052A000A7F10A085FFA88F2092A06F101082ED947
:1052B000A7F11402D2B2092A06F1020827D9A7F1F0
:1052C0001E02D2B2092A06F1030820D9A7F128024A
:1052D000D2B2092A06F1040819D9A7F13202D2B2D2
:1052E000092A06F1050812D9A7F13C02D2B2092A0F
:1052F00006F106080BD9A7F14602D2B2092A06F137
:10530000070804D9A7F1500206F10808D2B242EA10
:105310000812D7B240EA010242EA0C023A432EE0F8
:105320004FF0FF32DA60FEF785FB07462368DA6844
:1053300052063FF5E2ADFEF77DFBC01BB0F57A7F6C
:10534000F4D92368032084F82100FF22D9685A6227
:10535000002384F82030BDE8F087022070476A7887
:10536000287811F040014FEA022214BFE978E97071
:1053700042EA0042A87818BF890502430A4302F0B6
:105380007F3222F0FE421A6099682869EA6821F4A7
:1053900080219960996802430A439A602046FFF78A
:1053A000E3FC2368FF225A620028D1D1012384F84C
:1053B0002130002384F82030BDE8F087082703E679
:1053C0004FF0080860E74FF00808B4E64FF0100807
:1053D0005AE74FF01008AEE61027F5E54FF0000E43
:1053E000B9E600BF90F82030012B00F04C822DE987
:1053F000F04104460223012084F8200084F8213083
:1054000032B34B78CD7888780A781B0243EA05439B
:10541000034343EA42362368CA21532259625A623F
:10542000DA68510640F1058226F07F4626F0C00674
:105430005E602046FFF798FC2368FF225A6210B98D
:10544000012384F82130002384F82030BDE8F08166
:105450004878C50640F10A8291F803C020F0100098
:105460000A30C0B2BCF1090F487040F21482D04D2E
:10547000ACF10A03DEB2A5FB0675ED084F2E05F16F
:10548000010540F20B82ACF12806002366F3070306
:10549000ACF1320666F30F23ACF13C0666F317431A
:1054A000ACF1460666F31F6303F07F3683F0B03E2F
:1054B00006F130370EF0803E83F0F6338EEA070EA9
:1054C000EF0803F0803306F17636012F83EA0603F6
:1054D00000F0DF810EF07F338EF0B0368EF0F63EB6
:1054E00003F1303806F080360EF0803E03F176335B
:1054F000032F86EA08068EEA030340F0BE8186F099
:10550000F63306F07F3606F1763603F080337340CB
:10551000182605F0380ECEEB4E17CEEB87070CEBB6
:10552000470775454FEA13635FFA87FC35D0ACF146
:105530000A03DBB2092B0EF101062ED9ACF11403DC
:10554000DBB2092B0EF1020627D9ACF11E03DBB248
:10555000092B0EF1030620D9ACF12803DBB2092B8D
:105560000EF1040619D9ACF13203DBB2092B0EF1AE
:10557000050612D9ACF13C03DBB2092B0EF106068D
:105580000BD9ACF14603DBB2092B0EF1070604D9A7
:10559000ACF150030EF10806DBB243EA06135FFAE2
:1055A00083FC09284FEA0C4C40F29880804DA0F112
:1055B0000A03DEB2A5FB0675ED084F2E05F10105C5
:1055C00040F26F81A0F12806002366F30703A0F1E3
:1055D000320666F30F23A0F13C0666F31743A0F1F1
:1055E000460666F31F6303F07F3683F0B03E06F194
:1055F00030370EF0803E83F0F6338EEA070EEF0868
:1056000003F0803306F17636012F83EA060300F0BB
:105610003E810EF07F338EF0B0368EF0F63E03F111
:10562000303806F080360EF0803E03F17633032FDB
:1056300086EA08068EEA030340F0238106F07F33F2
:1056400086F0F63606F0803603F17633734018267E
:1056500005F0380ECEEB4E17CEEB870700EB470078
:1056600075454FEA1363C0B235D0A0F10A03DBB22F
:10567000092B0EF101062ED9A0F11403DBB2092B80
:105680000EF1020627D9A0F11E03DBB2092B0EF1A1
:10569000030620D9A0F12803DBB2092B0EF1040682
:1056A00019D9A0F13203DBB2092B0EF1050612D98C
:1056B000A0F13C03DBB2092B0EF106060BD9A0F1D9
:1056C0004603DBB2092B0EF1070604D9A0F1500303
:1056D0000EF10806DBB243EA0613D8B291F802E0F5
:1056E000BEF1090F4FEA002040F29C80304DAEF130
:1056F0000A03DEB2A5FB0675ED084F2E05F1010584
:1057000058D9AEF12802002362F30703AEF132024A
:1057100062F30F23AEF13C0262F31743AEF146028F
:1057200062F31F6303F07F3683F0B03206F1303747
:1057300002F0803283F0F6337A40EF0803F08033D2
:1057400006F17636012F83EA060300F09E8002F010
:105750007F3382F0B03682F0F63203F1303806F053
:10576000803602F0803203F17633032F86EA080692
:1057700083EA020340F0838086F0F63306F07F363A
:1057800006F1763603F080337340182605F03802B0
:10579000C2EB4217C2EB87070EEB4707AA424FEA5C
:1057A00013635FFA87FE39D0AEF10A0302E000BF4F
:1057B000CDCCCCCCDBB2092B02F101062ED9AEF157
:1057C0001403DBB2092B02F1020627D9AEF11E0346
:1057D000DBB2092B02F1030620D9AEF12803DBB2BC
:1057E000092B02F1040619D9AEF13203DBB2092B01
:1057F00002F1050612D9AEF13C03DBB2092B02F12E
:1058000006060BD9AEF14603DBB2092B02F10706FF
:1058100004D9AEF1500302F10806DBB243EA0613E5
:105820005FFA83FE0B784CEA4333034343EA0E06E8
:10583000F1E54FF0FF32DA60FEF7FCF80546236829
:10584000DA6852063FF5F0ADFEF7F4F8401BB0F50C
:105850007A7FF4D92368032084F82100FF22D968D5
:105860005A62002384F82030BDE8F08191F803C02B
:10587000BCF1090F3FF6FBAD93E6102649E6102672
:1058800084E71026E4E60220704708267EE7082613
:10589000DEE608263DE64FEA0C4C87E64FF0000EA8
:1058A00047E64FF0000EE2E690F82030012B57D08B
:1058B0002DE9F0411646012280F8202003680222DB
:1058C00080F82120CA225A6253225A629A6822F42E
:1058D00080629A60DA68D2B262F49062DA60DA6862
:1058E000520604460F4621D55F619A681D4922F091
:1058F000070232439A600A6842F480120A608A689A
:1059000042F480128A609A6842F480429A609A68EF
:1059100042F480629A600025FF210122596284F8D6
:10592000212084F820502846BDE8F081FEF782F857
:1059300080462368DD6815F00405D5D1FEF77AF8B6
:10594000A0EB0800B0F57A7FF3D922680323FF218A
:10595000516284F8213084F820501846BDE8F08167
:10596000022070470004014090F82030012B37D00E
:1059700070B505460368022285F821200120CA215E
:10598000532285F8200059625A629A6822F4806294
:105990009A609A6822F480429A60FEF74BF80646B5
:1059A00005E0FEF747F8831BB3F57A7F0ED82A6827
:1059B000D46814F00404F4D00023FF2001215062C5
:1059C00085F8211085F82030184670BD2A68032319
:1059D000FF21516285F8213085F82040184670BDBE
:1059E000022070470C4A03684FF4801110B55161D2
:1059F000DA685205044603D4012384F8213010BD2F
:105A0000DA68D2B262F49062DA60FBF717FF012322
:105A100084F8213010BD00BF000401402DE9F041A1
:105A200082B0002317460D468DF803300646FEF778
:105A300001F82F443F1AFDF7FDFF314B34681B6816
:105A400003EB8303C3EBC3031B0D07FB03F3804688
:105A500001932246691C936810D113F4C06F09D0DA
:105A6000237BDBB28DF803309DF80330936813F489
:105A7000C06FF5D1002002B0BDE8F08113F4C06F13
:105A8000F8D0237BDBB28DF803309DF80330FDF7AF
:105A9000D1FFA0EB0800B84209D2019B3268002B6D
:105AA000019B03F1FF3308BF00270193D2E7D6E93A
:105AB00000315A68B1F5827F22F0E0025A6013D0BB
:105AC000B26AB2F5005F07D11A6822F400521A6078
:105AD0001A6842F400521A600122002386F85D2001
:105AE00086F85C300320C6E7B268B2F5004F02D0FA
:105AF000B2F5806FE4D11A6822F040021A60DFE745
:105B0000140000202DE9F04F85B000238DF80730F8
:105B100001EB02090E4617460546FDF78BFFDFF83D
:105B20002081A9EB000AFDF785FFD8F8003003EBD0
:105B30008303C3EBC3031B0D0AFB03F383460293EA
:105B4000701C2C6820D1A36813F4C05FFBD1FDF753
:105B500071FFA9EB0009FDF76DFFD8F80030C3F322
:105B6000CB3309FB03F380460393711C2C681FD1D0
:105B7000A3681A06FCD43A4631462846FFF74EFF82
:105B800048BB05B0BDE8F08FA36813F4C05FDED05A
:105B9000FDF750FFA0EB0B00504522D2029A029B6A
:105BA000002A03F1FF3308BF4FF0000A0293C7E752
:105BB000A3681B06DFD5FDF73DFFA0EB08004845B5
:105BC0000FD2039A039B002A03F1FF3308BF4FF063
:105BD00000090393C9E72B6E43F0200303202B66D3
:105BE000CFE7D5E900315A68B1F5827F22F0E002B3
:105BF0005A6019D0AA6AB2F5005F07D11A6822F478
:105C000000521A601A6842F400521A60012385F8A3
:105C10005D302B6E002243F02003032085F85C20CA
:105C20002B6605B0BDE8F08FAA68B2F5004F02D030
:105C3000B2F5806FDED11A6822F040021A60D9E70F
:105C400014000020002874D02DE9F0410446406A79
:105C5000002855D00023C4E9043394F85D300022B5
:105C6000A26203F0FF02002B56D02168E7680223EE
:105C700084F85D300A68B7F5E06F22F040020A60F0
:105C800044D9B7F5706F56D1A56A4FF0000C05F4F2
:105C900000556268A368A66903F4044302F48272A3
:105CA0001A43236903F002031343626902F00102FD
