:020000040800F2
:100000000000012029480008B5340008B934000870
:10001000BD340008C1340008C534000800000000E9
:10002000000000000000000000000000C9340008CB
:10003000CD34000800000000D1340008D534000899
:10004000794800087948000879480008794800088C
:10005000794800087948000879480008794800087C
:10006000794800087948000879480008794800086C
:10007000794800087948000879480008794800085C
:10008000794800087948000879480008794800084C
:10009000794800087948000879480008D9340008F0
:1000A000E1340008794800087948000879480008D8
:1000B000ED3400080000000000000000794800084E
:1000C000794800087948000879480008794800080C
:1000D00079480008F9340008794800087948000890
:1000E000794800087948000800000000000000007E
:1000F0000000000000000000000000000000000000
:10010000000000007948000800000000794800085D
:1001100000000000000000007948000805350008D4
:1001200079480008794800087948000879480008AB
:1001300079480008000000000000000000000000F6
:100140007948000879480008794800080000000054
:10015000794800087948000879480008794800087B
:100160007948000879480008794800080000000034
:1001700079480008794800080000000000000000ED
:0C01800079480008794800087948000818
:10018C000000000000000000000000000000000063
:10019C000000000000000000000000000000000053
:1001AC000000000000000000000000000000000043
:1003900010B5054C237833B9044B13B10448AFF3BF
:1003A00000800123237010BDB80000200000000071
:1003B00000E8010808B5034B1BB103490348AFF33C
:1003C000008008BD00000000BC00002000E801081B
:1003D00010F8012B11F8013B012A28BF9A42F7D0EF
:1003E000D01A7047034613F8012B002AFBD1181AC4
:1003F0000138704781F0004102E000BF83F0004304
:1004000030B54FEA41044FEA430594EA050F08BFAF
:1004100090EA020F1FBF54EA000C55EA020C7FEA73
:10042000645C7FEA655C00F0E2804FEA5454D4EBF0
:100430005555B8BF6D420CDD2C4480EA020281EABA
:10044000030382EA000083EA010180EA020281EAF2
:100450000303362D88BF30BD11F0004F4FEA013144
:100460004FF4801C4CEA113102D0404261EB410153
:1004700013F0004F4FEA03334CEA133302D05242D9
:1004800063EB430394EA050F00F0A780A4F1010495
:10049000D5F1200E0DDB02FA0EFC22FA05F28018CF
:1004A00041F1000103FA0EF2801843FA05F35941B5
:1004B0000EE0A5F120050EF1200E012A03FA0EFC34
:1004C00028BF4CF0020C43FA05F3C01851EBE3715E
:1004D00001F0004507D54FF0000EDCF1000C7EEB7B
:1004E00000006EEB0101B1F5801F1BD3B1F5001FB9
:1004F0000CD349085FEA30004FEA3C0C04F10104D8
:100500004FEA445212F5800F80F09A80BCF1004F00
:1005100008BF5FEA500C50F1000041EB045141EA82
:10052000050130BD5FEA4C0C404141EB0101013C4B
:1005300028BFB1F5801FE9D291F0000F04BF01463A
:100540000020B1FA81F308BF2033A3F10B03B3F10C
:1005500020020CDA0C3208DD02F1140CC2F10C029C
:1005600001FA0CF021FA02F10CE002F11402D8BFFA
:10057000C2F1200C01FA02F120FA0CFCDCBF41EAC6
:100580000C019040E41AA2BF01EB0451294330BD95
:100590006FEA04041F3C1CDA0C340EDC04F1140472
:1005A000C4F1200220FA04F001FA02F340EA030049
:1005B00021FA04F345EA030130BDC4F10C04C4F18F
:1005C000200220FA02F001FA04F340EA030029466F
:1005D00030BD21FA04F0294630BD94F0000F83F4B9
:1005E000801306BF81F480110134013D4EE77FEA9C
:1005F000645C18BF7FEA655C29D094EA050F08BFE8
:1006000090EA020F05D054EA000C04BF19461046C8
:1006100030BD91EA030F1EBF0021002030BD5FEA0C
:10062000545C05D14000494128BF41F0004130BD34
:1006300014F580043CBF01F5801130BD01F0004588
:1006400045F0FE4141F470014FF0000030BD7FEAFB
:10065000645C1ABF194610467FEA655C1CBF0B46F6
:10066000024650EA013406BF52EA033591EA030F0D
:1006700041F4002130BD00BF90F0000F04BF002105
:10068000704730B54FF4806404F132044FF0000538
:100690004FF0000150E700BF90F0000F04BF0021B1
:1006A000704730B54FF4806404F1320410F0004517
:1006B00048BF40424FF000013EE700BF42004FEA12
:1006C000E2014FEA31014FEA02701FBF12F07F438F
:1006D00093F07F4F81F06051704732F07F4208BF46
:1006E000704793F07F4F04BF41F40021704730B54D
:1006F0004FF4607401F0004521F000411CE700BF99
:1007000050EA010208BF704730B54FF000050AE01B
:1007100050EA010208BF704730B511F0004502D51C
:10072000404261EB41014FF4806404F132045FEA1E
:10073000915C3FF4D8AE4FF003025FEADC0C18BFC7
:1007400003325FEADC0C18BF033202EBDC02C2F1B9
:10075000200300FA03FC20FA02F001FA03FE40EA4B
:100760000E0021FA02F11444BDE600BF70B54FF04F
:10077000FF0C4CF4E06C1CEA11541DBF1CEA13552D
:1007800094EA0C0F95EA0C0F00F0DEF82C4481EA95
:10079000030621EA4C5123EA4C5350EA013518BFB5
:1007A00052EA033541F4801143F4801338D0A0FBA2
:1007B00002CE4FF00005E1FB02E506F00042E0FB4F
:1007C00003E54FF00006E1FB03569CF0000F18BF55
:1007D0004EF0010EA4F1FF04B6F5007F64F54074FD
:1007E00004D25FEA4E0E6D4146EB060642EAC62190
:1007F00041EA55514FEAC52040EA5E504FEACE2EFD
:10080000B4F1FD0C88BFBCF5E06F1ED8BEF1004FFF
:1008100008BF5FEA500E50F1000041EB045170BD7B
:1008200006F0004646EA010140EA020081EA0301BF
:10083000B4EB5C04C2BFD4EB0C0541EA045170BDBB
:1008400041F480114FF0000E013C00F3AB8014F135
:10085000360FDEBF002001F0004170BDC4F100047E
:10086000203C35DA0C341BDC04F11404C4F12005FF
:1008700000FA05F320FA04F001FA05F240EA02005A
:1008800001F0004221F0004110EBD37021FA04F690
:1008900042EB06015EEA430E08BF20EAD37070BD4A
:1008A000C4F10C04C4F1200500FA04F320FA05F0A9
:1008B00001FA04F240EA020001F0004110EBD370AB
:1008C00041F100015EEA430E08BF20EAD37070BD1B
:1008D000C4F1200500FA05F24EEA020E20FA04F3F4
:1008E00001FA05F243EA020321FA04F001F00041A3
:1008F00021FA04F220EA020000EBD3705EEA430E14
:1009000008BF20EAD37070BD94F0000F0FD101F042
:100910000046400041EB010111F4801F08BF013C7B
:10092000F7D041EA060195F0000F18BF704703F0B9
:100930000046520043EB030313F4801F08BF013D40
:10094000F7D043EA0603704794EA0C0F0CEA1355FC
:1009500018BF95EA0C0F0CD050EA410618BF52EAB6
:100960004306D1D181EA030101F000414FF00000BC
:1009700070BD50EA410606BF1046194652EA4306CA
:1009800019D094EA0C0F02D150EA013613D195EA3E
:100990000C0F05D152EA03361CBF104619460AD186
:1009A00081EA030101F0004141F0FE4141F4700190
:1009B0004FF0000070BD41F0FE4141F4780170BD80
:1009C00070B54FF0FF0C4CF4E06C1CEA11541DBFE5
:1009D0001CEA135594EA0C0F95EA0C0F00F0A7F8E7
:1009E000A4EB050481EA030E52EA03354FEA013114
:1009F00000F088804FEA03334FF0805545EA131327
:100A000043EA12634FEA022245EA111545EA1065EE
:100A10004FEA00260EF000419D4208BF964244F185
:100A2000FD0404F5407402D25B084FEA3202B61AA4
:100A300065EB03055B084FEA32024FF480104FF478
:100A4000002CB6EB020E75EB030E22BFB61A7546EC
:100A500040EA0C005B084FEA3202B6EB020E75EB7F
:100A6000030E22BFB61A754640EA5C005B084FEAE7
:100A70003202B6EB020E75EB030E22BFB61A7546B4
:100A800040EA9C005B084FEA3202B6EB020E75EBBF
:100A9000030E22BFB61A754640EADC0055EA060E80
:100AA00018D04FEA051545EA16754FEA06164FEAC3
:100AB000C30343EA52734FEAC2025FEA1C1CC0D16F
:100AC00011F4801F0BD141EA00014FF000004FF0FC
:100AD000004CB6E711F4801F04BF01430020B4F1BD
:100AE000FD0C88BFBCF5E06F3FF6AFAEB5EB030C75
:100AF00004BFB6EB020C5FEA500C50F1000041EB72
:100B0000045170BD0EF0004E4EEA113114EB5C043E
:100B1000C2BFD4EB0C0541EA045170BD41F4801111
:100B20004FF0000E013C90E645EA060E8DE60CEA19
:100B3000135594EA0C0F08BF95EA0C0F3FF43BAF36
:100B400094EA0C0F0AD150EA01347FF434AF95EAED
:100B50000C0F7FF425AF104619462CE795EA0C0FD1
:100B600006D152EA03353FF4FDAE1046194622E79E
:100B700050EA410618BF52EA43067FF4C5AE50EA78
:100B800041047FF40DAF52EA43057FF4EBAE12E768
:100B90004FF0FF3C06E000BF4FF0010C02E000BF49
:100BA0004FF0010C4DF804CD4FEA410C7FEA6C5C2C
:100BB0004FEA430C18BF7FEA6C5C1BD001B050EACF
:100BC000410C0CBF52EA430C91EA030F02BF90EABA
:100BD000020F0020704710F1000F91EA030F58BF79
:100BE000994208BF90422CBFD8176FEAE37040F0DB
:100BF000010070474FEA410C7FEA6C5C02D150EA79
:100C0000013C07D14FEA430C7FEA6C5CD6D152EA33
:100C1000033CD3D05DF8040B704700BF84461046F8
:100C200062468C461946634600E000BF01B5FFF7F7
:100C3000B7FF002848BF10F1000F01BD4DF808EDC7
:100C4000FFF7F4FF0CBF012000205DF808FB00BF98
:100C50004DF808EDFFF7EAFF34BF012000205DF8F2
:100C600008FB00BF4DF808EDFFF7E0FF94BF01203F
:100C700000205DF808FB00BF4DF808EDFFF7CEFF40
:100C800094BF012000205DF808FB00BF4DF808ED7F
:100C9000FFF7C4FF34BF012000205DF808FB00BF50
:100CA0004FEA410C7FEA6C5C02D150EA013C0AD168
:100CB0004FEA430C7FEA6C5C02D152EA033C02D15A
:100CC0004FF0000070474FF0010070474FEA4102BB
:100CD000B2F1E04324BFB3F5001CDCF1FE5C0DD99A
:100CE00001F0004C4FEAC0024CEA5070B2F1004FE4
:100CF00040EB830008BF20F00100704711F0804FE7
:100D000021D113F13872BCBF01F00040704741F4AB
:100D100080114FEA5252C2F11802C2F1200C10FAAF
:100D20000CF320FA02F018BF40F001004FEAC12393
:100D30004FEAD32303FA0CFC40EA0C0023FA02F337
:100D40004FEA4303CCE77FEA625307D150EA01330D
:100D50001EBF4FF0FE4040F44000704701F00040DD
:100D600040F0FE4040F40000704700BF53B94AB95C
:100D7000002908BF00281CBF4FF0FF314FF0FF30A3
:100D800000F070B9ADF1080C6DE904CE00F006F882
:100D9000DDF804E0DDE9022304B070472DE9F047F7
:100DA000089E0D4604460F46002B4AD18A429446BF
:100DB00065D9B2FA82F343B102FA03FCC3F120020F
:100DC0009F4020FA02F217439C404FEA1C4E1FFA44
:100DD0008CF5B7FBFEF1220C0EFB117742EA0742BD
:100DE00001FB05F090420AD91CEB020201F1FF372A
:100DF00080F01C81904240F2198102396244121A3B
:100E0000A4B2B2FBFEF00EFB102244EA024400FB47
:100E100005F5A5420AD91CEB040400F1FF3280F06D
:100E20000781A54240F204816444023840EA01404F
:100E3000641B00211EB1DC400023C6E90043BDE86D
:100E4000F0878B4208D9002E00F0ED800021C6E922
:100E500000050846BDE8F087B3FA83F1002949D1BF
:100E6000AB4202D3824200F2F880841A65EB03029F
:100E700001201746002EE2D0C6E90047DFE702B99D
:100E8000FFDEB2FA82F3002B40F090808A1A4FEA1C
:100E90001C471FFA8CFE0121B2FBF7F507FB15205A
:100EA000220C42EA00420EFB05F0904208D91CEBEE
:100EB000020205F1FF3802D2904200F2CB80454693
:100EC000121AA4B2B2FBF7F007FB102244EA024464
:100ED0000EFB00FEA64508D91CEB040400F1FF320E
:100EE00002D2A64500F2BB801046A4EB0E0440EAF5
:100EF00005409FE7C1F120078B4022FA07FC4CEA2E
:100F0000030C05FA01F420FA07F3FD404FEA1C49EF
:100F10002343B5FBF9F81FFA8CFE09FB18551C0C8E
:100F200044EA054408FB0EF5A54202FA01F200FA74
:100F300001F00BD91CEB040408F1FF3A80F0888023
:100F4000A54240F28580A8F102086444641B9DB26A
:100F5000B4FBF9F309FB134445EA044403FB0EFE1A
:100F6000A64508D91CEB040403F1FF356CD2A64555
:100F70006AD9023B644443EA0843A3FB0295A4EB0D
:100F80000E04AC42C846AE4656D353D056B1B0EB71
:100F9000080264EB0E0404FA07F7CA40CC4017437A
:100FA000C6E9007418460021BDE8F087C3F12001AE
:100FB00002FA03FC20FA01F225FA01F19D402A43CE
:100FC0004FEA1C471FFA8CFEB1FBF7F007FB101528
:100FD000110C41EA054100FB0EF58D4204FA03F4C1
:100FE00008D91CEB010100F1FF382FD28D422DD919
:100FF00002386144491B92B2B1FBF7F507FB1511AA
:1010000042EA014205FB0EF1914208D91CEB0202B3
:1010100005F1FF3816D2914214D9023D6244521AAA
:1010200045EA004138E73146304608E73946E6E60A
:101030001046FBE64845A9D2B9EB020865EB0C0E59
:10104000013BA3E74546EAE72B4694E74046D1E754
:10105000D0467BE7023D624432E708460AE7644433
:10106000023842E7704700BF02480122042104F021
:101070001DBB00BF000C004802480022042104F000
:1010800015BB00BF000C00482DE9F0478246914691
:101090005D1A82B0804C81480A9E1F460135A9EB3B
:1010A0000A03884600224FF4006103FB05552A23FA
:1010B0008DF8073004F0FAFA642301220DF10701DC
:1010C000206805F0A1FB4FEA1A2374488DF8073019
:1010D00001224FF4006104F0E9FA642301220DF1CA
:1010E0000701206805F090FB6C488DF807A00122ED
:1010F0004FF4006104F0DAFA642301220DF10701D4
:10110000206805F081FB4FEA192364488DF8073009
:1011100001224FF4006104F0C9FA642301220DF1A9
:101120000701206805F070FB5C488DF807900122EC
:101130004FF4006104F0BAFA642301220DF10701B3
:10114000206805F061FB2B2354488DF807300022FE
:101150004FF4006104F0AAFA642301220DF10701A3
:10116000206805F051FB4FEA18234C488DF80730F2
:1011700001224FF4006104F099FA642301220DF179
:101180000701206805F040FB44488DF807800122E4
:101190004FF4006104F08AFA642301220DF1070183
:1011A000206805F031FB3B0A3C488DF807300122EE
:1011B0004FF4006104F07AFA642301220DF1070173
:1011C000206805F021FB35488DF8077001224FF4A7
:1011D000006104F06BFA642301220DF1070120681D
:1011E00005F012FB2C232D488DF8073000224FF418
:1011F000006104F05BFA64230DF10701012220680D
:1012000005F002FB254801224FF4006104F04EFA7C
:1012100020684FF47063426BC360436A02F00802B7
:1012200003F010031343428B02F0040213430268DD
:1012300043F47063B5F5803F53604FF47A7326D35F
:10124000314647F2305205F0DFFAA5F5EA42303A6E
:1012500006F56A4120684FF47A7392B2603105F066
:10126000D3FA2268536A506B518B00F0080003F0E8
:101270001003034301F0040110680B434FF4E064D2
:1012800043F4B853D460436002B0BDE8F087AAB21B
:10129000314605F0B9FAE4E70000002000080048F4
:1012A0002DE9F04FED4EEE4D83B03623304600224F
:1012B0004FF400618DF8073004F0F8F964230DF164
:1012C000070128680122002705F09EFA3046012216
:1012D0004FF400618DF8077004F0E8F90DF1070193
:1012E00028686423012205F08FFA3A233A463046F3
:1012F0004FF400618DF8073004F0D8F90DF10701C3
:1013000028686423012205F07FFA05233046012274
:101310004FF400618DF8073004F0C8F90DF10701B2
:1013200028686423012205F06FFAB2233A4630465A
:101330004FF400618DF8073004F0B8F964230DF123
:1013400007012868012205F05FFA4FF00C043046CF
:1013500001224FF400618DF8074004F0A7F96423DF
:101360000DF107012868012205F04EFA30460122EE
:101370004FF400618DF8074004F098F964230DF1F3
:1013800007012868012205F03FFA304601224FF498
:1013900000618DF8077004F089F964230DF10701ED
:1013A0002868012205F030FA3324304601224FF438
:1013B00000618DF8074004F079F964230DF107010D
:1013C0002868012205F020FA304601224FF400611E
:1013D0008DF8074004F06AF90DF1070128686423CD
:1013E000012205F011FA3A463046B7234FF4006166
:1013F0008DF8073004F05AF90DF1070128686423CD
:10140000012205F001FA3046352301224FF4006134
:101410008DF8073004F04AF90DF1070128686423BC
:10142000012205F0F1F93A463046BB234FF4006142
:101430008DF8073004F03AF90DF1070128686423AC
:10144000012205F0E1F93046192301224FF4006131
:101450008DF8073004F02AF90DF10701286864239C
:10146000012205F0D1F93A463046C0234FF400611D
:101470008DF8073004F01AF964230DF1070128688C
:10148000012205F0C1F94FF02C028DF807203046FB
:1014900001224FF4006104F009F90DF107012868F9
:1014A00064230122012405F0AFF93A463046C223F5
:1014B0004FF400618DF8073004F0F8F864232246F9
:1014C0000DF10701286805F09FF9224630464FF4D8
:1014D00000618DF8074004F0E9F822460DF107019C
:1014E0002868642305F090F93A463046C3234FF448
:1014F00000618DF8073004F0D9F822460DF107019C
:101500002868642305F080F92246304612234FF400
:1015100000618DF8073004F0C9F822460DF107018B
:101520002868642305F070F93A463046C4234FF426
:1015300000618DF8073004F0B9F8642322460DF1FC
:101540000701286805F060F94FF020018DF80710B9
:10155000224630464FF4006104F0A8F80DF1070070
:10156000224601466423286805F04EF93A46304683
:10157000C6234FF400618DF8073004F097F80DF1A1
:101580000700224601466423286805F03DF92246FB
:1015900030460F234FF400618DF8073004F086F8D1
:1015A0000DF10700642322460146286805F02CF956
:1015B0004FF0D00A3A4630464FF400618DF807A04C
:1015C00004F074F80DF107002246014664232868F0
:1015D00005F01AF922463046A4234FF400618DF835
:1015E000073004F063F80DF107002246014664233A
:1015F000286805F009F922463046A1234FF400611E
:101600008DF8073004F052F80DF10700224601462C
:101610006423286805F0F8F83A463046E0234FF492
:1016200000618DF8073004F041F80DF107006423E4
:1016300022460146286805F0E7F8224630464FF476
:1016400000618DF807A004F031F80DF10700642364
:1016500022460146286805F0D7F803E00008004854
:10166000000000204FF00408224630464FF400618D
:101670008DF8078004F01AF80DF107006423224664
:101680000146286805F0C0F84FF00D0922463046A3
:101690004FF400618DF8079004F008F80DF1070091
:1016A000642322460146286805F0AEF84FF0110B7E
:1016B000224630464FF400618DF807B003F0F6FF84
:1016C0000DF10700642322460146286805F09CF8C6
:1016D0004FF013008DF80700224630464FF40061AA
:1016E00003F0E4FF0DF1070C6146224628686423ED
:1016F00005F08AF8224630462B234FF400618DF81E
:10170000073003F0D3FF0DF1070C64232246614636
:10171000286805F079F84FF03F0C224630464FF428
:1017200000618DF807C003F0C1FF0DF1070E71468F
:1017300022462868642305F067F822463046542381
:101740004FF400618DF8073003F0B0FF0DF1070E84
:10175000714622462868642305F056F82246304632
:101760004C234FF400618DF8073003F09FFF0DF11B
:10177000070E714622462868642305F045F8224684
:10178000304618234FF400618DF8073003F08EFFC8
:101790000DF1070E714664232246286805F034F8DF
:1017A000224630464FF400618DF8079003F07EFF2B
:1017B0000DF1070E714622462868642305F024F8CF
:1017C000224630460B234FF400618DF8073003F0BA
:1017D0006DFF0DF1070E714664232246286805F05F
:1017E00013F84FF01F09224630464FF400618DF880
:1017F000079003F05BFF0DF1070E6423224671464C
:10180000286805F001F84FF0230E224630464FF4C9
:1018100000618DF807E003F049FF22460DF1070152
:101820002868642304F0F0FF3A463046E1234FF481
:1018300000618DF8073003F039FF642322460DF173
:101840000701286804F0E0FF8DF807A022460DF19B
:10185000070A30464FF4006103F028FF6423224654
:101860005146286804F0D0FF224630464FF400610C
:101870008DF8078003F01AFF22465146286864233A
:1018800004F0C2FF4FF00C03224630464FF40061D3
:101890008DF8073003F00AFF64232246514628687A
:1018A00004F0B2FF224630464FF400618DF807B0D5
:1018B00003F0FCFE642322465146286804F0A4FF8E
:1018C0004FF013008DF80700224630464FF40061B8
:1018D00003F0ECFE642322465146286804F094FF8E
:1018E0004FF02C028DF80720304622464FF400615D
:1018F00003F0DCFE642322465146286804F084FF8E
:101900004FF03F0C224630464FF400618DF807C07F
:1019100003F0CCFE224651462868642304F074FF8D
:101920002246304644234FF400618DF8073003F01F
:10193000BDFE224651462868642304F065FF224616
:10194000304651234FF400618DF8073003F0AEFEAE
:10195000224651462868642304F056FF224630464A
:101960002F234FF400618DF8073003F09FFE6423AE
:1019700022465146286804F047FF224630464FF47D
:1019800000618DF8079003F091FE642322465146D2
:10199000286804F039FF224630464FF400618DF884
:1019A000079003F083FE642322465146286804F022
:1019B0002BFF4FF020018DF80710224630464FF4E0
:1019C000006103F073FE642322465146286804F048
:1019D0001BFF4FF0230E224630464FF400618DF876
:1019E00007E003F063FE224651462868642304F0B2
:1019F0000BFF3A46304621234FF400618DF8073043
:101A000003F054FE642322465146286804F0FCFE8D
:101A10003A4630464FF400618DF807B003F046FEB9
:101A2000224651466423286804F0EEFE782002F036
:101A30006DFF3A46304629234FF400618DF8073098
:101A400003F034FE514622462868642304F0DCFE8D
:101A500003482246414603B0BDE8F04F03F026BEDE
:101A6000000C00482DE9F04182B005460F4602F017
:101A700047FF4FF00508064612E0286805F07CF99C
:101A8000298A012250BBE86803F010FE9DF803305C
:101A900013F001031DD002F033FF801BB84224D89D
:101AA000298AE868CDF80480002203F0FFFD0422B3
:101AB0000DEB02013223286804F0A6FE3223012236
:101AC0000DF1030104460028D7D0298AE86803F005
:101AD000EDFD0024204602B0BDE8F081E86803F087
:101AE000E5FD204602B0BDE8F0810324F2E700BF27
:101AF000F0B5044683B015460E461F466421032305
:101B00000193FFF7AFFF2B0C218AE0688DF80530B9
:101B100000226DBAADF8065003F0C8FD042220681B
:101B200032230DEB020104F06FFE28B92068642314
:101B30003A46314605F020F90546218AE06801223F
:101B400003F0B4FD284603B0F0BD00BF70B50446F5
:101B500082B00623C0688DF80330002220250E468F
:101B6000218A019503F0A2FD322301220DF1030128
:101B7000206804F049FE218AE068012203F096FD06
:101B800064212046FFF76EFF0546D0B9C6F30F1358
:101B90000246218A8DF807008DF80530E068330190
:101BA0008DF8063003F082FD04220DEB020120685F
:101BB000322304F029FE218A05460122E06803F061
:101BC00075FD284602B070BD2DE9F04182B00F4688
:101BD000984664210223054616460193FFF742FF0B
:101BE000044618B1204602B0BDE8F0810246062343
:101BF000298AE8688DF8033003F058FD322301226A
:101C00000DF10301286804F0FFFD298AE86801222C
:101C100003F04CFD330C2246298AE8688DF8053024
:101C200073BAADF8063003F041FD04222868322370
:101C30000DEB020104F0E8FD044668B9F2B2C2F50A
:101C4000807292B2424528684FF0640328BF424632
:101C5000394604F0D9FD0446E868298A012203F0D8
:101C600025FD204602B0BDE8F08100BF30B51C4C18
:101C70001C4B1D48236083B04FF4805190230022F9
:101C8000E0602182019303F011FD042220683223D9
:101C90000DEB020104F0B8FDC0B9022269462068CC
:101CA000322305F069F80546218AE068012245B92A
:101CB00003F0FCFCBDF8003028465BBAA38003B0FB
:101CC00030BD03F0F3FC284603B030BD0546218A41
:101CD000E068012203F0EAFC284603B030BD00BFF3
:101CE000D4000020740200200004004800B52548FC
:101CF000254901600023042187B00122416103834B
:101D00000221CDE90033CDE90233CDE90433C0E946
:101D10000133C0E90332C0E90923C16180F8202002
:101D2000C36280F83030436380F8383002F000FE40
:101D3000E0B9164A13480623CDE9002303217F2387
:101D4000CDE90213042200236946CDE9042302F001
:101D500027FF98B90E4A0B480C236946CDE90023AA
:101D600002F01EFF28B907B05DF804FB01F076FA17
:101D7000DFE701F073FA07B05DF804FB01F06EFADB
:101D8000E8E700BFE8000020000004501000C01089
:101D90002000F01410B50446A0B000215C2209A870
:101DA000CDE90411CDE9061108911CF0DBFB2A4BAB
:101DB00022689A4201D020B010BD4FF480414FF00C
:101DC000805209911D9203210122CDE90A120722B6
:101DD0000821CDE90C1202234FF0807209A8CDE949
:101DE0000E33109204F01AFA002831D11B4B1C4814
:101DF000DA6C42F40052DA64DA6C02F400520192B6
:101E0000019ADA6C42F00402DA64DA6C02F004023D
:101E10000292029ADA6C42F00102DA64DB6C03F09F
:101E200001030393002404A908220B23CDE9042312
:101E30000694039B03F04CFB01220B2304A94FF0F3
:101E40009040CDE90423069403F042FB20B010BD7E
:101E500001F004FACAE700BF00000450001002407D
:101E6000000800482DE9F04100248CB0CDE906447B
:101E7000CDE90844654B0A94DA6C654F654DDFF88F
:101E80009C8142F00402DA64DA6C02F004020192EE
:101E9000019ADA6C42F08002DA64DA6C02F08002B5
:101EA0000292029ADA6C42F00102DA64DA6C02F011
:101EB00001020392039ADA6C42F00202DA64DA6CED
:101EC00002F002020492049ADA6C42F00802DA6428
:101ED000DB6C03F0080305932246384640F6070101
:101EE000059B03F0E3FB08214FF09040012203F033
:101EF000DDFB224610214FF0904003F0D7FB28462F
:101F000001224FF4805103F0D1FB224640460421C8
:101F100003F0CCFB4EF2F03206A938460323CDE99C
:101F200006230126089403F0D3FA384606A940F6A2
:101F300007030693CDE90764099403F0C9FA022365
:101F4000042206A908934FF090404FF49013CDE976
:101F5000062303F0BDFA06A918234FF0904006931C
:101F6000CDE90764099403F0B3FA06A920224FF4DF
:101F700088134FF09040CDE90623089403F0A8FAA7
:101F800040F6CF4206A928460323CDE9062308944C
:101F900003F09EFA06A928464FF480530693CDE934
:101FA0000764099403F094FA4FF4C85206A9032376
:101FB0004FF09040CDE90623089403F089FA06A972
:101FC000404604230693CDE90844079603F080FABF
:101FD00028464FF44C72002306A9CDE90623089445
:101FE00003F076FA0323082206A90B480894CDE9EA
:101FF000062303F06DFA22462146172003F0B6F9B6
:10200000172003F0F1F90CB0BDE8F0810010024098
:102010000008004800040048001C0048000C00486C
:102020002DE9F843002007F087F92E4B2E4DDFF8FD
:10203000D0902E4CDFF8CC802D4F2E4E0246002043
:102040001A6007F079F92C4B024600201A6007F05D
:1020500073F9034600202B6007F06EF90346002059
:10206000C9F8003007F068F9C8F80000204619F0F8
:1020700089FF2046FF211AF05DF94FF6FF712046D7
:1020800039801AF04DF90022214628681B4C0BF0CC
:10209000F1FA304619F076FF00253046FF211AF09C
:1020A00049F9304629463D801AF03AF92A46314628
:1020B000D9F800000BF0DEFA204619F063FF204645
:1020C000FF211AF037F947F6FF31204639801AF020
:1020D00027F9D8F800002A462146BDE8F8430BF05E
:1020E000C9BA00BFE8010020A8010020AC0100200F
:1020F0006C010020D4010020EC010020E001002050
:10210000B4010020DC01002038B57B4C7B4D2068F9
:102110001CF00CF8012128601CF0FAF82868042152
:102120001CF0C2F82868F02107F08EFD2868142101
:1021300007F0A4FD286872491CF08CF800231A46A9
:102140002868704D012107F003FE20681BF0EEFFA8
:10215000012128601CF0DCF8286804211CF0A4F898
:102160002868F02107F070FD2868142107F086FD2B
:10217000654B28681A6865491CF06CF81423002226
:102180002868634D012107F0E3FD20681BF0CEFFB6
:10219000012128601CF0BCF8286804211CF084F898
:1021A0002868F02107F050FD2868142107F066FD2B
:1021B000584B28681A6858491CF04CF8282300220C
:1021C0002868564D012107F0C3FD20681BF0AEFFC3
:1021D000012128601CF09CF8286804211CF064F898
:1021E0002868F02107F030FD2868142107F046FD2B
:1021F0004B4B28681A684B491CF02CF800223C23F2
:102200002868494D012107F0A3FD20681BF08EFFCF
:10221000012128601CF07CF8286804211CF044F897
:102220002868F02107F010FD2868142107F026FD2A
:102230003E4B1868FEF742FA02460B4628683C49B6
:102240001CF008F80022502328683A4D012107F0BD
:102250007FFD20681BF06AFF012128601CF058F800
:10226000286804211CF020F82868F02107F0ECFC15
:102270002868142107F002FD2F4B1868FEF71EFA9C
:1022800002460B4628682D491BF0E4FF6423002218
:1022900028682B4D012107F05BFD20681BF046FFED
:1022A000012128601CF034F8286804211BF0FCFF91
:1022B0002868F02107F0C8FC2868142107F0DEFC2C
:1022C000204B28681A6820491BF0C4FF00231A46D7
:1022D00028681E4D042107F03BFD20681CF010F912
:1022E0001B49286002221CF017F928680022BDE86B
:1022F000384005210BF0D6BEA80100208001002047
:1023000040E80108840100207001002058E801081D
:1023100088010020000200206CE801088C010020E8
:10232000080200207CE801089001002074010020D0
:102330008CE801089401002078010020A0E8010841
:102340009801002068010020B4E801089C010020E9
:102350000C00002070B53A4D3A4C28681BF0E6FEA0
:10236000012120601BF0D4FF206804211BF09CFF9A
:10237000206835491BF06EFF00231A4620680221B1
:1023800007F0E6FC28681BF0D1FE012160601BF01D
:10239000BFFF606804211BF087FF60682B491BF0BA
:1023A00059FF3C2300226068022107F0D1FC286815
:1023B0001BF0BCFE0121A0601BF0AAFFA068042155
:1023C0001BF072FFA06822491BF044FF502300223B
:1023D000A068022107F0BCFC28681BF0A7FE0121C1
:1023E000E0601BF095FFE06800211BF05DFFE068F6
:1023F000F02107F029FCE068142107F03FFC0023DE
:102400001A46E068092107F0A3FC28681BF08EFE3D
:10241000012120611BF07CFF206900211BF044FF9B
:102420002069F02107F010FC2069642107F026FCE8
:102430002069C823BDE870400022012107F088BC54
:10244000B4010020B8010020C8E80108DCE8010858
:10245000F0E80108202800D07047054B1A78022ABE
:1024600004D01A78032AF7D19B6A18475B6A184789
:10247000A8040020F8B51B4C1B4D206A01F0E6F9BA
:102480002B68012B1CD0022B05D0206A01F0B4F977
:1024900000232370F8BD154F206A01F0ADF9002626
:1024A0001349B86826701BF0D5FE1249F8681BF076
:1024B000D1FE11483246072103F0F8F82E60F8BD2E
:1024C0000E4D0F492B68206A0133FF222B6001F06B
:1024D000A5FD064B2A6818690A49BDE8F8401BF0BB
:1024E000B9BE00BFA80400205C010020B801002094
:1024F000F0E801081CE90108000800485801002024
:102500000001001000E9010870B52E4C86B0206A69
:1025100001F09CF92C49206A0DF10E0201F098FCA3
:102520002A4B1B68012B45D1BDF80E30FF2B3AD149
:10253000274D284B2968013103F58072296003F18A
:10254000FF0E4FF0000C13F8011F12F8010F884224
:1025500018BF0CF1010C7345F5D107EE90CA9FED41
:102560001E7ADFED1E6A1E4E206AF8EEE77A04A995
:1025700067EE877A87EEA67ABDEEC77A86ED007A97
:1025800001F08EF905A9206A01F0CAF9DDE90431EC
:10259000346814482A680069CDE9001412491BF018
:1025A00059FE06B070BD0F4B1049D8681BF052FEA3
:1025B00006B070BD206A01F01FF90023237006B039
:1025C00070BD00BFA8040020000000105C010020C6
:1025D00050010020FFFFFF0F0000C84200007F43B2
:1025E00054010020B801002020E901087CE901081D
:1025F0002DE9F84FB34B98422DED028B25D0B24B0D
:10260000984229D0B14B984203D0BDEC028BBDE873
:10261000F88FAF4AAF49136809680133136049B9AD
:10262000AD4A12689342F0D9BDEC028BBDE8F84F79
:10263000FEF722BDA94AAA4912680968A648A94C12
:102640001A44194421600260ECE7BDEC028B0520BE
:10265000BDE8F84F17F07AB904214FF0904003F02D
:102660001FF8A14A0128137800F064814BB1052BB3
:1026700004D0042B0CBF0023032313709B4B0022B8
:102680001A609B489B4C9C4D02F0C0FD1421984859
:1026900002F028FA964802F07FFA03469448236035
:1026A00002F0B4FD1421924802F01CFA904802F0A6
:1026B00073FA03468E482B6002F022FE8F4B24688B
:1026C0001E68A01BFDF7E8FF21F000431946002219
:1026D0008B4BFEF7BDFA8B4B2D681F6878BB8A4B7E
:1026E0001868201AFDF7D8FF21F000431946002290
:1026F000834BFEF7ADFA002840F0C480834B186886
:10270000201AFDF7C9FF21F00043194600227C4B37
:10271000FEF79EFA10B3E81BFDF7BEFF21F0004361
:1027200019460022764BFEF793FAB8B1784B1A7827
:1027300012B9784A0521117003221A700EE0E81BC5
:10274000FDF7AAFF21F00043194600226C4BFEF76B
:102750007FFA002871D06E4B00221A7007EE904A63
:1027600007EE106AF8EEE77AB8EEC77AB7EE008A9D
:10277000C7EE876ADFF8B4A1DFF8B4B176EEC87AA5
:1027800017EE900AFDF79AFF07EE905A07EE107ABF
:10279000F8EEE77AB8EEC77A0446C7EE876A0D46C8
:1027A00076EEC87A17EE900AFDF788FF02460B46D0
:1027B00006460F46FDF7DAFF574B0022FDF7D6FF1E
:1027C00002460B4600205549FDF718FE41EC100B60
:1027D0001BF010FF22462B462046294659EC108B51
:1027E000FDF7C4FF4C4B0022FDF7C0FF02460B462D
:1027F00000204A49FDF702FE41EC100B1BF0FAFEE7
:1028000042464B462046294655EC104BFDF7AEFF9D
:10281000FEF75CFA22462B46CAF8000039463046DD
:10282000FDF7A4FFFEF752FABDEC028B3C4BCBF850
:10283000000001221A60BDE8F88F3A4B1868281A88
:10284000FDF72AFF21F00043194600222C4BFEF72A
:10285000FFF968BB344B1868281AFDF71DFF21F0FB
:10286000004319460022264BFEF7F2F900283FF4F8
:1028700036AF274B1A7812B9264A03211170042269
:102880001A706BE7E81BFDF707FF21F000431946BC
:1028900000221B4BFEF7DCF900283FF42FAF1C4B46
:1028A0001A7812B91B4A0421117001221A7055E7D7
:1028B000174B1A7812B9174A0221117002221A70A6
:1028C0004CE700BFD40300203C0300208803002015
:1028D000680100205C010020640100200800002045
:1028E00004000020600100207C010020A4010020E1
:1028F000E80000200002002008020020180000204C
:102900000000694020000020140000200402002084
:10291000FD010020FC0100200000E03F0000F03F2E
:10292000A00100201C0000200C02002074010020E7
:10293000780100207BB91070FEF796FB09490A4A1E
:1029400009681268094B0A481B680A440260094A70
:102950000B44136095E6022BEED1074A136801334E
:102960001360E9E76801002008000020040000204F
:102970006401002060010020A4010020000000008C
:1029800010B598B04422002106A81BF0EBFD0023EF
:102990004FF40070CDE90133CDE90333059302F024
:1029A000A7FE08B172B6FEE702239FED137B01225A
:1029B0001093169303241423CDE911421393072295
:1029C000022306A8CDE914238DED067B02F0ACFFAF
:1029D000034608B172B6FEE704210F220DEB010099
:1029E000CDE90124CDE90333059303F0ADFA08B135
:1029F00072B6FEE718B010BD010000000000010033
:102A0000F0B5274E274D284F284C83B0304604F0B0
:102A1000D7FB284604F0D4FB384604F0D1FB20460F
:102A20000122072102F042FE214B22499A6D42F019
:102A300080529A659B6D03F080530193019B1F2385
:102A40008B614FF48040022102F042FE01F03CFF16
:102A5000FFF796FF1848FFF79DF9184B04221A70EC
:102A6000FEF702FB384604F07DFB304604F07AFBAB
:102A7000284604F077FB1249124A134B0968126882
:102A80001B681248124D0A440B44026007210022C1
:102A900020462B6003B0BDE8F04002F007BE00BF47
:102AA000D40300203C0300208803002000080048D5
:102AB0000010024000700040E80000207C0100206F
:102AC00068010020080000200400002064010020AC
:102AD000600100202DE9F04F2DED048B83B001F053
:102AE000F3FEFFF74DFFFFF7BDF900F011FE00F018
:102AF000B7FB00F0DDFB00F001FCFFF7F7F800F09A
:102B000011FD00F049FD00F071FD0022B6480721DB
:102B100002F0CCFDB54A002302F8013F0133FF2B40
:102B2000FAD1FFF7A3F80022B149B248B24EDFF85C
:102B300078A39FEDB28ADFEDB29A9FEDB29ADFEDF6
:102B4000B28ADFF86893B14FDFF86483B04D042395
:102B5000FEF7CEFFAF4804F005FBAF4804F002FBE0
:102B600006F0BEFB05F07CF9FFF75AFAFFF7CCFA46
:102B7000FFF7F0FBA94B1C46186805F0A9F920687F
:102B80001BF0D4FA012104461BF0C2FB00212046B1
:102B90001BF08AFBF021204607F056F8A04920469A
:102BA0001BF058FB002309211A46204607F0D0F8F5
:102BB00019F0D6FB642001F0A9FE01F089FD994BC4
:102BC0001B78052B0CBF9849984920461BF042FB07
:102BD00019F0C6FB642001F099FE954B32681B6822
:102BE0009449954813440B60944B1B681344CAF8EE
:102BF000003004F0B7FA042001F088FE904B1C78F6
:102C0000012C00F0A381032C00F0CD80022C1ED0FB
:102C10003B780024032B3C7035D0042B00F07A81E4
:102C2000022B00F04781D8F80030002B68D1854B8B
:102C30003268186884491BF00DFBDAF8002033680D
:102C40009A4201D2FFF7DCFE19F08AFBD3E716F0B7
:102C500031FE05F029F97D4B1B68834200F0AA8103
:102C6000D9F800208242D3D1794A12683C2ACFDDBC
:102C7000734A18460423137005F02AF93B780024A0
:102C8000032B3C70C9D116F015FE05F00DF9D9F8EB
:102C900000308342C7D16F496F4A0B68013382FB12
:102CA000032BABEBE37B0BEB4B0BA3EB0B0B2846A4
:102CB000C1F800B019F066F90521284619F03EFB6D
:102CC000FF21284619F036FB644B46F23931198052
:102CD000284619F025FB624B1A465B469346A342F1
:102CE0005BF8040B01934FF00002294604F1010444
:102CF00000F022820AF0DEFD032C019BEFD192E767
:102D00000023C8F8003016F0D5FD05F0CDF84F4B84
:102D10001B6883428BD1534B53491A68534B544C15
:102D200018681BF097FA534B53491A68534B1868AD
:102D30001BF090FAD4ED007A514B5249186867EEB7
:102D4000887AFDEEE77A17EE902A1BF083FA4E4B55
:102D50004E48D3ED007A4E49006867EE887AFDEE62
:102D6000E77A17EE902A1BF075FAD4ED007A464BFD
:102D70004849D3ED006A484BB0EE697AA7EE887AED
:102D80001868F0EE687AE6EE897ABDEEC77AFDEE55
:102D9000E77A17EE102A8A8017EE902ACA8002225C
:102DA0001BF0BAFB43E7264B4FF0000B83F800B053
:102DB00016F080FD05F078F8D9F8003083427FF4F2
:102DC00027AF364B1B68002B00F07481344B1B6817
:102DD000002B40F05581224B324998681BF03AFA9B
:102DE0002E4A0223136013E700080048FF0000107A
:102DF00070010020D4000020680100200000C842BB
:102E00000000F0420000C8C200004843FC0100205E
:102E1000F4010020D40300203C030020E80100203E
:102E20009CE90108A8040020BCE9010828EA01087F
:102E30000800002064010020880300200400002016
:102E40007C01002098010020B4E80108A8010020BE
:102E5000A4010020F0010020565555556C010020BA
:102E6000B8010020000200206CE801088801002061
:102E700074010020080200207CE801088C01002079
:102E8000900100207CEB01087801002094010020D3
:102E900090EB01080C0000209C0100205C01002048
:102EA0004C01002074EA010860010020B4010020F8
:102EB000A0010020B54A1468002C79D0013CB34B26
:102EC00028461C6019F05EF80521284619F036FAEC
:102ED000FF21284619F02EFAAD4B46F23931198000
:102EE000284619F01DFAAB4B1A464FF0000B23464B
:102EF00014465B4554F8040B01934FF00002294639
:102F00000BF1010B4BD00AF0D5FCBBF1030F019B79
:102F1000EFD188E616F0CEFC04F0C6FFD9F80030F9
:102F200083427FF480AE9C4B1C68002C7FF47BAE08
:102F30009A4B1B68002B40F01781964898494068CF
:102F40001BF088F9954A012313606CE6954A022329
:102F5000137016F0AFFC04F0A7FF934B1B6883427D
:102F60005CD0924B1B6883423FF452AE904B1B687F
:102F700083427FF44DAE8F4B8F491A6801321A603D
:102F80008E4B18681BF066F900218D48FEF7DEFDB8
:102F900088498B4804230022FEF716FE38E60022FB
:102FA0000AF068FB019B022B03F1010BA1D13AE669
:102FB0001C4684E7834B1B683C2B7FF729AE794A7C
:102FC000D9F80000DFF8CCB10423137004F080FFBF
:102FD0006E4B28461B68019318F0D4FF0521284644
:102FE00019F0ACF9FF21284619F0A4F9684B46F214
:102FF00039311980284619F093F90024019B5BF8B8
:10300000040BA3424FF00002294604F1010400F032
:10301000B3800AF04FFC032CF0D1F9E5614AD9F8EE
:103020000000DFF870B10423137004F051FF574B18
:1030300028461B68019318F0A5FF0521284619F0C2
:103040007DF9FF21284619F075F9514B46F23931C7
:103050001980284619F064F90024019B5BF8040BE1
:10306000A3424FF00002294604F101046ED00AF099
:1030700021FC032CF1D14C4B18680BF0EDF8C7E59F
:10308000514B186A1C4600F0B7FB424B84F800B065
:103090001C4698684D491BF0DDF84D49E0681BF06F
:1030A000D9F84C485A46072102F000FB3A4BC3F8C6
:1030B00000B0ADE54FF0010B0193374B4548C3F825
:1030C00000B05A46072102F0F1FA019B41481A4626
:1030D000594602F0EBFA2F4B3F4998681BF0BAF8BB
:1030E00019F03EF901F0F4FA374B1A78019B052AE2
:1030F00000F080800193274B384998681BF0AAF8AC
:10310000264A019B1268002A40F08280214C3449F3
:10311000E0680A6033491BF09DF8314920692A4C68
:103120000A6831491BF096F83049206AFF2200F006
:1031300075FF022323706BE500220AF09BFA019BC6
:10314000022B03F101047FF4CAAD6CE500220AF002
:1031500091FA019B022B03F101047FF47EAF124B25
:1031600018680BF079F853E50A4B214958681BF0B1
:1031700071F80A4B1C6056E500220AF07BFA019BAD
:10318000022B03F101047FF439AF41E5F001002087
:103190006C010020B80100205C0100204C010020DF
:1031A00068EB01087C010020E8010020EC01002010
:1031B000A80100207001002058E8010884010020C7
:1031C000D4000020A4010020A8040020F0E8010899
:1031D0001CE901080008004874EA0108F8EA01083F
:1031E0005801002008EB010800E901080001001067
:1031F000DCE80108114B124998681C461BF02AF8BC
:103200001049E0681BF026F80F4A019B1360FFE4A9
:103210000E4A0F491360094BD8681BF01BF8074B87
:103220000A4A186912680B491BF014F80A4B186A0D
:1032300000F0AEFB084B1C70EAE400BFB8010020B0
:10324000F0E801088CEA01085C0100205001002030
:103250002CEB01084CEB0108A804002072B6FEE735
:1032600010B51148114C4FF482720023C0E900429E
:103270004FF4E0614FF40072C0E90231282482610A
:1032800007210822C0E90433C0E90743C0E9093334
:10329000C0E90B13426303F03BFA00B910BDBDE86F
:1032A0001040FFF7DBBF00BF1002002000300140DC
:1032B000104811494FF4827210B5C0E900124FF462
:1032C000007200234FF4E064072182610822C0E904
:1032D0000234C0E90433C0E90733C0E90933C0E967
:1032E0000B13426303F014FA00B910BDBDE810409F
:1032F000FFF7B4BF740200200038004010B5114839
:10330000114C4FF48272C0E900424FF400414FF477
:10331000E0620023C0E902124FF480240721082252
:10332000C0E90433C0E90643C0E90833C0E90A3103
:10333000C0E90C3203F0ECF900B910BDBDE8104053
:10334000FFF78CBFD8020020003C004070B5036836
:10335000464A8EB000249342CDE90844CDE90A44A0
:103360000C9407D0424A934226D0424A934245D019
:103370000EB070BD404B1A6E42F480521A661A6E3F
:1033800002F480520192019ADA6C42F00102DA648E
:10339000DB6C03F00103029303220523C224022500
:1033A00008A94FF09040CDE90845CDE90B23029CD8
:1033B00002F08EF80EB070BD2F4B30489A6D42F47B
:1033C00080429A659A6D02F480420392039ADA6C05
:1033D00042F00202DA64DB6C03F00203049303227E
:1033E00005234FF46044022508A9CDE90845CDE93D
:1033F0000B23049C02F06CF80EB070BD1E4B9A6D4E
:1034000042F400429A659A6D02F400420592059AD0
:10341000DA6C42F00102DA64DA6C02F00102069220
:10342000069ADA6C42F00402DA64DB6C03F00403FF
:1034300007934FF400420326062508A902234FF004
:103440009040CDE90823CDE90B65079B02F040F8D9
:103450004FF4A05308930A480C95022308A9CDE91C
:103460000A46099302F034F80EB070BD00300140F6
:1034700000380040003C00400010024000040048BA
:10348000000800480A4B1A6E42F001021A661A6ED2
:1034900082B002F001020092009A9A6D42F08052CE
:1034A0009A659B6D03F080530193019B02B07047B6
:1034B00000100240FEE700BFFEE700BFFEE700BFCE
:1034C000FEE700BFFEE700BF704700BF704700BFC8
:1034D000704700BF01F008BA202002F0EDB800BF2D
:1034E000014803F03DBF00BF3C030020014803F04A
:1034F00037BF00BF88030020014804F029B800BF8F
:1035000020040020014803F02BBF00BFD40300209B
:10351000034AD2F8883043F47003C2F88830704709
:1035200000ED00E000B51A484FF0804202604F22E3
:1035300089B04260174A0023CDE90433CDE9063350
:10354000CDE90133C0E9023203930361836103F0E3
:1035500091FD90B94FF480530D48049304A903F0F2
:1035600047FE90B900230A48019301A9039303F091
:10357000A1FF28B909B05DF804FBFFF76FFEE9E78A
:10358000FFF76CFE09B05DF804FBFFF767FEE9E7A3
:10359000880300203F420F0000B51248124985B051
:1035A0004F220023C0E9001241F28732CDE90133F6
:1035B000C0E902320393836103F05CFD50B900233C
:1035C0000848019301A9039303F074FF28B905B0DB
:1035D0005DF804FBFFF742FEF1E7FFF73FFE05B0A1
:1035E0005DF804FBD40300200014004000B51B4824
:1035F0001B4A026089B04F22002342604CF24F32D6
:10360000CDE90433CDE90633CDE90133C0E9023217
:10361000C0E904330393836103F02CFD90B94FF4A8
:1036200080530E48049304A903F0E2FD90B90023EF
:103630000A48019301A9039303F03CFF28B909B09C
:103640005DF804FBFFF70AFEE9E7FFF707FE09B0A4
:103650005DF804FBFFF702FEE9E700BF3C03002032
:103660000040014000B50368B3F1804F85B008D039
:10367000244A93421BD0244A93422DD005B05DF8D2
:1036800004FB03F504330022996D41F001019965B3
:103690009B6D03F0010301931C201146019B01F077
:1036A00065FE1C2005B05DF804EB01F09DBE174BD4
:1036B000996D41F0200199659B6D03F02003029301
:1036C000372000220121029B01F050FE372005B077
:1036D0005DF804EB01F088BE0C4B196E41F48031AB
:1036E00019661B6E03F48033039318200022012116
:1036F000039B01F03BFE182005B05DF804EB01F0E0
:1037000073BE00BF001400400040014000100240A2
:1037100010B50C480C4C00234FF4E1310C22C0E9E9
:103720000041C0E90233C0E90432C0E90633C0E910
:10373000083304F01BFA00B910BDBDE81040FFF7D4
:103740008DBD00BF200400200038014000000000B3
:1037500010B504469EB000215C2207A8CDE90211F5
:10376000CDE9041106911AF0FDFE214B22689A4220
:1037700001D01EB010BD012307A8079302F04EFD33
:1037800058BB1C4B1A6E42F480421A661A6E02F441
:1037900080420092009ADA6C9FED117B42F00102A8
:1037A000DA64DB6C8DED027B9FED0F7B03F0010390
:1037B000019302A907234FF090408DED047B0693FF
:1037C000019A01F085FE00221146252001F0CEFD70
:1037D000252001F009FE1EB010BDFFF73FFDD0E728
:1037E00000060000020000000000000003000000CE
:1037F000003801400010024010B582B0044648F67F
:103800008103002210214FF09040ADF8003001F00C
:103810004DFF322302226946204602F0F5FF0122C5
:10382000044610214FF0904001F040FF0023019327
:10383000019BB3F57A7F06D2019B01330193019B73
:10384000B3F57A7FF8D3204602B010BD10B582B030
:1038500004464FF69273002210214FF09040ADF8CD
:10386000003001F023FF322302226946204602F095
:10387000CBFF0122044610214FF0904001F016FFCB
:1038800000230193019BB3F57A7F06D2019B01339C
:103890000193019BB3F57A7FF8D3204602B010BDA7
:1038A00070B582B00646192300224FF090400D46B5
:1038B00010218DF8033001F0F9FE322301220DF1C1
:1038C0000301304602F0A0FF3223044601220DF12D
:1038D0000201304603F050FA0122044310214FF058
:1038E000904001F0E3FE00230193019BB3F57A7F42
:1038F000E4B206D2019B01330193019BB3F57A7FB9
:10390000F8D39DF902209DF80230002ABDBF5B422A
:10391000C3F385035B429B0820462B6002B070BD59
:1039200070B582B006461A2300224FF090400D4633
:1039300010218DF8033001F0B9FE322301220DF180
:103940000301304602F060FF3223044601220DF1EC
:103950000201304603F010FA0122044310214FF017
:10396000904001F0A3FE00230193019BB3F57A7F01
:10397000E4B206D2019B01330193019BB3F57A7F38
:10398000F8D39DF802302046893B2B6002B070BD11
:1039900070B58AB048F2CD430446002210214FF0A2
:1039A0009040ADF8203001F081FE3223022208A9B8
:1039B000204602F029FF0122054610214FF09040D9
:1039C00001F074FE00230993099BB3F57A7F06D2B8
:1039D000099B01330993099BB3F57A7FF8D3A4239C
:1039E000002210214FF09040ADF81C3001F05EFE37
:1039F0003223022207A9204602F006FF01221021ED
:103A000006464FF0904001F051FE00230893089BBA
:103A1000B3F57A7F06D2089B01330893089BB3F570
:103A20007A7FF8D34BF69173002210214FF090402B
:103A3000ADF8183001F03AFE3223022206A92046E2
:103A400002F0E2FE2E430122102105464FF0904085
:103A500001F02CFE00230793079BB3F57A7FF6B2A3
:103A600006D2079B01330793079BB3F57A7FF8D300
:103A70004FF69273002210214FF09040ADF81430B1
:103A800001F014FE3223022205A9204602F0BCFEFA
:103A900035430122102106464FF0904001F006FE0A
:103AA00000230693069BB3F57A7FEDB206D2069B00
:103AB00001330693069BB3F57A7FF8D38E23002259
:103AC00010214FF09040ADF8103001F0EFFD32239F
:103AD000022204A9204602F097FE2E430122102163
:103AE00005464FF0904001F0E1FD00230593059B52
:103AF000B3F57A7FF6B206D2059B01330593059B99
:103B0000B3F57A7FF8D38F23002210214FF0904035
:103B1000ADF80C3001F0CAFD3223022203A9204681
:103B200002F072FE35430122102106464FF090400C
:103B300001F0BCFD00230493049BB3F57A7FEDB242
:103B400006D2049B01330493049BB3F57A7FF8D328
:103B50008D23002210214FF09040ADF8083001F085
:103B6000A5FD3223022202A9204602F04DFE2E437B
:103B70000122102105464FF0904001F097FD0023EF
:103B80000393039BB3F57A7FF6B206D2039B01330E
:103B90000393039BB3F57A7FF8D348F68153002251
:103BA00010214FF09040ADF8043001F07FFD32233A
:103BB000022201A9204602F027FE0122044610211C
:103BC0004FF0904001F072FD00230293029B3543B9
:103BD000B3F57A7FEDB206D2029B01330293029BCA
:103BE000B3F57A7FF8D344EA0500C0B20AB070BDDD
:103BF00070B58AB048F2CD730446002210214FF010
:103C00009040ADF8203001F051FD3223022208A986
:103C1000204602F0F9FD0122054610214FF09040A8
:103C200001F044FD00230993099BB3F57A7F06D286
:103C3000099B01330993099BB3F57A7FF8D3A42339
:103C4000002210214FF09040ADF81C3001F02EFD05
:103C50003223022207A9204602F0D6FD01221021BC
:103C600006464FF0904001F021FD00230893089B89
:103C7000B3F57A7F06D2089B01330893089BB3F50E
:103C80007A7FF8D34FF29173002210214FF09040C9
:103C9000ADF8183001F00AFD3223022206A92046B1
:103CA00002F0B2FD2E430122102105464FF0904054
:103CB00001F0FCFC00230793079BB3F57A7FF6B273
:103CC00006D2079B01330793079BB3F57A7FF8D39E
:103CD00044F2C003002210214FF09040ADF81430A0
:103CE00001F0E4FC3223022205A9204602F08CFDFB
:103CF00035430122102106464FF0904001F0D6FCDA
:103D000000230693069BB3F57A7FEDB206D2069B9D
:103D100001330693069BB3F57A7FF8D34FF692737F
:103D2000002210214FF09040ADF8103001F0BEFCA1
:103D30003223022204A9204602F066FD2E4301220E
:103D4000102105464FF0904001F0B0FC0023059390
:103D5000059BB3F57A7FF6B206D2059B0133059336
:103D6000059BB3F57A7FF8D38E23002210214FF004
:103D70009040ADF80C3001F099FC3223022203A9E7
:103D8000204602F041FD35430122102106464FF046
:103D9000904001F08BFC00230493049BB3F57A7FE1
:103DA000EDB206D2049B01330493049BB3F57A7FF2
:103DB000F8D38F23002210214FF09040ADF8083047
:103DC00001F074FC3223022202A9204602F01CFDFD
:103DD0002E430122102105464FF0904001F066FC71
:103DE00000230393039BB3F57A7FF6B206D2039BBD
:103DF00001330393039BB3F57A7FF8D38D2300221D
:103E000010214FF09040ADF8043001F04FFC322308
:103E1000022201A9204602F0F7FC012204461021EB
:103E20004FF0904001F042FC00230293029B354387
:103E3000B3F57A7FEDB206D2029B01330293029B67
:103E4000B3F57A7FF8D344EA0500C0B20AB070BD7A
:103E50002DE9F047102688B0044617464FF09040F1
:103E60000022884631468DF81C6001F01FFC322389
:103E7000012207A9204602F0C7FC322301220DF1DE
:103E800006010546204602F077FF314682460122B0
:103E90004FF0904001F00AFC00230693069BB3F517
:103EA0007A7F06D2069B01330693069BB3F57A7F91
:103EB000F8D39DF806308DF81D3000228D23102197
:103EC0004FF090408DF81C3001F0F0FB32230222BD
:103ED00007A9204602F098FC0122064610214FF067
:103EE000904001F0E3FB00230593059BB3F57A7F37
:103EF00006D2059B01330593059BB3F57A7FF8D372
:103F00001323002210214FF090408DF81C3001F057
:103F1000CDFB07A932230122204602F075FC322393
:103F200001220DF107018146204602F025FF45EAF6
:103F30000A050122824610214FF0904001F0B6FBA5
:103F400000230493049BB3F57A7FEDB206D2049B61
:103F500001330493049BB3F57A7FF8D32E4349EAE7
:103F600006099DF807603E80002210214FF0904026
:103F70008DF80C2001F09AFB3223012203A9204680
:103F800002F042FC4AEA090A5FFA8AFA0546074645
:103F900050B34FF69273002210214FF09040ADF8CD
:103FA000083001F083FB3223022202A9204602F0EE
:103FB0002BFC0122044610214FF0904001F076FBCB
:103FC00000230393039BB3F57A7F4AEA050506D2E3
:103FD000039B01330393039BB3F57A7FF8D345EA40
:103FE000040008B0BDE8F08732233246414620463F
:103FF00002F0C2FE0122054610214FF0904001F070
:1040000055FB0797079BB3F57A7FC2D2079B013315
:104010000793079BB3F57A7FF8D3BAE72DE9F04110
:1040200086B004460E461546FFF7E2FD48F68113BA
:104030000022102107464FF09040ADF8103001F0FB
:1040400035FB3223022204A9204602F0DDFB0122C7
:10405000804610214FF0904001F028FB002305938B
:10406000059BB3F57A7F06D2059B01330593059B2B
:10407000B3F57A7FF8D3A223002210214FF09040AD
:104080008DF80C308DF80D5001F010FB3223022218
:1040900003A9204602F0B8FB47EA08070122804640
:1040A00010214FF0904001F001FB00230493049B8A
:1040B000B3F57A7F06D2049B01330493049BB3F5D6
:1040C0007A7FF8D38023002210214FF090408DF8A2
:1040D000083001F0EBFA3223012202A9204602F057
:1040E00093FB2A46322331460546204602F08CFBDC
:1040F0000122054310214FF0904001F0D7FA002330
:104100000393039BB3F57A7F47EA0807EDB206D223
:10411000039B01330393039BB3F57A7FF8D348F6EF
:104120008133002210214FF09040ADF8043001F0AF
:10413000BDFA3223022201A9204602F065FB0122CA
:10414000044610214FF0904001F0B0FA0023029392
:10415000029BB3F57A7F45EA070506D2029B01333D
:104160000293029BB3F57A7FF8D345EA040006B0C8
:10417000BDE8F0812DE9F04393B048F68103044691
:1041800000224FF090400D461021ADF8443001F070
:104190008DFA3223022211A9204602F035FB0122BA
:1041A00010214FF0904001F081FA00230293029B0E
:1041B000B3F57A7F06D2029B01330293029BB3F5DB
:1041C0007A7FF8D300230193019BBF4A934205D81D
:1041D000019B01330193019B9342F9D981222B78F2
:1041E0008DF84420102100224FF090408DF845308A
:1041F00001F05CFA3223022211A9204602F004FBEE
:104200000122102106464FF0904001F04FFA0023A2
:104210000E930E9BB3F57A7F06D20E9B01330E935D
:104220000E9BB3F57A7FF8D3D5ED017ADFEDA76A5F
:10423000B8EE677A0022C7EE267A10214FF0904040
:10424000FCEEE77A17EE908A4FEA18438DF841307A
:1042500086238DF8403001F029FA3223022210A97A
:10426000204602F0D1FA0122814610214FF0904001
:1042700001F01CFA00231193119BB3F57A7FC8F368
:1042800007275FFA88F806D2119B01331193119B1F
:10429000B3F57A7FF8D38723002210214FF09040A6
:1042A0008DF83D708DF83C3001F000FA3223022287
:1042B0000FA9204602F0A8FA0122074610214FF06C
:1042C000904001F0F3F900231093109BB3F57A7F2F
:1042D00006D2109B01331093109BB3F57A7FF8D36D
:1042E0008823002210214FF090408DF835808DF802
:1042F000343001F0DBF9322302220DA9204602F00E
:1043000083FA0122804610214FF0904001F0CEF94F
:1043100000230F930F9B46EA0906B3F57A7FF6B2A6
:1043200006D20F9B01330F930F9BB3F57A7FF8D31F
:104330006B7C8DF831300022892310214FF09040A2
:104340008DF8303001F0B2F9322302220CA9204658
:1043500002F05AFA3E4348EA0607012206461021B7
:104360004FF0904001F0A2F900230D930D9BB3F59F
:104370007A7FFFB206D20D9B01330D930D9BB3F5EF
:104380007A7FF8D3AB7C8DF82D3000228B2310215F
:104390004FF090408DF82C3001F088F93223022242
:1043A0000BA9204602F030FA3E43012207461021B5
:1043B0004FF0904001F07AF900230C930C9BB3F579
:1043C0007A7FF6B206D20C9B01330C930C9BB3F5AB
:1043D0007A7FF8D3EB7C8DF8293000228C231021D2
:1043E0004FF090408DF8283001F060F9322302221E
:1043F0000AA9204602F008FA374301220646102196
:104400004FF0904001F052F900230B930B9BB3F552
:104410007A7FFFB206D20B9B01330B930B9BB3F554
:104420007A7FF8D32B7D8DF8253000229D23102133
:104430004FF090408DF8243001F038F932230222F9
:1044400009A9204602F0E0F93E4301220746102167
:104450004FF0904001F02AF900230A930A9BB3F52C
:104460007A7FF6B206D20A9B01330A930A9BB3F510
:104470007A7FF8D36B7D8DF8213000229E231021A6
:104480004FF090408DF8203001F010F932230222D5
:1044900008A9204602F0B8F9374301220646102148
:1044A0004FF0904001F002F900230993099BB3F506
:1044B0007A7FFFB20CD2099B01330993099BB3F5B4
:1044C0007A7FF8D304E000BF7F841E002F5D464250
:1044D000AB7D8DF81D3000229F2310214FF09040BE
:1044E0008DF81C3001F0E2F83223022207A92046A1
:1044F00002F08AF93E430122074610214FF0904016
:1045000001F0D4F800230893089BB3F57A7FF6B244
:1045100006D2089B01330893089BB3F57A7FF8D342
:10452000EB891B0A8DF819300022A02310214FF0CF
:1045300090408DF8183001F0B9F83223022206A914
:10454000204602F061F937430122064610214FF060
:10455000904001F0ABF800230793079BB3F57A7FF7
:10456000FFB206D2079B01330793079BB3F57A7F0F
:10457000F8D3AB7B8DF815300022A12310214FF02A
:1045800090408DF8143001F091F83223022205A9F1
:10459000204602F039F93E430122074610214FF030
:1045A000904001F083F800230693069BB3F57A7FD1
:1045B000F6B206D2069B01330693069BB3F57A7FCB
:1045C000F8D3EB7D8DF811300022C02310214FF07D
:1045D00090408DF8103001F069F83223022204A9CE
:1045E000204602F011F937430122064610214FF010
:1045F000904001F05BF800230593059BB3F57A7FAB
:10460000FFB206D2059B01330593059BB3F57A7F74
:10461000F8D3C1212B7E8DF80C10002210214FF011
:1046200090408DF80D3001F041F83223022203A9A9
:10463000204602F0E9F80122102105464FF0904093
:1046400001F034F800230493049B3E43B3F57A7FD2
:10465000F6B206D2049B01330493049BB3F57A7F30
:10466000F8D348F68113002210214FF09040ADF8A6
:10467000003001F01BF8322302226946204602F086
:10468000C3F8012210214FF0904001F00FF80023F1
:104690000393039B3543B3F57A7FEDB206D2039BB8
:1046A00001330393039BB3F57A7FF8D30023009380
:1046B000009B064A934205D8009B01330093009B60
:1046C0009342F9D9284613B0BDE8F0837F841E00D9
:1046D000F0B54C494C4C4D4A4D4BA3628DB0002572
:1046E000C4E908124FF090402A460821CDE906554A
:1046F000CDE90855CDE90A55059500F0D7FF02959B
:10470000029B444A934205D2029B01330293029BCF
:104710009342F9D3012208214FF0904000F0C6FFE8
:1047200000230393039B3B4A934205D2039B01332F
:104730000393039B9342F9D3374A099288238DF858
:1047400014304CF2927249F2C003ADF82820ADF853
:104750001C303249069102220C23ADF822308DF82C
:104760001E20FF230DF1140C8DF82A30BCE80F0039
:104770002B4D276ADFF8ACE00FC59CE80700012647
:1047800085E80700002210214FF09040C4F808E0AF
:104790008DF8076000F08AFF322332460DF10701E1
:1047A000384602F031F8322332460DF10601384620
:1047B00002F0E2FA324610214FF0904000F076FF0E
:1047C00000230493049BB3F57A7F06D2049B013344
:1047D0000493049BB3F57A7FF8D39DF8063003F079
:1047E0007803082B0CBF00230523237023780BB11B
:1047F0000DB0F0BD0A49206A0DB0BDE8F040FFF7EA
:10480000B9BC00BF10020020A804002075240008D5
:104810000925000800127A0004FF0B238050DE19DE
:10482000AC040020007F221DDFF834D0FEF770FEBC
:104830000C480D490D4A002302E0D458C4500433FB
:10484000C4188C42F9D30A4A0A4C002301E01360D1
:104850000432A242FBD319F093FEFEF73BF9FEE7C8
:104860000000012000000020B8000020E8430208FA
:10487000B80000208C6F0020FEE7000038B50F4B19
:104880001B780BB9012038BD0D494FF47A720546EB
:10489000B2FBF3F30868B0FBF3F000F0B3FD04469D
:1048A0000028EFD10F2DEDD8024629464FF0FF30FA
:1048B00000F05CFD034B20461D6038BD2800002041
:1048C000240000202C00002010B5032000F03CFD47
:1048D0000F20FFF7D3FF10B10124204610BD04467E
:1048E000FEF7D0FD204610BD034A044B11681B782B
:1048F0000B441360704700BFD40400202800002040
:10490000014B1868704700BFD404002038B5044636
:10491000FFF7F6FF631C054602D0044B1B781C44CE
:10492000FFF7EEFF431BA342FAD338BD2800002057
:1049300030B583B000230193002800F0B480456DAA
:104940000446002D00F09C80226893689D0005D5E8
:10495000936823F0204323F03F0393609368D800CB
:1049600019D45B4B5B481B6891689B09A0FB030350
:1049700021F010419B0921F03F0101335B0041F020
:10498000805191600193019B2BB1019B013B0193ED
:10499000019B002BF9D19368D90063D4636D43F078
:1049A00010036365A36D01200343A365936813F0AF
:1049B000040F636D5DD1DB065BD4636D23F48173FB
:1049C00043F0020363659368DD070AD4424B9B689A
:1049D000D90706D4414965688B6823F47C132B43BF
:1049E0008B60E568636B94F820102B43A5682B431C
:1049F000657E012943EA453343EA01434ED0A16A6B
:104A000021B1E56A01F4707129430B43D56834493B
:104A100029401943D16093681B0714D4D16894F8D6
:104A20003030257E21F480415B0021F0020143EA11
:104A300085330B43D36094F83830012B36D013699B
:104A400023F0010313612369012B1FD0136B23F0A3
:104A50000F031363636D23F0030343F001036365E6
:104A600003B030BD936813F0040F4FF00000636D86
:104A7000A1D0636D012043F01003636503B030BD26
:104A8000FDF788F9A56584F850505DE7116BE3697F
:104A900021F00F01013B0B431363DBE7616A01392E
:104AA00043EA4143ABE7012003B030BD1169E36B3A
:104AB000256C21F4FF6121F004012B430B43616C51
:104AC0000B43A16C0B4343F001031361BBE700BF31
:104AD00024000020632D3E05000004500003045014
:104AE00007C0F0FFF8B54469082C05460E4604D00F
:104AF0000368DB68DC0748D40424FFF701FF2A6859
:104B00000746701C24D113681C42FCD06B6D43F423
:104B100000736B65D36813F4406F0FD16B7E6BB974
:104B2000136819070AD56B6D23F480736B656B6D81
:104B3000DB0403D46B6D43F001036B65082CD06874
:104B400020D010F4804006BF0C2313600020F8BD75
:104B500013682342DAD1FFF7D3FEC01BB0422A68A4
:104B60000AD913682340CCD16A6D85F8503042F0E1
:104B700004026A650320F8BD002EC2D113682340E9
:104B8000BFD1F1E714600020F8BD436D43F020036E
:104B900001206B65F8BD00BF0368186C704700BF4B
:104BA000F0B590F8502083B00346012A4FF0000082
:104BB000019000F03A811C68012083F85000A2683F
:104BC00012F0040C58D14868052840F2958000F096
:104BD0001F054FF01F0E82090EFA05FE02F00C0CA5
:104BE0006FEA0E0E0A6804F13000C2F38462AA4034
:104BF00050F80C5005EA0E0E42EA0E0240F80C2066
:104C0000A268550746D5A2680D68A268D0072E464F
:104C100013D4CF68AF4AD4F8B00007F0180C22FACA
:104C20000CF2C5F3120C2A4020EA0C000243C4F82F
:104C3000B020A94A974200F0A780A84A164227D080
:104C4000A74AA84990688E4200F0E0751DD0A64999
:104C50008E4200F0ED80A5498E4219D110F48000FB
:104C600016D1A3498C4213D1916821F0E0712943F8
:104C700041F48001916003E05A6D42F020025A65D0
:104C8000002283F8502003B0F0BD010240F1F18012
:104C90000020F5E7A268120765D408688A68C50D88
:104CA00005F0040504F11406C0F3045002FA00F7FD
:104CB0004FF0070C72590CFA00F022EA00023A4356
:104CC0007251D1E90456042DE2681CD004F1600051
:104CD000C2F3C102520050F825C0864F96400A68C0
:104CE0000CEA070702F0F8423A43324342F000422E
:104CF00040F825200D6888E70238032835D96FF47D
:104D0000F86E06256EE70D68226E226EC5F312005E
:104D1000C2F38462002840F0F580C5F384608242CB
:104D200000F06981626E666E04F16002C6F384660B
:104D300004F16407864200F04C819668966802F19F
:104D40000807C6F38466864200F03181D668D668CB
:104D500002F10C07C6F3846290427FF456AF3A68C2
:104D600022F000423A600D684FE7634A52F8205043
:104D70004FF01F0EAA0905F01F050EFA05FE02F0FE
:104D80000C0C6FEA0E0E2DE7BCF1000F61D095FA06
:104D9000A5F2002A00F0E780B2FA82F2013202F0B6
:104DA0001F02092A40F2DF8095FAA5F0002800F0E2
:104DB0003E81B0FA80F00130800600F0F84095FAAC
:104DC000A5F2002A00F03881B2FA82F2013202F034
:104DD0001F02012606FA02F2104395FAA5F5002DEE
:104DE00000F02881B5FA85F5013505F01F0503228D
:104DF0006FF01D0612FB0562120542F000720243BD
:104E0000D60D886806F0040604F11405C2F30452B6
:104E100000FA02F74FF0070CA8590CFA02F220EA48
:104E200002023A43AA510E6807E7022003B0F0BD20
:104E300010F080707FF42CAFA1F1F7418C427FF429
:104E400027AF916821F0E071294341F080719160B2
:104E500016E7AA0E013202F01F05092D2BD8900685
:104E60000122AA4000F0F840104305EB450212056C
:104E7000C5E71F498C427FF40BAF91681F4821F0B2
:104E8000E071294341F40001916002681C499209D4
:104E9000A1FB02129209013202EB4202920001923E
:104EA000019A002A3FF4F4AE019A013A0192019A64
:104EB000002AF9D1ECE6900605EB45021E3A0126E0
:104EC00000F0F840120506FA05F542F0007228439A
:104ED00095E700BFFFFF070000007F40000008804B
:104EE00000030450000052C7000084CB0100008082
:104EF0000000045000F0FF03ECEB01082400002048
:104F0000632D3E0595FAA5F018B1B0FA80F0824203
:104F100071D0626E666E04F16002C6F3846604F1BD
:104F2000640795FAA5F018B1B0FA80F0864250D027
:104F30009068966802F10807C6F3846695FAA5F0B2
:104F400018B1B0FA80F0864231D0D068D06802F152
:104F50000C07C0F3846295FAA5F000283FF455AE23
:104F6000B0FA80F0F8E695FAA5F0002859D0B0FA2A
:104F700080F00130800600F0F84095FAA5F2002A92
:104F80004DD0B2FA82F2013202F01F02012606FA77
:104F900002F2104395FAA5F5002D45D0B5FA85F239
:104FA000013202F01F0202EB4202120527E73868C5
:104FB00020F0004038600D68D06802F10C07D2681C
:104FC000C5F31200C2F384620028C4D1C5F3846023
:104FD000C2E6386820F0004038600D689068966836
:104FE000C5F3120002F10807C6F384660028A5D1B4
:104FF000C5F38460A7E6206E224620F0004042F808
:10500000600F0D68606E666EC5F3120004F16407F0
:10501000C6F38466002884D1C5F384608AE6022240
:10502000B7E74FF08060A8E74FF44012E7E64FF093
:105030008060C4E6014AE2E60222CDE6000050FEAE
:1050400003689A68520770B5044636D59A68DA68DC
:10505000960104D5208B40F20112904232D00229F1
:105060009A680ED0560702D59A68900756D501293E
:105070003AD09A68120739D4032914BF04250C25A5
:1050800002E012073ED40825FFF73AFC23680646E3
:105090009B681D4214D0FFF733FC831B052B23684C
:1050A000F6D99A682A42F3D0636D43F01003636522
:1050B000A36D01200343A36570BD9A681007C6D491
:1050C000002070BD1A68550606D41E4A01E0013A58
:1050D000EAD019684806FAD540221A609A68510742
:1050E00002D59A68950722D50425CDE79A689607D8
:1050F000C2D49A6822F0004222F03F0242F020021D
:105100009A60B9E79A689207BDD49A6822F0004283
:1051100022F03F0242F020029A60B4E79A6822F03F
:10512000004222F03F0242F010029A609FE79A6824
:1051300022F0004222F03F0242F0100204259A6061
:10514000A2E700BF000040A370B582B00022036850
:1051500001929A68D2072CD49968274A11420446D2
:105160002AD19A68254922F0004222F03F0242F0FB
:1051700001029A608B681B0228D4FFF7C1FB2368E9
:105180001A68D607054614D41D4E9A68D00704D471
:105190009A68324042F001029A60FFF7B1FB431B6C
:1051A000022B236802D91A68D10705D51A68D207DD
:1051B000EBD5002002B070BD636D43F01003636552
:1051C000A36D01200343A36502B070BD0D4B0E4AD1
:1051D0001B689B09A2FB03239B09013303EB4303D9
:1051E0009B000193019B002BC7D0019B013B0193C6
:1051F000019B002BF9D1C0E73F0000800003045061
:10520000C0FFFF7F24000020632D3E0538B50368F2
:105210009D6815F0040533D190F85030012B0446F9
:105220002ED0012380F85030FFF78EFF50BB636D06
:1052300023F4706323F0010343F480736365636DAB
:10524000DA0448BFA36D226852BFA06523F00603AD
:10525000A3651C210023116084F85030D3689B01A2
:1052600005D5636D23F4405343F48053636593681D
:1052700023F0004323F03F0343F00403936038BD61
:10528000022038BD84F8505038BD00BF38B50368DF
:105290009A68950702D59B68002038BD9A68D407A4
:1052A0002BD59A6802F00D02012A044608D0636DDE
:1052B00043F010036365A36D01200343A36538BD6C
:1052C0009A6822F0004222F03F02032142F00202DB
:1052D0009A601960FFF714FB23689B68D90705469D
:1052E0000BD5FFF70DFB401B0228236802D99A68F3
:1052F000D207DCD49B68DB07F3D4002038BD00BFA5
:1053000090F85030012B1DD0012310B5032180F8F7
:1053100050300446FFF794FE18B1002384F8503053
:1053200010BD2046FFF7B2FF0028F6D1636D23F4CD
:10533000885323F0010343F001036365002384F8DD
:10534000503010BD022070470749CA6803024FF66B
:10535000FF0003F4E0630240134343F0BF6343F4F0
:105360000033CB60704700BF00ED00E01C4BDB68F2
:10537000C3F3022300B5C3F1070EBEF1040F03F11E
:10538000040C28BF4FF0040EBCF1060F1BD9033BE1
:105390004FF0FF3C0CFA03FC22EA0C024FF0FF3CFA
:1053A0000CFA0EFC21EA0C019940002841EA0201A6
:1053B0000CDB00F16040090100F56140C9B280F8E2
:1053C00000135DF804FB00221346E7E7054B00F0ED
:1053D0000F0009010344C9B219765DF804FB00BF50
:1053E00000ED00E0FCEC00E0002807DB044A410986
:1053F000012300F01F00834042F82130704700BFB6
:1054000000E100E00138B0F1807F10D210B44FF01D
:10541000E023084C58614FF0F00C84F823C00022C0
:10542000072110469A615DF8044B1961704701200D
:10543000704700BF00ED00E090F82520022A0346E7
:1054400006D00422C2630022012083F82420704782
:105450000168426C086820F00E000860086820F0BF
:10546000010008604FF0010C196C02F01C020CFAEC
:1054700002F24A600022002083F825C083F824202D
:10548000704700BF90F82520022A03D00422C2638F
:10549000012070470168426C10B50C6824F00E04BE
:1054A0000C600C6824F001040C6002F01C02046C17
:1054B000012101FA02F26260826B80F8251000245B
:1054C00080F8244012B19047204610BD104610BD10
:1054D0002DE9F04F0C6885B0002C77D04FF0000C10
:1054E000694E63464FF0010B8E460BFA03F717EA3D
:1054F000040A65D0DEF8041001F00302551E012DE8
:1055000067D9032A40F0AB8002FA0CF2D543076852
:105510003D402A4311F4403F026051D05B4D2A6E5A
:1055200042F001022A662A6E02F001020392039AF7
:1055300023F0030202F1804202F5803203F00305FA
:105540004FEA850997680F2505FA09F8B0F1904FE1
:1055500027EA080715D04E4DA84200F08B804D4D2C
:10556000A84200F08B804C4DA8427DD04B4DA84204
:1055700013BF07254FF0040808FA09F505FA09F5E5
:105580002F439760B2686FEA0A05CF0254BF2A40E2
:105590004AEA0202B260F2688F0254BF2A404AEA25
:1055A0000202F26072688F0354BF2A404AEA020284
:1055B00072603268C90354BF2A404AEA020232606C
:1055C000013334FA03F20CF1020C8ED105B0BDE8C0
:1055D000F08FD0F80890DEF80C504FF0030808FA6E
:1055E0000CF829EA080905FA0CF545EA0905856071
:1055F0006FEA0805D0F8048028EA0708C1F300170D
:105600009F4047EA08074760C76807EA0508DEF8D1
:10561000087007FA0CF747EA0807022AC76002FA7F
:105620000CF27FF474AF4FEAD30900EB890903F061
:105630000708D9F820700097DEF810704FEA880844
:1056400007FA08F701970F2707FA08F8009F27EADB
:105650000808019F47EA0807C9F8207057E70325A3
:1056600005FA0CF5ED43CFE74FF0030808FA09F50A
:105670002F4386E70BFA09F52F4382E74FF0020824
:1056800008FA09F52F437CE70004014000100240AE
:105690000004004800080048000C004800100048C2
:1056A0000369194214BF0120002070470AB18161CB
:1056B00070478162704700BF044A5169014200D1BE
:1056C000704708B55061FCF7C5FE08BD00040140F5
:1056D000B0F5804F084601D000F04CB800F066B835
:1056E000024B186800F4C060704700BF00700040B3
:1056F000B0F5007F0ED01C4A136803F4C063B3F505
:10570000806F2DD0136823F4C06343F480630020BE
:105710001360704714490B6803F4C063B3F5007F4E
:105720001ED00B68114A23F4C06343F400730B606E
:1057300013680F4A322000FB03F34869A2FB0323DE
:105740009B0C400503F1010306D500E023B14A6933
:10575000520503F1FF33F9D4034B5B695B0501D4B8
:105760000020704703207047007000402400002094
:1057700083DE1B430B490C4A0B6823F007030B60C5
:105780001369012843F00403136108D040BF20BF10
:1057900020BF054A136923F004031361704730BF2B
:1057A000F7E700BF0070004000ED00E00C490D4A33
:1057B0000B6823F0070343F001030B601369012812
:1057C00043F00403136108D040BF20BF20BF054A47
:1057D000136923F004031361704730BFF7E700BF7C
:1057E0000070004000ED00E030B5204DAB6DDB00F7
:1057F00083B004461CD5FFF773FFB0F5007F29D0B6
:10580000802C13D82FD0A4F17004B4FA84F4640966
:1058100017490B6823F0070323430B60086800F067
:105820000700001B18BF012003B030BD0324EFE7C1
:10583000AB6D43F08053AB65AB6D03F080530193C8
:10584000019BFFF74DFFAB6DB0F5007F23F0805358
:10585000AB65D5D1802C04D9A02C8CBF02240124A7
:10586000D6E70024D4E70224D2E700BF00100240AC
:1058700000200240284A9368D26813F00C0308D035
:105880000C2B38D0042B34D0082B244818BF002010
:105890007047214A1168090754BFD2F89420126852
:1058A0001F4954BFC2F30322C2F3031251F822006E
:1058B00003B30C2B2DD1184BDB6803F00303022B31
:1058C00025D0164A032B08BF1046134BD968DA6857
:1058D000DB68C3F34163C2F30622C1F30211013353
:1058E00000FB02F201315B00B2FBF1F2B2FBF3F01C
:1058F00070470C48704702F00302012AC9D0064BDA
:10590000DB6803F00303022B4FF00000D9D10548F8
:10591000DBE70020704700BF0010024000127A0051
:10592000BCEB01080024F400002800F082822DE97D
:10593000F043944A03689568D6680446D80683B055
:1059400005F00C0506F003062ED5002D00F023818E
:105950000C2D00F01D81A3698A4F002B00F093816C
:105960003B6843F001033B60FEF7CAFF804606E058
:10597000FEF7C6FFA0EB0800022800F294813B6806
:105980009B07F5D53B6843F008033B603B68226A00
:1059900023F0F00313433B607B68E26923F47F4309
:1059A00043EA02237B602368D90700F1C28099078C
:1059B00023D5042D00F057810C2D00F05181E368B0
:1059C000704E002B00F0D981336843F4807333604C
:1059D000FEF796FF074605E0FEF792FFC01B022880
:1059E00000F2618133685B05F6D57368226923F0A4
:1059F000F85343EA026373602368190719D5636992
:105A0000604E002B00F01881D6F8943043F001036B
:105A1000C6F89430FEF774FF074605E0FEF770FF06
:105A2000C01B022800F23F81D6F894309A07F5D5C2
:105A300023685E073FD5534B9A6DD00000F19B81E0
:105A40009A6D42F080529A659B6D03F080530193EA
:105A5000019B01264C4F3B68D90540F1F781A368B3
:105A6000012B00F09C81052B00F01B82454FD7F8DD
:105A7000902022F00102C7F89020D7F8902022F061
:105A80000402C7F89020002B40F09081FEF738FF09
:105A900041F28839804606E0FEF732FFA0EB0800AD
:105AA000484500F20081D7F890309807F4D4002ED2
:105AB00040F0DE812368990618D5636A314E002BC9
:105AC00000F0A281D6F8983043F00103C6F8983070
:105AD000FEF716FF074605E0FEF712FFC01B02287F
:105AE00000F2E180D6F898309A07F5D5A36A002B2A
:105AF00000F03F81022B00F0EF800C2D00F08C8035
:105B0000204C236823F080732360FEF7F9FE0546DE
:105B100005E0FEF7F5FE401B022800F2C480236872
:105B200013F00073F5D1E168184A0A401846E260A4
:105B300073E0082D76D00C2D72D06368B3F5803FEA
:105B400000F0B580B3F5A02F00F09E810D4F3A68AC
:105B500022F480323A603A6822F480223A60002BC4
:105B600040F0AA80FEF7CCFE804606E0FEF7C8FEB5
:105B7000A0EB0800642800F296803B689803F5D4F7
:105B8000236814E70010024000700040FCFFEEFEA6
:105B9000012E7FF4E0AEA84B1B68990739D4A64BC1
:105BA000206A1A68120756BFD3F894301B681B0985
:105BB00003F0F003984200F20F819F4B1A6842F005
:105BC00008021A601A6822F0F00202431A605A684A
:105BD000E16922F47F4242EA01225A60002D00F07E
:105BE0004D81FFF747FE944B944A9B68C3F3031320
:105BF000D35C934A03F01F0320FA03F31068914A21
:105C00001360FEF73BFE40B92368D9077FF5CFAE9E
:105C10008FE7A369002BC2D1012003B0BDE8F08358
:105C2000032E8AD1844A126892037FF5C0AE62685F
:105C3000002A7FF4BCAEEFE7D6F8943023F00103DE
:105C4000C6F89430FEF75CFE074604E0FEF758FE07
:105C5000C01B022827D8D6F894309B07F6D4E7E675
:105C6000022E7FF4ACAE744A1268520502D5E26887
:105C7000002AD1D0704920694A6822F0F85242EADD
:105C800000624A60B9E63B6823F001033B60FEF71F
:105C900037FE80463B689807B6D5FEF731FEA0EB8D
:105CA00008000228F6D9032003B0BDE8F083624A59
