:020000040800F2
:1000000000000120513B0008E1260008E526000819
:10001000E9260008ED260008F1260008000000008F
:10002000000000000000000000000000F5260008AD
:10003000F926000800000000FD260008012700083E
:10004000A13B0008A13B0008A13B000805270008D0
:10005000A13B0008A13B0008A13B0008A13B000810
:10006000A13B0008A13B0008A13B0008A13B000800
:10007000A13B0008A13B0008A13B0008A13B0008F0
:10008000A13B0008A13B0008A13B0008A13B0008E0
:10009000A13B0008A13B0008A13B00081127000874
:1000A0002D270008A13B0008A13B0008A13B000848
:1000B000392700080000000000000000A13B0008F4
:1000C000A13B0008A13B0008A13B0008A13B0008A0
:1000D000A13B000845270008A13B0008A13B000800
:1000E000A13B0008A13B0008000000000000000048
:1000F0000000000000000000000000000000000000
:1001000000000000A13B000800000000A13B000827
:100110000000000000000000A13B0008512700087B
:10012000A13B0008A13B0008A13B0008A13B00083F
:10013000A13B0008000000000000000000000000DB
:10014000A13B0008A13B0008A13B00080000000003
:10015000A13B0008A13B0008A13B0008A13B00080F
:10016000A13B0008A13B0008A13B000800000000E3
:10017000A13B0008A13B00080000000000000000B7
:0C018000A13B0008A13B0008A13B0008C7
:10018C000000000000000000000000000000000063
:10019C000000000000000000000000000000000053
:1001AC000000000000000000000000000000000043
:1003900010B5054C237833B9044B13B10448AFF3BF
:1003A00000800123237010BD4800002000000000E1
:1003B000E0DD010808B5034B1BB103490348AFF367
:1003C000008008BD000000004C000020E0DD0108B6
:1003D00010F8012B11F8013B012A28BF9A42F7D0EF
:1003E000D01A7047034613F8012B002AFBD1181AC4
:1003F0000138704753B94AB9002908BF00281CBF0B
:100400004FF0FF314FF0FF3000F070B9ADF1080C44
:100410006DE904CE00F006F8DDF804E0DDE9022322
:1004200004B070472DE9F047089E0D4604460F467C
:10043000002B4AD18A42944665D9B2FA82F343B17D
:1004400002FA03FCC3F120029F4020FA02F2174394
:100450009C404FEA1C4E1FFA8CF5B7FBFEF1220CB4
:100460000EFB117742EA074201FB05F090420AD9E0
:100470001CEB020201F1FF3780F01C81904240F238
:10048000198102396244121AA4B2B2FBFEF00EFBCB
:10049000102244EA024400FB05F5A5420AD91CEBF0
:1004A000040400F1FF3280F00781A54240F204818C
:1004B0006444023840EA0140641B00211EB1DC4064
:1004C0000023C6E90043BDE8F0878B4208D9002E1F
:1004D00000F0ED800021C6E900050846BDE8F08780
:1004E000B3FA83F1002949D1AB4202D3824200F230
:1004F000F880841A65EB030201201746002EE2D033
:10050000C6E90047DFE702B9FFDEB2FA82F3002B4B
:1005100040F090808A1A4FEA1C471FFA8CFE012196
:10052000B2FBF7F507FB1520220C42EA00420EFB56
:1005300005F0904208D91CEB020205F1FF3802D207
:10054000904200F2CB804546121AA4B2B2FBF7F0FB
:1005500007FB102244EA02440EFB00FEA64508D920
:100560001CEB040400F1FF3202D2A64500F2BB806E
:100570001046A4EB0E0440EA05409FE7C1F12007B6
:100580008B4022FA07FC4CEA030C05FA01F420FA2E
:1005900007F3FD404FEA1C492343B5FBF9F81FFA66
:1005A0008CFE09FB18551C0C44EA054408FB0EF5AB
:1005B000A54202FA01F200FA01F00BD91CEB040487
:1005C00008F1FF3A80F08880A54240F28580A8F1CA
:1005D00002086444641B9DB2B4FBF9F309FB1344A5
:1005E00045EA044403FB0EFEA64508D91CEB0404AF
:1005F00003F1FF356CD2A6456AD9023B644443EA55
:100600000843A3FB0295A4EB0E04AC42C846AE46D9
:1006100056D353D056B1B0EB080264EB0E0404FA83
:1006200007F7CA40CC401743C6E9007418460021BA
:10063000BDE8F087C3F1200102FA03FC20FA01F2C1
:1006400025FA01F19D402A434FEA1C471FFA8CFE10
:10065000B1FBF7F007FB1015110C41EA054100FB57
:100660000EF58D4204FA03F408D91CEB010100F1E8
:10067000FF382FD28D422DD902386144491B92B2E6
:10068000B1FBF7F507FB151142EA014205FB0EF13C
:10069000914208D91CEB020205F1FF3816D29142B3
:1006A00014D9023D6244521A45EA004138E7314606
:1006B000304608E73946E6E61046FBE64845A9D24B
:1006C000B9EB020865EB0C0E013BA3E74546EAE7F0
:1006D0002B4694E74046D1E7D0467BE7023D624493
:1006E00032E708460AE76444023842E7704700BF31
:1006F00002480122042103F0FBBC00BF000C0048AB
:1007000002480022042103F0F3BC00BF000C0048A3
:100710002DE9F047824691465D1A82B0804C8148AF
:100720000A9E1F460135A9EB0A03884600224FF4B2
:10073000006103FB05552A238DF8073003F0D8FC30
:10074000642301220DF10701206805F0F7FB4FEA51
:100750001A2374488DF8073001224FF4006103F02A
:10076000C7FC642301220DF10701206805F0E6FBB8
:100770006C488DF807A001224FF4006103F0B8FC2B
:10078000642301220DF10701206805F0D7FB4FEA31
:10079000192364488DF8073001224FF4006103F0FB
:1007A000A7FC642301220DF10701206805F0C6FBB8
:1007B0005C488DF8079001224FF4006103F098FC2B
:1007C000642301220DF10701206805F0B7FB2B23FC
:1007D00054488DF8073000224FF4006103F088FC84
:1007E000642301220DF10701206805F0A7FB4FEA01
:1007F00018234C488DF8073001224FF4006103F0B4
:1008000077FC642301220DF10701206805F096FBB7
:1008100044488DF8078001224FF4006103F068FC22
:10082000642301220DF10701206805F087FB3B0AD4
:100830003C488DF8073001224FF4006103F058FC6A
:10084000642301220DF10701206805F077FB35488C
:100850008DF8077001224FF4006103F049FC642316
:1008600001220DF10701206805F068FB2C232D48BB
:100870008DF8073000224FF4006103F039FC642347
:100880000DF107010122206805F058FB25480122DF
:100890004FF4006103F02CFC20684FF47063426B4E
:1008A000C360436A02F0080203F010031343428B53
:1008B00002F004021343026843F47063B5F5803F0D
:1008C00053604FF47A7326D3314647F2305205F025
:1008D00035FBA5F5EA42303A06F56A4120684FF447
:1008E0007A7392B2603105F029FB2268536A506B2B
:1008F000518B00F0080003F01003034301F00401E2
:1009000010680B434FF4E06443F4B853D460436081
:1009100002B0BDE8F087AAB2314605F00FFBE4E76C
:1009200000000020000800482DE9F04FED4EEE4D8C
:1009300083B03623304600224FF400618DF8073033
:1009400003F0D6FB64230DF107012868012200277C
:1009500005F0F4FA304601224FF400618DF807707B
:1009600003F0C6FB0DF1070128686423012205F09E
:10097000E5FA3A233A4630464FF400618DF80730E5
:1009800003F0B6FB0DF1070128686423012205F08E
:10099000D5FA0523304601224FF400618DF8073067
:1009A00003F0A6FB0DF1070128686423012205F07E
:1009B000C5FAB2233A4630464FF400618DF807304D
:1009C00003F096FB64230DF107012868012205F06E
:1009D000B5FA4FF00C04304601224FF400618DF857
:1009E000074003F085FB64230DF10701286801220D
:1009F00005F0A4FA304601224FF400618DF807405B
:100A000003F076FB64230DF107012868012205F04D
:100A100095FA304601224FF400618DF8077003F01B
:100A200067FB64230DF107012868012205F086FAAF
:100A30003324304601224FF400618DF8074003F063
:100A400057FB64230DF107012868012205F076FAAF
:100A5000304601224FF400618DF8074003F048FB57
:100A60000DF1070128686423012205F067FA3A4670
:100A70003046B7234FF400618DF8073003F038FBA0
:100A80000DF1070128686423012205F057FA30466A
:100A9000352301224FF400618DF8073003F028FB65
:100AA0000DF1070128686423012205F047FA3A4650
:100AB0003046BB234FF400618DF8073003F018FB7C
:100AC0000DF1070128686423012205F037FA30464A
:100AD000192301224FF400618DF8073003F008FB61
:100AE0000DF1070128686423012205F027FA3A4630
:100AF0003046C0234FF400618DF8073003F0F8FA58
:100B000064230DF107012868012205F017FA4FF060
:100B10002C028DF80720304601224FF4006103F0CB
:100B2000E7FA0DF10701286864230122012405F08A
:100B300005FA3A463046C2234FF400618DF807307B
:100B400003F0D6FA642322460DF10701286805F068
:100B5000F5F9224630464FF400618DF8074003F066
:100B6000C7FA22460DF107012868642305F0E6F96B
:100B70003A463046C3234FF400618DF8073003F046
:100B8000B7FA22460DF107012868642305F0D6F96B
:100B90002246304612234FF400618DF8073003F0EF
:100BA000A7FA22460DF107012868642305F0C6F96B
:100BB0003A463046C4234FF400618DF8073003F005
:100BC00097FA642322460DF10701286805F0B6F96B
:100BD0004FF020018DF80710224630464FF4006197
:100BE00003F086FA0DF107002246014664232868C7
:100BF00005F0A4F93A463046C6234FF400618DF85B
:100C0000073003F075FA0DF1070022460146642310
:100C1000286805F093F9224630460F234FF400610F
:100C20008DF8073003F064FA0DF1070064232246C3
:100C30000146286805F082F94FF0D00A3A4630465E
:100C40004FF400618DF807A003F052FA0DF1070090
:100C5000224601466423286805F070F92246304692
:100C6000A4234FF400618DF8073003F041FA0DF131
:100C70000700224601466423286805F05FF92246F2
:100C80003046A1234FF400618DF8073003F030FAAD
:100C90000DF10700224601466423286805F04EF94D
:100CA0003A463046E0234FF400618DF8073003F0F8
:100CB0001FFA0DF10700642322460146286805F05B
:100CC0003DF9224630464FF400618DF807A003F04D
:100CD0000FFA0DF10700642322460146286805F04B
:100CE0002DF903E000080048000000204FF0040840
:100CF000224630464FF400618DF8078003F0F8F982
:100D00000DF10700642322460146286805F016F914
:100D10004FF00D09224630464FF400618DF80790E0
:100D200003F0E6F90DF10700642322460146286826
:100D300005F004F94FF0110B224630464FF40061E4
:100D40008DF807B003F0D4F90DF1070064232246B3
:100D50000146286805F0F2F84FF013008DF80700FF
:100D6000224630464FF4006103F0C2F90DF1070C42
:100D7000614622462868642305F0E0F822463046A2
:100D80002B234FF400618DF8073003F0B1F90DF11A
:100D9000070C642322466146286805F0CFF84FF01F
:100DA0003F0C224630464FF400618DF807C003F037
:100DB0009FF90DF1070E714622462868642305F05D
:100DC000BDF82246304654234FF400618DF80730B9
:100DD00003F08EF90DF1070E714622462868642350
:100DE00005F0ACF8224630464C234FF400618DF8F4
:100DF000073003F07DF90DF1070E71462246286891
:100E0000642305F09BF82246304618234FF4006116
:100E10008DF8073003F06CF90DF1070E714664236D
:100E20002246286805F08AF8224630464FF40061D1
:100E30008DF8079003F05CF90DF1070E714622461C
:100E40002868642305F07AF8224630460B234FF4D5
:100E500000618DF8073003F04BF90DF1070E714674
:100E600064232246286805F069F84FF01F092246DE
:100E700030464FF400618DF8079003F039F90DF119
:100E8000070E642322467146286805F057F84FF094
:100E9000230E224630464FF400618DF807E003F040
:100EA00027F922460DF107012868642305F046F86A
:100EB0003A463046E1234FF400618DF8073003F0E5
:100EC00017F9642322460DF10701286805F036F86A
:100ED0008DF807A022460DF1070A30464FF4006155
:100EE00003F006F9642322465146286805F026F8E7
:100EF000224630464FF400618DF8078003F0F8F881
:100F0000224651462868642305F018F84FF00C0378
:100F1000224630464FF400618DF8073003F0E8F8C0
:100F2000642322465146286805F008F822463046D8
:100F30004FF400618DF807B003F0DAF8642322461D
:100F40005146286804F0FAFF4FF013008DF80700AF
:100F5000224630464FF4006103F0CAF8642322466B
:100F60005146286804F0EAFF4FF02C028DF8072064
:100F7000304622464FF4006103F0BAF8642322465B
:100F80005146286804F0DAFF4FF03F0C2246304605
:100F90004FF400618DF807C003F0AAF822465146CD
:100FA0002868642304F0CAFF2246304644234FF4E5
:100FB00000618DF8073003F09BF8224651462868FF
:100FC000642304F0BBFF2246304651234FF40061F6
:100FD0008DF8073003F08CF82246514628686423C8
:100FE00004F0ACFF224630462F234FF400618DF809
:100FF000073003F07DF8642322465146286804F048
:101000009DFF224630464FF400618DF8079003F0B3
:101010006FF8642322465146286804F08FFF224669
:1010200030464FF400618DF8079003F061F86423B7
:1010300022465146286804F081FF4FF020018DF8C8
:101040000710224630464FF4006103F051F8642344
:1010500022465146286804F071FF4FF0230E2246C5
:1010600030464FF400618DF807E003F041F8224666
:1010700051462868642304F061FF3A463046212334
:101080004FF400618DF8073003F032F864232246F4
:101090005146286804F052FF3A4630464FF400614A
:1010A0008DF807B003F024F82246514664232868DF
:1010B00004F044FF782002F0BDFD3A463046292373
:1010C0004FF400618DF8073003F012F851462246C4
:1010D0002868642304F032FF03482246414603B0E7
:1010E000BDE8F04F03F004B8000C00482DE9F041D2
:1010F00082B005460F4602F097FD4FF00508064600
:1011000012E0286805F0D2F9298A012250BBE8686C
:1011100002F0EEFF9DF8033013F001031DD002F042
:1011200083FD801BB84224D8298AE868CDF8048062
:10113000002202F0DDFF04220DEB020132232868B9
:1011400004F0FCFE322301220DF1030104460028C5
:10115000D7D0298AE86802F0CBFF0024204602B0ED
:10116000BDE8F081E86802F0C3FF204602B0BDE8A8
:10117000F0810324F2E700BFF0B5044683B01546C2
:101180000E461F46642103230193FFF7AFFF2B0C8C
:10119000218AE0688DF8053000226DBAADF806505E
:1011A00002F0A6FF0422206832230DEB020104F0B6
:1011B000C5FE28B9206864233A46314605F076F921
:1011C0000546218AE068012202F092FF284603B01A
:1011D000F0BD00BF70B5044682B00623C0688DF82C
:1011E0000330002220250E46218A019502F080FF5F
:1011F000322301220DF10301206804F09FFE218AB1
:10120000E068012202F074FF64212046FFF76EFFC0
:101210000546D0B9C6F30F130246218A8DF80700A0
:101220008DF80530E06833018DF8063002F060FF7C
:1012300004220DEB02012068322304F07FFE218A94
:1012400005460122E06802F053FF284602B070BD57
:101250002DE9F04182B00F469846642102230546ED
:1012600016460193FFF742FF044618B1204602B02C
:10127000BDE8F08102460623298AE8688DF803302C
:1012800002F036FF322301220DF10301286804F039
:1012900055FE298AE868012202F02AFF330C224613
:1012A000298AE8688DF8053073BAADF8063002F087
:1012B0001FFF0422286832230DEB020104F03EFEDA
:1012C000044668B9F2B2C2F5807292B2424528680B
:1012D0004FF0640328BF4246394604F02FFE04460F
:1012E000E868298A012202F003FF204602B0BDE827
:1012F000F08100BF30B51C4C1C4B1D48236083B0EF
:101300004FF4805190230022E0602182019302F08B
:10131000EFFE0422206832230DEB020104F00EFEE2
:10132000C0B9022269462068322305F0BFF805469D
:10133000218AE068012245B902F0DAFEBDF80030EA
:1013400028465BBAA38003B030BD02F0D1FE284628
:1013500003B030BD0546218AE068012202F0C8FED4
:10136000284603B030BD00BF64000020AC0100205F
:10137000000400482DE9F04100248CB0CDE906447A
:10138000CDE90844644B0A94DA6C644F644DDFF88D
:10139000988142F00402DA64DA6C02F004020192ED
:1013A000019ADA6C42F08002DA64DA6C02F08002B0
:1013B0000292029ADA6C42F00102DA64DA6C02F00C
:1013C00001020392039ADA6C42F00202DA64DA6CE8
:1013D00002F002020492049ADA6C42F00802DA6423
:1013E000DB6C03F0080305932246384640F677018C
:1013F000059B02F07DFE08214FF09040012202F093
:1014000077FE224610214FF0904002F071FE2846F0
:1014100001224FF4805102F06BFE22464046042127
:1014200002F066FE42F2883206A938460323CDE96F
:1014300006230126089402F0E5FC384606A940F68A
:1014400077030693CDE90764099402F0DBFC40F6CC
:10145000051206A903234FF09040CDE90623089416
:1014600002F0D0FC06A918234FF090400693CDE976
:101470000764099402F0C6FC06A920224FF48813E1
:101480004FF09040CDE90623089402F0BBFC40F6F3
:10149000CF4206A928460323CDE90623089402F08B
:1014A000B1FC06A928464FF480530693CDE90764A2
:1014B000099402F0A7FC06A9404604230693CDE94F
:1014C0000844079602F09EFC3022002306A9284615
:1014D000CDE90623089402F095FC0822032306A90F
:1014E00010480894CDE9062302F08CFC4FF4041355
:1014F00028464FF4407206A9CDE90623089402F06D
:1015000081FC22462146172002F0B8FB172002F08A
:10151000F3FB0CB0BDE8F081001002400008004869
:1015200000040048001C0048000C0048184BDA6C0E
:1015300042F00402DA64DA6C86B002F0040201922E
:10154000019ADA6C42F08002DA64DA6C02F080020E
:101550000292029ADA6C42F00102DA64DA6C02F06A
:1015600001020392039ADA6C42F00202DA64DA6C46
:1015700002F002020492049ADA6C42F00802DA6481
:10158000DB6C03F008030593059B06B0704700BFB2
:10159000001002402DE9F843002007F0CBFA2E4B53
:1015A0002E4DDFF8D0902E4CDFF8CC802D4F2E4EF4
:1015B000024600201A6007F0BDFA2C4B02460020BC
:1015C0001A6007F0B7FA034600202B6007F0B2FA62
:1015D00003460020C9F8003007F0ACFAC8F8000054
:1015E00020461AF0CBF82046FF211AF09FFA4FF65A
:1015F000FF71204639801AF08FFA002221462868B0
:101600001B4C0BF035FC30461AF0B8F8002530467C
:10161000FF211AF08BFA304629463D801AF07CFAF9
:101620002A463146D9F800000BF022FC20461AF079
:10163000A5F82046FF211AF079FA47F6FF31204637
:1016400039801AF069FAD8F800002A462146BDE828
:10165000F8430BF00DBC00BF10010020D0000020AB
:10166000D4000020B4000020FC0000201401002061
:1016700008010020DC0000200401002038B5374DAF
:10168000374C28681CF04EF9012120601CF03CFA10
:10169000206804211CF004FA2068F02107F0D2FE33
:1016A0002068142107F0E8FE20682E491CF0CEF9CE
:1016B00000231A4620682C4C012107F047FF2868B8
:1016C0001CF030F9012120601CF01EFA2068042172
:1016D0001CF0E6F92068F02107F0B4FE2068142120
:1016E00007F0CAFE214B20681A6821491CF0AEF9A8
:1016F0001423002220681F4C012107F027FF2868CF
:101700001CF010F9012120601CF0FEF92068042172
:101710001CF0C6F92068F02107F094FE206814211F
:1017200007F0AAFE144B20681A6814491CF08EF9C1
:1017300000231A462068124C042107F007FF28688E
:101740001CF0DAFA0F49206002221CF0E1FA20684E
:101750000022BDE8384005210CF0A2B8D0000020DE
:10176000BC00002020DE0108C0000020B8000020DE
:1017700038DE0108C4000020B00000204CDE010863
:10178000C80000201000002070B53F4D3F4C286875
:101790001CF0C8F8012120601CF0B6F92068042173
:1017A0001CF07EF93A4920681CF050F900231A46D3
:1017B0000221206807F0CAFE28681CF0B3F8012156
:1017C00060601CF0A1F9606804211CF069F9314BDC
:1017D0001B68002B52D1304960681CF037F93C235C
:1017E00000226068022107F0B1FE28681CF09AF818
:1017F0000121A0601CF088F9A06804211CF050F9B8
:10180000A06826491CF022F950230022A06802217A
:1018100007F09CFE28681CF085F80121E0601CF0B0
:1018200073F9E06800211CF03BF9E068F02107F053
:1018300009FEE068142107F01FFE00231A46E06845
:10184000092107F083FE28681CF06CF80121206153
:101850001CF05AF9206900211CF022F92069F021BE
:1018600007F0F0FD2069642107F006FE2069C82317
:10187000BDE870400022012107F068BE0849606899
:101880001CF0E4F8ABE700BFDC000020E000002023
:1018900060DE01080400002074DE01089CDE0108FF
:1018A00088DE0108704700BF202800D07047054B34
:1018B0001A78022A04D01A78032AF7D19B6A1847AB
:1018C0005B6A1847E0030020F8B51B4C1B4D206AEB
:1018D00001F02AF92B68012B1CD0022B05D0206ABD
:1018E00001F0F8F800232370F8BD154F206A01F0CD
:1018F000F1F800261349B86826701CF0A7F81249C1
:10190000F8681CF0A3F811483246072102F0F0FBFA
:101910002E60F8BD0E4D0F492B68206A013320223E
:101920002B6001F0E9FC064B2A6818690A49BDE8FA
:10193000F8401CF08BB800BFE0030020A40000209A
:10194000E00000209CDE0108C8DE01080008004815
:10195000A000002000010010ACDE010870B52E4C84
:1019600086B0206A01F0E0F82C49206A0DF10E02E1
:1019700001F0DCFB2A4B1B68012B45D1BDF80E3072
:10198000202B3AD1274D284B2968013103F580726D
:10199000296003F1200E4FF0000C13F8011F12F81C
:1019A000010F884218BF0CF1010C7345F5D107EE09
:1019B00090CADFED1E6A9FED1E7A1E4E206AF8EE79
:1019C000E77A04A967EEA67A67EE877AFDEEE77AF2
:1019D000C6ED007A01F0D2F805A9206A01F00EF9EF
:1019E000DDE90431346814482A680069CDE900143F
:1019F00012491CF02BF806B070BD0F4B1049D86887
:101A00001CF024F806B070BD206A01F063F80023D2
:101A1000237006B070BD00BFE0030020000000107E
:101A2000A400002098000020FFFFFF0F0000C84224
:101A30000000003D9C000020E0000020CCDE0108FA
:101A400028DF01083B4B98424DD03B4B984210B5E4
:101A500003D03A4B984216D010BD394C236903F499
:101A60004073B3F5407F1DD1364A1378002BF3D075
:101A7000052B04D0042B0CBF002303231370324B1F
:101A800000221A6010BD314A3149136809680133D8
:101A9000136059BB2F4A12689342DDD9BDE810404C
:101AA000FEF72EBE4FF40071204602F01BFB00280B
:101AB0002AD1244B1A7822B3022A03D122490A6878
:101AC00001320A6000225A60FEF712FE1F49224AC4
:101AD00009681268214B1F481B680A440260204AAB
:101AE0000B44136010BD052017F02EBB1A4A1B498A
:101AF0001268096817481A4C1A4419442160026098
:101B0000CAE701221A70DDE74FF48071204602F027
:101B1000E9FA0028A0D10B4B1A781AB901221A70E1
:101B20000122D0E7022AFBD107490A6801320A6084
:101B3000F6E700BF0C03002074020020C002002062
:101B40000004004878000020CC000020B0000020F5
:101B5000A4000020AC0000200C00002008000020A1
:101B6000A80000200000000010B598B04422002119
:101B700006A81CF0F3F800234FF40070CDE9013300
:101B8000CDE90333059302F0DDFA08B172B6FEE742
:101B900002F0C0FA1A4AD2F8903023F01803C2F8C3
:101BA00090309FED157B012303240222CDE91143E0
:101BB000089314231092169213930722022306A867
:101BC000CDE914238DED067B02F0D8FB034608B166
:101BD00072B6FEE704210F220DEB0100CDE90124CE
:101BE000CDE90333059302F0D9FE08B172B6FEE7E2
:101BF00018B010BDAFF30080050000000000010028
:101C0000001002402DE9F047674E684D684F694C5F
:101C1000DFF8D091DFF8D081DFF8D0A1304604F0B2
:101C20009DFE284604F09AFE384604F097FE0122F5
:101C30000721204602F05CFA5F4B186A04F068F94D
:101C4000002210214FF0904002F052FA00220821A9
:101C50004FF0904002F04CFA00222021204602F082
:101C600047FA484604F054F9404604F051F9534805
:101C70000022042102F03CFA204600224FF40061C9
:101C800002F036FA00224021204602F031FA4C4898
:101C900005F01CF820460022102102F029FA042247
:101CA0000F21504603F0EAFE384604F0F5FD3046B9
:101CB00004F0F2FD284604F0EFFD424BDA6C22F00E
:101CC0000102DA64DA6C22F00202DA64DA6C22F0E1
:101CD0000402DA64DA6C22F00802DA64DA6C22F0C8
:101CE0008002DA6401214FF4804002F01BFA504672
:101CF00003F024FFFFF738FFFFF718FC00F038FD72
:101D000000F070FD00F098FD01222021204602F035
:101D1000EFF92D4804F080F8012210214FF0904097
:101D200002F0E6F9012208214FF0904002F0E0F9BC
:101D3000484604F071F801224021204602F0D8F90B
:101D4000404604F069F8642001F074FFFEF7ECFDF2
:101D500017F0AEF905F0A6FC05F0B8FC10212046FE
:101D6000012202F0C5F900F025FE184B0422384686
:101D70001A7004F0C5FD304604F0C2FD284604F098
:101D8000BFFD1349134A144B096812681B681348B6
:101D9000134D0A440B4402602B6020460022BDE82C
:101DA000F047072102F0A4B90C03002074020020C0
:101DB000C002002000080048E0030020000C00489A
:101DC0005803002000100240480100207800002045
:101DD000B00000200C00002008000020AC00002013
:101DE000A8000020AC0100201002002024010020E7
:101DF0002DE9F04F83B001F0FBFEFFF7B5FEFFF7D2
:101E0000B9FA00F0D7FD00F0FDFA00F023FB00F076
:101E100047FB00F0ADFC00F0E5FC00F00DFD00F02C
:101E20007DFAB5480122402102F062F9B248012250
:101E3000202102F05DF9B0480122102102F058F98A
:101E40000022AD48072102F053F9642001F0F2FEB0
:101E5000AA4A002302F8013F0133202BFAD1FFF7F1
:101E600049FA0022A649A748A74EA84DDFF81883D3
:101E7000DFF818B3A64FDFF818A30423FFF77CF9A7
:101E8000A44804F03DFDA44804F03AFD06F026FE07
:101E900005F0E4FBFFF77EFBFFF7F0FBFFF774FCB8
:101EA0009E4B1C46186805F011FC20681BF03AFD9B
:101EB000012104461BF028FE204600211BF0F0FD06
:101EC0002046F02107F0BEFA204695491BF0BEFDE2
:101ED000002309211A46204607F038FB19F03CFE82
:101EE000642001F0A7FE01F091FD8E4B1B78052BBD
:101EF0000CBF8D498D4920461BF0A8FD19F02CFE22
:101F0000642001F097FE8A4C8A4B22681B688A493C
:101F10008A4813440B608A4B1B681344336004F0F7
:101F2000EFFC042001F086FE2B78012B16D0032B4A
:101F300051D0022B39D02268824938681BF086FDC7
:101F4000326823689A4201D2FFF75CFE19F004FE62
:101F5000042001F06FFE2B78012BE8D102232B70B7
:101F600017F0A6F805F09EFB6C4B1B68834200F04F
:101F70001E81754B1B688342DDD0DBF80030834245
:101F8000D9D15F4B71491A6801321A60704B1868D9
:101F90001BF05CFD00215B48FFF71CF958495948CC
:101FA00004230022FFF754F9C5E717F081F805F084
:101FB00079FBDBF80030834267D0D8F800208242FA
:101FC000B9D1644A12683C2AB5DD184604232B7047
:101FD00005F07CFBAFE74FF0000985F8009017F0A3
:101FE00067F805F05FFBD8F800308342A3D15A4B65
:101FF0001B68002B40F0CE806B68002B00F00B813B
:10200000012B00F00881544B3B48012207211A6044
:1020100002F06EF8012211463748002202F068F8FB
:102020004E4B4F4998681BF011FD19F095FD01F0DA
:10203000EDFC3C4B1B78052B00F01881474B4949C0
:1020400098681BF003FD484A1368002B40F01C8180
:10205000464A47491360414B58681BF0F7FC3F4B19
:102060004449D8681BF0F2FC3C4B404A186912689E
:1020700041491BF0EBFC2B4B4049186A202201F030
:102080003BF9284A0223137055E7324B1B683C2B5F
:102090007FF751AF0423D8F800002B7005F016FB32
:1020A000374B50461B68019319F068FB05215046D9
:1020B00019F040FDFF21504619F038FD314B46F232
:1020C00039311980504619F027FD244B4FF0000993
:1020D0000198484553F8040B00934FF00002514615
:1020E00009F1010900F0EC800AF0E2FFB9F1030FF9
:1020F000009BEDD11FE700BF00080048FF00001063
:10210000B800002064000020A80000207800002013
:10211000C40000200C0300207402002010010020E5
:1021200048DF0108E003002068DF0108D4DF010870
:10213000B00000200C000020AC000020C0020020F5
:10214000080000204CDE01081401002038DE0108E0
:10215000C0000020CC000020A4000020E0000020EF
:1021600020E00108A4E0010804000020A0000020F5
:1021700074DE0108B4E00108ACDE010800010010C3
:1021800018010020B4000020DC000020D000002056
:102190001C010020504B1B68002B3FD14F4B504976
:1021A00098681BF053FC4F4A02231360C3E60423D4
:1021B000D8F800002B7005F089FA4B4B50461B688D
:1021C000019319F0DBFA0521504619F0B3FCFF2109
:1021D000504619F0ABFC454B46F239311980504658
:1021E00019F09AFC3D4B4FF000090198484553F80F
:1021F000040B00934FF00002514609F1010927D06A
:102200000AF056FFB9F1030F009BEED1384B186866
:102210000BF020FC8FE6304A1360F4E6354B186A69
:1022200000F058FC334B344983F800902B4B9868EE
:102230001BF00CFC294B3149D8681BF007FC3048D7
:102240004A46072101F054FF264BC3F8009072E67E
:1022500000220AF00DFE019B022B03F10109009BF5
:10226000C3D1234B18680BF0F5FB64E61B4B2249E6
:1022700098681BF0EBFB194B2249D8681BF0E6FB72
:10228000184A0023136056E6144B1F4A58681F492A
:10229000002313601BF0DAFB104B1D49D8681BF0BC
:1022A000D5FB0E4B184A186912681A491BF0CEFB71
:1022B000104B186A00F0DAFC0E4A032313703AE65A
:1022C00000220AF0D5FD019B022B03F10109009BBE
:1022D0007FF4FEAE2FE600BF04000020E0000020E7
:1022E00020E00108A400002018010020B400002014
:1022F00010010020E00300209CDE0108C8DE010878
:102300000008004838E001089800002088DE010835
:10231000D8E00108F8E0010872B6FEE700B51E48F3
:102320001E4987B07F2200238260FF22CDE901335E
:10233000CDE90333C0E90013C0E90323C0E9053345
:1023400005930093C36102F03FFEC8B9002343F632
:10235000090C1148ADF804C0012201A9CDE90433EC
:102360008DF8063002F09AFE90B90D4B0A480093A2
:102370000122694603F020F928B907B05DF804FB93
:10238000FFF7CAFFE2E7FFF7C7FF07B05DF804FBFE
:10239000FFF7C2FFE9E700BF24010020002800404A
:1023A0000703172410B5044698B05C22002101A849
:1023B0001BF0D4FC114B22689A4201D018B010BD1A
:1023C0004FF400324FF4807301A80192179302F08A
:1023D0004FFC80B90A49D1F89030002243F4004301
:1023E000C1F890300320114601F048FC032001F0B1
:1023F00083FC18B010BDFFF78FFFEBE7002800400B
:102400000010024010B51148114C4FF482720023A5
:10241000C0E900424FF4E0614FF40072C0E90231BC
:102420002824826107210822C0E90433C0E9074358
:10243000C0E90933C0E90B13426303F0EDFC00B9B6
:1024400010BDBDE81040FFF767BF00BF4801002086
:1024500000300140104811494FF4827210B5C0E9B4
:1024600000124FF4007200234FF4E06407218261F0
:102470000822C0E90234C0E90433C0E90733C0E9E7
:102480000933C0E90B13426303F0C6FC00B910BD69
:10249000BDE81040FFF740BFAC010020003800400D
:1024A00010B51148114C4FF48272C0E900424FF44C
:1024B00000414FF4E0620023C0E902124FF480248F
:1024C00007210822C0E90433C0E90643C0E9083304
:1024D000C0E90A31C0E90C3203F09EFC00B910BD1E
:1024E000BDE81040FFF718BF10020020003C00407C
:1024F00070B50368464A8EB000249342CDE9084483
:10250000CDE90A440C9407D0424A934226D0424A6D
:10251000934245D00EB070BD404B1A6E42F48052CB
:102520001A661A6E02F480520192019ADA6C42F035
:102530000102DA64DB6C03F001030293032205233A
:10254000C224022508A94FF09040CDE90845CDE905
:102550000B23029C01F056FC0EB070BD2F4B30488F
:102560009A6D42F480429A659A6D02F48042039219
:10257000039ADA6C42F00202DA64DB6C03F00203C5
:102580000493032205234FF46044022508A9CDE9F2
:102590000845CDE90B23049C01F034FC0EB070BD5E
:1025A0001E4B9A6D42F400429A659A6D02F4004205
:1025B0000592059ADA6C42F00102DA64DA6C02F0F4
:1025C00001020692069ADA6C42F00402DA64DB6CCD
:1025D00003F0040307934FF400420326062508A9DD
:1025E00002234FF09040CDE90823CDE90B65079B0E
:1025F00001F008FC4FF4A05308930A480C950223FD
:1026000008A9CDE90A46099301F0FCFB0EB070BDA4
:102610000030014000380040003C00400010024003
:10262000000400480008004808B51C4A03689342AB
:1026300006D01B4A934210D01A4A93421AD008BDC2
:1026400002F56042C221136E23F4805313664FF0EB
:102650009040BDE8084001F0BDBC02F5EC321248E4
:10266000936D23F4804393654FF46041BDE80840C7
:1026700001F0B0BC02F5EA324FF40041936D23F44F
:1026800000434FF09040936501F0A4FCBDE8084082
:1026900006484FF4A05101F09DBC00BF003001403E
:1026A00000380040003C004000040048000800489A
:1026B0000A4B1A6E42F001021A661A6E82B002F0DC
:1026C00001020092009A9A6D42F080529A659B6DC9
:1026D00003F080530193019B02B070470010024049
:1026E000FEE700BFFEE700BFFEE700BFFEE700BF5A
:1026F000FEE700BF704700BF704700BF704700BFD4
:1027000001F086BA014803F057BA00BF2401002047
:1027100008B5202001F0F2FC4FF4807001F0EEFCCF
:10272000BDE808404FF4007001F0E8BC014804F037
:10273000E5B900BF74020020014804F0DFB900BF12
:10274000C0020020014804F0EFBA00BF5803002087
:10275000014804F0D3B900BF0C030020034AD2F8AB
:10276000883043F47003C2F88830704700ED00E011
:1027700000B51A484FF0804202604F2289B0426093
:10278000174A0023CDE90433CDE90633CDE90133FF
:10279000C0E9023203930361836104F005F890B944
:1027A0004FF480530D48049304A904F0EFF890B956
:1027B00000230A48019301A9039304F049FA28B9B8
:1027C00009B05DF804FBFFF7A7FDE9E7FFF7A4FDFB
:1027D00009B05DF804FBFFF79FFDE9E7C0020020A8
:1027E0003F420F0000B51248124985B04F22002326
:1027F000C0E9001241F28732CDE90133C0E902326B
:102800000393836103F0D0FF50B90023084801937C
:1028100001A9039304F01CFA28B905B05DF804FB84
:10282000FFF77AFDF1E7FFF777FD05B05DF804FBF0
:102830000C0300200014004000B51B481B4A026036
:1028400089B04F22002342604CF24F32CDE904336D
:10285000CDE90633CDE90133C0E90232C0E90433E2
:102860000393836103F0A0FF90B94FF480530E48A7
:10287000049304A904F08AF890B900230A4801934C
:1028800001A9039304F0E4F928B909B05DF804FB49
:10289000FFF742FDE9E7FFF73FFD09B05DF804FBF4
:1028A000FFF73AFDE9E700BF740200200040014055
:1028B00000B50368B3F1804F85B008D0244A934235
:1028C0001BD0244A93422DD005B05DF804FB03F5DC
:1028D00004330022996D41F0010199659B6D03F06D
:1028E000010301931C201146019B01F0C7F91C2034
:1028F00005B05DF804EB01F0FFB9174B996D41F09D
:10290000200199659B6D03F020030293372000227C
:102910000121029B01F0B2F9372005B05DF804EB0C
:1029200001F0EAB90C4B196E41F4803119661B6E47
:1029300003F480330393182000220121039B01F04C
:102940009DF9182005B05DF804EB01F0D5B900BF82
:102950000014004000400140001002400368B3F141
:10296000804F06D0104A93420BD0104A934211D0A8
:1029700070470F4A936D23F001031C20936501F00B
:10298000C9B902F5FE323720936D23F02003936519
:1029900001F0C0B902F550421820136E23F48033C1
:1029A000136601F0B7B900BF0014004000400140B9
:1029B0000010024010B50D480D4C00234FF4165284
:1029C0000C21C0E90042C0E904311A461946C0E9A9
:1029D0000233C0E90633C0E9083304F0E5FD00B96D
:1029E00010BDBDE81040FFF797BC00BF58030020A2
:1029F000003801400000000010B504469EB00021E0
:102A00005C2207A8CDE90211CDE9041106911BF063
:102A1000A5F9214B22689A4201D01EB010BD0123B6
:102A200007A8079302F024F958BB1C4B1A6E42F416
:102A300080421A661A6E02F480420092009ADA6CA2
:102A40009FED117B42F00102DA64DB6C8DED027BBD
:102A50009FED0F7B03F00103019302A907234FF0C1
:102A600090408DED047B0693019A01F0CBF9002292
:102A70001146252001F002F9252001F03DF91EB094
:102A800010BDFFF749FCD0E700160000020000006F
:102A90000000000003000000003801400010024068
:102AA00008B50268094B9A4200D008BD084A136E67
:102AB00023F480434FF0904013664FF4B05101F07F
:102AC00089FABDE80840252001F024B9003801400A
:102AD0000010024010B582B0044648F6810300227F
:102AE00010214FF09040ADF8003001F001FB32238F
:102AF00002226946204603F021FA012204461021F1
:102B00004FF0904001F0F4FA00230193019BB3F5DC
:102B10007A7F06D2019B01330193019BB3F57A7F43
:102B2000F8D3204602B010BD10B582B004464FF66F
:102B30009273002210214FF09040ADF8003001F068
:102B4000D7FA322302226946204603F0F7F9012220
:102B5000044610214FF0904001F0CAFA002301937F
:102B6000019BB3F57A7F06D2019B01330193019B50
:102B7000B3F57A7FF8D3204602B010BD70B582B0AD
:102B80000646192300224FF090400D4610218DF883
:102B9000033001F0ADFA322301220DF1030130467A
:102BA00003F0CCF93223044601220DF10201304634
:102BB00003F07CFC0122044310214FF0904001F00F
:102BC00097FA00230193019BB3F57A7FE4B206D212
:102BD000019B01330193019BB3F57A7FF8D39DF9F3
:102BE00002209DF80230002ABDBF5B42C3F385037B
:102BF0005B429B0820462B6002B070BD70B582B06E
:102C000006461A2300224FF090400D4610218DF801
:102C1000033001F06DFA322301220DF10301304639
:102C200003F08CF93223044601220DF102013046F3
:102C300003F03CFC0122044310214FF0904001F0CE
:102C400057FA00230193019BB3F57A7FE4B206D2D1
:102C5000019B01330193019BB3F57A7FF8D39DF873
:102C600002302046893B2B6002B070BD70B58AB03F
:102C700048F2CD430446002210214FF09040ADF8B9
:102C8000203001F035FA3223022208A9204603F051
:102C900055F90122054610214FF0904001F028FA25
:102CA00000230993099BB3F57A7F06D2099B013370
:102CB0000993099BB3F57A7FF8D3A423002210214E
:102CC0004FF09040ADF81C3001F012FA322302228E
:102CD00007A9204603F032F90122102106464FF0E1
:102CE000904001F005FA00230893089BB3F57A7F22
:102CF00006D2089B01330893089BB3F57A7FF8D37B
:102D00004BF69173002210214FF09040ADF818302F
:102D100001F0EEF93223022206A9204603F00EF953
:102D20002E430122102105464FF0904001F0E0F9BA
:102D300000230793079BB3F57A7FF6B206D2079B71
:102D400001330793079BB3F57A7FF8D34FF692735D
:102D5000002210214FF09040ADF8143001F0C8F976
:102D60003223022205A9204603F0E8F83543012268
:102D7000102106464FF0904001F0BAF90023069367
:102D8000069BB3F57A7FEDB206D2069B013306931C
:102D9000069BB3F57A7FF8D38E23002210214FF0E3
:102DA0009040ADF8103001F0A3F93223022204A9BB
:102DB000204603F0C3F82E430122102105464FF0B0
:102DC000904001F095F900230593059BB3F57A7FB8
:102DD000F6B206D2059B01330593059BB3F57A7FC6
:102DE000F8D38F23002210214FF09040ADF80C3023
:102DF00001F07EF93223022203A9204603F09EF857
:102E000035430122102106464FF0904001F070F941
:102E100000230493049BB3F57A7FEDB206D2049BA2
:102E200001330493049BB3F57A7FF8D38D230022FA
:102E300010214FF09040ADF8083001F059F93223DD
:102E4000022202A9204603F079F82E430122102124
:102E500005464FF0904001F04BF900230393039B8C
:102E6000B3F57A7FF6B206D2039B01330393039B3B
:102E7000B3F57A7FF8D348F68153002210214FF042
:102E80009040ADF8043001F033F93223022201A959
:102E9000204603F053F80122044610214FF09040E1
:102EA00001F026F900230293029B3543B3F57A7FA4
:102EB000EDB206D2029B01330293029BB3F57A7FF7
:102EC000F8D344EA0500C0B20AB070BD70B58AB04C
:102ED00048F2CD730446002210214FF09040ADF827
:102EE000203001F005F93223022208A9204603F020
:102EF00025F80122054610214FF0904001F0F8F826
:102F000000230993099BB3F57A7F06D2099B01330D
:102F10000993099BB3F57A7FF8D3A42300221021EB
:102F20004FF09040ADF81C3001F0E2F8322302225D
:102F300007A9204603F002F80122102106464FF0AF
:102F4000904001F0D5F800230893089BB3F57A7FF1
:102F500006D2089B01330893089BB3F57A7FF8D318
:102F60004FF29173002210214FF09040ADF81830CD
:102F700001F0BEF83223022206A9204602F0DEFF4D
:102F80002E430122102105464FF0904001F0B0F889
:102F900000230793079BB3F57A7FF6B206D2079B0F
:102FA00001330793079BB3F57A7FF8D344F2C0034C
:102FB000002210214FF09040ADF8143001F098F845
:102FC0003223022205A9204602F0B8FF3543012230
:102FD000102106464FF0904001F08AF80023069336
:102FE000069BB3F57A7FEDB206D2069B01330693BA
:102FF000069BB3F57A7FF8D34FF692730022102127
:103000004FF09040ADF8103001F072F832230222F8
:1030100004A9204602F092FF2E430122102105460A
:103020004FF0904001F064F800230593059BB3F541
:103030007A7FF6B206D2059B01330593059BB3F563
:103040007A7FF8D38E23002210214FF09040ADF804
:103050000C3001F04DF83223022203A9204602F081
:103060006DFF35430122102106464FF0904001F0DC
:103070003FF800230493049BB3F57A7FEDB206D2A8
:10308000049B01330493049BB3F57A7FF8D38F2319
:10309000002210214FF09040ADF8083001F028F8E0
:1030A0003223022202A9204602F048FF2E430122C9
:1030B000102105464FF0904001F01AF800230393C9
:1030C000039BB3F57A7FF6B206D2039B01330393D9
:1030D000039BB3F57A7FF8D38D23002210214FF0A4
:1030E0009040ADF8043001F003F83223022201A928
:1030F000204602F023FF0122044610214FF09040A9
:1031000000F0F6FF00230293029B3543B3F57A7F6C
:10311000EDB206D2029B01330293029BB3F57A7F94
:10312000F8D344EA0500C0B20AB070BD2DE9F047FB
:10313000102688B0044617464FF09040002288467B
:1031400031468DF81C6000F0D3FF3223012207A91D
:10315000204602F0F3FE322301220DF1060105465E
:10316000204603F0A3F93146824601224FF09040F9
:1031700000F0BEFF00230693069BB3F57A7F06D2CC
:10318000069B01330693069BB3F57A7FF8D39DF82F
:1031900006308DF81D3000228D2310214FF0904015
:1031A0008DF81C3000F0A4FF3223022207A920462C
:1031B00002F0C4FE0122064610214FF0904000F0BC
:1031C00097FF00230593059BB3F57A7F06D2059BF5
:1031D00001330593059BB3F57A7FF8D313230022BF
:1031E00010214FF090408DF81C3000F081FF07A9AE
:1031F00032230122204602F0A1FE322301220DF1EA
:1032000007018146204603F051F945EA0A050122EB
:10321000824610214FF0904000F06AFF0023049393
:10322000049BB3F57A7FEDB206D2049B013304937D
:10323000049BB3F57A7FF8D32E4349EA06099DF83B
:1032400007603E80002210214FF090408DF80C2046
:1032500000F04EFF3223012203A9204602F06EFE49
:103260004AEA090A5FFA8AFA0546074650B34FF65A
:103270009273002210214FF09040ADF8083000F01A
:1032800037FF3223022202A9204602F057FE012214
:10329000044610214FF0904000F02AFF00230393D2
:1032A000039BB3F57A7F4AEA050506D2039B0133F7
:1032B0000393039BB3F57A7FF8D345EA040008B083
:1032C000BDE8F087322332464146204603F0EEF84F
:1032D0000122054610214FF0904000F009FF0797AA
:1032E000079BB3F57A7FC2D2079B01330793079BF5
:1032F000B3F57A7FF8D3BAE72DE9F04186B00446FA
:103300000E461546FFF7E2FD48F681130022102114
:1033100007464FF09040ADF8103000F0E9FE322340
:10332000022204A9204602F009FE01228046102153
:103330004FF0904000F0DCFE00230593059BB3F5B1
:103340007A7F06D2059B01330593059BB3F57A7FFF
:10335000F8D3A223002210214FF090408DF80C30BA
:103360008DF80D5000F0C4FE3223022203A920463E
:1033700002F0E4FD47EA08070122804610214FF0E1
:10338000904000F0B5FE00230493049BB3F57A7FD0
:1033900006D2049B01330493049BB3F57A7FF8D3E0
:1033A0008023002210214FF090408DF8083000F06B
:1033B0009FFE3223012202A9204602F0BFFD2A46C9
:1033C000322331460546204602F0B8FD012205436E
:1033D00010214FF0904000F08BFE00230393039BDD
:1033E000B3F57A7F47EA0807EDB206D2039B0133B3
:1033F0000393039BB3F57A7FF8D348F68133002219
:1034000010214FF09040ADF8043000F071FE3223EF
:10341000022201A9204602F091FD0122044610215A
:103420004FF0904000F064FE00230293029BB3F53E
:103430007A7F45EA070506D2029B01330293029B7D
:10344000B3F57A7FF8D345EA040006B0BDE8F08111
:103450002DE9F04395B048F68103044600224FF071
:1034600090400D461021ADF84C3000F041FE322363
:10347000022213A9204602F061FD012210214FF023
:10348000904000F035FE00230393039BB3F57A7F51
:1034900006D2039B01330393039BB3F57A7FF8D3E2
:1034A00000230193019BC44A934205D8019B013339
:1034B0000193019B9342F9D981222B788DF84C20FE
:1034C000102100224FF090408DF84D3000F010FE9A
:1034D0003223022213A9204602F030FD01220646C3
:1034E00010214FF0904000F003FE00230993099B48
:1034F000B3F57A7F06D2099B01330993099BB3F593
:103500007A7FF8D3D5ED017ADFEDAC6AB8EE677A51
:103510000022C7EE267A10214FF09040FCEEE77AA9
:1035200017EE908A4FEA18438DF84D3086238DF8B8
:103530004C3000F0DDFD3223022213A9204602F0B8
:10354000FDFC0122814610214FF0904000F0D0FD9B
:1035500000230C930C9BB3F57A7FC8F307275FFA1F
:1035600088F806D20C9B01330C930C9BB3F57A7F41
:10357000F8D38723002210214FF090408DF84D7032
:103580008DF84C3000F0B4FD3223022213A92046FE
:1035900002F0D4FC0122074610214FF0904000F0C9
:1035A000A7FD00230B930B9BB3F57A7F06D20B9BF1
:1035B00001330B930B9BB3F57A7FF8D3882300225A
:1035C00010214FF090408DF84D808DF84C3000F078
:1035D0008FFD3223022213A9204602F0AFFC012204
:1035E000804610214FF0904000F082FD00230A93A6
:1035F0000A9B46EA0906B3F57A7FF6B206D20A9B21
:1036000001330A930A9BB3F57A7FF8D33E436B7C70
:103610008DF84D3048EA0600892300221021C7B2F8
:103620004FF090408DF84C3000F062FD32230222C2
:1036300013A9204602F082FC0122064610214FF019
:10364000904000F055FD00230893089BB3F57A7F66
:1036500006D2089B01330893089BB3F57A7FF8D311
:10366000AB7C8DF84D3000228B2310214FF0904021
:103670008DF84C3000F03CFD3223022213A9204685
:1036800002F05CFC3E43F7B20122064610214FF0E7
:10369000904000F02DFD00230793079BB3F57A7F40
:1036A00006D2079B01330793079BB3F57A7FF8D3C4
:1036B000EB7C8DF84D3000228C2310214FF0904090
:1036C0008DF84C3000F014FD3223022213A920465D
:1036D00002F034FC3E43F7B20122064610214FF0BF
:1036E000904000F005FD00230693069BB3F57A7F1A
:1036F00006D2069B01330693069BB3F57A7FF8D377
:103700002B7D8DF84D3000229D2310214FF09040ED
:103710008DF84C3000F0ECFC3223022213A9204635
:1037200002F00CFC3E43F7B20122064610214FF096
:10373000904000F0DDFC00230593059BB3F57A7FF4
:1037400006D2059B01330593059BB3F57A7FF8D329
:103750006B7D8DF84D3000229E2310214FF090405C
:103760008DF84C3000F0C4FC3223022213A920460D
:1037700002F0E4FB3E43F7B20122064610214FF06F
:10378000904000F0B5FC00230493049BB3F57A7FCE
:1037900006D2049B01330493049BB3F57A7FF8D3DC
:1037A0002B7A3E43F6B2AF2B374609D96B7A702B92
:1037B00040F2FF8004E000BF7F841E002F5D464280
:1037C0009F22EB7D8DF84820102100224FF0904081
:1037D0008DF8493000F08CFC3223022212A92046D9
:1037E00002F0ACFB0122064610214FF0904000F0A1
:1037F0007FFC00231393139BB3F57A7F06D2139BB0
:1038000001331393139BB3F57A7FF8D3EB891B0A2B
:103810008DF845300022A02310214FF090408DF804
:10382000443000F065FC3223022211A9204602F048
:1038300085FB37430122064610214FF0904000F0EF
:1038400057FC00231293129BB3F57A7F06D2129B8A
:1038500001331293129BB3F57A7FF8D3AB7B8DF8CB
:1038600041300022A12310214FF090408DF84030CC
:1038700000F03EFC3223022210A9204602F05EFB3B
:103880003E430122074610214FF0904000F030FCEB
:1038900000231193119BB3F57A7F06D2119B01335C
:1038A0001193119BB3F57A7FF8D32B7E8DF83D30C1
:1038B0000022C02310214FF090408DF83C3000F0E2
:1038C00017FC322302220FA9204602F037FB3E43A9
:1038D0000122074610214FF0904000F009FC002320
:1038E0001093109BB3F57A7F06D2109B013310938F
:1038F000109BB3F57A7FF8D3C1216B7E8DF8381019
:10390000002210214FF090408DF8393000F0F0FB8C
:10391000322302220EA9204602F010FB46EA0705D8
:103920000122102106464FF0904000F0E1FB0023F9
:103930000F930F9BB3F57A7F06D20F9B01330F9342
:103940000F9BB3F57A7FF8D348F68113002210213C
:103950004FF09040ADF8083000F0CAFB322302224D
:1039600002A9204602F0EAFA012210214FF090400D
:1039700000F0BEFB00230E930E9BB3F57A7F45EA61
:10398000060506D20E9B01330E930E9BB3F57A7F8C
:10399000F8D300230293029B1B4A934205D8029B53
:1039A00001330293029B9342F9D9284615B0BDE832
:1039B000F083AB7D8DF84D300022A62310214FF00F
:1039C00090408DF84C3000F093FB322313A9022273
:1039D000204602F0B3FA0122074610214FF0904032
:1039E00000F086FB00230D930D9BB3F57A7F06D282
:1039F0000D9B01330D930D9BB3F57A7FF8D346EA07
:103A00000700C7B2DCE600BF7F841E00F0B547495F
:103A1000474C484A484BA3628DB00025C4E90812C0
:103A20004FF090402A460821CDE90655CDE90855CA
:103A3000CDE90A55059500F05BFB0295029B3F4AD4
:103A4000934205D8029B01330293029B9342F9D91A
:103A5000012208214FF0904000F04AFB002303931D
:103A6000039B364A934205D8039B01330393039B80
:103A70009342F9D9324B334A0A9288218DF81410B7
:103A800006933148099047F2C00102220C23ADF899
:103A90001C108DF81E20ADF822300DF1140CBCE87E
:103AA0000F002A4D276A0FC59CE80700012685E80C
:103AB0000700002210214FF090408DF8076000F0C1
:103AC00017FB322332460DF10701384602F036FA71
:103AD000322332460DF10601384602F0E7FC324649
:103AE00010214FF0904000F003FB00230493049B4F
:103AF000B3F57A7F06D2049B01330493049BB3F59C
:103B00007A7FF8D39DF8063003F07803082B0CBFBA
:103B100000230523237023780BB10DB0F0BD0B49B2
:103B2000206A0DB0BDE8F040FFF792BC48010020CC
:103B3000E0030020C91800085D1900087F841E00FA
:103B40008050DE1972C708FF04FF0B23E403002036
:103B5000DFF834D0FEF702FE0C480D490D4A002371
:103B600002E0D458C4500433C4188C42F9D30A4A32
:103B70000A4C002301E013600432A242FBD31AF086
:103B8000F5F8FEF735F9FEE70000012000000020FF
:103B90004800002048390208480000208C6D0020B1
:103BA000FEE7000038B50F4B1B780BB9012038BD7C
:103BB0000D494FF47A720546B2FBF3F30868B0FB87
:103BC000F3F000F0B9F804460028EFD10F2DEDD83E
:103BD000024629464FF0FF3000F050F8034B2046D4
:103BE0001D6038BD1C0000201800002020000020AF
:103BF00010B5032000F030F80F20FFF7D3FF10B10D
:103C00000124204610BD0446FEF752FD204610BD9B
:103C1000034A044B11681B780B441360704700BFC4
:103C20000C0400201C000020014B1868704700BFE6
:103C30000C04002038B50446FFF7F6FF631C054668
:103C400002D0044B1B781C44FFF7EEFF431BA3423A
:103C5000FAD338BD1C0000200749CA6803024FF69A
:103C6000FF0003F4E0630240134343F0BF6343F4F7
:103C70000033CB60704700BF00ED00E01C4BDB68F9
:103C8000C3F3022300B5C3F1070EBEF1040F03F125
:103C9000040C28BF4FF0040EBCF1060F1BD9033BE8
:103CA0004FF0FF3C0CFA03FC22EA0C024FF0FF3C01
:103CB0000CFA0EFC21EA0C019940002841EA0201AD
:103CC0000CDB00F16040090100F56140C9B280F8E9
:103CD00000135DF804FB00221346E7E7054B00F0F4
:103CE0000F0009010344C9B219765DF804FB00BF57
:103CF00000ED00E0FCEC00E0002807DB044A41098D
:103D0000012300F01F00834042F82130704700BFBC
:103D100000E100E000280CDB4309064900F01F0029
:103D200020330122824041F82320BFF34F8FBFF39D
:103D30006F8F704700E100E00138B0F1807F10D252
:103D400010B44FF0E023084C58614FF0F00C84F8A9
:103D500023C00022072110469A615DF8044B1961C7
:103D600070470120704700BF00ED00E090F825206B
:103D7000022A034606D00422C2630022012083F8EF
:103D8000242070470168426C086820F00E0008602B
:103D9000086820F0010008604FF0010C196C02F077
:103DA0001C020CFA02F24A600022002083F825C0AF
:103DB00083F82420704700BF90F82520022A03D002
:103DC0000422C263012070470168426C10B50C6880
:103DD00024F00E040C600C6824F001040C6002F066
:103DE0001C02046C012101FA02F26260826B80F80D
:103DF0002510002480F8244012B19047204610BDC1
:103E0000104610BD2DE9F04F0C6885B0002C77D01E
:103E10004FF0000C694E63464FF0010B8E460BFAD3
:103E200003F717EA040A65D0DEF8041001F0030274
:103E3000551E012D67D9032A40F0AB8002FA0CF21F
:103E4000D54307683D402A4311F4403F026051D0FA
:103E50005B4D2A6E42F001022A662A6E02F00102D0
:103E60000392039A23F0030202F1804202F58032AA
:103E700003F003054FEA850997680F2505FA09F84D
:103E8000B0F1904F27EA080715D04E4DA84200F038
:103E90008B804D4DA84200F08B804C4DA8427DD0C8
:103EA0004B4DA84213BF07254FF0040808FA09F547
:103EB00005FA09F52F439760B2686FEA0A05CF0249
:103EC00054BF2A404AEA0202B260F2688F0254BF2D
:103ED0002A404AEA0202F26072688F0354BF2A4005
:103EE0004AEA020272603268C90354BF2A404AEAB1
:103EF00002023260013334FA03F20CF1020C8ED16B
:103F000005B0BDE8F08FD0F80890DEF80C504FF007
:103F1000030808FA0CF829EA080905FA0CF545EA3D
:103F2000090585606FEA0805D0F8048028EA0708CB
:103F3000C1F300179F4047EA08074760C76807EAD0
:103F40000508DEF8087007FA0CF747EA0807022AA6
:103F5000C76002FA0CF27FF474AF4FEAD30900EBAA
:103F6000890903F00708D9F820700097DEF810706F
:103F70004FEA880807FA08F701970F2707FA08F8A9
:103F8000009F27EA0808019F47EA0807C9F8207040
:103F900057E7032505FA0CF5ED43CFE74FF003088B
:103FA00008FA09F52F4386E70BFA09F52F4382E754
:103FB0004FF0020808FA09F52F437CE7000401409E
:103FC000001002400004004800080048000C0048AF
:103FD0000010004800297AD02DE9F04F00233C4E14
:103FE000DFF8FCB04FF00F094FF0030A49E05845E5
:103FF00062D0384FB84263D0374FB84264D0374FA1
:10400000B84214BF0727042707FA04F4A44513D1C4
:10401000346824EA0E043460746824EA0E04746080
:10402000F46824EA0E04F460B46824EA0E04B46070
:10403000AC6824EA0804AC6005685C000AFA04F481
:104040004FEAD30C254300EB8C0C056003F0070509
:10405000DCF820E0AD0009FA05F52EEA0505CCF8FC
:104060002050856825EA04058560456825EA020236
:104070004260C26822EA0402C260013331FA03F2EC
:1040800018D001229A4012EA010EF6D023F003055F
:1040900005F1804505F5803503F00304D5F808C027
:1040A000A40009FA04F8B0F1904F08EA0C0C9ED174
:1040B0000024ABE7BDE8F08F012707FA04F4A5E779
:1040C000022707FA04F4A1E70AFA04F49EE770470E
:1040D0000004014000080048000C0048001000489F
:1040E000000400480369194214BF012000207047F2
:1040F0000AB1816170478162704700BF044A51690B
:10410000014200D1704708B55061FDF7CDFB08BDF5
:1041100000040140024A136843F48073136070473F
:1041200000700040B0F5804F084601D000F04CB858
:1041300000F066B8024B186800F4C060704700BF1A
:1041400000700040B0F5007F0ED01C4A136803F4E5
:10415000C063B3F5806F2DD0136823F4C06343F4BC
:10416000806300201360704714490B6803F4C06338
:10417000B3F5007F1ED00B68114A23F4C06343F4EB
:1041800000730B6013680F4A322000FB03F3486989
:10419000A2FB03239B0C400503F1010306D500E0BD
:1041A00023B14A69520503F1FF33F9D4034B5B692C
:1041B0005B0501D400207047032070470070004069
:1041C0001800002083DE1B430B490C4A0B6823F0C8
:1041D00007030B601369012843F00403136108D03F
:1041E00040BF20BF20BF054A136923F004031361B9
:1041F000704730BFF7E700BF0070004000ED00E0FF
:104200000C490D4A0B6823F0070343F001030B60D0
:104210001369012843F00403136108D040BF20BF95
:1042200020BF054A136923F004031361704730BFB0
:10423000F7E700BF0070004000ED00E030B5204D12
:10424000AB6DDB0083B004461CD5FFF773FFB0F500
:10425000007F29D0802C13D82FD0A4F17004B4FA99
:1042600084F4640917490B6823F0070323430B60A8
:10427000086800F00700001B18BF012003B030BD24
:104280000324EFE7AB6D43F08053AB65AB6D03F0F8
:1042900080530193019BFFF74DFFAB6DB0F5007F9D
:1042A00023F08053AB65D5D1802C04D9A02C8CBFD2
:1042B00002240124D6E70024D4E70224D2E700BF79
:1042C0000010024000200240284A9368D26813F090
:1042D0000C0308D00C2B38D0042B34D0082B2448E6
:1042E00018BF00207047214A1168090754BFD2F84F
:1042F000942012681F4954BFC2F30322C2F3031271
:1043000051F8220003B30C2B2DD1184BDB6803F0BE
:104310000303022B25D0164A032B08BF1046134B6C
:10432000D968DA68DB68C3F34163C2F30622C1F3DC
:104330000211013300FB02F201315B00B2FBF1F22A
:10434000B2FBF3F070470C48704702F00302012AF9
:10435000C9D0064BDB6803F00303022B4FF00000CB
:10436000D9D10548DBE70020704700BF00100240AC
:1043700000127A002CE101080024F400002800F06B
:1043800082822DE9F043944A03689568D668044612
:10439000D80683B005F00C0506F003062ED5002DD7
:1043A00000F023810C2D00F01D81A3698A4F002BA2
:1043B00000F093813B6843F001033B60FFF734FC5E
:1043C000804606E0FFF730FCA0EB0800022800F270
:1043D00094813B689B07F5D53B6843F008033B603D
:1043E0003B68226A23F0F00313433B607B68E26979
:1043F00023F47F4343EA02237B602368D90700F15B
:10440000C280990723D5042D00F057810C2D00F0B0
:104410005181E368704E002B00F0D981336843F47A
:1044200080733360FFF700FC074605E0FFF7FCFBF5
:10443000C01B022800F2618133685B05F6D5736802
:10444000226923F0F85343EA026373602368190773
:1044500019D56369604E002B00F01881D6F89430AE
:1044600043F00103C6F89430FFF7DEFB074605E092
:10447000FFF7DAFBC01B022800F23F81D6F8943028
:104480009A07F5D523685E073FD5534B9A6DD00048
:1044900000F19B819A6D42F080529A659B6D03F00A
:1044A00080530193019B01264C4F3B68D90540F195
:1044B000F781A368012B00F09C81052B00F01B8283
:1044C000454FD7F8902022F00102C7F89020D7F886
:1044D000902022F00402C7F89020002B40F0908139
:1044E000FFF7A2FB41F28839804606E0FFF79CFB0C
:1044F000A0EB0800484500F20081D7F890309807FB
:10450000F4D4002E40F0DE812368990618D5636A42
:10451000314E002B00F0A281D6F8983043F0010311
:10452000C6F89830FFF780FB074605E0FFF77CFBF5
:10453000C01B022800F2E180D6F898309A07F5D522
:10454000A36A002B00F03F81022B00F0EF800C2DBE
:1045500000F08C80204C236823F080732360FFF7E9
:1045600063FB054605E0FFF75FFB401B022800F2F6
:10457000C480236813F00073F5D1E168184A0A403B
:104580001846E26073E0082D76D00C2D72D0636877
:10459000B3F5803F00F0B580B3F5A02F00F09E8109
:1045A0000D4F3A6822F480323A603A6822F4802251
:1045B0003A60002B40F0AA80FFF736FB804606E009
:1045C000FFF732FBA0EB0800642800F296803B68FE
:1045D0009803F5D4236814E70010024000700040EF
:1045E000FCFFEEFE012E7FF4E0AEA84B1B6899079E
:1045F00039D4A64B206A1A68120756BFD3F89430F4
:104600001B681B0903F0F003984200F20F819F4BD7
:104610001A6842F008021A601A6822F0F002024397
:104620001A605A68E16922F47F4242EA01225A6024
:10463000002D00F04D81FFF747FE944B944A9B6894
:10464000C3F30313D35C934A03F01F0320FA03F36D
:104650001068914A1360FFF7A5FA40B92368D9079B
:104660007FF5CFAE8FE7A369002BC2D1012003B045
:10467000BDE8F083032E8AD1844A126892037FF545
:10468000C0AE6268002A7FF4BCAEEFE7D6F8943083
:1046900023F00103C6F89430FFF7C6FA074604E09A
:1046A000FFF7C2FAC01B022827D8D6F894309B0720
:1046B000F6D4E7E6022E7FF4ACAE744A12685205D7
:1046C00002D5E268002AD1D0704920694A6822F0F8
:1046D000F85242EA00624A60B9E63B6823F00103FF
:1046E0003B60FFF7A1FA80463B689807B6D5FFF715
:1046F0009BFAA0EB08000228F6D9032003B0BDE81E
:10470000F083624A136843F480331360FFF78CFA36
:10471000DFF87881074604E0FFF786FAC01B6428BB
:10472000EBD8D8F800309B03F6D553E7574EE26A32
:10473000F36803F00301914200F0EB800C2D95D05B
:10474000524D2B685E0191D42B6823F080732B604F
:10475000FFF76AFA064604E0FFF766FA801B0228B4
:10476000CBD82B689801F7D4E9684C4BE26A206BF0
:10477000464E0B401343D4E90D1243EA012343EAAA
:10478000C263D4E90F120138490843EA0013013922
:10479000520843EA4153013A43EA4263EB602B6813
:1047A00043F080732B60EB6843F08073EB60FFF79E
:1047B0003BFA044604E0FFF737FA001B02289CD8B6
:1047C00033689901F7D5002051E700266CE633687D
:1047D00023F480733360FFF727FA074604E0FFF7FE
:1047E00023FAC01B022888D833685805F7D42368F9
:1047F0002DE6264AD2F8903043F00103C2F89030FB
:10480000FFF712FADFF88480074641F2883905E0A5
:10481000FFF70AFAC01B48453FF66FAFD8F8903053
:104820009B07F5D5002E3FF46FAE4BE0FFF706FD7A
:1048300000287FF41BAF154B1A6842F008021A607B
:104840001A68216A22F0F0020A431A605A68E16984
:1048500022F47F4242EA01225A60ECE6D6F8983010
:1048600023F00103C6F89830FFF7DEF9074605E0AC
:10487000FFF7DAF9C01B02283FF63FAFD6F89830B1
:104880009B07F5D45CE60120704700BF0010024092
:1048900014E1010820000020180000208C809D01F8
:1048A0003B6843F480733B60FFF7BEF980463B688A
:1048B000DA053FF5FEADFFF7B7F9A0EB08000228D7
:1048C000F5D91AE7344A936D23F0805393651BE6BC
:1048D000FFF7B4FC00283FF4AEAEC7E603F1804317
:1048E000A3F53C331A6842F480221A601A6842F435
:1048F00080321A600AE7284BD3F8902042F0040275
:10490000C3F89020D3F8902042F00102C3F8902021
:1049100076E7216B03F070020139B2EB011F7FF4DF
:104920000DAF616B03F4FE42B2EB012F7FF406AFD3
:10493000A16B03F07842B2EBC16F7FF4FFAEE26B84
:10494000520803F4C001013AB1EB425F7FF4F6AEC6
:10495000226C520803F0C063013AB3EB426F7FF45C
:10496000EDAE33689A013FF52EAF336843F08073A4
:104970003360F36843F08073F360FFF755F9044642
:1049800005E0FFF751F9001B02283FF6B6AE336889
:104990009B01F6D517E700BF00100240002800F089
:1049A0009F80534A136803F007038B422DE9F041BF
:1049B0000D4604460CD2136823F007030B43136023
:1049C000136803F007038B4202D00120BDE8F08199
:1049D00023689E0771D54748A168826802F0F002FB
:1049E000914204D9826822F0F0020A438260DA0719
:1049F00026D562683F4B032A1B6865D0022A6CD01B
:104A0000002A71D19B07E0D53A4EB36823F0030327
:104A10001343B360FFF708F941F28838074604E012
:104A2000FFF702F9C01B40455CD8B368626803F029
:104A30000C03B3EB820FF3D123689E0706D5A16860
:104A40002C48826802F0F0028A4240D828490A685D
:104A500002F00702AA4209D90A6822F007022A4393
:104A60000A600A6802F00702AA42AED15D0706D5C5
:104A70002049E0688A6822F4E06202438A601807ED
:104A800007D51C4A2169936823F4605343EAC103A4
:104A90009360FFF719FC174A174C92681749C2F345
:104AA00003120346A25C164802F01F02D340BDE881
:104AB000F04100680B60FFF775B8D907C6D562688A
:104AC0000C4B032A1B6899D198019DD47DE782681D
:104AD00022F0F0020A438260B8E7990394D474E7A5
:104AE00001207047032071E75F057FF56EAF8BE70C
:104AF000002002400010024014E1010818000020CC
:104B000020000020054B064A9B680649C3F3022398
:104B10000868D35C03F01F03D840704700100240C0
:104B200024E1010818000020054B064A9B6806494D
:104B3000C3F3C2230868D35C03F01F03D840704757
:104B40000010024024E1010818000020F8B5474B8E
:104B5000DA68920704460F4607D0DA68016802F067
:104B600003028A424BD00120F8BD0068022857D0CA
:104B700003284ED00128F6D11B689B07F4D53B498A
:104B80006268CB6823F073030343013A43EA0213DC
:104B9000CB60364D2B6823F080632B60FFF744F821
:104BA000064604E0FFF740F8831B022B3CD82B6835
:104BB0001A01F7D4002F39D1D4E902132A69DB0690
:104BC00022F0784243EA012322F4FE4213432B6190
:104BD000264D2B6843F080632B60FFF725F80646CF
:104BE00004E0FFF721F8831B022B1DD82B681B0163
:104BF000F7D52B69A269134300202B61F8BD002A69
:104C0000B1D0DB684268C3F3021301339342AAD1E7
:104C1000BFE71A689503B2D41B685903A3D5AEE762
:104C20001B685E059FD5AAE70320F8BD012F2B69FD
:104C30000DD06269A16823F0C063520823F4FE43DB
:104C4000013A43EA012343EA42632B61C0E7226948
:104C5000A16823F4C003520823F4FE43013A43EA57
:104C6000012343EA42532B61B2E700BF0010024028
:104C70002DE9F043036813F4006783B004460CD0B9
:104C8000416CB1F5000F00F01281B1F5400F00F05A
:104C90001381002900F026810127990359D5A54BDE
:104CA0009A6DD20040F1F7804FF00008A24D2B68BA
:104CB00043F480732B60FEF7B7FF064605E0FEF76E
:104CC000B3FF831B022B00F201812B68DB05F6D5B5
:104CD000B7BB984DD5F8903013F4407327D0A26D30
:104CE0009A4225D0D5F89010D5F8903043F480330F
:104CF000C5F89030D5F8903023F48033C5F8903063
:104D0000CE0721F44073C5F8903040F11081FEF7D2
:104D10008BFF41F28839064605E0FEF785FF801BD0
:104D2000484500F2D380D5F890309807F5D5A36DAB
:104D30008049D1F8902022F440721343C1F890309A
:104D4000B8F1000F04D07B4A936D23F08053936534
:104D50002368D90708D57749206AD1F8882022F03E
:104D600003020243C1F888209A0708D57149606A96
:104D7000D1F8882022F00C020243C1F888205E0797
:104D800008D56C49A06AD1F8882022F0300202438D
:104D9000C1F888209D0608D56649E06AD1F88820C8
:104DA00022F440620243C1F88820980508D5614981
:104DB000E06BD1F8882022F440220243C1F8882019
:104DC000590508D55B49206CD1F8882022F440129F
:104DD0000243C1F888205A0608D55649206BD1F8FD
:104DE000882022F440520243C1F888201E0608D5CC
:104DF0005049606BD1F8882022F440420243C1F848
:104E00008820DD0508D54B49A06BD1F8882022F415
:104E100040320243C1F8882018030ED54549A06CE2
:104E2000D1F8882022F040620243B0F1006FC1F84F
:104E300088204DD0B0F1806F64D059030ED53D4924
:104E4000E06CD1F8882022F040620243B0F1006F9C
:104E5000C1F8882041D0B0F1806F5CD05A040BD5E6
:104E60003448216DD0F8882022F040520A43B1F135
:104E7000805FC0F888203CD01B0408D52D4A616DA6
:104E8000D2F8883023F080430B43C2F8883038468C
:104E900003B0BDE8F0839A6D42F080529A659B6D35
:104EA00003F080530193019B4FF00108FEE6214877
:104EB000C26842F48032C2601E48D0F8882022F4D2
:104EC00040020A43C0F888200027E6E6032737E7B8
:104ED000CA6842F48012CA60AFE7CA6842F480121E
:104EE000CA60BBE70430FFF731FE0746E0B1236834
:104EF000D3E60221201DFFF729FE23680028BBD03E
:104F00000746B9E70121201DFFF720FE236800288E
:104F100093D0074691E70121201DFFF717FE236874
:104F200000289BD0074699E7616C2368C4E71346C5
:104F3000FEE600BF001002400070004038B5204B74
:104F4000DA6822F08002DA609A689106044612D488
:104F500003681C4ADA60FEF767FE054605E0FEF7C7
:104F600063FE431BB3F57A7F25D82368DB689A0676
:104F7000F5D5002038BD9A680168124822F0200259
:104F80009A60C860FEF750FE054605E0FEF74CFE4D
:104F9000431BB3F57A7F0AD82368DB689B06F5D5F7
:104FA0000020074A936843F02003936038BD032034
:104FB00084F82100F5E7032084F8210038BD00BF04
:104FC000002800405FFF030000284AD038B590F861
:104FD0002130044603F0FF02002B3DD0022223685B
:104FE00084F82120DA68D00604D5012384F8213022
:104FF000002038BDCA21532259625A62DA6851062C
:1050000031D599686268256921F4E00121F04001F9
:105010009960A16998682A430A430243E1689A604B
:1050200019611A69A16842EA01421A612046FFF734
:1050300085FF236848BBD96C6069E26921F00301F0
:10504000D964D96C02430A43FF21DA64596201230F
:1050500084F821300020CCE780F82020FDF7A2F969
:10506000BCE7012070474FF0FF32DA60FEF7DCFD4D
:10507000054605E0FEF7D8FD401BB0F57A7F07D85E
:105080002368DA685206BCD4F4E7FF225A6238BDBE
:105090002368032284F82120DB68C7E790F82030DA
:1050A000012B00F044822DE9F0471646012280F8DA
:1050B00020200368022280F82120CA225A6253224B
:1050C0005A62DA680D465106044640F11382996827
:1050D000002E40F02E8211F0400118BFE9782878A8
:1050E0000CBFEE708905092840F2AE80DA4AA0F1C3
:1050F0000A0C5FFA8CF7A2FB072E4FEADE0E4F2F49
:105100000EF1010E4FF0000257D9A0F1280767F306
:105110000702A0F1320767F30F22A0F13C0767F303
:105120001742A0F1460767F31F6202F07F3782F053
:10513000B03882F0F63C08F0803207F1303882EA6D
:1051400008024FEADE080CF0803C07F17637B8F130
:10515000010F8CEA070C00F01B8202F07F3C82F00A
:10516000B03782F0F6320CF1303907F0803702F0B8
:1051700080320CF1763CB8F1030F87EA090782EA26
:105180000C0C40F0138287F0F63C07F07F3707F1F4
:1051900076370CF0803C8CEA070C18270EF03802AA
:1051A000C2EB4218C2EB880800EB480096454FEA74
:1051B0001C6CC0B244D0A0F10A0C5FFA8CFCBCF1AC
:1051C000090F02F101073BD9A0F1140C5FFA8CFC26
:1051D000BCF1090F02F1020732D9A0F11E0C5FFAEF
:1051E0008CFCBCF1090F02F1030729D9A0F1280CAE
:1051F0005FFA8CFCBCF1090F02F1040720D9A0F181
:10520000320C5FFA8CFCBCF1090F02F1050717D9CB
:10521000A0F13C0C5FFA8CFCBCF1090F02F106070F
:105220000ED9A0F1460C5FFA8CFCBCF1090F02F11B
:10523000070705D9A0F1500C02F108075FFA8CFCB2
:105240004CEA071C5FFA8CF095F801C0BCF1090F1D
:105250004FEA004040F2A1807F4FACF10A025FFAB2
:1052600082FEA7FB0E87FF08BEF14F0F07F1010773
:1052700040F29E81ACF1280E00226EF30702ACF1E1
:10528000320E6EF30F22ACF13C0E6EF31742ACF10E
:10529000460E6EF31F6202F07F3882F0B03E82F05D
:1052A000F63208F1303902F0803208F1763882EABD
:1052B00008024FEAD7080EF0803EB8F1010F8EEADF
:1052C000090E00F06A810EF07F398EF0B03A8EF050
:1052D000F63202F080320AF0803EB8F1030F09F195
:1052E000303A09F176398EEA0A0E82EA090240F074
:1052F0005A810EF07F328EF0F63E02F176320EF0D9
:10530000803E82EA0E024FF0180807F0380ECEEB0E
:105310004E19CEEB89090CEB490CBE454FEA1262DF
:105320005FFA8CFC35D0ACF10A02D2B2092A0EF138
:1053300001082ED9ACF11402D2B2092A0EF10208EA
:1053400027D9ACF11E02D2B2092A0EF1030820D9E6
:10535000ACF12802D2B2092A0EF1040819D9ACF135
:105360003202D2B2092A0EF1050812D9ACF13C0280
:10537000D2B2092A0EF106080BD9ACF14602D2B21C
:10538000092A0EF1070804D9ACF150020EF1080801
:10539000D2B242EA08125FFA82FCAF78092F4FEAD4
:1053A0000C2C40F2A1802C4AA7F10A085FFA88F978
:1053B000A2FB092E4FEADE0EB9F14F0F0EF1010EDE
:1053C0005AD9A7F12802002662F30706A7F1320294
:1053D00062F30F26A7F13C0262F31746A7F14602DB
:1053E00062F31F6606F07F3886F0B03208F130397C
:1053F00002F0803286F0F63682EA09024FEADE09D0
:1054000006F0803608F17638B9F1010F86EA080611
:1054100000F0C08002F07F3A82F0B03882F0F632BD
:1054200002F0803608F080380AF13032B9F1030F0B
:105430000AF1763A88EA020886EA0A0640F0B08065
:1054400088F0F63208F07F3602F0803206F17636C8
:1054500056404FF0180801E0CDCCCCCC320E0EF007
:105460003806C6EB4619C6EB890907EB49077645AE
:10547000FFB236D0A7F10A085FFA88F2092A06F1CE
:1054800001082ED9A7F11402D2B2092A06F10208A6
:1054900027D9A7F11E02D2B2092A06F1030820D9A2
:1054A000A7F12802D2B2092A06F1040819D9A7F1F6
:1054B0003202D2B2092A06F1050812D9A7F13C023C
:1054C000D2B2092A06F106080BD9A7F14602D2B2D8
:1054D000092A06F1070804D9A7F1500206F10808C5
:1054E000D2B242EA0812D7B240EA010242EA0C0202
:1054F0003A432EE04FF0FF32DA60FEF795FB0746A5
:105500002368DA6852063FF5E2ADFEF78DFBC01B5B
:10551000B0F57A7FF4D92368032084F82100FF22B4
:10552000D9685A62002384F82030BDE8F087022051
:1055300070476A78287811F040014FEA022214BFC0
:10554000E978E97042EA0042A87818BF8905024369
:105550000A4302F07F3222F0FE421A6099682869FD
:10556000EA6821F480219960996802430A439A60AD
:105570002046FFF7E3FC2368FF225A620028D1D1BE
:10558000012384F82130002384F82030BDE8F0871F
:10559000082703E64FF0080860E74FF00808B4E674
:1055A0004FF010085AE74FF01008AEE61027F5E567
:1055B0004FF0000EB9E600BF90F82030012B00F04C
:1055C0004C822DE9F04104460223012084F820009A
:1055D00084F8213032B34B78CD7888780A781B0272
:1055E00043EA0543034343EA42362368CA21532270
:1055F00059625A62DA68510640F1058226F07F4608
:1056000026F0C0065E602046FFF798FC2368FF2264
:105610005A6210B9012384F82130002384F8203025
:10562000BDE8F0814878C50640F10A8291F803C0D0
:1056300020F010000A30C0B2BCF1090F487040F2EF
:105640001482D04DACF10A03DEB2A5FB0675ED085D
:105650004F2E05F1010540F20B82ACF12806002324
:1056600066F30703ACF1320666F30F23ACF13C0698
:1056700066F31743ACF1460666F31F6303F07F360B
:1056800083F0B03E06F130370EF0803E83F0F63303
:105690008EEA070EEF0803F0803306F17636012F0D
:1056A00083EA060300F0DF810EF07F338EF0B03620
:1056B0008EF0F63E03F1303806F080360EF0803E74
:1056C00003F17633032F86EA08068EEA030340F0DF
:1056D000BE8186F0F63306F07F3606F1763603F0AB
:1056E00080337340182605F0380ECEEB4E17CEEB04
:1056F00087070CEB470775454FEA13635FFA87FC92
:1057000035D0ACF10A03DBB2092B0EF101062ED91C
:10571000ACF11403DBB2092B0EF1020627D9ACF170
:105720001E03DBB2092B0EF1030620D9ACF12803CE
:10573000DBB2092B0EF1040619D9ACF13203DBB24E
:10574000092B0EF1050612D9ACF13C03DBB2092B93
:105750000EF106060BD9ACF14603DBB2092B0EF1B4
:10576000070604D9ACF150030EF10806DBB243EA98
:1057700006135FFA83FC09284FEA0C4C40F298802C
:10578000804DA0F10A03DEB2A5FB0675ED084F2E91
:1057900005F1010540F26F81A0F12806002366F3B0
:1057A0000703A0F1320666F30F23A0F13C0666F36F
:1057B0001743A0F1460666F31F6303F07F3683F0BC
:1057C000B03E06F130370EF0803E83F0F6338EEABD
:1057D000070EEF0803F0803306F17636012F83EAD7
:1057E000060300F03E810EF07F338EF0B0368EF06F
:1057F000F63E03F1303806F080360EF0803E03F1BD
:105800007633032F86EA08068EEA030340F02381ED
:1058100006F07F3386F0F63606F0803603F17633F5
:105820007340182605F0380ECEEB4E17CEEB8707E7
:1058300000EB470075454FEA1363C0B235D0A0F1C5
:105840000A03DBB2092B0EF101062ED9A0F11403D5
:10585000DBB2092B0EF1020627D9A0F11E03DBB241
:10586000092B0EF1030620D9A0F12803DBB2092B86
:105870000EF1040619D9A0F13203DBB2092B0EF1A7
:10588000050612D9A0F13C03DBB2092B0EF1060686
:105890000BD9A0F14603DBB2092B0EF1070604D9A0
:1058A000A0F150030EF10806DBB243EA0613D8B2AA
:1058B00091F802E0BEF1090F4FEA002040F29C800F
:1058C000304DAEF10A03DEB2A5FB0675ED084F2E92
:1058D00005F1010558D9AEF12802002362F3070350
:1058E000AEF1320262F30F23AEF13C0262F31743D2
:1058F000AEF1460262F31F6303F07F3683F0B032ED
:1059000006F1303702F0803283F0F6337A40EF0848
:1059100003F0803306F17636012F83EA060300F0A8
:105920009E8002F07F3382F0B03682F0F63203F1CF
:10593000303806F0803602F0803203F17633032FE0
:1059400086EA080683EA020340F0838086F0F63395
:1059500006F07F3606F1763603F080337340182662
:1059600005F03802C2EB4217C2EB87070EEB470780
:10597000AA424FEA13635FFA87FE39D0AEF10A03F9
:1059800002E000BFCDCCCCCCDBB2092B02F101068A
:105990002ED9AEF11403DBB2092B02F1020627D98E
:1059A000AEF11E03DBB2092B02F1030620D9AEF1E2
:1059B0002803DBB2092B02F1040619D9AEF1320338
:1059C000DBB2092B02F1050612D9AEF13C03DBB2C2
:1059D000092B02F106060BD9AEF14603DBB2092B07
:1059E00002F1070604D9AEF1500302F10806DBB25A
:1059F00043EA06135FFA83FE0B784CEA4333034312
:105A000043EA0E06F1E54FF0FF32DA60FEF70CF9DB
:105A100005462368DA6852063FF5F0ADFEF704F953
:105A2000401BB0F57A7FF4D92368032084F8210065
:105A3000FF22D9685A62002384F82030BDE8F08143
:105A400091F803C0BCF1090F3FF6FBAD93E61026B9
:105A500049E6102684E71026E4E60220704708266F
:105A60007EE70826DEE608263DE64FEA0C4C87E690
:105A70004FF0000E47E64FF0000EE2E690F82030BF
:105A8000012B57D02DE9F0411646012280F8202045
:105A90000368022280F82120CA225A6253225A62E5
:105AA0009A6822F480629A60DA68D2B262F49062F4
:105AB000DA60DA68520604460F4621D55F619A68BB
:105AC0001D4922F0070232439A600A6842F48012AC
:105AD0000A608A6842F480128A609A6842F48042BE
:105AE0009A609A6842F480629A600025FF21012240
:105AF000596284F8212084F820502846BDE8F081BE
:105B0000FEF792F880462368DD6815F00405D5D1CC
:105B1000FEF78AF8A0EB0800B0F57A7FF3D9226887
:105B20000323FF21516284F8213084F82050184665
:105B3000BDE8F081022070470004014090F8203059
:105B4000012B37D070B505460368022285F8212065
:105B50000120CA21532285F8200059625A629A68AE
:105B600022F480629A609A6822F480429A60FEF77A
:105B70005BF8064605E0FEF757F8831BB3F57A7F1E
:105B80000ED82A68D46814F00404F4D00023FF204F
:105B90000121506285F8211085F82030184670BD2B
:105BA0002A680323FF21516285F8213085F82040BF
:105BB000184670BD022070470C4A03684FF48011EC
:105BC00010B55161DA685205044603D4012384F804
:105BD000213010BDDA68D2B262F49062DA60FBF76D
:105BE00061FE012384F8213010BD00BF0004014094
:105BF0002DE9F04182B0002317460D468DF80330A1
:105C00000646FEF711F82F443F1AFEF70DF8314B08
:105C100034681B6803EB8303C3EBC3031B0D07FB53
:105C200003F3804601932246691C936810D113F454
:105C3000C06F09D0237BDBB28DF803309DF80330B1
:105C4000936813F4C06FF5D1002002B0BDE8F08175
:105C500013F4C06FF8D0237BDBB28DF803309DF8CE
:105C60000330FDF7E1FFA0EB0800B84209D2019B29
:105C70003268002B019B03F1FF3308BF002701931B
:105C8000D2E7D6E900315A68B1F5827F22F0E0020E
:105C90005A6013D0B26AB2F5005F07D11A6822F4D5
:105CA00000521A601A6842F400521A60012200235E
