:020000040800F2
:100000000000012015340008552A0008592A00086C
:100010005D2A0008612A0008652A00080000000027
:10002000000000000000000000000000692A000835
:100030006D2A000800000000712A0008752A0008D7
:10004000653400086534000865340008653400082C
:10005000653400086534000865340008653400081C
:10006000653400086534000865340008653400080C
:1000700065340008653400086534000865340008FC
:1000800065340008653400086534000865340008EC
:10009000653400086534000865340008792A0008D2
:1000A000812A0008653400086534000865340008BA
:1000B0008D2A0008000000000000000065340008E0
:1000C00065340008653400086534000865340008AC
:1000D00065340008992A0008653400086534000872
:1000E00065340008653400080000000000000000CE
:1000F0000000000000000000000000000000000000
:1001000000000000653400080000000065340008AD
:10011000000000000000000065340008A52A000867
:10012000653400086534000865340008653400084B
:10013000653400080000000000000000000000001E
:1001400065340008653400086534000800000000CC
:10015000653400086534000865340008653400081B
:1001600065340008653400086534000800000000AC
:10017000653400086534000800000000000000003D
:0C01800065340008653400086534000890
:1001900010B5054C237833B9044B13B10448AFF3C1
:1001A00000800123237010BD180100200000000012
:1001B0004429030808B5034B1BB103490348AFF3B7
:1001C000008008BD000000001C0100204429030835
:1001D00010F8012B11F8013B012A28BF9A42F7D0F1
:1001E000D01A7047034613F8012B002AFBD1181AC6
:1001F0000138704781F0004102E000BF83F0004306
:1002000030B54FEA41044FEA430594EA050F08BFB1
:1002100090EA020F1FBF54EA000C55EA020C7FEA75
:10022000645C7FEA655C00F0E2804FEA5454D4EBF2
:100230005555B8BF6D420CDD2C4480EA020281EABC
:10024000030382EA000083EA010180EA020281EAF4
:100250000303362D88BF30BD11F0004F4FEA013146
:100260004FF4801C4CEA113102D0404261EB410155
:1002700013F0004F4FEA03334CEA133302D05242DB
:1002800063EB430394EA050F00F0A780A4F1010497
:10029000D5F1200E0DDB02FA0EFC22FA05F28018D1
:1002A00041F1000103FA0EF2801843FA05F35941B7
:1002B0000EE0A5F120050EF1200E012A03FA0EFC36
:1002C00028BF4CF0020C43FA05F3C01851EBE37160
:1002D00001F0004507D54FF0000EDCF1000C7EEB7D
:1002E00000006EEB0101B1F5801F1BD3B1F5001FBB
:1002F0000CD349085FEA30004FEA3C0C04F10104DA
:100300004FEA445212F5800F80F09A80BCF1004F02
:1003100008BF5FEA500C50F1000041EB045141EA84
:10032000050130BD5FEA4C0C404141EB0101013C4D
:1003300028BFB1F5801FE9D291F0000F04BF01463C
:100340000020B1FA81F308BF2033A3F10B03B3F10E
:1003500020020CDA0C3208DD02F1140CC2F10C029E
:1003600001FA0CF021FA02F10CE002F11402D8BFFC
:10037000C2F1200C01FA02F120FA0CFCDCBF41EAC8
:100380000C019040E41AA2BF01EB0451294330BD97
:100390006FEA04041F3C1CDA0C340EDC04F1140474
:1003A000C4F1200220FA04F001FA02F340EA03004B
:1003B00021FA04F345EA030130BDC4F10C04C4F191
:1003C000200220FA02F001FA04F340EA0300294671
:1003D00030BD21FA04F0294630BD94F0000F83F4BB
:1003E000801306BF81F480110134013D4EE77FEA9E
:1003F000645C18BF7FEA655C29D094EA050F08BFEA
:1004000090EA020F05D054EA000C04BF19461046CA
:1004100030BD91EA030F1EBF0021002030BD5FEA0E
:10042000545C05D14000494128BF41F0004130BD36
:1004300014F580043CBF01F5801130BD01F000458A
:1004400045F0FE4141F470014FF0000030BD7FEAFD
:10045000645C1ABF194610467FEA655C1CBF0B46F8
:10046000024650EA013406BF52EA033591EA030F0F
:1004700041F4002130BD00BF90F0000F04BF002107
:10048000704730B54FF4806404F132044FF000053A
:100490004FF0000150E700BF90F0000F04BF0021B3
:1004A000704730B54FF4806404F1320410F0004519
:1004B00048BF40424FF000013EE700BF42004FEA14
:1004C000E2014FEA31014FEA02701FBF12F07F4391
:1004D00093F07F4F81F06051704732F07F4208BF48
:1004E000704793F07F4F04BF41F40021704730B54F
:1004F0004FF4607401F0004521F000411CE700BF9B
:1005000050EA010208BF704730B54FF000050AE01D
:1005100050EA010208BF704730B511F0004502D51E
:10052000404261EB41014FF4806404F132045FEA20
:10053000915C3FF4D8AE4FF003025FEADC0C18BFC9
:1005400003325FEADC0C18BF033202EBDC02C2F1BB
:10055000200300FA03FC20FA02F001FA03FE40EA4D
:100560000E0021FA02F11444BDE600BF70B54FF051
:10057000FF0C4CF4E06C1CEA11541DBF1CEA13552F
:1005800094EA0C0F95EA0C0F00F0DEF82C4481EA97
:10059000030621EA4C5123EA4C5350EA013518BFB7
:1005A00052EA033541F4801143F4801338D0A0FBA4
:1005B00002CE4FF00005E1FB02E506F00042E0FB51
:1005C00003E54FF00006E1FB03569CF0000F18BF57
:1005D0004EF0010EA4F1FF04B6F5007F64F54074FF
:1005E00004D25FEA4E0E6D4146EB060642EAC62192
:1005F00041EA55514FEAC52040EA5E504FEACE2EFF
:10060000B4F1FD0C88BFBCF5E06F1ED8BEF1004F01
:1006100008BF5FEA500E50F1000041EB045170BD7D
:1006200006F0004646EA010140EA020081EA0301C1
:10063000B4EB5C04C2BFD4EB0C0541EA045170BDBD
:1006400041F480114FF0000E013C00F3AB8014F137
:10065000360FDEBF002001F0004170BDC4F1000480
:10066000203C35DA0C341BDC04F11404C4F1200501
:1006700000FA05F320FA04F001FA05F240EA02005C
:1006800001F0004221F0004110EBD37021FA04F692
:1006900042EB06015EEA430E08BF20EAD37070BD4C
:1006A000C4F10C04C4F1200500FA04F320FA05F0AB
:1006B00001FA04F240EA020001F0004110EBD370AD
:1006C00041F100015EEA430E08BF20EAD37070BD1D
:1006D000C4F1200500FA05F24EEA020E20FA04F3F6
:1006E00001FA05F243EA020321FA04F001F00041A5
:1006F00021FA04F220EA020000EBD3705EEA430E16
:1007000008BF20EAD37070BD94F0000F0FD101F044
:100710000046400041EB010111F4801F08BF013C7D
:10072000F7D041EA060195F0000F18BF704703F0BB
:100730000046520043EB030313F4801F08BF013D42
:10074000F7D043EA0603704794EA0C0F0CEA1355FE
:1007500018BF95EA0C0F0CD050EA410618BF52EAB8
:100760004306D1D181EA030101F000414FF00000BE
:1007700070BD50EA410606BF1046194652EA4306CC
:1007800019D094EA0C0F02D150EA013613D195EA40
:100790000C0F05D152EA03361CBF104619460AD188
:1007A00081EA030101F0004141F0FE4141F4700192
:1007B0004FF0000070BD41F0FE4141F4780170BD82
:1007C00070B54FF0FF0C4CF4E06C1CEA11541DBFE7
:1007D0001CEA135594EA0C0F95EA0C0F00F0A7F8E9
:1007E000A4EB050481EA030E52EA03354FEA013116
:1007F00000F088804FEA03334FF0805545EA131329
:1008000043EA12634FEA022245EA111545EA1065F0
:100810004FEA00260EF000419D4208BF964244F187
:10082000FD0404F5407402D25B084FEA3202B61AA6
:1008300065EB03055B084FEA32024FF480104FF47A
:10084000002CB6EB020E75EB030E22BFB61A7546EE
:1008500040EA0C005B084FEA3202B6EB020E75EB81
:10086000030E22BFB61A754640EA5C005B084FEAE9
:100870003202B6EB020E75EB030E22BFB61A7546B6
:1008800040EA9C005B084FEA3202B6EB020E75EBC1
:10089000030E22BFB61A754640EADC0055EA060E82
:1008A00018D04FEA051545EA16754FEA06164FEAC5
:1008B000C30343EA52734FEAC2025FEA1C1CC0D171
:1008C00011F4801F0BD141EA00014FF000004FF0FE
:1008D000004CB6E711F4801F04BF01430020B4F1BF
:1008E000FD0C88BFBCF5E06F3FF6AFAEB5EB030C77
:1008F00004BFB6EB020C5FEA500C50F1000041EB74
:10090000045170BD0EF0004E4EEA113114EB5C0440
:10091000C2BFD4EB0C0541EA045170BD41F4801113
:100920004FF0000E013C90E645EA060E8DE60CEA1B
:10093000135594EA0C0F08BF95EA0C0F3FF43BAF38
:1009400094EA0C0F0AD150EA01347FF434AF95EAEF
:100950000C0F7FF425AF104619462CE795EA0C0FD3
:1009600006D152EA03353FF4FDAE1046194622E7A0
:1009700050EA410618BF52EA43067FF4C5AE50EA7A
:1009800041047FF40DAF52EA43057FF4EBAE12E76A
:100990004FF0FF3C06E000BF4FF0010C02E000BF4B
:1009A0004FF0010C4DF804CD4FEA410C7FEA6C5C2E
:1009B0004FEA430C18BF7FEA6C5C1BD001B050EAD1
:1009C000410C0CBF52EA430C91EA030F02BF90EABC
:1009D000020F0020704710F1000F91EA030F58BF7B
:1009E000994208BF90422CBFD8176FEAE37040F0DD
:1009F000010070474FEA410C7FEA6C5C02D150EA7B
:100A0000013C07D14FEA430C7FEA6C5CD6D152EA35
:100A1000033CD3D05DF8040B704700BF84461046FA
:100A200062468C461946634600E000BF01B5FFF7F9
:100A3000B7FF002848BF10F1000F01BD4DF808EDC9
:100A4000FFF7F4FF0CBF012000205DF808FB00BF9A
:100A50004DF808EDFFF7EAFF34BF012000205DF8F4
:100A600008FB00BF4DF808EDFFF7E0FF94BF012041
:100A700000205DF808FB00BF4DF808EDFFF7CEFF42
:100A800094BF012000205DF808FB00BF4DF808ED81
:100A9000FFF7C4FF34BF012000205DF808FB00BF52
:100AA0004FEA410C7FEA6C5C02D150EA013C0AD16A
:100AB0004FEA430C7FEA6C5C02D152EA033C02D15C
:100AC0004FF0000070474FF0010070474FEA4102BD
:100AD000B2F1E04324BFB3F5001CDCF1FE5C0DD99C
:100AE00001F0004C4FEAC0024CEA5070B2F1004FE6
:100AF00040EB830008BF20F00100704711F0804FE9
:100B000021D113F13872BCBF01F00040704741F4AD
:100B100080114FEA5252C2F11802C2F1200C10FAB1
:100B20000CF320FA02F018BF40F001004FEAC12395
:100B30004FEAD32303FA0CFC40EA0C0023FA02F339
:100B40004FEA4303CCE77FEA625307D150EA01330F
:100B50001EBF4FF0FE4040F44000704701F00040DF
:100B600040F0FE4040F40000704700BF53B94AB95E
:100B7000002908BF00281CBF4FF0FF314FF0FF30A5
:100B800000F070B9ADF1080C6DE904CE00F006F884
:100B9000DDF804E0DDE9022304B070472DE9F047F9
:100BA000089E0D4604460F46002B4AD18A429446C1
:100BB00065D9B2FA82F343B102FA03FCC3F1200211
:100BC0009F4020FA02F217439C404FEA1C4E1FFA46
:100BD0008CF5B7FBFEF1220C0EFB117742EA0742BF
:100BE00001FB05F090420AD91CEB020201F1FF372C
:100BF00080F01C81904240F2198102396244121A3D
:100C0000A4B2B2FBFEF00EFB102244EA024400FB49
:100C100005F5A5420AD91CEB040400F1FF3280F06F
:100C20000781A54240F204816444023840EA014051
:100C3000641B00211EB1DC400023C6E90043BDE86F
:100C4000F0878B4208D9002E00F0ED800021C6E924
:100C500000050846BDE8F087B3FA83F1002949D1C1
:100C6000AB4202D3824200F2F880841A65EB0302A1
:100C700001201746002EE2D0C6E90047DFE702B99F
:100C8000FFDEB2FA82F3002B40F090808A1A4FEA1E
:100C90001C471FFA8CFE0121B2FBF7F507FB15205C
:100CA000220C42EA00420EFB05F0904208D91CEBF0
:100CB000020205F1FF3802D2904200F2CB80454695
:100CC000121AA4B2B2FBF7F007FB102244EA024466
:100CD0000EFB00FEA64508D91CEB040400F1FF3210
:100CE00002D2A64500F2BB801046A4EB0E0440EAF7
:100CF00005409FE7C1F120078B4022FA07FC4CEA30
:100D0000030C05FA01F420FA07F3FD404FEA1C49F1
:100D10002343B5FBF9F81FFA8CFE09FB18551C0C90
:100D200044EA054408FB0EF5A54202FA01F200FA76
:100D300001F00BD91CEB040408F1FF3A80F0888025
:100D4000A54240F28580A8F102086444641B9DB26C
:100D5000B4FBF9F309FB134445EA044403FB0EFE1C
:100D6000A64508D91CEB040403F1FF356CD2A64557
:100D70006AD9023B644443EA0843A3FB0295A4EB0F
:100D80000E04AC42C846AE4656D353D056B1B0EB73
:100D9000080264EB0E0404FA07F7CA40CC4017437C
:100DA000C6E9007418460021BDE8F087C3F12001B0
:100DB00002FA03FC20FA01F225FA01F19D402A43D0
:100DC0004FEA1C471FFA8CFEB1FBF7F007FB10152A
:100DD000110C41EA054100FB0EF58D4204FA03F4C3
:100DE00008D91CEB010100F1FF382FD28D422DD91B
:100DF00002386144491B92B2B1FBF7F507FB1511AC
:100E000042EA014205FB0EF1914208D91CEB0202B5
:100E100005F1FF3816D2914214D9023D6244521AAC
:100E200045EA004138E73146304608E73946E6E60C
:100E30001046FBE64845A9D2B9EB020865EB0C0E5B
:100E4000013BA3E74546EAE72B4694E74046D1E756
:100E5000D0467BE7023D624432E708460AE7644435
:100E6000023842E7704700BF02480122042103F024
:100E700013BA00BF000C004802480022042103F00E
:100E80000BBA00BF000C00482DE9F047824691469E
:100E90005D1A82B0804C81480A9E1F460135A9EB3D
:100EA0000A03884600224FF4006103FB05552A23FC
:100EB0008DF8073003F0F0F9642301220DF10701EA
:100EC000206804F097FA4FEA1A2374488DF8073027
:100ED00001224FF4006103F0DFF9642301220DF1D8
:100EE0000701206804F086FA6C488DF807A00122FB
:100EF0004FF4006103F0D0F9642301220DF10701E2
:100F0000206804F077FA4FEA192364488DF8073017
:100F100001224FF4006103F0BFF9642301220DF1B7
:100F20000701206804F066FA5C488DF807900122FA
:100F30004FF4006103F0B0F9642301220DF10701C1
:100F4000206804F057FA2B2354488DF8073000220C
:100F50004FF4006103F0A0F9642301220DF10701B1
:100F6000206804F047FA4FEA18234C488DF8073000
:100F700001224FF4006103F08FF9642301220DF187
:100F80000701206804F036FA44488DF807800122F2
:100F90004FF4006103F080F9642301220DF1070191
:100FA000206804F027FA3B0A3C488DF807300122FC
:100FB0004FF4006103F070F9642301220DF1070181
:100FC000206804F017FA35488DF8077001224FF4B5
:100FD000006103F061F9642301220DF1070120682B
:100FE00004F008FA2C232D488DF8073000224FF426
:100FF000006103F051F964230DF10701012220681B
:1010000004F0F8F9254801224FF4006103F044F997
:1010100020684FF47063426BC360436A02F00802B9
:1010200003F010031343428B02F0040213430268DF
:1010300043F47063B5F5803F53604FF47A7326D361
:10104000314647F2305204F0D5F9A5F5EA42303A7C
:1010500006F56A4120684FF47A7392B2603104F069
:10106000C9F92268536A506B518B00F0080003F0F5
:101070001003034301F0040110680B434FF4E064D4
:1010800043F4B853D460436002B0BDE8F087AAB21D
:10109000314604F0AFF9E4E7000000200008004802
:1010A0002DE9F04FED4EEE4D83B036233046002251
:1010B0004FF400618DF8073003F0EEF864230DF172
:1010C000070128680122002704F094F93046012224
:1010D0004FF400618DF8077003F0DEF80DF10701A1
:1010E00028686423012204F085F93A233A46304601
:1010F0004FF400618DF8073003F0CEF80DF10701D1
:1011000028686423012204F075F905233046012282
:101110004FF400618DF8073003F0BEF80DF10701C0
:1011200028686423012204F065F9B2233A46304668
:101130004FF400618DF8073003F0AEF864230DF131
:1011400007012868012204F055F94FF00C043046DD
:1011500001224FF400618DF8074003F09DF86423ED
:101160000DF107012868012204F044F930460122FC
:101170004FF400618DF8074003F08EF864230DF101
:1011800007012868012204F035F9304601224FF4A6
:1011900000618DF8077003F07FF864230DF10701FB
:1011A0002868012204F026F93324304601224FF446
:1011B00000618DF8074003F06FF864230DF107011B
:1011C0002868012204F016F9304601224FF400612C
:1011D0008DF8074003F060F80DF1070128686423DB
:1011E000012204F007F93A463046B7234FF4006174
:1011F0008DF8073003F050F80DF1070128686423DB
:10120000012204F0F7F83046352301224FF4006143
:101210008DF8073003F040F80DF1070128686423CA
:10122000012204F0E7F83A463046BB234FF4006150
:101230008DF8073003F030F80DF1070128686423BA
:10124000012204F0D7F83046192301224FF400613F
:101250008DF8073003F020F80DF1070128686423AA
:10126000012204F0C7F83A463046C0234FF400612B
:101270008DF8073003F010F864230DF1070128689A
:10128000012204F0B7F84FF02C028DF80720304609
:1012900001224FF4006102F0FFFF0DF10701286801
:1012A00064230122012404F0A5F83A463046C22303
:1012B0004FF400618DF8073002F0EEFF6423224600
:1012C0000DF10701286804F095F8224630464FF4E6
:1012D00000618DF8074002F0DFFF22460DF10701A3
:1012E0002868642304F086F83A463046C3234FF456
:1012F00000618DF8073002F0CFFF22460DF10701A3
:101300002868642304F076F82246304612234FF40E
:1013100000618DF8073002F0BFFF22460DF1070192
:101320002868642304F066F83A463046C4234FF434
:1013300000618DF8073002F0AFFF642322460DF103
:101340000701286804F056F84FF020018DF80710C7
:10135000224630464FF4006102F09EFF0DF1070077
:10136000224601466423286804F044F83A46304691
:10137000C6234FF400618DF8073002F08DFF0DF1A8
:101380000700224601466423286804F033F8224609
:1013900030460F234FF400618DF8073002F07CFFD8
:1013A0000DF10700642322460146286804F022F864
:1013B0004FF0D00A3A4630464FF400618DF807A04E
:1013C00002F06AFF0DF107002246014664232868F7
:1013D00004F010F822463046A4234FF400618DF843
:1013E000073002F059FF0DF1070022460146642341
:1013F000286803F0FFFF22463046A1234FF4006126
:101400008DF8073002F048FF0DF107002246014633
:101410006423286803F0EEFF3A463046E0234FF499
:1014200000618DF8073002F037FF0DF107006423EB
:1014300022460146286803F0DDFF224630464FF47D
:1014400000618DF807A002F027FF0DF1070064236B
:1014500022460146286803F0CDFF03E0000800485B
:10146000000000204FF00408224630464FF400618F
:101470008DF8078002F010FF0DF10700642322466B
:101480000146286803F0B6FF4FF00D0922463046AA
:101490004FF400618DF8079002F0FEFE0DF1070099
:1014A000642322460146286803F0A4FF4FF0110B85
:1014B000224630464FF400618DF807B002F0ECFE92
:1014C0000DF10700642322460146286803F092FFCD
:1014D0004FF013008DF80700224630464FF40061AC
:1014E00002F0DAFE0DF1070C6146224628686423FB
:1014F00003F080FF224630462B234FF400618DF825
:10150000073002F0C9FE0DF1070C64232246614644
:10151000286803F06FFF4FF03F0C224630464FF42F
:1015200000618DF807C002F0B7FE0DF1070E71469D
:1015300022462868642303F05DFF22463046542388
:101540004FF400618DF8073002F0A6FE0DF1070E92
:10155000714622462868642303F04CFF2246304639
:101560004C234FF400618DF8073002F095FE0DF129
:10157000070E714622462868642303F03BFF22468B
:10158000304618234FF400618DF8073002F084FED6
:101590000DF1070E714664232246286803F02AFFE6
:1015A000224630464FF400618DF8079002F074FE39
:1015B0000DF1070E714622462868642303F01AFFD6
:1015C000224630460B234FF400618DF8073002F0BD
:1015D00063FE0DF1070E714664232246286803F06E
:1015E00009FF4FF01F09224630464FF400618DF885
:1015F000079002F051FE0DF1070E6423224671465A
:10160000286803F0F7FE4FF0230E224630464FF4D1
:1016100000618DF807E002F03FFE22460DF1070160
:101620002868642303F0E6FE3A463046E1234FF48F
:1016300000618DF8073002F02FFE642322460DF181
:101640000701286803F0D6FE8DF807A022460DF1A9
:10165000070A30464FF4006102F01EFE6423224662
:101660005146286803F0C6FE224630464FF400611A
:101670008DF8078002F010FE224651462868642348
:1016800003F0B8FE4FF00C03224630464FF40061E1
:101690008DF8073002F000FE642322465146286888
:1016A00003F0A8FE224630464FF400618DF807B0E3
:1016B00002F0F2FD642322465146286803F09AFEA8
:1016C0004FF013008DF80700224630464FF40061BA
:1016D00002F0E2FD642322465146286803F08AFEA8
:1016E0004FF02C028DF80720304622464FF400615F
:1016F00002F0D2FD642322465146286803F07AFEA8
:101700004FF03F0C224630464FF400618DF807C081
:1017100002F0C2FD224651462868642303F06AFEA7
:101720002246304644234FF400618DF8073002F022
:10173000B3FD224651462868642303F05BFE22462F
:10174000304651234FF400618DF8073002F0A4FDBC
:10175000224651462868642303F04CFE2246304658
:101760002F234FF400618DF8073002F095FD6423BC
:1017700022465146286803F03DFE224630464FF48B
:1017800000618DF8079002F087FD642322465146E0
:10179000286803F02FFE224630464FF400618DF892
:1017A000079002F079FD642322465146286803F031
:1017B00021FE4FF020018DF80710224630464FF4ED
:1017C000006102F069FD642322465146286803F057
:1017D00011FE4FF0230E224630464FF400618DF883
:1017E00007E002F059FD224651462868642303F0C1
:1017F00001FE3A46304621234FF400618DF8073050
:1018000002F04AFD642322465146286803F0F2FDA7
:101810003A4630464FF400618DF807B002F03CFDC7
:10182000224651466423286803F0E4FD782001F045
:1018300063FE3A46304629234FF400618DF80730A5
:1018400002F02AFD514622462868642303F0D2FDA7
:1018500003482246414603B0BDE8F04F02F01CBDEC
:10186000000C00482DE9F04182B005460F4601F01A
:101870003DFE4FF00508064612E0286804F072F8B5
:10188000298A012250BBE86802F006FD9DF803306A
:1018900013F001031DD001F029FE801BB84224D8AB
:1018A000298AE868CDF80480002202F0F5FC0422C1
:1018B0000DEB02013223286803F09CFD3223012244
:1018C0000DF1030104460028D7D0298AE86802F008
:1018D000E3FC0024204602B0BDE8F081E86802F095
:1018E000DBFC204602B0BDE8F0810324F2E700BF34
:1018F000F0B5044683B015460E461F466421032307
:101900000193FFF7AFFF2B0C218AE0688DF80530BB
:1019100000226DBAADF8065002F0BEFC0422206829
:1019200032230DEB020103F065FD28B92068642322
:101930003A46314604F016F80546218AE06801224D
:1019400002F0AAFC284603B0F0BD00BF70B5044603
:1019500082B00623C0688DF80330002220250E4691
:10196000218A019502F098FC322301220DF1030136
:10197000206803F03FFD218AE068012202F08CFC20
:1019800064212046FFF76EFF0546D0B9C6F30F135A
:101990000246218A8DF807008DF80530E068330192
:1019A0008DF8063002F078FC04220DEB020120686D
:1019B000322303F01FFD218A05460122E06802F070
:1019C0006BFC284602B070BD2DE9F04182B00F4695
:1019D000984664210223054616460193FFF742FF0D
:1019E000044618B1204602B0BDE8F0810246062345
:1019F000298AE8688DF8033002F04EFC3223012278
:101A00000DF10301286803F0F5FC298AE86801223A
:101A100002F042FC330C2246298AE8688DF8053032
:101A200073BAADF8063002F037FC0422286832237E
:101A30000DEB020103F0DEFC044668B9F2B2C2F518
:101A4000807292B2424528684FF0640328BF424634
:101A5000394603F0CFFC0446E868298A012202F0E7
:101A60001BFC204602B0BDE8F08100BF30B51C4C25
:101A70001C4B1D48236083B04FF4805190230022FB
:101A8000E0602182019302F007FC042220683223E7
:101A90000DEB020103F0AEFCC0B9022269462068DA
:101AA000322303F05FFF0546218AE068012245B931
:101AB00002F0F2FBBDF8003028465BBAA38003B009
:101AC00030BD02F0E9FB284603B030BD0546218A4F
:101AD000E068012202F0E0FB284603B030BD00BF01
:101AE000340100208C0400200004004800B5254883
:101AF000254901600023042187B00122416103834D
:101B00000221CDE90033CDE90233CDE90433C0E948
:101B10000133C0E90332C0E90923C16180F8202004
:101B2000C36280F83030436380F8383001F0F6FC4F
:101B3000E0B9164A13480623CDE9002303217F2389
:101B4000CDE90213042200236946CDE9042301F004
:101B50001DFE98B90E4A0B480C236946CDE90023B7
:101B600001F014FE28B907B05DF804FB00F046FE52
:101B7000DFE700F043FE07B05DF804FB00F03EFE37
:101B8000E8E700BF48010020000004501000C0102A
:101B90002000F01410B50446A0B000215C2209A872
:101BA000CDE90411CDE90611089130F07DFD2A4BF5
:101BB00022689A4201D020B010BD4FF480414FF00E
:101BC000805209911D9203210122CDE90A120722B8
:101BD0000821CDE90C1202234FF0807209A8CDE94B
:101BE0000E33109203F010F9002831D11B4B1C4822
:101BF000DA6C42F40052DA64DA6C02F400520192B8
:101C0000019ADA6C42F00402DA64DA6C02F004023F
:101C10000292029ADA6C42F00102DA64DB6C03F0A1
:101C200001030393002404A908220B23CDE9042314
:101C30000694039B02F042FA01220B2304A94FF001
:101C40009040CDE90423069402F038FA20B010BD8C
:101C500000F0D4FDCAE700BF0000045000100240AD
:101C6000000800482DE9F04300248DB0CDE906447A
:101C7000CDE90844644B0A94DA6C644F644DDFF894
:101C8000988142F00402DA64DA6C02F004020192F4
:101C9000019ADA6C42F08002DA64DA6C02F08002B7
:101CA0000292029ADA6C42F00102DA64DA6C02F013
:101CB00001020392039ADA6C42F00202DA64DA6CEF
:101CC00002F002020492049ADA6C42F00802DA642A
:101CD000DB6C03F0080305932246384640F6070103
:101CE000059B02F0D9FA012208214FF0904002F042
:101CF000D3FA284601224FF4805102F0CDFA224651
:101D00004046042102F0C8FA4EF2F03206A93846E5
:101D10000323CDE906230126089402F0CFF93846C3
:101D200006A940F607034FF002090693CDE90764C0
:101D3000099402F0C3F9042206A94FF490134FF05E
:101D40009040CDE90623CDF8209002F0B7F906A91E
:101D500008234FF090400693CDE90764099402F000
:101D6000ADF906A941F6101203234FF09040CDE9DA
:101D70000623089402F0A2F906A920224FF4881342
:101D80004FF09040CDE90623CDF8209002F096F96F
:101D900040F6CF4206A928460323CDE9062308943E
:101DA00002F08CF906A928464FF480530693CDE93A
:101DB0000764099402F082F906A9404604230693B9
:101DC000CDE90844079602F079F928464FF44C72A1
:101DD000002306A9CDE90623089402F06FF9032336
:101DE000082206A90B480894CDE9062302F066F9FB
:101DF00022462146172002F0AFF8172002F0EAF839
:101E00000DB0BDE8F08300BF00100240000800489C
:101E100000040048001C0048000C0048202800D0A6
:101E20007047054B1A78022A04D01A78032AF7D192
:101E30009B6A18475B6A1847C0060020704700BFBE
:101E4000704700BF2DE9F84F6E4B98422DED028B85
:101E500017D06D4B98421BD06C4B984203D0BDEC11
:101E6000028BBDE8F88F6A4A6A4913680968013332
:101E70008B421360F3D9BDEC028BBDE8F84FFEF73F
:101E8000FBBFBDEC028B0520BDE8F84F22F03EBF42
:101E900004214FF0904002F0F9F901285E4C00F067
:101EA0009780236833B15D4B5D4900220120226099
:101EB0001A6008605B485C4C5C4DDFF894A1DFF869
:101EC00094B101F099FF1421564801F001FC5548E6
:101ED00001F058FC03465348236001F08DFF1421A4
:101EE000504801F0F5FB4F4801F04CFC03464D48CB
:101EF0002B6001F0FBFF4E4B94ED007AD3ED007A9E
:101F0000B8EEC77AF8EEE77AB7EE008AC7EE276A2E
:101F100076EEC87A17EE900AFEF7D0FA454B95EDAB
:101F2000007AD3ED007AB8EEC77AF8EEE77A044685
:101F3000C7EE276A0D4676EEC87A17EE900AFEF7CE
:101F4000BDFA02460B4606460F46FEF70FFB3A4B1C
:101F50000022FEF70BFB02460B4600203749FEF736
:101F60004DF941EC100B30F0E7FB22462B462046A2
:101F7000294659EC108BFEF7F9FA2F4B0022FEF799
:101F8000F5FA02460B4600202C49FEF737F941ECE2
:101F9000100B30F0D1FB42464B462046294655EC0B
:101FA000104BFEF7E3FAFEF791FD22462B46CAF8E6
:101FB000000039463046FEF7D9FAFEF787FDBDEC42
:101FC000028B1F4BCBF8000001221A60BDE8F88F8E
:101FD0002060FEF749FF0E491A4A1B4B0968126838
:101FE0001B680C480A440B440260184922680B60C5
:101FF000002A3FF45FAF094B1A68002A3FF45AAF3A
:1020000052E700BFEC05002054050020A005002089
:10201000B4010020B0010020CC010020D00100203C
:10202000BC010020480100202004002024040020DE
:1020300014000020180000200000E03F0000F03FE6
:10204000F40100200800002004000020AC01002062
:10205000C4010020C80100202DE9F843002006F04B
:102060003FF8334BDFF8E090DFF8E080314C324F3F
:10207000324E334D024600201A6006F031F800203F
:1020800006F02EF803460020C9F8003006F028F8C4
:1020900003460020C8F8003006F022F838602046D9
:1020A00025F0F6FA2046052125F0D6FD2046FF2131
:1020B00025F024FD4FF6FF712046318025F014FDF8
:1020C00000222146D9F800001E4C0AF05BFF28468A
:1020D00025F0DEFA2846052125F0BEFD2846FF2121
:1020E00025F00CFD40F2FF712846318025F0FCFC04
:1020F00000222946D8F800000AF044FF204625F0C7
:10210000C7FA2046052125F0A7FD2046FF2125F02E
:10211000F5FC47F6FF3319462046338025F0E4FCF2
:10212000386821460022BDE8F8430AF02BBF00BF03
:102130001C030020FC02002010030020B801002036
:102140000803002014030020F802002004030020EC
:1021500038B57B4C7B4D20682CF06CF90121286050
:102160002CF07AFA286804212CF042FA2868F02131
:1021700006F0BAFD2868142106F0D0FD28687249DF
:102180002CF0ECF900231A462868704D012106F066
:102190004DFE20682CF04EF9012128602CF05CFAED
:1021A000286804212CF024FA2868F02106F09CFD10
:1021B0002868142106F0B2FD654B28681A68654945
:1021C0002CF0CCF9142300222868634D012106F07D
:1021D0002DFE20682CF02EF9012128602CF03CFA0D
:1021E000286804212CF004FA2868F02106F07CFD10
:1021F0002868142106F092FD584B28681A6858493F
:102200002CF0ACF9282300222868564D012106F055
:102210000DFE20682CF00EF9012128602CF01CFA2C
:10222000286804212CF0E4F92868F02106F05CFD10
:102230002868142106F072FD4B4B28681A684B4938
:102240002CF08CF900223C232868494D012106F02E
:10225000EDFD20682CF0EEF8012128602CF0FCF94F
:10226000286804212CF0C4F92868F02106F03CFD10
:102270002868142106F052FD3E4B1868FEF71EF93F
:1022800002460B4628683C492CF068F9002250238E
:1022900028683A4D012106F0C9FD20682CF0CAF8E3
:1022A000012128602CF0D8F9286804212CF0A0F92D
:1022B0002868F02106F018FD2868142106F02EFD8C
:1022C0002F4B1868FEF7FAF802460B4628682D498E
:1022D0002CF044F96423002228682B4D012106F0DC
:1022E000A5FD20682CF0A6F8012128602CF0B4F997
:1022F000286804212CF07CF92868F02106F0F4FC11
:102300002868142106F00AFD204B28681A68204925
:102310002CF024F900231A4628681E4D042106F0EB
:1023200085FD20682CF04AFD1B49286002222CF014
:1023300051FD28680022BDE8384005210BF0C2BDE0
:10234000F8020020D401002084290308D8010020CD
:10235000C00100209C290308DC010020200400208B
:10236000B0290308E001002024040020C02903084C
:10237000E4010020C4010020D0290308E801002066
:10238000C8010020E4290308EC010020B40100206A
:10239000F8290308F00100200C00002000000000D4
:1023A00010B598B04422002106A830F07DF9002332
:1023B0004FF40070CDE90133CDE90333059301F00B
:1023C0008DFF08B172B6FEE702239FED137B012259
:1023D0001093169303241423CDE91142139307227B
:1023E000022306A8CDE914238DED067B02F092F8B6
:1023F000034608B172B6FEE704210F220DEB01007F
:10240000CDE90124CDE90333059302F093FB08B134
:1024100072B6FEE718B010BD010000000000010018
:10242000F0B5254E254D264F264C83B0304603F09F
:10243000BDFC284603F0BAFC384603F0B7FC204642
:102440000122072101F028FF1F4B20499A6D42F01D
:1024500080529A659B6D03F080530193019B1F236B
:102460008B614FF48040022101F028FF01F022F837
:10247000FFF796FF1648FFF78DFBFEF7F5FC384691
:1024800003F066FC304603F063FC284603F060FC72
:102490001049114A114B096812681B681048114D08
:1024A0000A440B4402600721002220462B6003B03F
:1024B000BDE8F04001F0F0BEEC050020540500201E
:1024C000A0050020000800480010024000700040F5
:1024D00048010020B4010020080000200400002072
:1024E000B0010020AC0100202DE9F84F2DED048B48
:1024F00000F0E0FFFFF754FFFFF7B4FB00F0D8FB5C
:1025000000F07EF900F0A4F900F0C8F9FFF7EEFA48
:1025100000F0D8FA00F010FB00F038FB4FF47A70AE
:1025200000F0EAFF89480022072101F0B5FE884B40
:10253000002403F8014F0134B4F5807FF9D1854DB3
:10254000DFF8ACB2844E9FED858ADFED859A9FED72
:10255000859ADFED858ADFF89CA2DFF89C82834FA5
:10256000FFF784FA2946234600228148FFF7C0F985
:10257000804A2B6813608048804D03F0E9FB804857
:1025800003F0E6FB05F080FD04F060FAFFF764FD60
:10259000FFF7DEFDDBF8000004F090FADBF8000046
:1025A0002BF048FF012104462CF056F8204600216C
:1025B0002CF01EF82046F02106F096FB20467149CB
:1025C0002BF0CCFF002309211A46204606F02EFCF2
:1025D00025F068FB642000F08FFF00F075FE6A4B69
:1025E0001B78052B0CBF6949694920462BF0B6FFC3
:1025F00025F058FB642000F07FFF664C664B226894
:102600001B686649664813440B60664B1B6813449D
:10261000336003F09DFB10E0D8F80020002A39D188
:102620002268614938682BF099FF326823689A4222
:1026300001D2FFF7F5FE25F035FB042000F05CFF2A
:102640002B68002BE8D04FF00009C5F8009022F06D
:1026500007FB04F01FFADBF8003083426DD0DAF894
:1026600000308342DCD1434B50491A680868504916
:1026700001321A602BF072FF49463D48FFF766F9B8
:102680003C4B4C491B680B604A4604233848FFF713
:102690009BF9C5E7C8F8003022F0E2FA04F0FAF935
:1026A000DAF800308342BBD1434B44491A68444BAB
:1026B00018682BF053FF434B43491A68434B186883
:1026C0002BF04CFF424B4348D3ED007A424900685F
:1026D00067EE887AFDEEE77A17EE902A2BF03EFF40
:1026E0003E4A3F48D2ED007A3E49006867EE887A5C
:1026F000FDEEE77A17EE902A2BF030FF344B374A85
:10270000D3ED007AD2ED006A3749384BB0EE697AE2
:10271000A7EE887A1868F0EE687AE6EE897ABDEE60
:10272000C77AFDEEE77A17EE102A8A8017EE902A14
:10273000CA8002222CF04EFB72E7DAF8000004F0A7
:10274000BDF9DBF800000BF0A9FC69E700080048C0
:102750001F030020F8010020AC0100200000C84247
:102760000000F0420000C8C200004843EC01002015
:1027700034010020C0010020EC050020BC01002035
:10278000540500200C2A0308C00600202C2A030848
:10279000982A0308B401002008000020B00100209E
:1027A000A005002004000020F8290308D80100201B
:1027B0009C2903082003002020040020B0290308DE
:1027C000DC01002024040020C0290308E0010020CF
:1027D000C4010020E4010020C02A0308C801002031
:1027E000E8010020D42A03080C000020F00100209A
:1027F0001C030020F8020020F401002072B6FEE75E
:1028000010B51148114C4FF482720023C0E9004208
:102810004FF4E0614FF40072C0E902312824826174
:1028200007210822C0E90433C0E90743C0E909339E
:10283000C0E90B13426302F061FD00B910BDBDE8B1
:102840001040FFF7DBBF00BF28040020003001402C
:10285000104811494FF4827210B5C0E900124FF4CC
:10286000007200234FF4E064072182610822C0E96E
:102870000234C0E90433C0E90733C0E90933C0E9D1
:102880000B13426302F03AFD00B910BDBDE81040E1
:10289000FFF7B4BF8C0400200038004010B5114889
:1028A000114C4FF48272C0E900424FF400414FF4E2
:1028B000E0620023C0E902124FF4802407210822BD
:1028C000C0E90433C0E90643C0E90833C0E90A316E
:1028D000C0E90C3202F012FD00B910BDBDE8104095
:1028E000FFF78CBFF0040020003C004070B5036887
:1028F000464A8EB000249342CDE90844CDE90A440B
:102900000C9407D0424A934226D0424A934245D083
:102910000EB070BD404B1A6E42F480521A661A6EA9
:1029200002F480520192019ADA6C42F00102DA64F8
:10293000DB6C03F00103029303220523C22402256A
:1029400008A94FF09040CDE90845CDE90B23029C42
:1029500001F0B4FB0EB070BD2F4B30489A6D42F4BD
:1029600080429A659A6D02F480420392039ADA6C6F
:1029700042F00202DA64DB6C03F0020304930322E8
:1029800005234FF46044022508A9CDE90845CDE9A7
:102990000B23049C01F092FB0EB070BD1E4B9A6D90
:1029A00042F400429A659A6D02F400420592059A3B
:1029B000DA6C42F00102DA64DA6C02F0010206928B
:1029C000069ADA6C42F00402DA64DB6C03F004036A
:1029D00007934FF400420326062508A902234FF06F
:1029E0009040CDE90823CDE90B65079B01F066FB1C
:1029F0004FF4A05308930A480C95022308A9CDE987
:102A00000A46099301F05AFB0EB070BD0030014038
:102A100000380040003C0040001002400004004824
:102A2000000800480A4B1A6E42F001021A661A6E3C
:102A300082B002F001020092009A9A6D42F0805238
:102A40009A659B6D03F080530193019B02B0704720
:102A500000100240FEE700BFFEE700BFFEE700BF38
:102A6000FEE700BFFEE700BF704700BF704700BF32
:102A7000704700BF00F02EBD202001F013BC00BF46
:102A8000014803F063BA00BF54050020014803F079
:102A90005DBA00BFA0050020014803F04FBB00BF96
:102AA00038060020014803F051BA00BFEC050020B1
:102AB000034AD2F8883043F47003C2F88830704774
:102AC00000ED00E000B51A484FF0804202604F224E
:102AD00089B04260174A0023CDE90433CDE90633BB
:102AE000CDE90133C0E9023203930361836103F04E
:102AF000B7F890B94FF480530D48049304A903F03C
:102B00006DF990B900230A48019301A9039303F0DA
:102B1000C7FA28B909B05DF804FBFFF76FFEE9E7D3
:102B2000FFF76CFE09B05DF804FBFFF767FEE9E70D
:102B3000A00500203F420F0000B51248124985B0A1
:102B40004F220023C0E9001241F28732CDE9013360
:102B5000C0E902320393836103F082F850B9002385
:102B60000848019301A9039303F09AFA28B905B024
:102B70005DF804FBFFF742FEF1E7FFF73FFE05B00B
:102B80005DF804FBEC0500200014004000B51B4874
:102B90001B4A026089B04F22002342604CF24F3240
:102BA000CDE90433CDE90633CDE90133C0E9023282
:102BB000C0E904330393836103F052F890B94FF4F2
:102BC00080530E48049304A903F008F990B9002338
:102BD0000A48019301A9039303F062FA28B909B0E6
:102BE0005DF804FBFFF70AFEE9E7FFF707FE09B00F
:102BF0005DF804FBFFF702FEE9E700BF5405002083
:102C00000040014000B50368B3F1804F85B008D0A3
:102C1000244A93421BD0244A93422DD005B05DF83C
:102C200004FB03F504330022996D41F0010199651D
:102C30009B6D03F0010301931C201146019B01F0E1
:102C40008BF91C2005B05DF804EB01F0C3B9174BFC
:102C5000996D41F0200199659B6D002203F02003DE
:102C6000029337201146029B01F076F9372005B018
:102C70005DF804EB01F0AEB90C4B196E41F48031F4
:102C800019661B6E002203F480330393182011464B
:102C9000039B01F061F9182005B05DF804EB01F029
:102CA00099B900BF001400400040014000100240EC
:102CB00010B50C480C4C00234FF4E1310C22C0E954
:102CC0000041C0E90233C0E90432C0E90633C0E97B
:102CD000083303F041FD00B910BDBDE81040FFF717
:102CE0008DBD00BF38060020003801400000000004
:102CF00010B504469EB000215C2207A8CDE9021160
:102D0000CDE9041106912FF0CFFC214B22689A42A5
:102D100001D01EB010BD012307A8079302F074F87C
:102D200058BB1C4B1A6E42F480421A661A6E02F4AB
:102D300080420092009ADA6C9FED117B42F0010212
:102D4000DA64DB6C8DED027B9FED0F7B03F00103FA
:102D5000019302A907234FF090408DED047B069369
:102D6000019A01F0ABF900221146252001F0F4F898
:102D7000252001F02FF91EB010BDFFF73FFDD0E771
:102D80000006000002000000000000000300000038
:102D900000380140001002402DE9F04393B048F69E
:102DA0008103044600224FF090400D461021ADF8FB
:102DB000443001F071FA3223022211A9204602F0B8
:102DC00019FB012210214FF0904001F065FA002319
:102DD0000E930E9BB3F57A7F06D20E9B01330E93B2
:102DE0000E9BB3F57A7FF8D3142000F085FB812287
:102DF0002B788DF84420102100224FF090408DF860
:102E0000453001F049FA3223022211A9204602F08E
:102E1000F1FA0122102106464FF0904001F03CFAF1
:102E200000230D930D9BB3F57A7F06D20D9B0133E2
:102E30000D930D9BB3F57A7FF8D3D5ED017ADFEDD5
:102E4000BA6AB8EE677A0022C7EE267A10214FF0F0
:102E50009040FCEEE77A17EE908A4FEA18438DF81F
:102E6000413086238DF8403001F016FA32230222D9
:102E700010A9204602F0BEFA0122814610214FF02F
:102E8000904001F009FA00231193119BB3F57A7F6A
:102E9000C8F307275FFA88F806D2119B0133119314
:102EA000119BB3F57A7FF8D38723002210214FF0CE
:102EB00090408DF83D708DF83C3001F0EDF93223F3
:102EC00002220FA9204602F095FA0122074610219E
:102ED0004FF0904001F0E0F900231093109BB3F500
:102EE0007A7F06D2109B01331093109BB3F57A7F43
:102EF000F8D38823002210214FF090408DF83180C4
:102F00008DF8303001F0C8F9322302220CA9204696
:102F100002F070FA0122804610214FF0904001F03B
:102F2000BBF900230F930F9B46EA0906B3F57A7F9E
:102F3000F6B206D20F9B01330F930F9BB3F57A7F46
:102F4000F8D36B7C8DF82D300022892310214FF0AF
:102F500090408DF82C3001F09FF9322302220BA90A
:102F6000204602F047FA37430122064610214FF06F
:102F7000904001F091F900230C930C9B48EA07075D
:102F8000B3F57A7FFFB206D20C9B01330C930C9BF6
:102F9000B3F57A7FF8D3AB7C8DF8293000228B23F0
:102FA00010214FF090408DF8283001F075F9322350
:102FB00002220AA9204602F01DFA3E4301220746DA
:102FC00010214FF0904001F067F900230B930B9B09
:102FD000B3F57A7FF6B206D20B9B01330B930B9BB2
:102FE000B3F57A7FF8D3EB7C8DF8253000228C2363
:102FF00010214FF090408DF8243001F04DF932232C
:10300000022209A9204602F0F5F9374301220646BB
:1030100010214FF0904001F03FF900230A930A9BE2
:10302000B3F57A7FFFB206D20A9B01330A930A9B5B
:10303000B3F57A7FF8D32B7D8DF8213000229D23C4
:1030400010214FF090408DF8203001F025F9322307
:10305000022208A9204602F0CDF93E43012207468C
:1030600010214FF0904001F017F900230993099BBC
:10307000B3F57A7FF6B206D2099B01330993099B17
:10308000B3F57A7FF8D36B7D8DF81D3000229E2337
:1030900010214FF090408DF81C3001F0FDF83223E4
:1030A000022207A9204602F0A5F93743012206466D
:1030B00010214FF0904001F0EFF800230893089B97
:1030C000B3F57A7FFFB206D2089B01330893089BC1
:1030D000B3F57A7FF8D3AB7D8DF8193000229F23AA
:1030E00010214FF090408DF8183001F0D5F83223C0
:1030F000022206A9204602F07DF93E43012207463E
:1031000010214FF0904001F0C7F800230793079B70
:10311000B3F57A7FF6B209D2079B01330793079B79
:10312000B3F57A7FF8D301E02F5D4642EB891B0AA5
:103130008DF815300022A02310214FF090408DF81B
:10314000143001F0A9F83223022205A9204602F02A
:1031500051F937430122064610214FF0904001F00B
:103160009BF800230693069BB3F57A7FFFB206D245
:10317000069B01330693069BB3F57A7FF8D3AB7BAE
:103180008DF811300022A12310214FF090408DF8CE
:10319000103001F081F83223022204A9204602F007
:1031A00029F93E430122074610214FF0904001F0DB
:1031B00073F800230593059BB3F57A7FF6B206D228
:1031C000059B01330593059BB3F57A7FF8D3EB7D1F
:1031D0008DF80D300022C02310214FF090408DF863
:1031E0000C3001F059F83223022203A9204602F0E4
:1031F00001F937430122064610214FF0904001F0BB
:103200004BF800230493049BB3F57A7FFFB206D2F8
:10321000049B01330493049BB3F57A7FF8D3C12157
:103220002B7E8DF80810002210214FF090408DF871
:10323000093001F031F83223022202A9204602F0BF
:10324000D9F80122102105464FF0904001F024F8F2
:1032500000230393039B3E43B3F57A7FF6B206D275
:10326000039B01330393039BB3F57A7FF8D348F6AE
:103270008113002210214FF09040ADF8043001F08E
:103280000BF83223022201A9204602F0B3F80122F2
:1032900010214FF0904000F0FFFF00230293029BAB
:1032A0003543B3F57A7FEDB206D2029B0133029328
:1032B000029BB3F57A7FF8D3142000F01DF928465D
:1032C00013B0BDE8F08300BFF0B54A494A4C4B4A01
:1032D0004B4BA3628DB00025C4E908124FF090401B
:1032E0002A460821CDE90655CDE90855CDE90A550C
:1032F000059500F0D1FF0295029B424A934205D208
:10330000029B01330293029B9342F9D301220821CD
:103310004FF0904000F0C0FF00230393039B394A15
:10332000934205D2039B01330393039B9342F9D34A
:10333000354A099288238DF814304CF2927249F282
:10334000C003ADF82820ADF81C30304906910222A8
:103350000C23ADF822308DF81E20FF230DF1140C44
:103360008DF82A30BCE80F00294D276A0FC59CE86C
:103370000700012685E80700002210214FF0904049
:103380008DF8076000F088FF322332460DF1070107
:10339000384602F02FF8322332460DF10601384646
:1033A00002F0E0FA324610214FF0904000F074FF36
:1033B00000230493049BB3F57A7F06D2049B013368
:1033C0000493049BB3F57A7FF8D39DF8063003F09D
:1033D0007803082B0CBF00230523237023780BB13F
:1033E0000DB0F0BD0A49206A0DB0BDE8F040FFF70E
:1033F000D3BC00BF28040020C00600203D1E0008EA
:10340000411E000800127A0004FF0B238050DE19D1
:10341000C4060020DFF834D0FFF74AFB0C480D4902
:103420000D4A002302E0D458C4500433C4188C421F
:10343000F9D30A4A0A4C002301E013600432A24285
:10344000FBD32FF03FF9FFF74FF8FEE70000012014
:103450000000002018010020247B03081801002030
:10346000E0AA0020FEE7000038B50F4B1B780BB92F
:10347000012038BD0D494FF47A720546B2FBF3F3D3
:103480000868B0FBF3F000F0B3FD04460028EFD16C
:103490000F2DEDD8024629464FF0FF3000F05CFDBD
:1034A000034B20461D6038BD200000201C0000207A
:1034B0002400002010B5032000F03CFD0F20FFF792
:1034C000D3FF10B10124204610BD0446FFF7AAFA2D
:1034D000204610BD034A044B11681B780B4413604F
:1034E000704700BFEC06002020000020014B186848
:1034F000704700BFEC06002038B50446FFF7F6FF22
:10350000631C054602D0044B1B781C44FFF7EEFFFA
:10351000431BA342FAD338BD2000002030B583B04E
:1035200000230193002800F0B480456D0446002D6F
:1035300000F09C80226893689D0005D5936823F075
:10354000204323F03F0393609368D80019D45B4B6A
:103550005B481B6891689B09A0FB030321F01041A5
:103560009B0921F03F0101335B0041F080519160E4
:103570000193019B2BB1019B013B0193019B002B0C
:10358000F9D19368D90063D4636D43F01003636588
:10359000A36D01200343A365936813F0040F636DCB
:1035A0005DD1DB065BD4636D23F4817343F00203CA
:1035B00063659368DD070AD4424B9B68D90706D43C
:1035C000414965688B6823F47C132B438B60E56865
:1035D000636B94F820102B43A5682B43657E01296B
:1035E00043EA453343EA01434ED0A16A21B1E56A7B
:1035F00001F4707129430B43D568344929401943BC
:10360000D16093681B0714D4D16894F83030257EBC
:1036100021F480415B0021F0020143EA85330B4332
:10362000D36094F83830012B36D0136923F00103AE
:1036300013612369012B1FD0136B23F00F03136356
:10364000636D23F0030343F00103636503B030BDF2
:10365000936813F0040F4FF00000636DA1D0636D09
:10366000012043F01003636503B030BDFEF792FA0A
:10367000A56584F850505DE7116BE36921F00F01F7
:10368000013B0B431363DBE7616A013943EA4143C2
:10369000ABE7012003B030BD1169E36B256C21F469
:1036A000FF6121F004012B430B43616C0B43A16CC0
:1036B0000B4343F001031361BBE700BF1C00002074
:1036C000632D3E05000004500003045007C0F0FFC6
:1036D000F8B54469082C05460E4604D00368DB683B
:1036E000DC0748D40424FFF701FF2A680746701C52
:1036F00024D113681C42FCD06B6D43F400736B65DE
:10370000D36813F4406F0FD16B7E6BB91368190740
:103710000AD56B6D23F480736B656B6DDB0403D48A
:103720006B6D43F001036B65082CD06820D010F45A
:10373000804006BF0C2313600020F8BD13682342AD
:10374000DAD1FFF7D3FEC01BB0422A680AD913684A
:103750002340CCD16A6D85F8503042F004026A658E
:103760000320F8BD002EC2D113682340BFD1F1E77A
:1037700014600020F8BD436D43F0200301206B6509
:10378000F8BD00BF0368186C704700BFF0B590F833
:10379000502083B00346012A4FF00000019000F052
:1037A0003A811C68012083F85000A26812F0040CD2
:1037B00058D14868052840F2958000F01F054FF069
:1037C0001F0E82090EFA05FE02F00C0C6FEA0E0EB7
:1037D0000A6804F13000C2F38462AA4050F80C5029
:1037E00005EA0E0E42EA0E0240F80C20A2685507C8
:1037F00046D5A2680D68A268D0072E4613D4CF68BC
:10380000AF4AD4F8B00007F0180C22FA0CF2C5F356
:10381000120C2A4020EA0C000243C4F8B020A94A46
:10382000974200F0A780A84A164227D0A74AA84985
:1038300090688E4200F0E0751DD0A6498E4200F0DF
:10384000ED80A5498E4219D110F4800016D1A3490C
:103850008C4213D1916821F0E071294341F4800139
:10386000916003E05A6D42F020025A65002283F80D
:10387000502003B0F0BD010240F1F1800020F5E7D7
:10388000A268120765D408688A68C50D05F00405AA
:1038900004F11406C0F3045002FA00F74FF0070CCD
:1038A00072590CFA00F022EA00023A437251D1E94F
:1038B0000456042DE2681CD004F16000C2F3C1027A
:1038C000520050F825C0864F96400A680CEA070758
:1038D00002F0F8423A43324342F0004240F82520D9
:1038E0000D6888E70238032835D96FF4F86E06258D
:1038F0006EE70D68226E226EC5F31200C2F3846279
:10390000002840F0F580C5F38460824200F06981B0
:10391000626E666E04F16002C6F3846604F16407A9
:10392000864200F04C819668966802F10807C6F35B
:103930008466864200F03181D668D66802F10C07B1
:10394000C6F3846290427FF456AF3A6822F0004298
:103950003A600D684FE7634A52F820504FF01F0E4F
:10396000AA0905F01F050EFA05FE02F00C0C6FEA1D
:103970000E0E2DE7BCF1000F61D095FAA5F2002ADA
:1039800000F0E780B2FA82F2013202F01F02092A47
:1039900040F2DF8095FAA5F0002800F03E81B0FAF1
:1039A00080F00130800600F0F84095FAA5F2002A78
:1039B00000F03881B2FA82F2013202F01F020126D1
:1039C00006FA02F2104395FAA5F5002D00F02881C1
:1039D000B5FA85F5013505F01F0503226FF01D06C8
:1039E00012FB0562120542F000720243D60D886890
:1039F00006F0040604F11405C2F3045200FA02F7BB
:103A00004FF0070CA8590CFA02F220EA02023A43DE
:103A1000AA510E6807E7022003B0F0BD10F08070D5
:103A20007FF42CAFA1F1F7418C427FF427AF91686E
:103A300021F0E071294341F08071916016E7AA0EF0
:103A4000013202F01F05092D2BD890060122AA4051
:103A500000F0F840104305EB45021205C5E71F4989
:103A60008C427FF40BAF91681F4821F0E07129432D
:103A700041F40001916002681C499209A1FB021205
:103A80009209013202EB420292000192019A002A4D
:103A90003FF4F4AE019A013A0192019A002AF9D159
:103AA000ECE6900605EB45021E3A012600F0F840D0
:103AB000120506FA05F542F00072284395E700BFAB
:103AC000FFFF070000007F40000008800003045053
:103AD000000052C7000084CB0100008000000450A9
:103AE00000F0FF03302B03081C000020632D3E056F
:103AF00095FAA5F018B1B0FA80F0824271D0626EEA
:103B0000666E04F16002C6F3846604F1640795FAF8
:103B1000A5F018B1B0FA80F0864250D0906896684F
:103B200002F10807C6F3846695FAA5F018B1B0FA59
:103B300080F0864231D0D068D06802F10C07C0F323
:103B4000846295FAA5F000283FF455AEB0FA80F0F3
:103B5000F8E695FAA5F0002859D0B0FA80F00130C7
:103B6000800600F0F84095FAA5F2002A4DD0B2FA8E
:103B700082F2013202F01F02012606FA02F210431D
:103B800095FAA5F5002D45D0B5FA85F2013202F07F
:103B90001F0202EB4202120527E7386820F00040BE
:103BA00038600D68D06802F10C07D268C5F31200C6
:103BB000C2F384620028C4D1C5F38460C2E63868C9
:103BC00020F0004038600D6890689668C5F31200D8
:103BD00002F10807C6F384660028A5D1C5F3846006
:103BE000A7E6206E224620F0004042F8600F0D68E4
:103BF000606E666EC5F3120004F16407C6F3846656
:103C0000002884D1C5F384608AE60222B7E74FF02A
:103C10008060A8E74FF44012E7E64FF08060C4E60A
:103C2000014AE2E60222CDE6000050FE03689A68EF
:103C3000520770B5044636D59A68DA68960104D5FD
:103C4000208B40F20112904232D002299A680ED0A5
:103C5000560702D59A68900756D501293AD09A6836
:103C6000120739D4032914BF04250C2502E01207DA
:103C70003ED40825FFF73AFC236806469B681D42A0
:103C800014D0FFF733FC831B052B2368F6D99A6801
:103C90002A42F3D0636D43F010036365A36D0120E6
:103CA0000343A36570BD9A681007C6D4002070BD99
:103CB0001A68550606D41E4A01E0013AEAD019688E
:103CC0004806FAD540221A609A68510702D59A68C8
:103CD000950722D50425CDE79A689607C2D49A683D
:103CE00022F0004222F03F0242F020029A60B9E73F
:103CF0009A689207BDD49A6822F0004222F03F02EF
:103D000042F020029A60B4E79A6822F0004222F062
:103D10003F0242F010029A609FE79A6822F0004248
:103D200022F03F0242F0100204259A60A2E700BF91
:103D3000000040A370B582B00022036801929A6827
:103D4000D2072CD49968274A114204462AD19A688E
:103D5000254922F0004222F03F0242F001029A601F
:103D60008B681B0228D4FFF7C1FB23681A68D607AB
:103D7000054614D41D4E9A68D00704D49A68324080
:103D800042F001029A60FFF7B1FB431B022B23684C
:103D900002D91A68D10705D51A68D207EBD50020D9
:103DA00002B070BD636D43F010036365A36D012025
:103DB0000343A36502B070BD0D4B0E4A1B689B09FF
:103DC000A2FB03239B09013303EB43039B000193F5
:103DD000019B002BC7D0019B013B0193019B002B52
:103DE000F9D1C0E73F00008000030450C0FFFF7F0F
:103DF0001C000020632D3E0538B503689D6815F052
:103E0000040533D190F85030012B04462ED0012305
:103E100080F85030FFF78EFF50BB636D23F4706362
:103E200023F0010343F480736365636DDA0448BFD4
:103E3000A36D226852BFA06523F00603A3651C2171
:103E40000023116084F85030D3689B0105D5636D61
:103E500023F4405343F480536365936823F0004395
:103E600023F03F0343F00403936038BD022038BDC4
:103E700084F8505038BD00BF38B503689A6895077C
:103E800002D59B68002038BD9A68D4072BD59A6864
:103E900002F00D02012A044608D0636D43F01003BE
:103EA0006365A36D01200343A36538BD9A6822F0C2
:103EB000004222F03F02032142F002029A601960A0
:103EC000FFF714FB23689B68D90705460BD5FFF75E
:103ED0000DFB401B0228236802D99A68D207DCD464
:103EE0009B68DB07F3D4002038BD00BF90F850304A
:103EF000012B1DD0012310B5032180F8503004465A
:103F0000FFF794FE18B1002384F8503010BD20460E
:103F1000FFF7B2FF0028F6D1636D23F4885323F036
:103F2000010343F001036365002384F8503010BDA2
:103F3000022070470749CA6803024FF6FF0003F4E6
:103F4000E0630240134343F0BF6343F40033CB60AC
:103F5000704700BF00ED00E01C4BDB68C3F3022399
:103F600000B5C3F1070EBEF1040F03F1040C28BF26
:103F70004FF0040EBCF1060F1BD9033B4FF0FF3C82
:103F80000CFA03FC22EA0C024FF0FF3C0CFA0EFC88
:103F900021EA0C019940002841EA02010CDB00F102
:103FA0006040090100F56140C9B280F800135DF876
:103FB00004FB00221346E7E7054B00F00F00090160
:103FC0000344C9B219765DF804FB00BF00ED00E0C0
:103FD000FCEC00E0002807DB044A4109012300F063
:103FE0001F00834042F82130704700BF00E100E02D
:103FF0000138B0F1807F10D210B44FF0E023084CAC
:1040000058614FF0F00C84F823C0002207211046BD
:104010009A615DF8044B196170470120704700BF39
:1040200000ED00E090F82520022A034606D0042285
:10403000C2630022012083F8242070470168426C8B
:10404000086820F00E000860086820F00100086091
:104050004FF0010C196C02F01C020CFA02F24A60DB
:104060000022002083F825C083F82420704700BF79
:1040700090F82520022A03D00422C2630120704751
:104080000168426C10B50C6824F00E040C600C68DA
:1040900024F001040C6002F01C02046C012101FAFE
:1040A00002F26260826B80F82510002480F82440C0
:1040B00012B19047204610BD104610BD2DE9F04FBB
:1040C0000C6885B0002C77D04FF0000C694E634629
:1040D0004FF0010B8E460BFA03F717EA040A65D07E
:1040E000DEF8041001F00302551E012D67D9032AE2
:1040F00040F0AB8002FA0CF2D54307683D402A43FA
:1041000011F4403F026051D05B4D2A6E42F0010233
:104110002A662A6E02F001020392039A23F0030238
:1041200002F1804202F5803203F003054FEA85096F
:1041300097680F2505FA09F8B0F1904F27EA0807AC
:1041400015D04E4DA84200F08B804D4DA84200F096
:104150008B804C4DA8427DD04B4DA84213BF072504
:104160004FF0040808FA09F505FA09F52F4397609E
:10417000B2686FEA0A05CF0254BF2A404AEA020237
:10418000B260F2688F0254BF2A404AEA0202F2602B
:1041900072688F0354BF2A404AEA02027260326892
:1041A000C90354BF2A404AEA02023260013334FA9A
:1041B00003F20CF1020C8ED105B0BDE8F08FD0F8FF
:1041C0000890DEF80C504FF0030808FA0CF829EAC2
:1041D000080905FA0CF545EA090585606FEA080546
:1041E000D0F8048028EA0708C1F300179F4047EA87
:1041F00008074760C76807EA0508DEF8087007FA8D
:104200000CF747EA0807022AC76002FA0CF27FF4AB
:1042100074AF4FEAD30900EB890903F00708D9F816
:1042200020700097DEF810704FEA880807FA08F748
:1042300001970F2707FA08F8009F27EA0808019F4F
:1042400047EA0807C9F8207057E7032505FA0CF577
:10425000ED43CFE74FF0030808FA09F52F4386E74F
:104260000BFA09F52F4382E74FF0020808FA09F527
:104270002F437CE700040140001002400004004886
:1042800000080048000C004800100048036919426B
:1042900014BF0120002070470AB18161704781621C
:1042A000704700BF044A5169014200D1704708B508
:1042B0005061FDF7B3FD08BD00040140B0F5804F2B
:1042C000084601D000F04CB800F066B8024B186800
:1042D00000F4C060704700BF00700040B0F5007F80
:1042E0000ED01C4A136803F4C063B3F5806F2DD061
:1042F000136823F4C06343F48063002013607047A5
:1043000014490B6803F4C063B3F5007F1ED00B683B
:10431000114A23F4C06343F400730B6013680F4A1F
:10432000322000FB03F34869A2FB03239B0C4005EA
:1043300003F1010306D500E023B14A69520503F1F8
:10434000FF33F9D4034B5B695B0501D40020704750
:1043500003207047007000401C00002083DE1B43D8
:104360000B490C4A0B6823F007030B601369012803
:1043700043F00403136108D040BF20BF20BF054AAB
:10438000136923F004031361704730BFF7E700BFE0
:104390000070004000ED00E00C490D4A0B6823F06E
:1043A000070343F001030B601369012843F0040382
:1043B000136108D040BF20BF20BF054A136923F016
:1043C00004031361704730BFF7E700BF007000407F
:1043D00000ED00E030B5204DAB6DDB0083B004464E
:1043E0001CD5FFF773FFB0F5007F29D0802C13D8C0
:1043F0002FD0A4F17004B4FA84F4640917490B684F
:1044000023F0070323430B60086800F00700001B3C
:1044100018BF012003B030BD0324EFE7AB6D43F0BC
:104420008053AB65AB6D03F080530193019BFFF7A5
:104430004DFFAB6DB0F5007F23F08053AB65D5D158
:10444000802C04D9A02C8CBF02240124D6E70024A0
:10445000D4E70224D2E700BF00100240002002404F
:10446000284A9368D26813F00C0308D00C2B38D07C
:10447000042B34D0082B244818BF00207047214A51
:104480001168090754BFD2F8942012681F4954BF1D
:10449000C2F30322C2F3031251F8220003B30C2B20
:1044A0002DD1184BDB6803F00303022B25D0164AED
:1044B000032B08BF1046134BD968DA68DB68C3F3D7
:1044C0004163C2F30622C1F30211013300FB02F281
:1044D00001315B00B2FBF1F2B2FBF3F070470C4824
:1044E000704702F00302012AC9D0064BDB6803F0D3
:1044F0000303022B4FF00000D9D10548DBE7002071
:10450000704700BF0010024000127A00002B030821
:104510000024F400002800F082822DE9F043944A40
:1045200003689568D6680446D80683B005F00C0584
:1045300006F003062ED5002D00F023810C2D00F08F
:104540001D81A3698A4F002B00F093813B6843F0E3
:1045500001033B60FEF7CAFF804606E0FEF7C6FF98
:10456000A0EB0800022800F294813B689B07F5D578
:104570003B6843F008033B603B68226A23F0F0038A
:1045800013433B607B68E26923F47F4343EA0223E1
:104590007B602368D90700F1C280990723D5042DD9
:1045A00000F057810C2D00F05181E368704E002B14
:1045B00000F0D981336843F480733360FEF796FFCF
:1045C000074605E0FEF792FFC01B022800F261815A
:1045D00033685B05F6D57368226923F0F85343EA24
:1045E000026373602368190719D56369604E002B55
:1045F00000F01881D6F8943043F00103C6F89430E7
:10460000FEF774FF074605E0FEF770FFC01B0228A7
:1046100000F23F81D6F894309A07F5D523685E07FB
:104620003FD5534B9A6DD00000F19B819A6D42F0BB
:1046300080529A659B6D03F080530193019B012684
:104640004C4F3B68D90540F1F781A368012B00F07E
:104650009C81052B00F01B82454FD7F8902022F05B
:104660000102C7F89020D7F8902022F00402C7F882
:104670009020002B40F09081FEF738FF41F28839FE
:10468000804606E0FEF732FFA0EB0800484500F246
:104690000081D7F890309807F4D4002E40F0DE81E6
:1046A0002368990618D5636A314E002B00F0A28169
:1046B000D6F8983043F00103C6F89830FEF716FF9D
:1046C000074605E0FEF712FFC01B022800F2E1805A
:1046D000D6F898309A07F5D5A36A002B00F03F81F1
:1046E000022B00F0EF800C2D00F08C80204C236812
:1046F00023F080732360FEF7F9FE054605E0FEF720
:10470000F5FE401B022800F2C480236813F00073FA
:10471000F5D1E168184A0A401846E26073E0082DB6
:1047200076D00C2D72D06368B3F5803F00F0B58071
:10473000B3F5A02F00F09E810D4F3A6822F480322D
:104740003A603A6822F480223A60002B40F0AA8056
:10475000FEF7CCFE804606E0FEF7C8FEA0EB0800A0
:10476000642800F296803B689803F5D4236814E728
:104770000010024000700040FCFFEEFE012E7FF4AE
:10478000E0AEA84B1B68990739D4A64B206A1A687B
:10479000120756BFD3F894301B681B0903F0F003CF
:1047A000984200F20F819F4B1A6842F008021A608B
:1047B0001A6822F0F00202431A605A68E16922F492
:1047C0007F4242EA01225A60002D00F04D81FFF73E
:1047D00047FE944B944A9B68C3F30313D35C934AFC
:1047E00003F01F0320FA03F31068914A1360FEF7E9
:1047F0003BFE40B92368D9077FF5CFAE8FE7A369A9
:10480000002BC2D1012003B0BDE8F083032E8AD172
:10481000844A126892037FF5C0AE6268002A7FF472
:10482000BCAEEFE7D6F8943023F00103C6F894301D
:10483000FEF75CFE074604E0FEF758FEC01B0228A8
:1048400027D8D6F894309B07F6D4E7E6022E7FF4FB
:10485000ACAE744A1268520502D5E268002AD1D083
:10486000704920694A6822F0F85242EA00624A60C0
:10487000B9E63B6823F001033B60FEF737FE804654
:104880003B689807B6D5FEF731FEA0EB080002287A
:10489000F6D9032003B0BDE8F083624A136843F4FD
:1048A00080331360FEF722FEDFF87881074604E0CC
:1048B000FEF71CFEC01B6428EBD8D8F800309B0321
:1048C000F6D553E7574EE26AF36803F003019142CD
:1048D00000F0EB800C2D95D0524D2B685E0191D4E9
:1048E0002B6823F080732B60FEF700FE064604E081
:1048F000FEF7FCFD801B0228CBD82B689801F7D46B
:10490000E9684C4BE26A206B464E0B401343D4E9F6
:104910000D1243EA012343EAC263D4E90F120138BE
:10492000490843EA00130139520843EA4153013A66
:1049300043EA4263EB602B6843F080732B60EB68C3
:1049400043F08073EB60FEF7D1FD044604E0FEF710
:10495000CDFD001B02289CD833689901F7D50020B3
:1049600051E700266CE6336823F480733360FEF76A
:10497000BDFD074604E0FEF7B9FDC01B022888D83C
:1049800033685805F7D423682DE6264AD2F89030CC
:1049900043F00103C2F89030FEF7A8FDDFF88480F1
:1049A000074641F2883905E0FEF7A0FDC01B4845E7
:1049B0003FF66FAFD8F890309B07F5D5002E3FF447
:1049C0006FAE4BE0FFF706FD00287FF41BAF154BE1
:1049D0001A6842F008021A601A68216A22F0F0028E
:1049E0000A431A605A68E16922F47F4242EA0122CE
:1049F0005A60ECE6D6F8983023F00103C6F89830F8
:104A0000FEF774FD074605E0FEF770FDC01B0228A7
:104A10003FF63FAFD6F898309B07F5D45CE601200F
:104A2000704700BF00100240E82A0308240000205D
:104A30001C0000208C809D013B6843F480733B6028
:104A4000FEF754FD80463B68DA053FF5FEADFEF704
:104A50004DFDA0EB08000228F5D91AE7344A936D02
:104A600023F0805393651BE6FFF7B4FC00283FF466
:104A7000AEAEC7E603F18043A3F53C331A6842F4B7
:104A800080221A601A6842F480321A600AE7284BC2
:104A9000D3F8902042F00402C3F89020D3F890207D
:104AA00042F00102C3F8902076E7216B03F0700218
:104AB0000139B2EB011F7FF40DAF616B03F4FE42CD
:104AC000B2EB012F7FF406AFA16B03F07842B2EB9B
:104AD000C16F7FF4FFAEE26B520803F4C001013AEC
:104AE000B1EB425F7FF4F6AE226C520803F0C06374
:104AF000013AB3EB426F7FF4EDAE33689A013FF5B4
:104B00002EAF336843F080733360F36843F08073F3
:104B1000F360FEF7EBFC044605E0FEF7E7FC001B44
:104B200002283FF6B6AE33689B01F6D517E700BF03
:104B300000100240002800F09F80534A136803F0E1
:104B400007038B422DE9F0410D4604460CD2136851
:104B500023F007030B431360136803F007038B4232
:104B600002D00120BDE8F08123689E0771D5474837
:104B7000A168826802F0F002914204D9826822F0B2
:104B8000F0020A438260DA0726D562683F4B032AA7
:104B90001B6865D0022A6CD0002A71D19B07E0D532
:104BA0003A4EB36823F003031343B360FEF79EFC51
:104BB00041F28838074604E0FEF798FCC01B4045E8
:104BC0005CD8B368626803F00C03B3EB820FF3D1D7
:104BD00023689E0706D5A1682C48826802F0F0027F
:104BE0008A4240D828490A6802F00702AA4209D935
:104BF0000A6822F007022A430A600A6802F00702E4
:104C0000AA42AED15D0706D52049E0688A6822F441
:104C1000E06202438A60180707D51C4A216993683D
:104C200023F4605343EAC1039360FFF719FC174A6A
:104C3000174C92681749C2F303120346A25C164848
:104C400002F01F02D340BDE8F04100680B60FEF7A0
:104C50000BBCD907C6D562680C4B032A1B6899D1D7
:104C600098019DD47DE7826822F0F0020A438260B9
:104C7000B8E7990394D474E701207047032071E7E3
:104C80005F057FF56EAF8BE7002002400010024009
:104C9000E82A03081C00002024000020054B064AD7
:104CA0009B680649C3F302230868D35C03F01F0323
:104CB000D840704700100240F82A03081C0000206A
:104CC000054B064A9B680649C3F3C2230868D35CB8
:104CD00003F01F03D840704700100240F82A030871
:104CE0001C000020F8B5474BDA68920704460F46CF
:104CF00007D0DA68016802F003028A424BD0012033
:104D0000F8BD0068022857D003284ED00128F6D1FC
:104D10001B689B07F4D53B496268CB6823F073039B
:104D20000343013A43EA0213CB60364D2B6823F06C
:104D300080632B60FEF7DAFB064604E0FEF7D6FB45
:104D4000831B022B3CD82B681A01F7D4002F39D1D2
:104D5000D4E902132A69DB0622F0784243EA0123F0
:104D600022F4FE4213432B61264D2B6843F08063EF
:104D70002B60FEF7BBFB064604E0FEF7B7FB831B88
:104D8000022B1DD82B681B01F7D52B69A269134391
:104D900000202B61F8BD002AB1D0DB684268C3F364
:104DA000021301339342AAD1BFE71A689503B2D424
:104DB0001B685903A3D5AEE71B685E059FD5AAE71C
:104DC0000320F8BD012F2B690DD06269A16823F083
:104DD000C063520823F4FE43013A43EA012343EA45
:104DE00042632B61C0E72269A16823F4C003520823
:104DF00023F4FE43013A43EA012343EA42532B6181
:104E0000B2E700BF001002402DE9F043036813F43D
:104E1000006783B004460CD0416CB1F5000F00F080
:104E20001281B1F5400F00F01381002900F02681B6
:104E30000127990359D5A54B9A6DD20040F1F7800F
:104E40004FF00008A24D2B6843F480732B60FEF7EF
:104E50004DFB064605E0FEF749FB831B022B00F2E3
:104E600001812B68DB05F6D5B7BB984DD5F890309E
:104E700013F4407327D0A26D9A4225D0D5F8901034
:104E8000D5F8903043F48033C5F89030D5F89030A1
:104E900023F48033C5F89030CE0721F44073C5F871
:104EA000903040F11081FEF721FB41F2883906462F
:104EB00005E0FEF71BFB801B484500F2D380D5F8C8
:104EC00090309807F5D5A36D8049D1F8902022F451
:104ED00040721343C1F89030B8F1000F04D07B4A00
:104EE000936D23F0805393652368D90708D57749DC
:104EF000206AD1F8882022F003020243C1F88820FA
:104F00009A0708D57149606AD1F8882022F00C020E
:104F10000243C1F888205E0708D56C49A06AD1F821
:104F2000882022F030020243C1F888209D0608D56F
:104F30006649E06AD1F8882022F440620243C1F851
:104F40008820980508D56149E06BD1F8882022F4C3
:104F500040220243C1F88820590508D55B49206CDE
:104F6000D1F8882022F440120243C1F888205A0662
:104F700008D55649206BD1F8882022F440520243CC
:104F8000C1F888201E0608D55049606BD1F88820EA
:104F900022F440420243C1F88820DD0508D54B4980
:104FA000A06BD1F8882022F440320243C1F8882057
:104FB00018030ED54549A06CD1F8882022F0406234
:104FC0000243B0F1006FC1F888204DD0B0F1806F7E
:104FD00064D059030ED53D49E06CD1F8882022F009
:104FE00040620243B0F1006FC1F8882041D0B0F1B7
:104FF000806F5CD05A040BD53448216DD0F88820DE
:1050000022F040520A43B1F1805FC0F888203CD0C2
:105010001B0408D52D4A616DD2F8883023F08043F7
:105020000B43C2F88830384603B0BDE8F0839A6D70
:1050300042F080529A659B6D03F080530193019B6F
:105040004FF00108FEE62148C26842F48032C26097
:105050001E48D0F8882022F440020A43C0F8882075
:105060000027E6E6032737E7CA6842F48012CA60E1
:10507000AFE7CA6842F48012CA60BBE70430FFF7AA
:1050800031FE0746E0B12368D3E60221201DFFF779
:1050900029FE23680028BBD00746B9E70121201D5F
:1050A000FFF720FE2368002893D0074691E70121EF
:1050B000201DFFF717FE236800289BD0074699E7BD
:1050C000616C2368C4E71346FEE600BF001002408F
:1050D000007000402DE9F04182B0002317460D46D4
:1050E0008DF803300646FEF701FA2F443F1AFEF70B
:1050F000FDF9314B34681B6803EB8303C3EBC30337
:105100001B0D07FB03F3804601932246691C93683D
:1051100010D113F4C06F09D0237BDBB28DF80330BC
:105120009DF80330936813F4C06FF5D1002002B0EE
:10513000BDE8F08113F4C06FF8D0237BDBB28DF8AB
:1051400003309DF80330FEF7D1F9A0EB0800B84218
:1051500009D2019B3268002B019B03F1FF3308BF8A
:1051600000270193D2E7D6E900315A68B1F5827F72
:1051700022F0E0025A6013D0B26AB2F5005F07D1A4
:105180001A6822F400521A601A6842F400521A6037
:105190000122002386F85D2086F85C300320C6E7F4
:1051A000B268B2F5004F02D0B2F5806FE4D11A6850
:1051B00022F040021A60DFE71C0000202DE9F04FCA
:1051C00085B000238DF8073001EB02090E46174623
:1051D0000546FEF78BF9DFF82081A9EB000AFEF700
:1051E00085F9D8F8003003EB8303C3EBC3031B0D31
:1051F0000AFB03F383460293701C2C6820D1A3683A
:1052000013F4C05FFBD1FEF771F9A9EB0009FEF7BB
:105210006DF9D8F80030C3F3CB3309FB03F38046B4
:105220000393711C2C681FD1A3681A06FCD43A465C
:1052300031462846FFF74EFF48BB05B0BDE8F08F6A
:10524000A36813F4C05FDED0FEF750F9A0EB0B00AB
:10525000504522D2029A029B002A03F1FF3308BF75
:105260004FF0000A0293C7E7A3681B06DFD5FEF7DD
:105270003DF9A0EB080048450FD2039A039B002A92
:1052800003F1FF3308BF4FF000090393C9E72B6E0A
:1052900043F0200303202B66CFE7D5E900315A689D
:1052A000B1F5827F22F0E0025A6019D0AA6AB2F505
:1052B000005F07D11A6822F400521A601A6842F49B
:1052C00000521A60012385F85D302B6E002243F0F6
:1052D0002003032085F85C202B6605B0BDE8F08F25
:1052E000AA68B2F5004F02D0B2F5806FDED11A681D
:1052F00022F040021A60D9E71C000020002874D078
:105300002DE9F0410446406A002855D00023C4E945
:10531000043394F85D300022A26203F0FF02002BF8
:1053200056D02168E768022384F85D300A68B7F533
:10533000E06F22F040020A6044D9B7F5706F56D191
:10534000A56A4FF0000C05F400556268A368A669D1
:1053500003F4044302F482721A43236903F0020344
:105360001343626902F001021A43636B07F470672A
:1053700003F0080343EA070EE36903F03808236AE1
:1053800003F0800706F40073134343EA08033B432A
:10539000360C2B4306F004060B6000F010004EEABA
:1053A0000603034343EA0C034B60002001232066FD
:1053B00084F85D30BDE8F0816368B3F5827FA8D0E2
:1053C000E061A6E70BD04FF4805C0025A562BCE746
:1053D000204684F85C20FDF789FA606AA1E7A56A97
:1053E0004FF4805C05F40055AFE7012070474FF0A3
:1053F000000CEAE72DE9F043044690F85C00012830
:1054000083B07AD01D46012384F85C3089469046EB
:10541000FEF76CF894F85D30012B0646DFB207D03A
:1054200002270023384684F85C3003B0BDE8F083DF
:10543000B9F1000FF5D0B8F1000FF2D0A268C4F8AE
:10544000389000230321B2F5004F84F85D10C4E9C1
:10545000133323662268A4F83E80A4F83C802364BA
:10546000A4F84430A4F8463070D0136859061046AA
:1054700003D4136843F040031360E368B3F5E06FAF
:1054800063683FD9002B00F0A480B8F1010F00F051
:10549000A080E38F9BB2BBB16B1C40F08D80936802
:1054A000990740F1AE80A36B33F8021BD160B4F8CA
:1054B0003EC0A3630CF1FF3C1FFA8CFCA4F83EC075
:1054C000E38F9BB2002BEAD1324629462046FFF7F4
:1054D00075FE08B120232366A36833B922680193BF
:1054E000D368019393680193019B236E002B98D19D
:1054F000012284F85D201F4693E70227384603B057
:10550000BDE8F083002B6ED0B8F1010F6BD0E38FB4
:105510009BB2002BD8D0681C11D02CE0E38F9BB23B
:10552000012B77D9A16B31F8023BD360E38FA163E4
:10553000023B9BB2E387E18F89B20029C4D0226885
:1055400093689907EAD4FDF7D1FFF4E7136823F0D5
:1055500040031360136843F48043136085E732F817
:10556000021BD960E38FA263023B9BB2E387E38F08
:105570009BB2002BA8D023689A68920760D5E28F6F
:1055800092B2012AA26BEAD812781A73E38FA26B47
:10559000013B01329BB2A263E387E8E7A26B32F8DA
:1055A000023BC360E38FA263013B9BB2E387E38FBF
:1055B0009BB2002B88D0206883689B07EED4FDF750
:1055C00095FF801BA842F2D3012384F85D300327A6
:1055D00027E7494631F8023BD360E38FA163013BE3
:1055E0009BB2E38755E7E38F9BB2012B1DD9494658
:1055F00031F8023BD360E38FA163023B9BB2E387A8
:1056000085E7FDF773FFE38F9BB2002B3FF45CAFA0
:10561000226844E7A36B1B781373E38FA26B013BF3
:1056200001329BB2A263E38785E799F800301373D8
:10563000A36B0133A363E38F013B9BB2E38766E770
:10564000FDF754FF801BA84291D3BDE72DE9F84335
:10565000044690F85C00089E012800F0F2801F4686
:10566000012384F85C3089469046FDF73FFF0546EC
:1056700094F85D0063680128C1B20DD0B3F5827F54
:1056800005D00220002384F85C30BDE8F883A268CE
:10569000002AF6D10429F4D1B9F1000F00F0CF802F
:1056A000B8F1000F00F0CB80002F00F0C88094F814
:1056B0005D20E168C4F84080042A1CBF052284F8FC
:1056C0005D2000222266C4E913222268A4F84670F5
:1056D000B1F5E06FE7875168A4F84470C4F83890DA
:1056E000A78756D8012F00F02A8121F480515160FC
:1056F0001168490600F1E980116841F0400111602C
:10570000002B00F0E580012F00F0E2800127E38FFD
:105710009BB22BB9B4F846309BB2002B00F08480CA
:1057200022689368990705D5E38F9BB213B1002FC8
:1057300040F0EA80936813F001031ED0B4F84610DD
:1057400089B2D1B1B4F8461089B2012940F2CE80B5
:10575000216CD06821F8020B2164B4F8461002399C
:1057600089B2A4F84610B4F8461089B201291F4640
:1057700003D8536843F480535360FDF7B7FE431BCF
:10578000B342C4D3731CC2D0012384F85D3003201C
:1057900078E721F4805151601168480603D41168FC
:1057A00041F040011160002B69D1494631F8023BBC
:1057B000D360E38FA163013B9BB2E387721C4FF080
:1057C000010728D052E0226893689B070DD5E38F2C
:1057D0009BB253B14FB1A16B31F8023BD360E38F61
:1057E000A163013B9BB20027E387936813F0010399
:1057F0000FD0B4F8461089B259B1D168226C22F8A2
:10580000021B1F46B4F846302264013B9BB2A4F849
:105810004630FDF76BFEE38F9BB2002BD3D1B4F87B
:1058200046309BB2002BCED12A4631462046FFF7A8
:10583000C5FC10B1202323660120236EDBB10120BB
:1058400020E70220BDE8F883B4F846309BB2002B75
:10585000EAD022689368980726D4936813F001036E
:1058600010D1FDF743FE401BB0428DD2E38F9BB2B7
:10587000002BEED1E8E7012384F85D3002E7012F29
:105880009CD192E7B4F8461089B20029E9D0D168DA
:10589000226C22F8021B1F46B4F846302264013BFA
:1058A0009BB2A4F84630DCE7E38F9BB2002BD4D048
:1058B000002FD2D0A36B33F8021BD160A363E38F18
:1058C000013B9BB20027E387C7E7002B7FF41EAFA5
:1058D000E38F9BB2012B3AD9494631F8023BD360A2
:1058E000E38FA163023B9BB2E3870FE71F46236C64
:1058F000127B1A70236C01332364B4F84630013BE9
:105900009BB2A4F8463038E7E38F9BB2012BA36B20
:1059100009D933F8021BD160A363E38F023B9BB22A
:105920000027E38706E71B781373E38FA26B013B25
:1059300001329BB2A263E38722680027FAE641F4B2
:1059400080515160116849067FF5D6AEC0E799F8DD
:1059500000301373E38FA26B013B01329BB2A26351
:10596000E387D3E62DE9F04390F85D60012E85B022
:10597000044640F08D801D464368B3F5827F914612
:105980008846F7B200F08C8094F85C30012B00F070
:10599000CB80012384F85C30FDF7A8FD0646B8F102
:1059A000000F76D0B9F1000F73D00422002384F8E1
:1059B0005D2022682366E168A4F84690E387C4E985
:1059C0001333A363A3875368C4F84080B1F5E06F35
:1059D0008CBF23F4805343F48053A4F84490536065
:1059E000A068B0F5004F134607D1106820F04000C2
:1059F0001060106820F4804010601068400603D4E6
:105A0000106840F040001060B1F5E06F40F2918006
:105A1000B4F8461089B2A1B1691C60D19368DB0764
:105A200066D5236CD16823F8021BB4F846102364B2
:105A3000013989B2A4F84610B4F846309BB2002B65
:105A4000ECD16368B3F5827F00F0B980FDF74EFDBD
:105A500005EB0608A8EB0008FDF748FD7F4B1B6827
:105A6000C3F3CB3308FB03F381460393691C23681C
:105A700047D199680A06FCD46368B3F5827F00F0C9
:105A8000AC80236E2BB9012284F85D201F4600E014
:105A90000227002384F85C30384605B0BDE8F08367
:105AA0008368002B7FF470AF00950425134680F8BF
:105AB0005D500A46FFF7CAFD0746EDE7226CDB683A
:105AC00022F8023BB4F846302264013B9BB2A4F8B2
:105AD0004630B4F846309BB2002BB2D023689A68A7
